{
	"contracts/TccPost.sol": {
		"TccPost": {
			"abi": [
				{
					"inputs": [
						{
							"internalType": "contract TccUser",
							"name": "_user",
							"type": "address"
						}
					],
					"stateMutability": "nonpayable",
					"type": "constructor"
				},
				{
					"inputs": [
						{
							"internalType": "string",
							"name": "_title",
							"type": "string"
						},
						{
							"internalType": "string",
							"name": "_body",
							"type": "string"
						},
						{
							"internalType": "address",
							"name": "_walletAddress",
							"type": "address"
						}
					],
					"name": "createPost",
					"outputs": [],
					"stateMutability": "nonpayable",
					"type": "function"
				},
				{
					"inputs": [
						{
							"internalType": "uint256",
							"name": "_postId",
							"type": "uint256"
						},
						{
							"internalType": "address",
							"name": "_walletAddress",
							"type": "address"
						}
					],
					"name": "deletePost",
					"outputs": [],
					"stateMutability": "nonpayable",
					"type": "function"
				},
				{
					"inputs": [
						{
							"internalType": "uint256",
							"name": "_postId",
							"type": "uint256"
						}
					],
					"name": "getPost",
					"outputs": [
						{
							"components": [
								{
									"internalType": "string",
									"name": "title",
									"type": "string"
								},
								{
									"internalType": "string",
									"name": "body",
									"type": "string"
								},
								{
									"internalType": "string",
									"name": "username",
									"type": "string"
								}
							],
							"internalType": "struct TccPost.Post",
							"name": "",
							"type": "tuple"
						}
					],
					"stateMutability": "view",
					"type": "function"
				},
				{
					"inputs": [
						{
							"internalType": "uint256",
							"name": "_page",
							"type": "uint256"
						},
						{
							"internalType": "uint256",
							"name": "_pageSize",
							"type": "uint256"
						}
					],
					"name": "getPosts",
					"outputs": [
						{
							"internalType": "string[]",
							"name": "",
							"type": "string[]"
						},
						{
							"internalType": "string[]",
							"name": "",
							"type": "string[]"
						},
						{
							"internalType": "string[]",
							"name": "",
							"type": "string[]"
						},
						{
							"internalType": "uint256[]",
							"name": "",
							"type": "uint256[]"
						}
					],
					"stateMutability": "view",
					"type": "function"
				},
				{
					"inputs": [
						{
							"internalType": "uint256",
							"name": "_postId",
							"type": "uint256"
						}
					],
					"name": "postExist",
					"outputs": [
						{
							"components": [
								{
									"internalType": "string",
									"name": "title",
									"type": "string"
								},
								{
									"internalType": "string",
									"name": "body",
									"type": "string"
								},
								{
									"internalType": "string",
									"name": "username",
									"type": "string"
								}
							],
							"internalType": "struct TccPost.Post",
							"name": "",
							"type": "tuple"
						}
					],
					"stateMutability": "view",
					"type": "function"
				},
				{
					"inputs": [
						{
							"internalType": "uint256",
							"name": "",
							"type": "uint256"
						}
					],
					"name": "posts",
					"outputs": [
						{
							"internalType": "string",
							"name": "title",
							"type": "string"
						},
						{
							"internalType": "string",
							"name": "body",
							"type": "string"
						},
						{
							"internalType": "string",
							"name": "username",
							"type": "string"
						}
					],
					"stateMutability": "view",
					"type": "function"
				},
				{
					"inputs": [
						{
							"internalType": "uint256",
							"name": "_postId",
							"type": "uint256"
						},
						{
							"internalType": "string",
							"name": "_title",
							"type": "string"
						},
						{
							"internalType": "string",
							"name": "_body",
							"type": "string"
						},
						{
							"internalType": "address",
							"name": "_walletAddress",
							"type": "address"
						}
					],
					"name": "updatePost",
					"outputs": [],
					"stateMutability": "nonpayable",
					"type": "function"
				}
			],
			"devdoc": {
				"kind": "dev",
				"methods": {},
				"version": 1
			},
			"evm": {
				"assembly": "    /* \"contracts/TccPost.sol\":82:3222  contract TccPost {... */\n  mstore(0x40, 0x80)\n    /* \"contracts/TccPost.sol\":237:238  0 */\n  0x00\n    /* \"contracts/TccPost.sol\":217:238  uint256 postCount = 0 */\n  0x01\n  sstore\n    /* \"contracts/TccPost.sol\":289:345  constructor(TccUser _user) {... */\n  callvalue\n  dup1\n  iszero\n  tag_1\n  jumpi\n  0x00\n  dup1\n  revert\ntag_1:\n  pop\n  mload(0x40)\n  sub(codesize, bytecodeSize)\n  dup1\n  bytecodeSize\n  dup4\n  codecopy\n  dup2\n  dup2\n  add\n  0x40\n  mstore\n  dup2\n  add\n  swap1\n  tag_2\n  swap2\n  swap1\n  tag_3\n  jump\t// in\ntag_2:\n    /* \"contracts/TccPost.sol\":333:338  _user */\n  dup1\n    /* \"contracts/TccPost.sol\":326:330  user */\n  0x00\n  dup1\n    /* \"contracts/TccPost.sol\":326:338  user = _user */\n  0x0100\n  exp\n  dup2\n  sload\n  dup2\n  0xffffffffffffffffffffffffffffffffffffffff\n  mul\n  not\n  and\n  swap1\n  dup4\n  0xffffffffffffffffffffffffffffffffffffffff\n  and\n  mul\n  or\n  swap1\n  sstore\n  pop\n    /* \"contracts/TccPost.sol\":289:345  constructor(TccUser _user) {... */\n  pop\n    /* \"contracts/TccPost.sol\":82:3222  contract TccPost {... */\n  jump(tag_6)\n    /* \"#utility.yul\":88:205   */\ntag_8:\n    /* \"#utility.yul\":197:198   */\n  0x00\n    /* \"#utility.yul\":194:195   */\n  dup1\n    /* \"#utility.yul\":187:199   */\n  revert\n    /* \"#utility.yul\":334:460   */\ntag_10:\n    /* \"#utility.yul\":371:378   */\n  0x00\n    /* \"#utility.yul\":411:453   */\n  0xffffffffffffffffffffffffffffffffffffffff\n    /* \"#utility.yul\":404:409   */\n  dup3\n    /* \"#utility.yul\":400:454   */\n  and\n    /* \"#utility.yul\":389:454   */\n  swap1\n  pop\n    /* \"#utility.yul\":334:460   */\n  swap2\n  swap1\n  pop\n  jump\t// out\n    /* \"#utility.yul\":466:562   */\ntag_11:\n    /* \"#utility.yul\":503:510   */\n  0x00\n    /* \"#utility.yul\":532:556   */\n  tag_21\n    /* \"#utility.yul\":550:555   */\n  dup3\n    /* \"#utility.yul\":532:556   */\n  tag_10\n  jump\t// in\ntag_21:\n    /* \"#utility.yul\":521:556   */\n  swap1\n  pop\n    /* \"#utility.yul\":466:562   */\n  swap2\n  swap1\n  pop\n  jump\t// out\n    /* \"#utility.yul\":568:679   */\ntag_12:\n    /* \"#utility.yul\":620:627   */\n  0x00\n    /* \"#utility.yul\":649:673   */\n  tag_23\n    /* \"#utility.yul\":667:672   */\n  dup3\n    /* \"#utility.yul\":649:673   */\n  tag_11\n  jump\t// in\ntag_23:\n    /* \"#utility.yul\":638:673   */\n  swap1\n  pop\n    /* \"#utility.yul\":568:679   */\n  swap2\n  swap1\n  pop\n  jump\t// out\n    /* \"#utility.yul\":685:837   */\ntag_13:\n    /* \"#utility.yul\":773:812   */\n  tag_25\n    /* \"#utility.yul\":806:811   */\n  dup2\n    /* \"#utility.yul\":773:812   */\n  tag_12\n  jump\t// in\ntag_25:\n    /* \"#utility.yul\":766:771   */\n  dup2\n    /* \"#utility.yul\":763:813   */\n  eq\n    /* \"#utility.yul\":753:831   */\n  tag_26\n  jumpi\n    /* \"#utility.yul\":827:828   */\n  0x00\n    /* \"#utility.yul\":824:825   */\n  dup1\n    /* \"#utility.yul\":817:829   */\n  revert\n    /* \"#utility.yul\":753:831   */\ntag_26:\n    /* \"#utility.yul\":685:837   */\n  pop\n  jump\t// out\n    /* \"#utility.yul\":843:1016   */\ntag_14:\n    /* \"#utility.yul\":915:920   */\n  0x00\n    /* \"#utility.yul\":946:952   */\n  dup2\n    /* \"#utility.yul\":940:953   */\n  mload\n    /* \"#utility.yul\":931:953   */\n  swap1\n  pop\n    /* \"#utility.yul\":962:1010   */\n  tag_28\n    /* \"#utility.yul\":1004:1009   */\n  dup2\n    /* \"#utility.yul\":962:1010   */\n  tag_13\n  jump\t// in\ntag_28:\n    /* \"#utility.yul\":843:1016   */\n  swap3\n  swap2\n  pop\n  pop\n  jump\t// out\n    /* \"#utility.yul\":1022:1403   */\ntag_3:\n    /* \"#utility.yul\":1107:1113   */\n  0x00\n    /* \"#utility.yul\":1156:1158   */\n  0x20\n    /* \"#utility.yul\":1144:1153   */\n  dup3\n    /* \"#utility.yul\":1135:1142   */\n  dup5\n    /* \"#utility.yul\":1131:1154   */\n  sub\n    /* \"#utility.yul\":1127:1159   */\n  slt\n    /* \"#utility.yul\":1124:1243   */\n  iszero\n  tag_30\n  jumpi\n    /* \"#utility.yul\":1162:1241   */\n  tag_31\n  tag_8\n  jump\t// in\ntag_31:\n    /* \"#utility.yul\":1124:1243   */\ntag_30:\n    /* \"#utility.yul\":1282:1283   */\n  0x00\n    /* \"#utility.yul\":1307:1386   */\n  tag_32\n    /* \"#utility.yul\":1378:1385   */\n  dup5\n    /* \"#utility.yul\":1369:1375   */\n  dup3\n    /* \"#utility.yul\":1358:1367   */\n  dup6\n    /* \"#utility.yul\":1354:1376   */\n  add\n    /* \"#utility.yul\":1307:1386   */\n  tag_14\n  jump\t// in\ntag_32:\n    /* \"#utility.yul\":1297:1386   */\n  swap2\n  pop\n    /* \"#utility.yul\":1253:1396   */\n  pop\n    /* \"#utility.yul\":1022:1403   */\n  swap3\n  swap2\n  pop\n  pop\n  jump\t// out\n    /* \"contracts/TccPost.sol\":82:3222  contract TccPost {... */\ntag_6:\n  dataSize(sub_0)\n  dup1\n  dataOffset(sub_0)\n  0x00\n  codecopy\n  0x00\n  return\nstop\n\nsub_0: assembly {\n        /* \"contracts/TccPost.sol\":82:3222  contract TccPost {... */\n      mstore(0x40, 0x80)\n      callvalue\n      dup1\n      iszero\n      tag_1\n      jumpi\n      0x00\n      dup1\n      revert\n    tag_1:\n      pop\n      jumpi(tag_2, lt(calldatasize, 0x04))\n      shr(0xe0, calldataload(0x00))\n      dup1\n      0x40b4baf9\n      gt\n      tag_10\n      jumpi\n      dup1\n      0x40b4baf9\n      eq\n      tag_6\n      jumpi\n      dup1\n      0x4ffd1be6\n      eq\n      tag_7\n      jumpi\n      dup1\n      0x86240751\n      eq\n      tag_8\n      jumpi\n      dup1\n      0xe098f8bf\n      eq\n      tag_9\n      jumpi\n      jump(tag_2)\n    tag_10:\n      dup1\n      0x0b1e7f83\n      eq\n      tag_3\n      jumpi\n      dup1\n      0x3c66c162\n      eq\n      tag_4\n      jumpi\n      dup1\n      0x40731c24\n      eq\n      tag_5\n      jumpi\n    tag_2:\n      0x00\n      dup1\n      revert\n        /* \"contracts/TccPost.sol\":245:282  mapping(uint256 => Post) public posts */\n    tag_3:\n      tag_11\n      0x04\n      dup1\n      calldatasize\n      sub\n      dup2\n      add\n      swap1\n      tag_12\n      swap2\n      swap1\n      tag_13\n      jump\t// in\n    tag_12:\n      tag_14\n      jump\t// in\n    tag_11:\n      mload(0x40)\n      tag_15\n      swap4\n      swap3\n      swap2\n      swap1\n      tag_16\n      jump\t// in\n    tag_15:\n      mload(0x40)\n      dup1\n      swap2\n      sub\n      swap1\n      return\n        /* \"contracts/TccPost.sol\":1665:2019  function updatePost(... */\n    tag_4:\n      tag_17\n      0x04\n      dup1\n      calldatasize\n      sub\n      dup2\n      add\n      swap1\n      tag_18\n      swap2\n      swap1\n      tag_19\n      jump\t// in\n    tag_18:\n      tag_20\n      jump\t// in\n    tag_17:\n      stop\n        /* \"contracts/TccPost.sol\":1309:1443  function getPost(uint256 _postId) public view returns (Post memory) {... */\n    tag_5:\n      tag_21\n      0x04\n      dup1\n      calldatasize\n      sub\n      dup2\n      add\n      swap1\n      tag_22\n      swap2\n      swap1\n      tag_13\n      jump\t// in\n    tag_22:\n      tag_23\n      jump\t// in\n    tag_21:\n      mload(0x40)\n      tag_24\n      swap2\n      swap1\n      tag_25\n      jump\t// in\n    tag_24:\n      mload(0x40)\n      dup1\n      swap2\n      sub\n      swap1\n      return\n        /* \"contracts/TccPost.sol\":1468:1659  function deletePost(uint256 _postId, address _walletAddress)... */\n    tag_6:\n      tag_26\n      0x04\n      dup1\n      calldatasize\n      sub\n      dup2\n      add\n      swap1\n      tag_27\n      swap2\n      swap1\n      tag_28\n      jump\t// in\n    tag_27:\n      tag_29\n      jump\t// in\n    tag_26:\n      stop\n        /* \"contracts/TccPost.sol\":2050:3220  function getPosts(uint256 _page, uint256 _pageSize)... */\n    tag_7:\n      tag_30\n      0x04\n      dup1\n      calldatasize\n      sub\n      dup2\n      add\n      swap1\n      tag_31\n      swap2\n      swap1\n      tag_32\n      jump\t// in\n    tag_31:\n      tag_33\n      jump\t// in\n    tag_30:\n      mload(0x40)\n      tag_34\n      swap5\n      swap4\n      swap3\n      swap2\n      swap1\n      tag_35\n      jump\t// in\n    tag_34:\n      mload(0x40)\n      dup1\n      swap2\n      sub\n      swap1\n      return\n        /* \"contracts/TccPost.sol\":991:1278  function createPost(... */\n    tag_8:\n      tag_36\n      0x04\n      dup1\n      calldatasize\n      sub\n      dup2\n      add\n      swap1\n      tag_37\n      swap2\n      swap1\n      tag_38\n      jump\t// in\n    tag_37:\n      tag_39\n      jump\t// in\n    tag_36:\n      stop\n        /* \"contracts/TccPost.sol\":758:966  function postExist(uint256 _postId) public view returns (Post memory) {... */\n    tag_9:\n      tag_40\n      0x04\n      dup1\n      calldatasize\n      sub\n      dup2\n      add\n      swap1\n      tag_41\n      swap2\n      swap1\n      tag_13\n      jump\t// in\n    tag_41:\n      tag_42\n      jump\t// in\n    tag_40:\n      mload(0x40)\n      tag_43\n      swap2\n      swap1\n      tag_25\n      jump\t// in\n    tag_43:\n      mload(0x40)\n      dup1\n      swap2\n      sub\n      swap1\n      return\n        /* \"contracts/TccPost.sol\":245:282  mapping(uint256 => Post) public posts */\n    tag_14:\n      mstore(0x20, 0x02)\n      dup1\n      0x00\n      mstore\n      keccak256(0x00, 0x40)\n      0x00\n      swap2\n      pop\n      swap1\n      pop\n      dup1\n      0x00\n      add\n      dup1\n      sload\n      tag_44\n      swap1\n      tag_45\n      jump\t// in\n    tag_44:\n      dup1\n      0x1f\n      add\n      0x20\n      dup1\n      swap2\n      div\n      mul\n      0x20\n      add\n      mload(0x40)\n      swap1\n      dup2\n      add\n      0x40\n      mstore\n      dup1\n      swap3\n      swap2\n      swap1\n      dup2\n      dup2\n      mstore\n      0x20\n      add\n      dup3\n      dup1\n      sload\n      tag_46\n      swap1\n      tag_45\n      jump\t// in\n    tag_46:\n      dup1\n      iszero\n      tag_47\n      jumpi\n      dup1\n      0x1f\n      lt\n      tag_48\n      jumpi\n      0x0100\n      dup1\n      dup4\n      sload\n      div\n      mul\n      dup4\n      mstore\n      swap2\n      0x20\n      add\n      swap2\n      jump(tag_47)\n    tag_48:\n      dup3\n      add\n      swap2\n      swap1\n      0x00\n      mstore\n      keccak256(0x00, 0x20)\n      swap1\n    tag_49:\n      dup2\n      sload\n      dup2\n      mstore\n      swap1\n      0x01\n      add\n      swap1\n      0x20\n      add\n      dup1\n      dup4\n      gt\n      tag_49\n      jumpi\n      dup3\n      swap1\n      sub\n      0x1f\n      and\n      dup3\n      add\n      swap2\n    tag_47:\n      pop\n      pop\n      pop\n      pop\n      pop\n      swap1\n      dup1\n      0x01\n      add\n      dup1\n      sload\n      tag_50\n      swap1\n      tag_45\n      jump\t// in\n    tag_50:\n      dup1\n      0x1f\n      add\n      0x20\n      dup1\n      swap2\n      div\n      mul\n      0x20\n      add\n      mload(0x40)\n      swap1\n      dup2\n      add\n      0x40\n      mstore\n      dup1\n      swap3\n      swap2\n      swap1\n      dup2\n      dup2\n      mstore\n      0x20\n      add\n      dup3\n      dup1\n      sload\n      tag_51\n      swap1\n      tag_45\n      jump\t// in\n    tag_51:\n      dup1\n      iszero\n      tag_52\n      jumpi\n      dup1\n      0x1f\n      lt\n      tag_53\n      jumpi\n      0x0100\n      dup1\n      dup4\n      sload\n      div\n      mul\n      dup4\n      mstore\n      swap2\n      0x20\n      add\n      swap2\n      jump(tag_52)\n    tag_53:\n      dup3\n      add\n      swap2\n      swap1\n      0x00\n      mstore\n      keccak256(0x00, 0x20)\n      swap1\n    tag_54:\n      dup2\n      sload\n      dup2\n      mstore\n      swap1\n      0x01\n      add\n      swap1\n      0x20\n      add\n      dup1\n      dup4\n      gt\n      tag_54\n      jumpi\n      dup3\n      swap1\n      sub\n      0x1f\n      and\n      dup3\n      add\n      swap2\n    tag_52:\n      pop\n      pop\n      pop\n      pop\n      pop\n      swap1\n      dup1\n      0x02\n      add\n      dup1\n      sload\n      tag_55\n      swap1\n      tag_45\n      jump\t// in\n    tag_55:\n      dup1\n      0x1f\n      add\n      0x20\n      dup1\n      swap2\n      div\n      mul\n      0x20\n      add\n      mload(0x40)\n      swap1\n      dup2\n      add\n      0x40\n      mstore\n      dup1\n      swap3\n      swap2\n      swap1\n      dup2\n      dup2\n      mstore\n      0x20\n      add\n      dup3\n      dup1\n      sload\n      tag_56\n      swap1\n      tag_45\n      jump\t// in\n    tag_56:\n      dup1\n      iszero\n      tag_57\n      jumpi\n      dup1\n      0x1f\n      lt\n      tag_58\n      jumpi\n      0x0100\n      dup1\n      dup4\n      sload\n      div\n      mul\n      dup4\n      mstore\n      swap2\n      0x20\n      add\n      swap2\n      jump(tag_57)\n    tag_58:\n      dup3\n      add\n      swap2\n      swap1\n      0x00\n      mstore\n      keccak256(0x00, 0x20)\n      swap1\n    tag_59:\n      dup2\n      sload\n      dup2\n      mstore\n      swap1\n      0x01\n      add\n      swap1\n      0x20\n      add\n      dup1\n      dup4\n      gt\n      tag_59\n      jumpi\n      dup3\n      swap1\n      sub\n      0x1f\n      and\n      dup3\n      add\n      swap2\n    tag_57:\n      pop\n      pop\n      pop\n      pop\n      pop\n      swap1\n      pop\n      dup4\n      jump\t// out\n        /* \"contracts/TccPost.sol\":1665:2019  function updatePost(... */\n    tag_20:\n        /* \"contracts/TccPost.sol\":1826:1833  _postId */\n      dup4\n        /* \"contracts/TccPost.sol\":1835:1849  _walletAddress */\n      dup2\n        /* \"contracts/TccPost.sol\":423:439  Post memory post */\n      0x00\n        /* \"contracts/TccPost.sol\":442:460  postExist(_postId) */\n      tag_61\n        /* \"contracts/TccPost.sol\":452:459  _postId */\n      dup4\n        /* \"contracts/TccPost.sol\":442:451  postExist */\n      tag_42\n        /* \"contracts/TccPost.sol\":442:460  postExist(_postId) */\n      jump\t// in\n    tag_61:\n        /* \"contracts/TccPost.sol\":423:460  Post memory post = postExist(_postId) */\n      swap1\n      pop\n        /* \"contracts/TccPost.sol\":602:606  user */\n      0x00\n      dup1\n      sload\n      swap1\n      0x0100\n      exp\n      swap1\n      div\n      0xffffffffffffffffffffffffffffffffffffffff\n      and\n        /* \"contracts/TccPost.sol\":602:625  user.getCurrentUserName */\n      0xffffffffffffffffffffffffffffffffffffffff\n      and\n      0x1c6a0254\n        /* \"contracts/TccPost.sol\":626:640  _walletAddress */\n      dup4\n        /* \"contracts/TccPost.sol\":602:641  user.getCurrentUserName(_walletAddress) */\n      mload(0x40)\n      dup3\n      0xffffffff\n      and\n      0xe0\n      shl\n      dup2\n      mstore\n      0x04\n      add\n      tag_62\n      swap2\n      swap1\n      tag_63\n      jump\t// in\n    tag_62:\n      0x00\n      mload(0x40)\n      dup1\n      dup4\n      sub\n      dup2\n      dup7\n      gas\n      staticcall\n      iszero\n      dup1\n      iszero\n      tag_65\n      jumpi\n      returndatasize\n      0x00\n      dup1\n      returndatacopy\n      revert(0x00, returndatasize)\n    tag_65:\n      pop\n      pop\n      pop\n      pop\n      mload(0x40)\n      returndatasize\n      0x00\n      dup3\n      returndatacopy\n      returndatasize\n      not(0x1f)\n      0x1f\n      dup3\n      add\n      and\n      dup3\n      add\n      dup1\n      0x40\n      mstore\n      pop\n      dup2\n      add\n      swap1\n      tag_66\n      swap2\n      swap1\n      tag_67\n      jump\t// in\n    tag_66:\n        /* \"contracts/TccPost.sol\":585:642  abi.encodePacked(user.getCurrentUserName(_walletAddress)) */\n      add(0x20, mload(0x40))\n      tag_68\n      swap2\n      swap1\n      tag_69\n      jump\t// in\n    tag_68:\n      mload(0x40)\n      0x20\n      dup2\n      dup4\n      sub\n      sub\n      dup2\n      mstore\n      swap1\n      0x40\n      mstore\n        /* \"contracts/TccPost.sol\":554:660  keccak256(... */\n      dup1\n      mload\n      swap1\n      0x20\n      add\n      keccak256\n        /* \"contracts/TccPost.sol\":519:523  post */\n      dup2\n        /* \"contracts/TccPost.sol\":519:532  post.username */\n      0x40\n      add\n      mload\n        /* \"contracts/TccPost.sol\":502:533  abi.encodePacked(post.username) */\n      add(0x20, mload(0x40))\n      tag_70\n      swap2\n      swap1\n      tag_69\n      jump\t// in\n    tag_70:\n      mload(0x40)\n      0x20\n      dup2\n      dup4\n      sub\n      sub\n      dup2\n      mstore\n      swap1\n      0x40\n      mstore\n        /* \"contracts/TccPost.sol\":492:534  keccak256(abi.encodePacked(post.username)) */\n      dup1\n      mload\n      swap1\n      0x20\n      add\n      keccak256\n        /* \"contracts/TccPost.sol\":492:660  keccak256(abi.encodePacked(post.username)) ==... */\n      eq\n        /* \"contracts/TccPost.sol\":471:734  require(... */\n      tag_71\n      jumpi\n      mload(0x40)\n      0x08c379a000000000000000000000000000000000000000000000000000000000\n      dup2\n      mstore\n      0x04\n      add\n      tag_72\n      swap1\n      tag_73\n      jump\t// in\n    tag_72:\n      mload(0x40)\n      dup1\n      swap2\n      sub\n      swap1\n      revert\n    tag_71:\n        /* \"contracts/TccPost.sol\":1861:1879  postExist(_postId) */\n      tag_75\n        /* \"contracts/TccPost.sol\":1871:1878  _postId */\n      dup8\n        /* \"contracts/TccPost.sol\":1861:1870  postExist */\n      tag_42\n        /* \"contracts/TccPost.sol\":1861:1879  postExist(_postId) */\n      jump\t// in\n    tag_75:\n      pop\n        /* \"contracts/TccPost.sol\":1906:2012  Post(... */\n      mload(0x40)\n      dup1\n      0x60\n      add\n      0x40\n      mstore\n      dup1\n        /* \"contracts/TccPost.sol\":1924:1930  _title */\n      dup8\n        /* \"contracts/TccPost.sol\":1906:2012  Post(... */\n      dup2\n      mstore\n      0x20\n      add\n        /* \"contracts/TccPost.sol\":1944:1949  _body */\n      dup7\n        /* \"contracts/TccPost.sol\":1906:2012  Post(... */\n      dup2\n      mstore\n      0x20\n      add\n        /* \"contracts/TccPost.sol\":1963:1967  user */\n      0x00\n      dup1\n      sload\n      swap1\n      0x0100\n      exp\n      swap1\n      div\n      0xffffffffffffffffffffffffffffffffffffffff\n      and\n        /* \"contracts/TccPost.sol\":1963:1986  user.getCurrentUserName */\n      0xffffffffffffffffffffffffffffffffffffffff\n      and\n      0x1c6a0254\n        /* \"contracts/TccPost.sol\":1987:2001  _walletAddress */\n      dup8\n        /* \"contracts/TccPost.sol\":1963:2002  user.getCurrentUserName(_walletAddress) */\n      mload(0x40)\n      dup3\n      0xffffffff\n      and\n      0xe0\n      shl\n      dup2\n      mstore\n      0x04\n      add\n      tag_76\n      swap2\n      swap1\n      tag_63\n      jump\t// in\n    tag_76:\n      0x00\n      mload(0x40)\n      dup1\n      dup4\n      sub\n      dup2\n      dup7\n      gas\n      staticcall\n      iszero\n      dup1\n      iszero\n      tag_78\n      jumpi\n      returndatasize\n      0x00\n      dup1\n      returndatacopy\n      revert(0x00, returndatasize)\n    tag_78:\n      pop\n      pop\n      pop\n      pop\n      mload(0x40)\n      returndatasize\n      0x00\n      dup3\n      returndatacopy\n      returndatasize\n      not(0x1f)\n      0x1f\n      dup3\n      add\n      and\n      dup3\n      add\n      dup1\n      0x40\n      mstore\n      pop\n      dup2\n      add\n      swap1\n      tag_79\n      swap2\n      swap1\n      tag_67\n      jump\t// in\n    tag_79:\n        /* \"contracts/TccPost.sol\":1906:2012  Post(... */\n      dup2\n      mstore\n      pop\n        /* \"contracts/TccPost.sol\":1889:1894  posts */\n      0x02\n        /* \"contracts/TccPost.sol\":1889:1903  posts[_postId] */\n      0x00\n        /* \"contracts/TccPost.sol\":1895:1902  _postId */\n      dup10\n        /* \"contracts/TccPost.sol\":1889:1903  posts[_postId] */\n      dup2\n      mstore\n      0x20\n      add\n      swap1\n      dup2\n      mstore\n      0x20\n      add\n      0x00\n      keccak256\n        /* \"contracts/TccPost.sol\":1889:2012  posts[_postId] = Post(... */\n      0x00\n      dup3\n      add\n      mload\n      dup2\n      0x00\n      add\n      swap1\n      dup2\n      tag_80\n      swap2\n      swap1\n      tag_81\n      jump\t// in\n    tag_80:\n      pop\n      0x20\n      dup3\n      add\n      mload\n      dup2\n      0x01\n      add\n      swap1\n      dup2\n      tag_82\n      swap2\n      swap1\n      tag_81\n      jump\t// in\n    tag_82:\n      pop\n      0x40\n      dup3\n      add\n      mload\n      dup2\n      0x02\n      add\n      swap1\n      dup2\n      tag_83\n      swap2\n      swap1\n      tag_81\n      jump\t// in\n    tag_83:\n      pop\n      swap1\n      pop\n      pop\n        /* \"contracts/TccPost.sol\":413:752  {... */\n      pop\n        /* \"contracts/TccPost.sol\":1665:2019  function updatePost(... */\n      pop\n      pop\n      pop\n      pop\n      pop\n      pop\n      jump\t// out\n        /* \"contracts/TccPost.sol\":1309:1443  function getPost(uint256 _postId) public view returns (Post memory) {... */\n    tag_23:\n        /* \"contracts/TccPost.sol\":1364:1375  Post memory */\n      tag_84\n      tag_85\n      jump\t// in\n    tag_84:\n        /* \"contracts/TccPost.sol\":1387:1405  postExist(_postId) */\n      tag_87\n        /* \"contracts/TccPost.sol\":1397:1404  _postId */\n      dup3\n        /* \"contracts/TccPost.sol\":1387:1396  postExist */\n      tag_42\n        /* \"contracts/TccPost.sol\":1387:1405  postExist(_postId) */\n      jump\t// in\n    tag_87:\n      pop\n        /* \"contracts/TccPost.sol\":1422:1427  posts */\n      0x02\n        /* \"contracts/TccPost.sol\":1422:1436  posts[_postId] */\n      0x00\n        /* \"contracts/TccPost.sol\":1428:1435  _postId */\n      dup4\n        /* \"contracts/TccPost.sol\":1422:1436  posts[_postId] */\n      dup2\n      mstore\n      0x20\n      add\n      swap1\n      dup2\n      mstore\n      0x20\n      add\n      0x00\n      keccak256\n        /* \"contracts/TccPost.sol\":1415:1436  return posts[_postId] */\n      mload(0x40)\n      dup1\n      0x60\n      add\n      0x40\n      mstore\n      swap1\n      dup2\n      0x00\n      dup3\n      add\n      dup1\n      sload\n      tag_88\n      swap1\n      tag_45\n      jump\t// in\n    tag_88:\n      dup1\n      0x1f\n      add\n      0x20\n      dup1\n      swap2\n      div\n      mul\n      0x20\n      add\n      mload(0x40)\n      swap1\n      dup2\n      add\n      0x40\n      mstore\n      dup1\n      swap3\n      swap2\n      swap1\n      dup2\n      dup2\n      mstore\n      0x20\n      add\n      dup3\n      dup1\n      sload\n      tag_89\n      swap1\n      tag_45\n      jump\t// in\n    tag_89:\n      dup1\n      iszero\n      tag_90\n      jumpi\n      dup1\n      0x1f\n      lt\n      tag_91\n      jumpi\n      0x0100\n      dup1\n      dup4\n      sload\n      div\n      mul\n      dup4\n      mstore\n      swap2\n      0x20\n      add\n      swap2\n      jump(tag_90)\n    tag_91:\n      dup3\n      add\n      swap2\n      swap1\n      0x00\n      mstore\n      keccak256(0x00, 0x20)\n      swap1\n    tag_92:\n      dup2\n      sload\n      dup2\n      mstore\n      swap1\n      0x01\n      add\n      swap1\n      0x20\n      add\n      dup1\n      dup4\n      gt\n      tag_92\n      jumpi\n      dup3\n      swap1\n      sub\n      0x1f\n      and\n      dup3\n      add\n      swap2\n    tag_90:\n      pop\n      pop\n      pop\n      pop\n      pop\n      dup2\n      mstore\n      0x20\n      add\n      0x01\n      dup3\n      add\n      dup1\n      sload\n      tag_93\n      swap1\n      tag_45\n      jump\t// in\n    tag_93:\n      dup1\n      0x1f\n      add\n      0x20\n      dup1\n      swap2\n      div\n      mul\n      0x20\n      add\n      mload(0x40)\n      swap1\n      dup2\n      add\n      0x40\n      mstore\n      dup1\n      swap3\n      swap2\n      swap1\n      dup2\n      dup2\n      mstore\n      0x20\n      add\n      dup3\n      dup1\n      sload\n      tag_94\n      swap1\n      tag_45\n      jump\t// in\n    tag_94:\n      dup1\n      iszero\n      tag_95\n      jumpi\n      dup1\n      0x1f\n      lt\n      tag_96\n      jumpi\n      0x0100\n      dup1\n      dup4\n      sload\n      div\n      mul\n      dup4\n      mstore\n      swap2\n      0x20\n      add\n      swap2\n      jump(tag_95)\n    tag_96:\n      dup3\n      add\n      swap2\n      swap1\n      0x00\n      mstore\n      keccak256(0x00, 0x20)\n      swap1\n    tag_97:\n      dup2\n      sload\n      dup2\n      mstore\n      swap1\n      0x01\n      add\n      swap1\n      0x20\n      add\n      dup1\n      dup4\n      gt\n      tag_97\n      jumpi\n      dup3\n      swap1\n      sub\n      0x1f\n      and\n      dup3\n      add\n      swap2\n    tag_95:\n      pop\n      pop\n      pop\n      pop\n      pop\n      dup2\n      mstore\n      0x20\n      add\n      0x02\n      dup3\n      add\n      dup1\n      sload\n      tag_98\n      swap1\n      tag_45\n      jump\t// in\n    tag_98:\n      dup1\n      0x1f\n      add\n      0x20\n      dup1\n      swap2\n      div\n      mul\n      0x20\n      add\n      mload(0x40)\n      swap1\n      dup2\n      add\n      0x40\n      mstore\n      dup1\n      swap3\n      swap2\n      swap1\n      dup2\n      dup2\n      mstore\n      0x20\n      add\n      dup3\n      dup1\n      sload\n      tag_99\n      swap1\n      tag_45\n      jump\t// in\n    tag_99:\n      dup1\n      iszero\n      tag_100\n      jumpi\n      dup1\n      0x1f\n      lt\n      tag_101\n      jumpi\n      0x0100\n      dup1\n      dup4\n      sload\n      div\n      mul\n      dup4\n      mstore\n      swap2\n      0x20\n      add\n      swap2\n      jump(tag_100)\n    tag_101:\n      dup3\n      add\n      swap2\n      swap1\n      0x00\n      mstore\n      keccak256(0x00, 0x20)\n      swap1\n    tag_102:\n      dup2\n      sload\n      dup2\n      mstore\n      swap1\n      0x01\n      add\n      swap1\n      0x20\n      add\n      dup1\n      dup4\n      gt\n      tag_102\n      jumpi\n      dup3\n      swap1\n      sub\n      0x1f\n      and\n      dup3\n      add\n      swap2\n    tag_100:\n      pop\n      pop\n      pop\n      pop\n      pop\n      dup2\n      mstore\n      pop\n      pop\n      swap1\n      pop\n        /* \"contracts/TccPost.sol\":1309:1443  function getPost(uint256 _postId) public view returns (Post memory) {... */\n      swap2\n      swap1\n      pop\n      jump\t// out\n        /* \"contracts/TccPost.sol\":1468:1659  function deletePost(uint256 _postId, address _walletAddress)... */\n    tag_29:\n        /* \"contracts/TccPost.sol\":1564:1571  _postId */\n      dup2\n        /* \"contracts/TccPost.sol\":1573:1587  _walletAddress */\n      dup2\n        /* \"contracts/TccPost.sol\":423:439  Post memory post */\n      0x00\n        /* \"contracts/TccPost.sol\":442:460  postExist(_postId) */\n      tag_104\n        /* \"contracts/TccPost.sol\":452:459  _postId */\n      dup4\n        /* \"contracts/TccPost.sol\":442:451  postExist */\n      tag_42\n        /* \"contracts/TccPost.sol\":442:460  postExist(_postId) */\n      jump\t// in\n    tag_104:\n        /* \"contracts/TccPost.sol\":423:460  Post memory post = postExist(_postId) */\n      swap1\n      pop\n        /* \"contracts/TccPost.sol\":602:606  user */\n      0x00\n      dup1\n      sload\n      swap1\n      0x0100\n      exp\n      swap1\n      div\n      0xffffffffffffffffffffffffffffffffffffffff\n      and\n        /* \"contracts/TccPost.sol\":602:625  user.getCurrentUserName */\n      0xffffffffffffffffffffffffffffffffffffffff\n      and\n      0x1c6a0254\n        /* \"contracts/TccPost.sol\":626:640  _walletAddress */\n      dup4\n        /* \"contracts/TccPost.sol\":602:641  user.getCurrentUserName(_walletAddress) */\n      mload(0x40)\n      dup3\n      0xffffffff\n      and\n      0xe0\n      shl\n      dup2\n      mstore\n      0x04\n      add\n      tag_105\n      swap2\n      swap1\n      tag_63\n      jump\t// in\n    tag_105:\n      0x00\n      mload(0x40)\n      dup1\n      dup4\n      sub\n      dup2\n      dup7\n      gas\n      staticcall\n      iszero\n      dup1\n      iszero\n      tag_107\n      jumpi\n      returndatasize\n      0x00\n      dup1\n      returndatacopy\n      revert(0x00, returndatasize)\n    tag_107:\n      pop\n      pop\n      pop\n      pop\n      mload(0x40)\n      returndatasize\n      0x00\n      dup3\n      returndatacopy\n      returndatasize\n      not(0x1f)\n      0x1f\n      dup3\n      add\n      and\n      dup3\n      add\n      dup1\n      0x40\n      mstore\n      pop\n      dup2\n      add\n      swap1\n      tag_108\n      swap2\n      swap1\n      tag_67\n      jump\t// in\n    tag_108:\n        /* \"contracts/TccPost.sol\":585:642  abi.encodePacked(user.getCurrentUserName(_walletAddress)) */\n      add(0x20, mload(0x40))\n      tag_109\n      swap2\n      swap1\n      tag_69\n      jump\t// in\n    tag_109:\n      mload(0x40)\n      0x20\n      dup2\n      dup4\n      sub\n      sub\n      dup2\n      mstore\n      swap1\n      0x40\n      mstore\n        /* \"contracts/TccPost.sol\":554:660  keccak256(... */\n      dup1\n      mload\n      swap1\n      0x20\n      add\n      keccak256\n        /* \"contracts/TccPost.sol\":519:523  post */\n      dup2\n        /* \"contracts/TccPost.sol\":519:532  post.username */\n      0x40\n      add\n      mload\n        /* \"contracts/TccPost.sol\":502:533  abi.encodePacked(post.username) */\n      add(0x20, mload(0x40))\n      tag_110\n      swap2\n      swap1\n      tag_69\n      jump\t// in\n    tag_110:\n      mload(0x40)\n      0x20\n      dup2\n      dup4\n      sub\n      sub\n      dup2\n      mstore\n      swap1\n      0x40\n      mstore\n        /* \"contracts/TccPost.sol\":492:534  keccak256(abi.encodePacked(post.username)) */\n      dup1\n      mload\n      swap1\n      0x20\n      add\n      keccak256\n        /* \"contracts/TccPost.sol\":492:660  keccak256(abi.encodePacked(post.username)) ==... */\n      eq\n        /* \"contracts/TccPost.sol\":471:734  require(... */\n      tag_111\n      jumpi\n      mload(0x40)\n      0x08c379a000000000000000000000000000000000000000000000000000000000\n      dup2\n      mstore\n      0x04\n      add\n      tag_112\n      swap1\n      tag_73\n      jump\t// in\n    tag_112:\n      mload(0x40)\n      dup1\n      swap2\n      sub\n      swap1\n      revert\n    tag_111:\n        /* \"contracts/TccPost.sol\":1603:1621  postExist(_postId) */\n      tag_114\n        /* \"contracts/TccPost.sol\":1613:1620  _postId */\n      dup6\n        /* \"contracts/TccPost.sol\":1603:1612  postExist */\n      tag_42\n        /* \"contracts/TccPost.sol\":1603:1621  postExist(_postId) */\n      jump\t// in\n    tag_114:\n      pop\n        /* \"contracts/TccPost.sol\":1638:1643  posts */\n      0x02\n        /* \"contracts/TccPost.sol\":1638:1652  posts[_postId] */\n      0x00\n        /* \"contracts/TccPost.sol\":1644:1651  _postId */\n      dup7\n        /* \"contracts/TccPost.sol\":1638:1652  posts[_postId] */\n      dup2\n      mstore\n      0x20\n      add\n      swap1\n      dup2\n      mstore\n      0x20\n      add\n      0x00\n      keccak256\n      0x00\n        /* \"contracts/TccPost.sol\":1631:1652  delete posts[_postId] */\n      dup1\n      dup3\n      add\n      0x00\n      tag_115\n      swap2\n      swap1\n      tag_116\n      jump\t// in\n    tag_115:\n      0x01\n      dup3\n      add\n      0x00\n      tag_117\n      swap2\n      swap1\n      tag_116\n      jump\t// in\n    tag_117:\n      0x02\n      dup3\n      add\n      0x00\n      tag_118\n      swap2\n      swap1\n      tag_116\n      jump\t// in\n    tag_118:\n      pop\n      pop\n        /* \"contracts/TccPost.sol\":413:752  {... */\n      pop\n        /* \"contracts/TccPost.sol\":1468:1659  function deletePost(uint256 _postId, address _walletAddress)... */\n      pop\n      pop\n      pop\n      pop\n      jump\t// out\n        /* \"contracts/TccPost.sol\":2050:3220  function getPosts(uint256 _page, uint256 _pageSize)... */\n    tag_33:\n        /* \"contracts/TccPost.sol\":2160:2175  string[] memory */\n      0x60\n        /* \"contracts/TccPost.sol\":2189:2204  string[] memory */\n      dup1\n        /* \"contracts/TccPost.sol\":2218:2233  string[] memory */\n      0x60\n        /* \"contracts/TccPost.sol\":2247:2263  uint256[] memory */\n      dup1\n        /* \"contracts/TccPost.sol\":2305:2306  0 */\n      0x00\n        /* \"contracts/TccPost.sol\":2296:2301  _page */\n      dup7\n        /* \"contracts/TccPost.sol\":2296:2306  _page != 0 */\n      sub\n        /* \"contracts/TccPost.sol\":2288:2342  require(_page != 0, \"Page must not be equal to zero!\") */\n      tag_120\n      jumpi\n      mload(0x40)\n      0x08c379a000000000000000000000000000000000000000000000000000000000\n      dup2\n      mstore\n      0x04\n      add\n      tag_121\n      swap1\n      tag_122\n      jump\t// in\n    tag_121:\n      mload(0x40)\n      dup1\n      swap2\n      sub\n      swap1\n      revert\n    tag_120:\n        /* \"contracts/TccPost.sol\":2373:2374  0 */\n      0x00\n        /* \"contracts/TccPost.sol\":2360:2369  _pageSize */\n      dup6\n        /* \"contracts/TccPost.sol\":2360:2374  _pageSize != 0 */\n      sub\n        /* \"contracts/TccPost.sol\":2352:2415  require(_pageSize != 0, \"Page size must not be equal to zero!\") */\n      tag_123\n      jumpi\n      mload(0x40)\n      0x08c379a000000000000000000000000000000000000000000000000000000000\n      dup2\n      mstore\n      0x04\n      add\n      tag_124\n      swap1\n      tag_125\n      jump\t// in\n    tag_124:\n      mload(0x40)\n      dup1\n      swap2\n      sub\n      swap1\n      revert\n    tag_123:\n        /* \"contracts/TccPost.sol\":2426:2444  uint256 startIndex */\n      0x00\n        /* \"contracts/TccPost.sol\":2461:2470  _pageSize */\n      dup6\n        /* \"contracts/TccPost.sol\":2456:2457  1 */\n      0x01\n        /* \"contracts/TccPost.sol\":2448:2453  _page */\n      dup9\n        /* \"contracts/TccPost.sol\":2448:2457  _page - 1 */\n      tag_126\n      swap2\n      swap1\n      tag_127\n      jump\t// in\n    tag_126:\n        /* \"contracts/TccPost.sol\":2447:2470  (_page - 1) * _pageSize */\n      tag_128\n      swap2\n      swap1\n      tag_129\n      jump\t// in\n    tag_128:\n        /* \"contracts/TccPost.sol\":2426:2470  uint256 startIndex = (_page - 1) * _pageSize */\n      swap1\n      pop\n        /* \"contracts/TccPost.sol\":2480:2496  uint256 endIndex */\n      0x00\n        /* \"contracts/TccPost.sol\":2526:2535  postCount */\n      sload(0x01)\n        /* \"contracts/TccPost.sol\":2513:2522  _pageSize */\n      dup8\n        /* \"contracts/TccPost.sol\":2500:2510  startIndex */\n      dup4\n        /* \"contracts/TccPost.sol\":2500:2522  startIndex + _pageSize */\n      tag_130\n      swap2\n      swap1\n      tag_131\n      jump\t// in\n    tag_130:\n        /* \"contracts/TccPost.sol\":2499:2535  (startIndex + _pageSize) > postCount */\n      gt\n        /* \"contracts/TccPost.sol\":2499:2598  (startIndex + _pageSize) > postCount... */\n      tag_132\n      jumpi\n        /* \"contracts/TccPost.sol\":2588:2597  _pageSize */\n      dup7\n        /* \"contracts/TccPost.sol\":2575:2585  startIndex */\n      dup3\n        /* \"contracts/TccPost.sol\":2575:2597  startIndex + _pageSize */\n      tag_133\n      swap2\n      swap1\n      tag_131\n      jump\t// in\n    tag_133:\n        /* \"contracts/TccPost.sol\":2499:2598  (startIndex + _pageSize) > postCount... */\n      jump(tag_134)\n    tag_132:\n        /* \"contracts/TccPost.sol\":2550:2559  postCount */\n      sload(0x01)\n        /* \"contracts/TccPost.sol\":2499:2598  (startIndex + _pageSize) > postCount... */\n    tag_134:\n        /* \"contracts/TccPost.sol\":2480:2598  uint256 endIndex = (startIndex + _pageSize) > postCount... */\n      swap1\n      pop\n        /* \"contracts/TccPost.sol\":2609:2631  string[] memory titles */\n      0x00\n        /* \"contracts/TccPost.sol\":2660:2668  endIndex */\n      dup2\n        /* \"contracts/TccPost.sol\":2647:2657  startIndex */\n      dup4\n        /* \"contracts/TccPost.sol\":2647:2668  startIndex - endIndex */\n      tag_135\n      swap2\n      swap1\n      tag_127\n      jump\t// in\n    tag_135:\n        /* \"contracts/TccPost.sol\":2634:2669  new string[](startIndex - endIndex) */\n      0xffffffffffffffff\n      dup2\n      gt\n      iszero\n      tag_136\n      jumpi\n      tag_137\n      tag_138\n      jump\t// in\n    tag_137:\n    tag_136:\n      mload(0x40)\n      swap1\n      dup1\n      dup3\n      mstore\n      dup1\n      0x20\n      mul\n      0x20\n      add\n      dup3\n      add\n      0x40\n      mstore\n      dup1\n      iszero\n      tag_139\n      jumpi\n      dup2\n      0x20\n      add\n    tag_140:\n      0x60\n      dup2\n      mstore\n      0x20\n      add\n      swap1\n      0x01\n      swap1\n      sub\n      swap1\n      dup2\n      tag_140\n      jumpi\n      swap1\n      pop\n    tag_139:\n      pop\n        /* \"contracts/TccPost.sol\":2609:2669  string[] memory titles = new string[](startIndex - endIndex) */\n      swap1\n      pop\n        /* \"contracts/TccPost.sol\":2679:2701  string[] memory bodies */\n      0x00\n        /* \"contracts/TccPost.sol\":2730:2738  endIndex */\n      dup3\n        /* \"contracts/TccPost.sol\":2717:2727  startIndex */\n      dup5\n        /* \"contracts/TccPost.sol\":2717:2738  startIndex - endIndex */\n      tag_141\n      swap2\n      swap1\n      tag_127\n      jump\t// in\n    tag_141:\n        /* \"contracts/TccPost.sol\":2704:2739  new string[](startIndex - endIndex) */\n      0xffffffffffffffff\n      dup2\n      gt\n      iszero\n      tag_142\n      jumpi\n      tag_143\n      tag_138\n      jump\t// in\n    tag_143:\n    tag_142:\n      mload(0x40)\n      swap1\n      dup1\n      dup3\n      mstore\n      dup1\n      0x20\n      mul\n      0x20\n      add\n      dup3\n      add\n      0x40\n      mstore\n      dup1\n      iszero\n      tag_144\n      jumpi\n      dup2\n      0x20\n      add\n    tag_145:\n      0x60\n      dup2\n      mstore\n      0x20\n      add\n      swap1\n      0x01\n      swap1\n      sub\n      swap1\n      dup2\n      tag_145\n      jumpi\n      swap1\n      pop\n    tag_144:\n      pop\n        /* \"contracts/TccPost.sol\":2679:2739  string[] memory bodies = new string[](startIndex - endIndex) */\n      swap1\n      pop\n        /* \"contracts/TccPost.sol\":2749:2774  string[] memory usernames */\n      0x00\n        /* \"contracts/TccPost.sol\":2803:2811  endIndex */\n      dup4\n        /* \"contracts/TccPost.sol\":2790:2800  startIndex */\n      dup6\n        /* \"contracts/TccPost.sol\":2790:2811  startIndex - endIndex */\n      tag_146\n      swap2\n      swap1\n      tag_127\n      jump\t// in\n    tag_146:\n        /* \"contracts/TccPost.sol\":2777:2812  new string[](startIndex - endIndex) */\n      0xffffffffffffffff\n      dup2\n      gt\n      iszero\n      tag_147\n      jumpi\n      tag_148\n      tag_138\n      jump\t// in\n    tag_148:\n    tag_147:\n      mload(0x40)\n      swap1\n      dup1\n      dup3\n      mstore\n      dup1\n      0x20\n      mul\n      0x20\n      add\n      dup3\n      add\n      0x40\n      mstore\n      dup1\n      iszero\n      tag_149\n      jumpi\n      dup2\n      0x20\n      add\n    tag_150:\n      0x60\n      dup2\n      mstore\n      0x20\n      add\n      swap1\n      0x01\n      swap1\n      sub\n      swap1\n      dup2\n      tag_150\n      jumpi\n      swap1\n      pop\n    tag_149:\n      pop\n        /* \"contracts/TccPost.sol\":2749:2812  string[] memory usernames = new string[](startIndex - endIndex) */\n      swap1\n      pop\n        /* \"contracts/TccPost.sol\":2822:2846  uint256[] memory postIds */\n      0x00\n        /* \"contracts/TccPost.sol\":2876:2884  endIndex */\n      dup5\n        /* \"contracts/TccPost.sol\":2863:2873  startIndex */\n      dup7\n        /* \"contracts/TccPost.sol\":2863:2884  startIndex - endIndex */\n      tag_151\n      swap2\n      swap1\n      tag_127\n      jump\t// in\n    tag_151:\n        /* \"contracts/TccPost.sol\":2849:2885  new uint256[](startIndex - endIndex) */\n      0xffffffffffffffff\n      dup2\n      gt\n      iszero\n      tag_152\n      jumpi\n      tag_153\n      tag_138\n      jump\t// in\n    tag_153:\n    tag_152:\n      mload(0x40)\n      swap1\n      dup1\n      dup3\n      mstore\n      dup1\n      0x20\n      mul\n      0x20\n      add\n      dup3\n      add\n      0x40\n      mstore\n      dup1\n      iszero\n      tag_154\n      jumpi\n      dup2\n      0x20\n      add\n      0x20\n      dup3\n      mul\n      dup1\n      calldatasize\n      dup4\n      calldatacopy\n      dup1\n      dup3\n      add\n      swap2\n      pop\n      pop\n      swap1\n      pop\n    tag_154:\n      pop\n        /* \"contracts/TccPost.sol\":2822:2885  uint256[] memory postIds = new uint256[](startIndex - endIndex) */\n      swap1\n      pop\n        /* \"contracts/TccPost.sol\":2901:2910  uint256 i */\n      0x00\n        /* \"contracts/TccPost.sol\":2913:2923  startIndex */\n      dup7\n        /* \"contracts/TccPost.sol\":2901:2923  uint256 i = startIndex */\n      swap1\n      pop\n        /* \"contracts/TccPost.sol\":2896:3161  for (uint256 i = startIndex; i <= endIndex; i++) {... */\n    tag_155:\n        /* \"contracts/TccPost.sol\":2930:2938  endIndex */\n      dup6\n        /* \"contracts/TccPost.sol\":2925:2926  i */\n      dup2\n        /* \"contracts/TccPost.sol\":2925:2938  i <= endIndex */\n      gt\n        /* \"contracts/TccPost.sol\":2896:3161  for (uint256 i = startIndex; i <= endIndex; i++) {... */\n      tag_156\n      jumpi\n        /* \"contracts/TccPost.sol\":2984:2989  posts */\n      0x02\n        /* \"contracts/TccPost.sol\":2984:2992  posts[i] */\n      0x00\n        /* \"contracts/TccPost.sol\":2990:2991  i */\n      dup3\n        /* \"contracts/TccPost.sol\":2984:2992  posts[i] */\n      dup2\n      mstore\n      0x20\n      add\n      swap1\n      dup2\n      mstore\n      0x20\n      add\n      0x00\n      keccak256\n        /* \"contracts/TccPost.sol\":2984:2998  posts[i].title */\n      0x00\n      add\n        /* \"contracts/TccPost.sol\":2959:2998  titles[i - startIndex] = posts[i].title */\n      dup1\n      sload\n      tag_158\n      swap1\n      tag_45\n      jump\t// in\n    tag_158:\n      dup1\n      0x1f\n      add\n      0x20\n      dup1\n      swap2\n      div\n      mul\n      0x20\n      add\n      mload(0x40)\n      swap1\n      dup2\n      add\n      0x40\n      mstore\n      dup1\n      swap3\n      swap2\n      swap1\n      dup2\n      dup2\n      mstore\n      0x20\n      add\n      dup3\n      dup1\n      sload\n      tag_159\n      swap1\n      tag_45\n      jump\t// in\n    tag_159:\n      dup1\n      iszero\n      tag_160\n      jumpi\n      dup1\n      0x1f\n      lt\n      tag_161\n      jumpi\n      0x0100\n      dup1\n      dup4\n      sload\n      div\n      mul\n      dup4\n      mstore\n      swap2\n      0x20\n      add\n      swap2\n      jump(tag_160)\n    tag_161:\n      dup3\n      add\n      swap2\n      swap1\n      0x00\n      mstore\n      keccak256(0x00, 0x20)\n      swap1\n    tag_162:\n      dup2\n      sload\n      dup2\n      mstore\n      swap1\n      0x01\n      add\n      swap1\n      0x20\n      add\n      dup1\n      dup4\n      gt\n      tag_162\n      jumpi\n      dup3\n      swap1\n      sub\n      0x1f\n      and\n      dup3\n      add\n      swap2\n    tag_160:\n      pop\n      pop\n      pop\n      pop\n      pop\n        /* \"contracts/TccPost.sol\":2959:2965  titles */\n      dup6\n        /* \"contracts/TccPost.sol\":2970:2980  startIndex */\n      dup9\n        /* \"contracts/TccPost.sol\":2966:2967  i */\n      dup4\n        /* \"contracts/TccPost.sol\":2966:2980  i - startIndex */\n      tag_163\n      swap2\n      swap1\n      tag_127\n      jump\t// in\n    tag_163:\n        /* \"contracts/TccPost.sol\":2959:2981  titles[i - startIndex] */\n      dup2\n      mload\n      dup2\n      lt\n      tag_164\n      jumpi\n      tag_165\n      tag_166\n      jump\t// in\n    tag_165:\n    tag_164:\n      0x20\n      mul\n      0x20\n      add\n      add\n        /* \"contracts/TccPost.sol\":2959:2998  titles[i - startIndex] = posts[i].title */\n      dup2\n      swap1\n      mstore\n      pop\n        /* \"contracts/TccPost.sol\":3037:3042  posts */\n      0x02\n        /* \"contracts/TccPost.sol\":3037:3045  posts[i] */\n      0x00\n        /* \"contracts/TccPost.sol\":3043:3044  i */\n      dup3\n        /* \"contracts/TccPost.sol\":3037:3045  posts[i] */\n      dup2\n      mstore\n      0x20\n      add\n      swap1\n      dup2\n      mstore\n      0x20\n      add\n      0x00\n      keccak256\n        /* \"contracts/TccPost.sol\":3037:3050  posts[i].body */\n      0x01\n      add\n        /* \"contracts/TccPost.sol\":3012:3050  bodies[i - startIndex] = posts[i].body */\n      dup1\n      sload\n      tag_167\n      swap1\n      tag_45\n      jump\t// in\n    tag_167:\n      dup1\n      0x1f\n      add\n      0x20\n      dup1\n      swap2\n      div\n      mul\n      0x20\n      add\n      mload(0x40)\n      swap1\n      dup2\n      add\n      0x40\n      mstore\n      dup1\n      swap3\n      swap2\n      swap1\n      dup2\n      dup2\n      mstore\n      0x20\n      add\n      dup3\n      dup1\n      sload\n      tag_168\n      swap1\n      tag_45\n      jump\t// in\n    tag_168:\n      dup1\n      iszero\n      tag_169\n      jumpi\n      dup1\n      0x1f\n      lt\n      tag_170\n      jumpi\n      0x0100\n      dup1\n      dup4\n      sload\n      div\n      mul\n      dup4\n      mstore\n      swap2\n      0x20\n      add\n      swap2\n      jump(tag_169)\n    tag_170:\n      dup3\n      add\n      swap2\n      swap1\n      0x00\n      mstore\n      keccak256(0x00, 0x20)\n      swap1\n    tag_171:\n      dup2\n      sload\n      dup2\n      mstore\n      swap1\n      0x01\n      add\n      swap1\n      0x20\n      add\n      dup1\n      dup4\n      gt\n      tag_171\n      jumpi\n      dup3\n      swap1\n      sub\n      0x1f\n      and\n      dup3\n      add\n      swap2\n    tag_169:\n      pop\n      pop\n      pop\n      pop\n      pop\n        /* \"contracts/TccPost.sol\":3012:3018  bodies */\n      dup5\n        /* \"contracts/TccPost.sol\":3023:3033  startIndex */\n      dup9\n        /* \"contracts/TccPost.sol\":3019:3020  i */\n      dup4\n        /* \"contracts/TccPost.sol\":3019:3033  i - startIndex */\n      tag_172\n      swap2\n      swap1\n      tag_127\n      jump\t// in\n    tag_172:\n        /* \"contracts/TccPost.sol\":3012:3034  bodies[i - startIndex] */\n      dup2\n      mload\n      dup2\n      lt\n      tag_173\n      jumpi\n      tag_174\n      tag_166\n      jump\t// in\n    tag_174:\n    tag_173:\n      0x20\n      mul\n      0x20\n      add\n      add\n        /* \"contracts/TccPost.sol\":3012:3050  bodies[i - startIndex] = posts[i].body */\n      dup2\n      swap1\n      mstore\n      pop\n        /* \"contracts/TccPost.sol\":3092:3097  posts */\n      0x02\n        /* \"contracts/TccPost.sol\":3092:3100  posts[i] */\n      0x00\n        /* \"contracts/TccPost.sol\":3098:3099  i */\n      dup3\n        /* \"contracts/TccPost.sol\":3092:3100  posts[i] */\n      dup2\n      mstore\n      0x20\n      add\n      swap1\n      dup2\n      mstore\n      0x20\n      add\n      0x00\n      keccak256\n        /* \"contracts/TccPost.sol\":3092:3109  posts[i].username */\n      0x02\n      add\n        /* \"contracts/TccPost.sol\":3064:3109  usernames[i - startIndex] = posts[i].username */\n      dup1\n      sload\n      tag_175\n      swap1\n      tag_45\n      jump\t// in\n    tag_175:\n      dup1\n      0x1f\n      add\n      0x20\n      dup1\n      swap2\n      div\n      mul\n      0x20\n      add\n      mload(0x40)\n      swap1\n      dup2\n      add\n      0x40\n      mstore\n      dup1\n      swap3\n      swap2\n      swap1\n      dup2\n      dup2\n      mstore\n      0x20\n      add\n      dup3\n      dup1\n      sload\n      tag_176\n      swap1\n      tag_45\n      jump\t// in\n    tag_176:\n      dup1\n      iszero\n      tag_177\n      jumpi\n      dup1\n      0x1f\n      lt\n      tag_178\n      jumpi\n      0x0100\n      dup1\n      dup4\n      sload\n      div\n      mul\n      dup4\n      mstore\n      swap2\n      0x20\n      add\n      swap2\n      jump(tag_177)\n    tag_178:\n      dup3\n      add\n      swap2\n      swap1\n      0x00\n      mstore\n      keccak256(0x00, 0x20)\n      swap1\n    tag_179:\n      dup2\n      sload\n      dup2\n      mstore\n      swap1\n      0x01\n      add\n      swap1\n      0x20\n      add\n      dup1\n      dup4\n      gt\n      tag_179\n      jumpi\n      dup3\n      swap1\n      sub\n      0x1f\n      and\n      dup3\n      add\n      swap2\n    tag_177:\n      pop\n      pop\n      pop\n      pop\n      pop\n        /* \"contracts/TccPost.sol\":3064:3073  usernames */\n      dup4\n        /* \"contracts/TccPost.sol\":3078:3088  startIndex */\n      dup9\n        /* \"contracts/TccPost.sol\":3074:3075  i */\n      dup4\n        /* \"contracts/TccPost.sol\":3074:3088  i - startIndex */\n      tag_180\n      swap2\n      swap1\n      tag_127\n      jump\t// in\n    tag_180:\n        /* \"contracts/TccPost.sol\":3064:3089  usernames[i - startIndex] */\n      dup2\n      mload\n      dup2\n      lt\n      tag_181\n      jumpi\n      tag_182\n      tag_166\n      jump\t// in\n    tag_182:\n    tag_181:\n      0x20\n      mul\n      0x20\n      add\n      add\n        /* \"contracts/TccPost.sol\":3064:3109  usernames[i - startIndex] = posts[i].username */\n      dup2\n      swap1\n      mstore\n      pop\n        /* \"contracts/TccPost.sol\":3149:3150  i */\n      dup1\n        /* \"contracts/TccPost.sol\":3123:3130  postIds */\n      dup3\n        /* \"contracts/TccPost.sol\":3135:3145  startIndex */\n      dup9\n        /* \"contracts/TccPost.sol\":3131:3132  i */\n      dup4\n        /* \"contracts/TccPost.sol\":3131:3145  i - startIndex */\n      tag_183\n      swap2\n      swap1\n      tag_127\n      jump\t// in\n    tag_183:\n        /* \"contracts/TccPost.sol\":3123:3146  postIds[i - startIndex] */\n      dup2\n      mload\n      dup2\n      lt\n      tag_184\n      jumpi\n      tag_185\n      tag_166\n      jump\t// in\n    tag_185:\n    tag_184:\n      0x20\n      mul\n      0x20\n      add\n      add\n        /* \"contracts/TccPost.sol\":3123:3150  postIds[i - startIndex] = i */\n      dup2\n      dup2\n      mstore\n      pop\n      pop\n        /* \"contracts/TccPost.sol\":2940:2943  i++ */\n      dup1\n      dup1\n      tag_186\n      swap1\n      tag_187\n      jump\t// in\n    tag_186:\n      swap2\n      pop\n      pop\n        /* \"contracts/TccPost.sol\":2896:3161  for (uint256 i = startIndex; i <= endIndex; i++) {... */\n      jump(tag_155)\n    tag_156:\n      pop\n        /* \"contracts/TccPost.sol\":3178:3184  titles */\n      dup4\n        /* \"contracts/TccPost.sol\":3186:3192  bodies */\n      dup4\n        /* \"contracts/TccPost.sol\":3194:3203  usernames */\n      dup4\n        /* \"contracts/TccPost.sol\":3205:3212  postIds */\n      dup4\n        /* \"contracts/TccPost.sol\":3170:3213  return (titles, bodies, usernames, postIds) */\n      swap10\n      pop\n      swap10\n      pop\n      swap10\n      pop\n      swap10\n      pop\n      pop\n      pop\n      pop\n      pop\n      pop\n      pop\n        /* \"contracts/TccPost.sol\":2050:3220  function getPosts(uint256 _page, uint256 _pageSize)... */\n      swap3\n      swap6\n      swap2\n      swap5\n      pop\n      swap3\n      pop\n      jump\t// out\n        /* \"contracts/TccPost.sol\":991:1278  function createPost(... */\n    tag_39:\n        /* \"contracts/TccPost.sol\":1144:1250  Post(... */\n      mload(0x40)\n      dup1\n      0x60\n      add\n      0x40\n      mstore\n      dup1\n        /* \"contracts/TccPost.sol\":1162:1168  _title */\n      dup5\n        /* \"contracts/TccPost.sol\":1144:1250  Post(... */\n      dup2\n      mstore\n      0x20\n      add\n        /* \"contracts/TccPost.sol\":1182:1187  _body */\n      dup4\n        /* \"contracts/TccPost.sol\":1144:1250  Post(... */\n      dup2\n      mstore\n      0x20\n      add\n        /* \"contracts/TccPost.sol\":1201:1205  user */\n      0x00\n      dup1\n      sload\n      swap1\n      0x0100\n      exp\n      swap1\n      div\n      0xffffffffffffffffffffffffffffffffffffffff\n      and\n        /* \"contracts/TccPost.sol\":1201:1224  user.getCurrentUserName */\n      0xffffffffffffffffffffffffffffffffffffffff\n      and\n      0x1c6a0254\n        /* \"contracts/TccPost.sol\":1225:1239  _walletAddress */\n      dup5\n        /* \"contracts/TccPost.sol\":1201:1240  user.getCurrentUserName(_walletAddress) */\n      mload(0x40)\n      dup3\n      0xffffffff\n      and\n      0xe0\n      shl\n      dup2\n      mstore\n      0x04\n      add\n      tag_189\n      swap2\n      swap1\n      tag_63\n      jump\t// in\n    tag_189:\n      0x00\n      mload(0x40)\n      dup1\n      dup4\n      sub\n      dup2\n      dup7\n      gas\n      staticcall\n      iszero\n      dup1\n      iszero\n      tag_191\n      jumpi\n      returndatasize\n      0x00\n      dup1\n      returndatacopy\n      revert(0x00, returndatasize)\n    tag_191:\n      pop\n      pop\n      pop\n      pop\n      mload(0x40)\n      returndatasize\n      0x00\n      dup3\n      returndatacopy\n      returndatasize\n      not(0x1f)\n      0x1f\n      dup3\n      add\n      and\n      dup3\n      add\n      dup1\n      0x40\n      mstore\n      pop\n      dup2\n      add\n      swap1\n      tag_192\n      swap2\n      swap1\n      tag_67\n      jump\t// in\n    tag_192:\n        /* \"contracts/TccPost.sol\":1144:1250  Post(... */\n      dup2\n      mstore\n      pop\n        /* \"contracts/TccPost.sol\":1125:1130  posts */\n      0x02\n        /* \"contracts/TccPost.sol\":1125:1141  posts[postCount] */\n      0x00\n        /* \"contracts/TccPost.sol\":1131:1140  postCount */\n      sload(0x01)\n        /* \"contracts/TccPost.sol\":1125:1141  posts[postCount] */\n      dup2\n      mstore\n      0x20\n      add\n      swap1\n      dup2\n      mstore\n      0x20\n      add\n      0x00\n      keccak256\n        /* \"contracts/TccPost.sol\":1125:1250  posts[postCount] = Post(... */\n      0x00\n      dup3\n      add\n      mload\n      dup2\n      0x00\n      add\n      swap1\n      dup2\n      tag_193\n      swap2\n      swap1\n      tag_81\n      jump\t// in\n    tag_193:\n      pop\n      0x20\n      dup3\n      add\n      mload\n      dup2\n      0x01\n      add\n      swap1\n      dup2\n      tag_194\n      swap2\n      swap1\n      tag_81\n      jump\t// in\n    tag_194:\n      pop\n      0x40\n      dup3\n      add\n      mload\n      dup2\n      0x02\n      add\n      swap1\n      dup2\n      tag_195\n      swap2\n      swap1\n      tag_81\n      jump\t// in\n    tag_195:\n      pop\n      swap1\n      pop\n      pop\n        /* \"contracts/TccPost.sol\":1260:1269  postCount */\n      0x01\n      0x00\n        /* \"contracts/TccPost.sol\":1260:1271  postCount++ */\n      dup2\n      sload\n      dup1\n      swap3\n      swap2\n      swap1\n      tag_196\n      swap1\n      tag_187\n      jump\t// in\n    tag_196:\n      swap2\n      swap1\n      pop\n      sstore\n      pop\n        /* \"contracts/TccPost.sol\":991:1278  function createPost(... */\n      pop\n      pop\n      pop\n      jump\t// out\n        /* \"contracts/TccPost.sol\":758:966  function postExist(uint256 _postId) public view returns (Post memory) {... */\n    tag_42:\n        /* \"contracts/TccPost.sol\":815:826  Post memory */\n      tag_197\n      tag_85\n      jump\t// in\n    tag_197:\n        /* \"contracts/TccPost.sol\":838:854  Post memory post */\n      0x00\n        /* \"contracts/TccPost.sol\":857:862  posts */\n      0x02\n        /* \"contracts/TccPost.sol\":857:871  posts[_postId] */\n      0x00\n        /* \"contracts/TccPost.sol\":863:870  _postId */\n      dup5\n        /* \"contracts/TccPost.sol\":857:871  posts[_postId] */\n      dup2\n      mstore\n      0x20\n      add\n      swap1\n      dup2\n      mstore\n      0x20\n      add\n      0x00\n      keccak256\n        /* \"contracts/TccPost.sol\":838:871  Post memory post = posts[_postId] */\n      mload(0x40)\n      dup1\n      0x60\n      add\n      0x40\n      mstore\n      swap1\n      dup2\n      0x00\n      dup3\n      add\n      dup1\n      sload\n      tag_199\n      swap1\n      tag_45\n      jump\t// in\n    tag_199:\n      dup1\n      0x1f\n      add\n      0x20\n      dup1\n      swap2\n      div\n      mul\n      0x20\n      add\n      mload(0x40)\n      swap1\n      dup2\n      add\n      0x40\n      mstore\n      dup1\n      swap3\n      swap2\n      swap1\n      dup2\n      dup2\n      mstore\n      0x20\n      add\n      dup3\n      dup1\n      sload\n      tag_200\n      swap1\n      tag_45\n      jump\t// in\n    tag_200:\n      dup1\n      iszero\n      tag_201\n      jumpi\n      dup1\n      0x1f\n      lt\n      tag_202\n      jumpi\n      0x0100\n      dup1\n      dup4\n      sload\n      div\n      mul\n      dup4\n      mstore\n      swap2\n      0x20\n      add\n      swap2\n      jump(tag_201)\n    tag_202:\n      dup3\n      add\n      swap2\n      swap1\n      0x00\n      mstore\n      keccak256(0x00, 0x20)\n      swap1\n    tag_203:\n      dup2\n      sload\n      dup2\n      mstore\n      swap1\n      0x01\n      add\n      swap1\n      0x20\n      add\n      dup1\n      dup4\n      gt\n      tag_203\n      jumpi\n      dup3\n      swap1\n      sub\n      0x1f\n      and\n      dup3\n      add\n      swap2\n    tag_201:\n      pop\n      pop\n      pop\n      pop\n      pop\n      dup2\n      mstore\n      0x20\n      add\n      0x01\n      dup3\n      add\n      dup1\n      sload\n      tag_204\n      swap1\n      tag_45\n      jump\t// in\n    tag_204:\n      dup1\n      0x1f\n      add\n      0x20\n      dup1\n      swap2\n      div\n      mul\n      0x20\n      add\n      mload(0x40)\n      swap1\n      dup2\n      add\n      0x40\n      mstore\n      dup1\n      swap3\n      swap2\n      swap1\n      dup2\n      dup2\n      mstore\n      0x20\n      add\n      dup3\n      dup1\n      sload\n      tag_205\n      swap1\n      tag_45\n      jump\t// in\n    tag_205:\n      dup1\n      iszero\n      tag_206\n      jumpi\n      dup1\n      0x1f\n      lt\n      tag_207\n      jumpi\n      0x0100\n      dup1\n      dup4\n      sload\n      div\n      mul\n      dup4\n      mstore\n      swap2\n      0x20\n      add\n      swap2\n      jump(tag_206)\n    tag_207:\n      dup3\n      add\n      swap2\n      swap1\n      0x00\n      mstore\n      keccak256(0x00, 0x20)\n      swap1\n    tag_208:\n      dup2\n      sload\n      dup2\n      mstore\n      swap1\n      0x01\n      add\n      swap1\n      0x20\n      add\n      dup1\n      dup4\n      gt\n      tag_208\n      jumpi\n      dup3\n      swap1\n      sub\n      0x1f\n      and\n      dup3\n      add\n      swap2\n    tag_206:\n      pop\n      pop\n      pop\n      pop\n      pop\n      dup2\n      mstore\n      0x20\n      add\n      0x02\n      dup3\n      add\n      dup1\n      sload\n      tag_209\n      swap1\n      tag_45\n      jump\t// in\n    tag_209:\n      dup1\n      0x1f\n      add\n      0x20\n      dup1\n      swap2\n      div\n      mul\n      0x20\n      add\n      mload(0x40)\n      swap1\n      dup2\n      add\n      0x40\n      mstore\n      dup1\n      swap3\n      swap2\n      swap1\n      dup2\n      dup2\n      mstore\n      0x20\n      add\n      dup3\n      dup1\n      sload\n      tag_210\n      swap1\n      tag_45\n      jump\t// in\n    tag_210:\n      dup1\n      iszero\n      tag_211\n      jumpi\n      dup1\n      0x1f\n      lt\n      tag_212\n      jumpi\n      0x0100\n      dup1\n      dup4\n      sload\n      div\n      mul\n      dup4\n      mstore\n      swap2\n      0x20\n      add\n      swap2\n      jump(tag_211)\n    tag_212:\n      dup3\n      add\n      swap2\n      swap1\n      0x00\n      mstore\n      keccak256(0x00, 0x20)\n      swap1\n    tag_213:\n      dup2\n      sload\n      dup2\n      mstore\n      swap1\n      0x01\n      add\n      swap1\n      0x20\n      add\n      dup1\n      dup4\n      gt\n      tag_213\n      jumpi\n      dup3\n      swap1\n      sub\n      0x1f\n      and\n      dup3\n      add\n      swap2\n    tag_211:\n      pop\n      pop\n      pop\n      pop\n      pop\n      dup2\n      mstore\n      pop\n      pop\n      swap1\n      pop\n        /* \"contracts/TccPost.sol\":916:917  0 */\n      0x00\n        /* \"contracts/TccPost.sol\":895:899  post */\n      dup2\n        /* \"contracts/TccPost.sol\":895:905  post.title */\n      0x00\n      add\n      mload\n        /* \"contracts/TccPost.sol\":889:913  bytes(post.title).length */\n      mload\n        /* \"contracts/TccPost.sol\":889:917  bytes(post.title).length > 0 */\n      gt\n        /* \"contracts/TccPost.sol\":881:938  require(bytes(post.title).length > 0, \"Invalid post id!\") */\n      tag_214\n      jumpi\n      mload(0x40)\n      0x08c379a000000000000000000000000000000000000000000000000000000000\n      dup2\n      mstore\n      0x04\n      add\n      tag_215\n      swap1\n      tag_216\n      jump\t// in\n    tag_215:\n      mload(0x40)\n      dup1\n      swap2\n      sub\n      swap1\n      revert\n    tag_214:\n        /* \"contracts/TccPost.sol\":955:959  post */\n      dup1\n        /* \"contracts/TccPost.sol\":948:959  return post */\n      swap2\n      pop\n      pop\n        /* \"contracts/TccPost.sol\":758:966  function postExist(uint256 _postId) public view returns (Post memory) {... */\n      swap2\n      swap1\n      pop\n      jump\t// out\n    tag_85:\n      mload(0x40)\n      dup1\n      0x60\n      add\n      0x40\n      mstore\n      dup1\n      0x60\n      dup2\n      mstore\n      0x20\n      add\n      0x60\n      dup2\n      mstore\n      0x20\n      add\n      0x60\n      dup2\n      mstore\n      pop\n      swap1\n      jump\t// out\n    tag_116:\n      pop\n      dup1\n      sload\n      tag_217\n      swap1\n      tag_45\n      jump\t// in\n    tag_217:\n      0x00\n      dup3\n      sstore\n      dup1\n      0x1f\n      lt\n      tag_219\n      jumpi\n      pop\n      jump(tag_218)\n    tag_219:\n      0x1f\n      add\n      0x20\n      swap1\n      div\n      swap1\n      0x00\n      mstore\n      keccak256(0x00, 0x20)\n      swap1\n      dup2\n      add\n      swap1\n      tag_220\n      swap2\n      swap1\n      tag_221\n      jump\t// in\n    tag_220:\n    tag_218:\n      pop\n      jump\t// out\n    tag_221:\n    tag_222:\n      dup1\n      dup3\n      gt\n      iszero\n      tag_223\n      jumpi\n      0x00\n      dup2\n      0x00\n      swap1\n      sstore\n      pop\n      0x01\n      add\n      jump(tag_222)\n    tag_223:\n      pop\n      swap1\n      jump\t// out\n        /* \"#utility.yul\":7:82   */\n    tag_224:\n        /* \"#utility.yul\":40:46   */\n      0x00\n        /* \"#utility.yul\":73:75   */\n      0x40\n        /* \"#utility.yul\":67:76   */\n      mload\n        /* \"#utility.yul\":57:76   */\n      swap1\n      pop\n        /* \"#utility.yul\":7:82   */\n      swap1\n      jump\t// out\n        /* \"#utility.yul\":88:205   */\n    tag_225:\n        /* \"#utility.yul\":197:198   */\n      0x00\n        /* \"#utility.yul\":194:195   */\n      dup1\n        /* \"#utility.yul\":187:199   */\n      revert\n        /* \"#utility.yul\":211:328   */\n    tag_226:\n        /* \"#utility.yul\":320:321   */\n      0x00\n        /* \"#utility.yul\":317:318   */\n      dup1\n        /* \"#utility.yul\":310:322   */\n      revert\n        /* \"#utility.yul\":334:411   */\n    tag_227:\n        /* \"#utility.yul\":371:378   */\n      0x00\n        /* \"#utility.yul\":400:405   */\n      dup2\n        /* \"#utility.yul\":389:405   */\n      swap1\n      pop\n        /* \"#utility.yul\":334:411   */\n      swap2\n      swap1\n      pop\n      jump\t// out\n        /* \"#utility.yul\":417:539   */\n    tag_228:\n        /* \"#utility.yul\":490:514   */\n      tag_299\n        /* \"#utility.yul\":508:513   */\n      dup2\n        /* \"#utility.yul\":490:514   */\n      tag_227\n      jump\t// in\n    tag_299:\n        /* \"#utility.yul\":483:488   */\n      dup2\n        /* \"#utility.yul\":480:515   */\n      eq\n        /* \"#utility.yul\":470:533   */\n      tag_300\n      jumpi\n        /* \"#utility.yul\":529:530   */\n      0x00\n        /* \"#utility.yul\":526:527   */\n      dup1\n        /* \"#utility.yul\":519:531   */\n      revert\n        /* \"#utility.yul\":470:533   */\n    tag_300:\n        /* \"#utility.yul\":417:539   */\n      pop\n      jump\t// out\n        /* \"#utility.yul\":545:684   */\n    tag_229:\n        /* \"#utility.yul\":591:596   */\n      0x00\n        /* \"#utility.yul\":629:635   */\n      dup2\n        /* \"#utility.yul\":616:636   */\n      calldataload\n        /* \"#utility.yul\":607:636   */\n      swap1\n      pop\n        /* \"#utility.yul\":645:678   */\n      tag_302\n        /* \"#utility.yul\":672:677   */\n      dup2\n        /* \"#utility.yul\":645:678   */\n      tag_228\n      jump\t// in\n    tag_302:\n        /* \"#utility.yul\":545:684   */\n      swap3\n      swap2\n      pop\n      pop\n      jump\t// out\n        /* \"#utility.yul\":690:1019   */\n    tag_13:\n        /* \"#utility.yul\":749:755   */\n      0x00\n        /* \"#utility.yul\":798:800   */\n      0x20\n        /* \"#utility.yul\":786:795   */\n      dup3\n        /* \"#utility.yul\":777:784   */\n      dup5\n        /* \"#utility.yul\":773:796   */\n      sub\n        /* \"#utility.yul\":769:801   */\n      slt\n        /* \"#utility.yul\":766:885   */\n      iszero\n      tag_304\n      jumpi\n        /* \"#utility.yul\":804:883   */\n      tag_305\n      tag_225\n      jump\t// in\n    tag_305:\n        /* \"#utility.yul\":766:885   */\n    tag_304:\n        /* \"#utility.yul\":924:925   */\n      0x00\n        /* \"#utility.yul\":949:1002   */\n      tag_306\n        /* \"#utility.yul\":994:1001   */\n      dup5\n        /* \"#utility.yul\":985:991   */\n      dup3\n        /* \"#utility.yul\":974:983   */\n      dup6\n        /* \"#utility.yul\":970:992   */\n      add\n        /* \"#utility.yul\":949:1002   */\n      tag_229\n      jump\t// in\n    tag_306:\n        /* \"#utility.yul\":939:1002   */\n      swap2\n      pop\n        /* \"#utility.yul\":895:1012   */\n      pop\n        /* \"#utility.yul\":690:1019   */\n      swap3\n      swap2\n      pop\n      pop\n      jump\t// out\n        /* \"#utility.yul\":1025:1124   */\n    tag_230:\n        /* \"#utility.yul\":1077:1083   */\n      0x00\n        /* \"#utility.yul\":1111:1116   */\n      dup2\n        /* \"#utility.yul\":1105:1117   */\n      mload\n        /* \"#utility.yul\":1095:1117   */\n      swap1\n      pop\n        /* \"#utility.yul\":1025:1124   */\n      swap2\n      swap1\n      pop\n      jump\t// out\n        /* \"#utility.yul\":1130:1299   */\n    tag_231:\n        /* \"#utility.yul\":1214:1225   */\n      0x00\n        /* \"#utility.yul\":1248:1254   */\n      dup3\n        /* \"#utility.yul\":1243:1246   */\n      dup3\n        /* \"#utility.yul\":1236:1255   */\n      mstore\n        /* \"#utility.yul\":1288:1292   */\n      0x20\n        /* \"#utility.yul\":1283:1286   */\n      dup3\n        /* \"#utility.yul\":1279:1293   */\n      add\n        /* \"#utility.yul\":1264:1293   */\n      swap1\n      pop\n        /* \"#utility.yul\":1130:1299   */\n      swap3\n      swap2\n      pop\n      pop\n      jump\t// out\n        /* \"#utility.yul\":1305:1444   */\n    tag_232:\n        /* \"#utility.yul\":1394:1400   */\n      dup3\n        /* \"#utility.yul\":1389:1392   */\n      dup2\n        /* \"#utility.yul\":1384:1387   */\n      dup4\n        /* \"#utility.yul\":1378:1401   */\n      mcopy\n        /* \"#utility.yul\":1435:1436   */\n      0x00\n        /* \"#utility.yul\":1426:1432   */\n      dup4\n        /* \"#utility.yul\":1421:1424   */\n      dup4\n        /* \"#utility.yul\":1417:1433   */\n      add\n        /* \"#utility.yul\":1410:1437   */\n      mstore\n        /* \"#utility.yul\":1305:1444   */\n      pop\n      pop\n      pop\n      jump\t// out\n        /* \"#utility.yul\":1450:1552   */\n    tag_233:\n        /* \"#utility.yul\":1491:1497   */\n      0x00\n        /* \"#utility.yul\":1542:1544   */\n      0x1f\n        /* \"#utility.yul\":1538:1545   */\n      not\n        /* \"#utility.yul\":1533:1535   */\n      0x1f\n        /* \"#utility.yul\":1526:1531   */\n      dup4\n        /* \"#utility.yul\":1522:1536   */\n      add\n        /* \"#utility.yul\":1518:1546   */\n      and\n        /* \"#utility.yul\":1508:1546   */\n      swap1\n      pop\n        /* \"#utility.yul\":1450:1552   */\n      swap2\n      swap1\n      pop\n      jump\t// out\n        /* \"#utility.yul\":1558:1935   */\n    tag_234:\n        /* \"#utility.yul\":1646:1649   */\n      0x00\n        /* \"#utility.yul\":1674:1713   */\n      tag_312\n        /* \"#utility.yul\":1707:1712   */\n      dup3\n        /* \"#utility.yul\":1674:1713   */\n      tag_230\n      jump\t// in\n    tag_312:\n        /* \"#utility.yul\":1729:1800   */\n      tag_313\n        /* \"#utility.yul\":1793:1799   */\n      dup2\n        /* \"#utility.yul\":1788:1791   */\n      dup6\n        /* \"#utility.yul\":1729:1800   */\n      tag_231\n      jump\t// in\n    tag_313:\n        /* \"#utility.yul\":1722:1800   */\n      swap4\n      pop\n        /* \"#utility.yul\":1809:1874   */\n      tag_314\n        /* \"#utility.yul\":1867:1873   */\n      dup2\n        /* \"#utility.yul\":1862:1865   */\n      dup6\n        /* \"#utility.yul\":1855:1859   */\n      0x20\n        /* \"#utility.yul\":1848:1853   */\n      dup7\n        /* \"#utility.yul\":1844:1860   */\n      add\n        /* \"#utility.yul\":1809:1874   */\n      tag_232\n      jump\t// in\n    tag_314:\n        /* \"#utility.yul\":1899:1928   */\n      tag_315\n        /* \"#utility.yul\":1921:1927   */\n      dup2\n        /* \"#utility.yul\":1899:1928   */\n      tag_233\n      jump\t// in\n    tag_315:\n        /* \"#utility.yul\":1894:1897   */\n      dup5\n        /* \"#utility.yul\":1890:1929   */\n      add\n        /* \"#utility.yul\":1883:1929   */\n      swap2\n      pop\n        /* \"#utility.yul\":1650:1935   */\n      pop\n        /* \"#utility.yul\":1558:1935   */\n      swap3\n      swap2\n      pop\n      pop\n      jump\t// out\n        /* \"#utility.yul\":1941:2656   */\n    tag_16:\n        /* \"#utility.yul\":2150:2154   */\n      0x00\n        /* \"#utility.yul\":2188:2190   */\n      0x60\n        /* \"#utility.yul\":2177:2186   */\n      dup3\n        /* \"#utility.yul\":2173:2191   */\n      add\n        /* \"#utility.yul\":2165:2191   */\n      swap1\n      pop\n        /* \"#utility.yul\":2237:2246   */\n      dup2\n        /* \"#utility.yul\":2231:2235   */\n      dup2\n        /* \"#utility.yul\":2227:2247   */\n      sub\n        /* \"#utility.yul\":2223:2224   */\n      0x00\n        /* \"#utility.yul\":2212:2221   */\n      dup4\n        /* \"#utility.yul\":2208:2225   */\n      add\n        /* \"#utility.yul\":2201:2248   */\n      mstore\n        /* \"#utility.yul\":2265:2343   */\n      tag_317\n        /* \"#utility.yul\":2338:2342   */\n      dup2\n        /* \"#utility.yul\":2329:2335   */\n      dup7\n        /* \"#utility.yul\":2265:2343   */\n      tag_234\n      jump\t// in\n    tag_317:\n        /* \"#utility.yul\":2257:2343   */\n      swap1\n      pop\n        /* \"#utility.yul\":2390:2399   */\n      dup2\n        /* \"#utility.yul\":2384:2388   */\n      dup2\n        /* \"#utility.yul\":2380:2400   */\n      sub\n        /* \"#utility.yul\":2375:2377   */\n      0x20\n        /* \"#utility.yul\":2364:2373   */\n      dup4\n        /* \"#utility.yul\":2360:2378   */\n      add\n        /* \"#utility.yul\":2353:2401   */\n      mstore\n        /* \"#utility.yul\":2418:2496   */\n      tag_318\n        /* \"#utility.yul\":2491:2495   */\n      dup2\n        /* \"#utility.yul\":2482:2488   */\n      dup6\n        /* \"#utility.yul\":2418:2496   */\n      tag_234\n      jump\t// in\n    tag_318:\n        /* \"#utility.yul\":2410:2496   */\n      swap1\n      pop\n        /* \"#utility.yul\":2543:2552   */\n      dup2\n        /* \"#utility.yul\":2537:2541   */\n      dup2\n        /* \"#utility.yul\":2533:2553   */\n      sub\n        /* \"#utility.yul\":2528:2530   */\n      0x40\n        /* \"#utility.yul\":2517:2526   */\n      dup4\n        /* \"#utility.yul\":2513:2531   */\n      add\n        /* \"#utility.yul\":2506:2554   */\n      mstore\n        /* \"#utility.yul\":2571:2649   */\n      tag_319\n        /* \"#utility.yul\":2644:2648   */\n      dup2\n        /* \"#utility.yul\":2635:2641   */\n      dup5\n        /* \"#utility.yul\":2571:2649   */\n      tag_234\n      jump\t// in\n    tag_319:\n        /* \"#utility.yul\":2563:2649   */\n      swap1\n      pop\n        /* \"#utility.yul\":1941:2656   */\n      swap5\n      swap4\n      pop\n      pop\n      pop\n      pop\n      jump\t// out\n        /* \"#utility.yul\":2662:2779   */\n    tag_235:\n        /* \"#utility.yul\":2771:2772   */\n      0x00\n        /* \"#utility.yul\":2768:2769   */\n      dup1\n        /* \"#utility.yul\":2761:2773   */\n      revert\n        /* \"#utility.yul\":2785:2902   */\n    tag_236:\n        /* \"#utility.yul\":2894:2895   */\n      0x00\n        /* \"#utility.yul\":2891:2892   */\n      dup1\n        /* \"#utility.yul\":2884:2896   */\n      revert\n        /* \"#utility.yul\":2908:3088   */\n    tag_138:\n        /* \"#utility.yul\":2956:3033   */\n      0x4e487b7100000000000000000000000000000000000000000000000000000000\n        /* \"#utility.yul\":2953:2954   */\n      0x00\n        /* \"#utility.yul\":2946:3034   */\n      mstore\n        /* \"#utility.yul\":3053:3057   */\n      0x41\n        /* \"#utility.yul\":3050:3051   */\n      0x04\n        /* \"#utility.yul\":3043:3058   */\n      mstore\n        /* \"#utility.yul\":3077:3081   */\n      0x24\n        /* \"#utility.yul\":3074:3075   */\n      0x00\n        /* \"#utility.yul\":3067:3082   */\n      revert\n        /* \"#utility.yul\":3094:3375   */\n    tag_237:\n        /* \"#utility.yul\":3177:3204   */\n      tag_324\n        /* \"#utility.yul\":3199:3203   */\n      dup3\n        /* \"#utility.yul\":3177:3204   */\n      tag_233\n      jump\t// in\n    tag_324:\n        /* \"#utility.yul\":3169:3175   */\n      dup2\n        /* \"#utility.yul\":3165:3205   */\n      add\n        /* \"#utility.yul\":3307:3313   */\n      dup2\n        /* \"#utility.yul\":3295:3305   */\n      dup2\n        /* \"#utility.yul\":3292:3314   */\n      lt\n        /* \"#utility.yul\":3271:3289   */\n      0xffffffffffffffff\n        /* \"#utility.yul\":3259:3269   */\n      dup3\n        /* \"#utility.yul\":3256:3290   */\n      gt\n        /* \"#utility.yul\":3253:3315   */\n      or\n        /* \"#utility.yul\":3250:3338   */\n      iszero\n      tag_325\n      jumpi\n        /* \"#utility.yul\":3318:3336   */\n      tag_326\n      tag_138\n      jump\t// in\n    tag_326:\n        /* \"#utility.yul\":3250:3338   */\n    tag_325:\n        /* \"#utility.yul\":3358:3368   */\n      dup1\n        /* \"#utility.yul\":3354:3356   */\n      0x40\n        /* \"#utility.yul\":3347:3369   */\n      mstore\n        /* \"#utility.yul\":3137:3375   */\n      pop\n        /* \"#utility.yul\":3094:3375   */\n      pop\n      pop\n      jump\t// out\n        /* \"#utility.yul\":3381:3510   */\n    tag_238:\n        /* \"#utility.yul\":3415:3421   */\n      0x00\n        /* \"#utility.yul\":3442:3462   */\n      tag_328\n      tag_224\n      jump\t// in\n    tag_328:\n        /* \"#utility.yul\":3432:3462   */\n      swap1\n      pop\n        /* \"#utility.yul\":3471:3504   */\n      tag_329\n        /* \"#utility.yul\":3499:3503   */\n      dup3\n        /* \"#utility.yul\":3491:3497   */\n      dup3\n        /* \"#utility.yul\":3471:3504   */\n      tag_237\n      jump\t// in\n    tag_329:\n        /* \"#utility.yul\":3381:3510   */\n      swap2\n      swap1\n      pop\n      jump\t// out\n        /* \"#utility.yul\":3516:3824   */\n    tag_239:\n        /* \"#utility.yul\":3578:3582   */\n      0x00\n        /* \"#utility.yul\":3668:3686   */\n      0xffffffffffffffff\n        /* \"#utility.yul\":3660:3666   */\n      dup3\n        /* \"#utility.yul\":3657:3687   */\n      gt\n        /* \"#utility.yul\":3654:3710   */\n      iszero\n      tag_331\n      jumpi\n        /* \"#utility.yul\":3690:3708   */\n      tag_332\n      tag_138\n      jump\t// in\n    tag_332:\n        /* \"#utility.yul\":3654:3710   */\n    tag_331:\n        /* \"#utility.yul\":3728:3757   */\n      tag_333\n        /* \"#utility.yul\":3750:3756   */\n      dup3\n        /* \"#utility.yul\":3728:3757   */\n      tag_233\n      jump\t// in\n    tag_333:\n        /* \"#utility.yul\":3720:3757   */\n      swap1\n      pop\n        /* \"#utility.yul\":3812:3816   */\n      0x20\n        /* \"#utility.yul\":3806:3810   */\n      dup2\n        /* \"#utility.yul\":3802:3817   */\n      add\n        /* \"#utility.yul\":3794:3817   */\n      swap1\n      pop\n        /* \"#utility.yul\":3516:3824   */\n      swap2\n      swap1\n      pop\n      jump\t// out\n        /* \"#utility.yul\":3830:3978   */\n    tag_240:\n        /* \"#utility.yul\":3928:3934   */\n      dup3\n        /* \"#utility.yul\":3923:3926   */\n      dup2\n        /* \"#utility.yul\":3918:3921   */\n      dup4\n        /* \"#utility.yul\":3905:3935   */\n      calldatacopy\n        /* \"#utility.yul\":3969:3970   */\n      0x00\n        /* \"#utility.yul\":3960:3966   */\n      dup4\n        /* \"#utility.yul\":3955:3958   */\n      dup4\n        /* \"#utility.yul\":3951:3967   */\n      add\n        /* \"#utility.yul\":3944:3971   */\n      mstore\n        /* \"#utility.yul\":3830:3978   */\n      pop\n      pop\n      pop\n      jump\t// out\n        /* \"#utility.yul\":3984:4409   */\n    tag_241:\n        /* \"#utility.yul\":4062:4067   */\n      0x00\n        /* \"#utility.yul\":4087:4153   */\n      tag_336\n        /* \"#utility.yul\":4103:4152   */\n      tag_337\n        /* \"#utility.yul\":4145:4151   */\n      dup5\n        /* \"#utility.yul\":4103:4152   */\n      tag_239\n      jump\t// in\n    tag_337:\n        /* \"#utility.yul\":4087:4153   */\n      tag_238\n      jump\t// in\n    tag_336:\n        /* \"#utility.yul\":4078:4153   */\n      swap1\n      pop\n        /* \"#utility.yul\":4176:4182   */\n      dup3\n        /* \"#utility.yul\":4169:4174   */\n      dup2\n        /* \"#utility.yul\":4162:4183   */\n      mstore\n        /* \"#utility.yul\":4214:4218   */\n      0x20\n        /* \"#utility.yul\":4207:4212   */\n      dup2\n        /* \"#utility.yul\":4203:4219   */\n      add\n        /* \"#utility.yul\":4252:4255   */\n      dup5\n        /* \"#utility.yul\":4243:4249   */\n      dup5\n        /* \"#utility.yul\":4238:4241   */\n      dup5\n        /* \"#utility.yul\":4234:4250   */\n      add\n        /* \"#utility.yul\":4231:4256   */\n      gt\n        /* \"#utility.yul\":4228:4340   */\n      iszero\n      tag_338\n      jumpi\n        /* \"#utility.yul\":4259:4338   */\n      tag_339\n      tag_236\n      jump\t// in\n    tag_339:\n        /* \"#utility.yul\":4228:4340   */\n    tag_338:\n        /* \"#utility.yul\":4349:4403   */\n      tag_340\n        /* \"#utility.yul\":4396:4402   */\n      dup5\n        /* \"#utility.yul\":4391:4394   */\n      dup3\n        /* \"#utility.yul\":4386:4389   */\n      dup6\n        /* \"#utility.yul\":4349:4403   */\n      tag_240\n      jump\t// in\n    tag_340:\n        /* \"#utility.yul\":4068:4409   */\n      pop\n        /* \"#utility.yul\":3984:4409   */\n      swap4\n      swap3\n      pop\n      pop\n      pop\n      jump\t// out\n        /* \"#utility.yul\":4429:4769   */\n    tag_242:\n        /* \"#utility.yul\":4485:4490   */\n      0x00\n        /* \"#utility.yul\":4534:4537   */\n      dup3\n        /* \"#utility.yul\":4527:4531   */\n      0x1f\n        /* \"#utility.yul\":4519:4525   */\n      dup4\n        /* \"#utility.yul\":4515:4532   */\n      add\n        /* \"#utility.yul\":4511:4538   */\n      slt\n        /* \"#utility.yul\":4501:4623   */\n      tag_342\n      jumpi\n        /* \"#utility.yul\":4542:4621   */\n      tag_343\n      tag_235\n      jump\t// in\n    tag_343:\n        /* \"#utility.yul\":4501:4623   */\n    tag_342:\n        /* \"#utility.yul\":4659:4665   */\n      dup2\n        /* \"#utility.yul\":4646:4666   */\n      calldataload\n        /* \"#utility.yul\":4684:4763   */\n      tag_344\n        /* \"#utility.yul\":4759:4762   */\n      dup5\n        /* \"#utility.yul\":4751:4757   */\n      dup3\n        /* \"#utility.yul\":4744:4748   */\n      0x20\n        /* \"#utility.yul\":4736:4742   */\n      dup7\n        /* \"#utility.yul\":4732:4749   */\n      add\n        /* \"#utility.yul\":4684:4763   */\n      tag_241\n      jump\t// in\n    tag_344:\n        /* \"#utility.yul\":4675:4763   */\n      swap2\n      pop\n        /* \"#utility.yul\":4491:4769   */\n      pop\n        /* \"#utility.yul\":4429:4769   */\n      swap3\n      swap2\n      pop\n      pop\n      jump\t// out\n        /* \"#utility.yul\":4775:4901   */\n    tag_243:\n        /* \"#utility.yul\":4812:4819   */\n      0x00\n        /* \"#utility.yul\":4852:4894   */\n      0xffffffffffffffffffffffffffffffffffffffff\n        /* \"#utility.yul\":4845:4850   */\n      dup3\n        /* \"#utility.yul\":4841:4895   */\n      and\n        /* \"#utility.yul\":4830:4895   */\n      swap1\n      pop\n        /* \"#utility.yul\":4775:4901   */\n      swap2\n      swap1\n      pop\n      jump\t// out\n        /* \"#utility.yul\":4907:5003   */\n    tag_244:\n        /* \"#utility.yul\":4944:4951   */\n      0x00\n        /* \"#utility.yul\":4973:4997   */\n      tag_347\n        /* \"#utility.yul\":4991:4996   */\n      dup3\n        /* \"#utility.yul\":4973:4997   */\n      tag_243\n      jump\t// in\n    tag_347:\n        /* \"#utility.yul\":4962:4997   */\n      swap1\n      pop\n        /* \"#utility.yul\":4907:5003   */\n      swap2\n      swap1\n      pop\n      jump\t// out\n        /* \"#utility.yul\":5009:5131   */\n    tag_245:\n        /* \"#utility.yul\":5082:5106   */\n      tag_349\n        /* \"#utility.yul\":5100:5105   */\n      dup2\n        /* \"#utility.yul\":5082:5106   */\n      tag_244\n      jump\t// in\n    tag_349:\n        /* \"#utility.yul\":5075:5080   */\n      dup2\n        /* \"#utility.yul\":5072:5107   */\n      eq\n        /* \"#utility.yul\":5062:5125   */\n      tag_350\n      jumpi\n        /* \"#utility.yul\":5121:5122   */\n      0x00\n        /* \"#utility.yul\":5118:5119   */\n      dup1\n        /* \"#utility.yul\":5111:5123   */\n      revert\n        /* \"#utility.yul\":5062:5125   */\n    tag_350:\n        /* \"#utility.yul\":5009:5131   */\n      pop\n      jump\t// out\n        /* \"#utility.yul\":5137:5276   */\n    tag_246:\n        /* \"#utility.yul\":5183:5188   */\n      0x00\n        /* \"#utility.yul\":5221:5227   */\n      dup2\n        /* \"#utility.yul\":5208:5228   */\n      calldataload\n        /* \"#utility.yul\":5199:5228   */\n      swap1\n      pop\n        /* \"#utility.yul\":5237:5270   */\n      tag_352\n        /* \"#utility.yul\":5264:5269   */\n      dup2\n        /* \"#utility.yul\":5237:5270   */\n      tag_245\n      jump\t// in\n    tag_352:\n        /* \"#utility.yul\":5137:5276   */\n      swap3\n      swap2\n      pop\n      pop\n      jump\t// out\n        /* \"#utility.yul\":5282:6407   */\n    tag_19:\n        /* \"#utility.yul\":5388:5394   */\n      0x00\n        /* \"#utility.yul\":5396:5402   */\n      dup1\n        /* \"#utility.yul\":5404:5410   */\n      0x00\n        /* \"#utility.yul\":5412:5418   */\n      dup1\n        /* \"#utility.yul\":5461:5464   */\n      0x80\n        /* \"#utility.yul\":5449:5458   */\n      dup6\n        /* \"#utility.yul\":5440:5447   */\n      dup8\n        /* \"#utility.yul\":5436:5459   */\n      sub\n        /* \"#utility.yul\":5432:5465   */\n      slt\n        /* \"#utility.yul\":5429:5549   */\n      iszero\n      tag_354\n      jumpi\n        /* \"#utility.yul\":5468:5547   */\n      tag_355\n      tag_225\n      jump\t// in\n    tag_355:\n        /* \"#utility.yul\":5429:5549   */\n    tag_354:\n        /* \"#utility.yul\":5588:5589   */\n      0x00\n        /* \"#utility.yul\":5613:5666   */\n      tag_356\n        /* \"#utility.yul\":5658:5665   */\n      dup8\n        /* \"#utility.yul\":5649:5655   */\n      dup3\n        /* \"#utility.yul\":5638:5647   */\n      dup9\n        /* \"#utility.yul\":5634:5656   */\n      add\n        /* \"#utility.yul\":5613:5666   */\n      tag_229\n      jump\t// in\n    tag_356:\n        /* \"#utility.yul\":5603:5666   */\n      swap5\n      pop\n        /* \"#utility.yul\":5559:5676   */\n      pop\n        /* \"#utility.yul\":5743:5745   */\n      0x20\n        /* \"#utility.yul\":5732:5741   */\n      dup6\n        /* \"#utility.yul\":5728:5746   */\n      add\n        /* \"#utility.yul\":5715:5747   */\n      calldataload\n        /* \"#utility.yul\":5774:5792   */\n      0xffffffffffffffff\n        /* \"#utility.yul\":5766:5772   */\n      dup2\n        /* \"#utility.yul\":5763:5793   */\n      gt\n        /* \"#utility.yul\":5760:5877   */\n      iszero\n      tag_357\n      jumpi\n        /* \"#utility.yul\":5796:5875   */\n      tag_358\n      tag_226\n      jump\t// in\n    tag_358:\n        /* \"#utility.yul\":5760:5877   */\n    tag_357:\n        /* \"#utility.yul\":5901:5964   */\n      tag_359\n        /* \"#utility.yul\":5956:5963   */\n      dup8\n        /* \"#utility.yul\":5947:5953   */\n      dup3\n        /* \"#utility.yul\":5936:5945   */\n      dup9\n        /* \"#utility.yul\":5932:5954   */\n      add\n        /* \"#utility.yul\":5901:5964   */\n      tag_242\n      jump\t// in\n    tag_359:\n        /* \"#utility.yul\":5891:5964   */\n      swap4\n      pop\n        /* \"#utility.yul\":5686:5974   */\n      pop\n        /* \"#utility.yul\":6041:6043   */\n      0x40\n        /* \"#utility.yul\":6030:6039   */\n      dup6\n        /* \"#utility.yul\":6026:6044   */\n      add\n        /* \"#utility.yul\":6013:6045   */\n      calldataload\n        /* \"#utility.yul\":6072:6090   */\n      0xffffffffffffffff\n        /* \"#utility.yul\":6064:6070   */\n      dup2\n        /* \"#utility.yul\":6061:6091   */\n      gt\n        /* \"#utility.yul\":6058:6175   */\n      iszero\n      tag_360\n      jumpi\n        /* \"#utility.yul\":6094:6173   */\n      tag_361\n      tag_226\n      jump\t// in\n    tag_361:\n        /* \"#utility.yul\":6058:6175   */\n    tag_360:\n        /* \"#utility.yul\":6199:6262   */\n      tag_362\n        /* \"#utility.yul\":6254:6261   */\n      dup8\n        /* \"#utility.yul\":6245:6251   */\n      dup3\n        /* \"#utility.yul\":6234:6243   */\n      dup9\n        /* \"#utility.yul\":6230:6252   */\n      add\n        /* \"#utility.yul\":6199:6262   */\n      tag_242\n      jump\t// in\n    tag_362:\n        /* \"#utility.yul\":6189:6262   */\n      swap3\n      pop\n        /* \"#utility.yul\":5984:6272   */\n      pop\n        /* \"#utility.yul\":6311:6313   */\n      0x60\n        /* \"#utility.yul\":6337:6390   */\n      tag_363\n        /* \"#utility.yul\":6382:6389   */\n      dup8\n        /* \"#utility.yul\":6373:6379   */\n      dup3\n        /* \"#utility.yul\":6362:6371   */\n      dup9\n        /* \"#utility.yul\":6358:6380   */\n      add\n        /* \"#utility.yul\":6337:6390   */\n      tag_246\n      jump\t// in\n    tag_363:\n        /* \"#utility.yul\":6327:6390   */\n      swap2\n      pop\n        /* \"#utility.yul\":6282:6400   */\n      pop\n        /* \"#utility.yul\":5282:6407   */\n      swap3\n      swap6\n      swap2\n      swap5\n      pop\n      swap3\n      pop\n      jump\t// out\n        /* \"#utility.yul\":6413:6572   */\n    tag_247:\n        /* \"#utility.yul\":6487:6498   */\n      0x00\n        /* \"#utility.yul\":6521:6527   */\n      dup3\n        /* \"#utility.yul\":6516:6519   */\n      dup3\n        /* \"#utility.yul\":6509:6528   */\n      mstore\n        /* \"#utility.yul\":6561:6565   */\n      0x20\n        /* \"#utility.yul\":6556:6559   */\n      dup3\n        /* \"#utility.yul\":6552:6566   */\n      add\n        /* \"#utility.yul\":6537:6566   */\n      swap1\n      pop\n        /* \"#utility.yul\":6413:6572   */\n      swap3\n      swap2\n      pop\n      pop\n      jump\t// out\n        /* \"#utility.yul\":6578:6935   */\n    tag_248:\n        /* \"#utility.yul\":6656:6659   */\n      0x00\n        /* \"#utility.yul\":6684:6723   */\n      tag_366\n        /* \"#utility.yul\":6717:6722   */\n      dup3\n        /* \"#utility.yul\":6684:6723   */\n      tag_230\n      jump\t// in\n    tag_366:\n        /* \"#utility.yul\":6739:6800   */\n      tag_367\n        /* \"#utility.yul\":6793:6799   */\n      dup2\n        /* \"#utility.yul\":6788:6791   */\n      dup6\n        /* \"#utility.yul\":6739:6800   */\n      tag_247\n      jump\t// in\n    tag_367:\n        /* \"#utility.yul\":6732:6800   */\n      swap4\n      pop\n        /* \"#utility.yul\":6809:6874   */\n      tag_368\n        /* \"#utility.yul\":6867:6873   */\n      dup2\n        /* \"#utility.yul\":6862:6865   */\n      dup6\n        /* \"#utility.yul\":6855:6859   */\n      0x20\n        /* \"#utility.yul\":6848:6853   */\n      dup7\n        /* \"#utility.yul\":6844:6860   */\n      add\n        /* \"#utility.yul\":6809:6874   */\n      tag_232\n      jump\t// in\n    tag_368:\n        /* \"#utility.yul\":6899:6928   */\n      tag_369\n        /* \"#utility.yul\":6921:6927   */\n      dup2\n        /* \"#utility.yul\":6899:6928   */\n      tag_233\n      jump\t// in\n    tag_369:\n        /* \"#utility.yul\":6894:6897   */\n      dup5\n        /* \"#utility.yul\":6890:6929   */\n      add\n        /* \"#utility.yul\":6883:6929   */\n      swap2\n      pop\n        /* \"#utility.yul\":6660:6935   */\n      pop\n        /* \"#utility.yul\":6578:6935   */\n      swap3\n      swap2\n      pop\n      pop\n      jump\t// out\n        /* \"#utility.yul\":6991:7908   */\n    tag_249:\n        /* \"#utility.yul\":7100:7103   */\n      0x00\n        /* \"#utility.yul\":7136:7140   */\n      0x60\n        /* \"#utility.yul\":7131:7134   */\n      dup4\n        /* \"#utility.yul\":7127:7141   */\n      add\n        /* \"#utility.yul\":7224:7228   */\n      0x00\n        /* \"#utility.yul\":7217:7222   */\n      dup4\n        /* \"#utility.yul\":7213:7229   */\n      add\n        /* \"#utility.yul\":7207:7230   */\n      mload\n        /* \"#utility.yul\":7277:7280   */\n      dup5\n        /* \"#utility.yul\":7271:7275   */\n      dup3\n        /* \"#utility.yul\":7267:7281   */\n      sub\n        /* \"#utility.yul\":7260:7264   */\n      0x00\n        /* \"#utility.yul\":7255:7258   */\n      dup7\n        /* \"#utility.yul\":7251:7265   */\n      add\n        /* \"#utility.yul\":7244:7282   */\n      mstore\n        /* \"#utility.yul\":7303:7376   */\n      tag_371\n        /* \"#utility.yul\":7371:7375   */\n      dup3\n        /* \"#utility.yul\":7357:7369   */\n      dup3\n        /* \"#utility.yul\":7303:7376   */\n      tag_248\n      jump\t// in\n    tag_371:\n        /* \"#utility.yul\":7295:7376   */\n      swap2\n      pop\n        /* \"#utility.yul\":7151:7387   */\n      pop\n        /* \"#utility.yul\":7469:7473   */\n      0x20\n        /* \"#utility.yul\":7462:7467   */\n      dup4\n        /* \"#utility.yul\":7458:7474   */\n      add\n        /* \"#utility.yul\":7452:7475   */\n      mload\n        /* \"#utility.yul\":7522:7525   */\n      dup5\n        /* \"#utility.yul\":7516:7520   */\n      dup3\n        /* \"#utility.yul\":7512:7526   */\n      sub\n        /* \"#utility.yul\":7505:7509   */\n      0x20\n        /* \"#utility.yul\":7500:7503   */\n      dup7\n        /* \"#utility.yul\":7496:7510   */\n      add\n        /* \"#utility.yul\":7489:7527   */\n      mstore\n        /* \"#utility.yul\":7548:7621   */\n      tag_372\n        /* \"#utility.yul\":7616:7620   */\n      dup3\n        /* \"#utility.yul\":7602:7614   */\n      dup3\n        /* \"#utility.yul\":7548:7621   */\n      tag_248\n      jump\t// in\n    tag_372:\n        /* \"#utility.yul\":7540:7621   */\n      swap2\n      pop\n        /* \"#utility.yul\":7397:7632   */\n      pop\n        /* \"#utility.yul\":7718:7722   */\n      0x40\n        /* \"#utility.yul\":7711:7716   */\n      dup4\n        /* \"#utility.yul\":7707:7723   */\n      add\n        /* \"#utility.yul\":7701:7724   */\n      mload\n        /* \"#utility.yul\":7771:7774   */\n      dup5\n        /* \"#utility.yul\":7765:7769   */\n      dup3\n        /* \"#utility.yul\":7761:7775   */\n      sub\n        /* \"#utility.yul\":7754:7758   */\n      0x40\n        /* \"#utility.yul\":7749:7752   */\n      dup7\n        /* \"#utility.yul\":7745:7759   */\n      add\n        /* \"#utility.yul\":7738:7776   */\n      mstore\n        /* \"#utility.yul\":7797:7870   */\n      tag_373\n        /* \"#utility.yul\":7865:7869   */\n      dup3\n        /* \"#utility.yul\":7851:7863   */\n      dup3\n        /* \"#utility.yul\":7797:7870   */\n      tag_248\n      jump\t// in\n    tag_373:\n        /* \"#utility.yul\":7789:7870   */\n      swap2\n      pop\n        /* \"#utility.yul\":7642:7881   */\n      pop\n        /* \"#utility.yul\":7898:7902   */\n      dup1\n        /* \"#utility.yul\":7891:7902   */\n      swap2\n      pop\n        /* \"#utility.yul\":7105:7908   */\n      pop\n        /* \"#utility.yul\":6991:7908   */\n      swap3\n      swap2\n      pop\n      pop\n      jump\t// out\n        /* \"#utility.yul\":7914:8267   */\n    tag_25:\n        /* \"#utility.yul\":8047:8051   */\n      0x00\n        /* \"#utility.yul\":8085:8087   */\n      0x20\n        /* \"#utility.yul\":8074:8083   */\n      dup3\n        /* \"#utility.yul\":8070:8088   */\n      add\n        /* \"#utility.yul\":8062:8088   */\n      swap1\n      pop\n        /* \"#utility.yul\":8134:8143   */\n      dup2\n        /* \"#utility.yul\":8128:8132   */\n      dup2\n        /* \"#utility.yul\":8124:8144   */\n      sub\n        /* \"#utility.yul\":8120:8121   */\n      0x00\n        /* \"#utility.yul\":8109:8118   */\n      dup4\n        /* \"#utility.yul\":8105:8122   */\n      add\n        /* \"#utility.yul\":8098:8145   */\n      mstore\n        /* \"#utility.yul\":8162:8260   */\n      tag_375\n        /* \"#utility.yul\":8255:8259   */\n      dup2\n        /* \"#utility.yul\":8246:8252   */\n      dup5\n        /* \"#utility.yul\":8162:8260   */\n      tag_249\n      jump\t// in\n    tag_375:\n        /* \"#utility.yul\":8154:8260   */\n      swap1\n      pop\n        /* \"#utility.yul\":7914:8267   */\n      swap3\n      swap2\n      pop\n      pop\n      jump\t// out\n        /* \"#utility.yul\":8273:8747   */\n    tag_28:\n        /* \"#utility.yul\":8341:8347   */\n      0x00\n        /* \"#utility.yul\":8349:8355   */\n      dup1\n        /* \"#utility.yul\":8398:8400   */\n      0x40\n        /* \"#utility.yul\":8386:8395   */\n      dup4\n        /* \"#utility.yul\":8377:8384   */\n      dup6\n        /* \"#utility.yul\":8373:8396   */\n      sub\n        /* \"#utility.yul\":8369:8401   */\n      slt\n        /* \"#utility.yul\":8366:8485   */\n      iszero\n      tag_377\n      jumpi\n        /* \"#utility.yul\":8404:8483   */\n      tag_378\n      tag_225\n      jump\t// in\n    tag_378:\n        /* \"#utility.yul\":8366:8485   */\n    tag_377:\n        /* \"#utility.yul\":8524:8525   */\n      0x00\n        /* \"#utility.yul\":8549:8602   */\n      tag_379\n        /* \"#utility.yul\":8594:8601   */\n      dup6\n        /* \"#utility.yul\":8585:8591   */\n      dup3\n        /* \"#utility.yul\":8574:8583   */\n      dup7\n        /* \"#utility.yul\":8570:8592   */\n      add\n        /* \"#utility.yul\":8549:8602   */\n      tag_229\n      jump\t// in\n    tag_379:\n        /* \"#utility.yul\":8539:8602   */\n      swap3\n      pop\n        /* \"#utility.yul\":8495:8612   */\n      pop\n        /* \"#utility.yul\":8651:8653   */\n      0x20\n        /* \"#utility.yul\":8677:8730   */\n      tag_380\n        /* \"#utility.yul\":8722:8729   */\n      dup6\n        /* \"#utility.yul\":8713:8719   */\n      dup3\n        /* \"#utility.yul\":8702:8711   */\n      dup7\n        /* \"#utility.yul\":8698:8720   */\n      add\n        /* \"#utility.yul\":8677:8730   */\n      tag_246\n      jump\t// in\n    tag_380:\n        /* \"#utility.yul\":8667:8730   */\n      swap2\n      pop\n        /* \"#utility.yul\":8622:8740   */\n      pop\n        /* \"#utility.yul\":8273:8747   */\n      swap3\n      pop\n      swap3\n      swap1\n      pop\n      jump\t// out\n        /* \"#utility.yul\":8753:9227   */\n    tag_32:\n        /* \"#utility.yul\":8821:8827   */\n      0x00\n        /* \"#utility.yul\":8829:8835   */\n      dup1\n        /* \"#utility.yul\":8878:8880   */\n      0x40\n        /* \"#utility.yul\":8866:8875   */\n      dup4\n        /* \"#utility.yul\":8857:8864   */\n      dup6\n        /* \"#utility.yul\":8853:8876   */\n      sub\n        /* \"#utility.yul\":8849:8881   */\n      slt\n        /* \"#utility.yul\":8846:8965   */\n      iszero\n      tag_382\n      jumpi\n        /* \"#utility.yul\":8884:8963   */\n      tag_383\n      tag_225\n      jump\t// in\n    tag_383:\n        /* \"#utility.yul\":8846:8965   */\n    tag_382:\n        /* \"#utility.yul\":9004:9005   */\n      0x00\n        /* \"#utility.yul\":9029:9082   */\n      tag_384\n        /* \"#utility.yul\":9074:9081   */\n      dup6\n        /* \"#utility.yul\":9065:9071   */\n      dup3\n        /* \"#utility.yul\":9054:9063   */\n      dup7\n        /* \"#utility.yul\":9050:9072   */\n      add\n        /* \"#utility.yul\":9029:9082   */\n      tag_229\n      jump\t// in\n    tag_384:\n        /* \"#utility.yul\":9019:9082   */\n      swap3\n      pop\n        /* \"#utility.yul\":8975:9092   */\n      pop\n        /* \"#utility.yul\":9131:9133   */\n      0x20\n        /* \"#utility.yul\":9157:9210   */\n      tag_385\n        /* \"#utility.yul\":9202:9209   */\n      dup6\n        /* \"#utility.yul\":9193:9199   */\n      dup3\n        /* \"#utility.yul\":9182:9191   */\n      dup7\n        /* \"#utility.yul\":9178:9200   */\n      add\n        /* \"#utility.yul\":9157:9210   */\n      tag_229\n      jump\t// in\n    tag_385:\n        /* \"#utility.yul\":9147:9210   */\n      swap2\n      pop\n        /* \"#utility.yul\":9102:9220   */\n      pop\n        /* \"#utility.yul\":8753:9227   */\n      swap3\n      pop\n      swap3\n      swap1\n      pop\n      jump\t// out\n        /* \"#utility.yul\":9233:9357   */\n    tag_250:\n        /* \"#utility.yul\":9310:9316   */\n      0x00\n        /* \"#utility.yul\":9344:9349   */\n      dup2\n        /* \"#utility.yul\":9338:9350   */\n      mload\n        /* \"#utility.yul\":9328:9350   */\n      swap1\n      pop\n        /* \"#utility.yul\":9233:9357   */\n      swap2\n      swap1\n      pop\n      jump\t// out\n        /* \"#utility.yul\":9363:9557   */\n    tag_251:\n        /* \"#utility.yul\":9472:9483   */\n      0x00\n        /* \"#utility.yul\":9506:9512   */\n      dup3\n        /* \"#utility.yul\":9501:9504   */\n      dup3\n        /* \"#utility.yul\":9494:9513   */\n      mstore\n        /* \"#utility.yul\":9546:9550   */\n      0x20\n        /* \"#utility.yul\":9541:9544   */\n      dup3\n        /* \"#utility.yul\":9537:9551   */\n      add\n        /* \"#utility.yul\":9522:9551   */\n      swap1\n      pop\n        /* \"#utility.yul\":9363:9557   */\n      swap3\n      swap2\n      pop\n      pop\n      jump\t// out\n        /* \"#utility.yul\":9563:9705   */\n    tag_252:\n        /* \"#utility.yul\":9640:9644   */\n      0x00\n        /* \"#utility.yul\":9663:9666   */\n      dup2\n        /* \"#utility.yul\":9655:9666   */\n      swap1\n      pop\n        /* \"#utility.yul\":9693:9697   */\n      0x20\n        /* \"#utility.yul\":9688:9691   */\n      dup3\n        /* \"#utility.yul\":9684:9698   */\n      add\n        /* \"#utility.yul\":9676:9698   */\n      swap1\n      pop\n        /* \"#utility.yul\":9563:9705   */\n      swap2\n      swap1\n      pop\n      jump\t// out\n        /* \"#utility.yul\":9711:9907   */\n    tag_253:\n        /* \"#utility.yul\":9800:9810   */\n      0x00\n        /* \"#utility.yul\":9835:9901   */\n      tag_390\n        /* \"#utility.yul\":9897:9900   */\n      dup4\n        /* \"#utility.yul\":9889:9895   */\n      dup4\n        /* \"#utility.yul\":9835:9901   */\n      tag_248\n      jump\t// in\n    tag_390:\n        /* \"#utility.yul\":9821:9901   */\n      swap1\n      pop\n        /* \"#utility.yul\":9711:9907   */\n      swap3\n      swap2\n      pop\n      pop\n      jump\t// out\n        /* \"#utility.yul\":9913:10036   */\n    tag_254:\n        /* \"#utility.yul\":9993:9997   */\n      0x00\n        /* \"#utility.yul\":10025:10029   */\n      0x20\n        /* \"#utility.yul\":10020:10023   */\n      dup3\n        /* \"#utility.yul\":10016:10030   */\n      add\n        /* \"#utility.yul\":10008:10030   */\n      swap1\n      pop\n        /* \"#utility.yul\":9913:10036   */\n      swap2\n      swap1\n      pop\n      jump\t// out\n        /* \"#utility.yul\":10070:11061   */\n    tag_255:\n        /* \"#utility.yul\":10209:10212   */\n      0x00\n        /* \"#utility.yul\":10238:10302   */\n      tag_393\n        /* \"#utility.yul\":10296:10301   */\n      dup3\n        /* \"#utility.yul\":10238:10302   */\n      tag_250\n      jump\t// in\n    tag_393:\n        /* \"#utility.yul\":10318:10414   */\n      tag_394\n        /* \"#utility.yul\":10407:10413   */\n      dup2\n        /* \"#utility.yul\":10402:10405   */\n      dup6\n        /* \"#utility.yul\":10318:10414   */\n      tag_251\n      jump\t// in\n    tag_394:\n        /* \"#utility.yul\":10311:10414   */\n      swap4\n      pop\n        /* \"#utility.yul\":10440:10443   */\n      dup4\n        /* \"#utility.yul\":10485:10489   */\n      0x20\n        /* \"#utility.yul\":10477:10483   */\n      dup3\n        /* \"#utility.yul\":10473:10490   */\n      mul\n        /* \"#utility.yul\":10468:10471   */\n      dup6\n        /* \"#utility.yul\":10464:10491   */\n      add\n        /* \"#utility.yul\":10515:10581   */\n      tag_395\n        /* \"#utility.yul\":10575:10580   */\n      dup6\n        /* \"#utility.yul\":10515:10581   */\n      tag_252\n      jump\t// in\n    tag_395:\n        /* \"#utility.yul\":10604:10611   */\n      dup1\n        /* \"#utility.yul\":10635:10636   */\n      0x00\n        /* \"#utility.yul\":10620:11016   */\n    tag_396:\n        /* \"#utility.yul\":10645:10651   */\n      dup6\n        /* \"#utility.yul\":10642:10643   */\n      dup2\n        /* \"#utility.yul\":10639:10652   */\n      lt\n        /* \"#utility.yul\":10620:11016   */\n      iszero\n      tag_398\n      jumpi\n        /* \"#utility.yul\":10716:10725   */\n      dup5\n        /* \"#utility.yul\":10710:10714   */\n      dup5\n        /* \"#utility.yul\":10706:10726   */\n      sub\n        /* \"#utility.yul\":10701:10704   */\n      dup10\n        /* \"#utility.yul\":10694:10727   */\n      mstore\n        /* \"#utility.yul\":10767:10773   */\n      dup2\n        /* \"#utility.yul\":10761:10774   */\n      mload\n        /* \"#utility.yul\":10795:10879   */\n      tag_399\n        /* \"#utility.yul\":10874:10878   */\n      dup6\n        /* \"#utility.yul\":10859:10872   */\n      dup3\n        /* \"#utility.yul\":10795:10879   */\n      tag_253\n      jump\t// in\n    tag_399:\n        /* \"#utility.yul\":10787:10879   */\n      swap5\n      pop\n        /* \"#utility.yul\":10902:10972   */\n      tag_400\n        /* \"#utility.yul\":10965:10971   */\n      dup4\n        /* \"#utility.yul\":10902:10972   */\n      tag_254\n      jump\t// in\n    tag_400:\n        /* \"#utility.yul\":10892:10972   */\n      swap3\n      pop\n        /* \"#utility.yul\":11001:11005   */\n      0x20\n        /* \"#utility.yul\":10996:10999   */\n      dup11\n        /* \"#utility.yul\":10992:11006   */\n      add\n        /* \"#utility.yul\":10985:11006   */\n      swap10\n      pop\n        /* \"#utility.yul\":10680:11016   */\n      pop\n        /* \"#utility.yul\":10667:10668   */\n      0x01\n        /* \"#utility.yul\":10664:10665   */\n      dup2\n        /* \"#utility.yul\":10660:10669   */\n      add\n        /* \"#utility.yul\":10655:10669   */\n      swap1\n      pop\n        /* \"#utility.yul\":10620:11016   */\n      jump(tag_396)\n    tag_398:\n        /* \"#utility.yul\":10624:10638   */\n      pop\n        /* \"#utility.yul\":11032:11036   */\n      dup3\n        /* \"#utility.yul\":11025:11036   */\n      swap8\n      pop\n        /* \"#utility.yul\":11052:11055   */\n      dup8\n        /* \"#utility.yul\":11045:11055   */\n      swap6\n      pop\n        /* \"#utility.yul\":10214:11061   */\n      pop\n      pop\n      pop\n      pop\n      pop\n        /* \"#utility.yul\":10070:11061   */\n      swap3\n      swap2\n      pop\n      pop\n      jump\t// out\n        /* \"#utility.yul\":11067:11181   */\n    tag_256:\n        /* \"#utility.yul\":11134:11140   */\n      0x00\n        /* \"#utility.yul\":11168:11173   */\n      dup2\n        /* \"#utility.yul\":11162:11174   */\n      mload\n        /* \"#utility.yul\":11152:11174   */\n      swap1\n      pop\n        /* \"#utility.yul\":11067:11181   */\n      swap2\n      swap1\n      pop\n      jump\t// out\n        /* \"#utility.yul\":11187:11371   */\n    tag_257:\n        /* \"#utility.yul\":11286:11297   */\n      0x00\n        /* \"#utility.yul\":11320:11326   */\n      dup3\n        /* \"#utility.yul\":11315:11318   */\n      dup3\n        /* \"#utility.yul\":11308:11327   */\n      mstore\n        /* \"#utility.yul\":11360:11364   */\n      0x20\n        /* \"#utility.yul\":11355:11358   */\n      dup3\n        /* \"#utility.yul\":11351:11365   */\n      add\n        /* \"#utility.yul\":11336:11365   */\n      swap1\n      pop\n        /* \"#utility.yul\":11187:11371   */\n      swap3\n      swap2\n      pop\n      pop\n      jump\t// out\n        /* \"#utility.yul\":11377:11509   */\n    tag_258:\n        /* \"#utility.yul\":11444:11448   */\n      0x00\n        /* \"#utility.yul\":11467:11470   */\n      dup2\n        /* \"#utility.yul\":11459:11470   */\n      swap1\n      pop\n        /* \"#utility.yul\":11497:11501   */\n      0x20\n        /* \"#utility.yul\":11492:11495   */\n      dup3\n        /* \"#utility.yul\":11488:11502   */\n      add\n        /* \"#utility.yul\":11480:11502   */\n      swap1\n      pop\n        /* \"#utility.yul\":11377:11509   */\n      swap2\n      swap1\n      pop\n      jump\t// out\n        /* \"#utility.yul\":11515:11623   */\n    tag_259:\n        /* \"#utility.yul\":11592:11616   */\n      tag_405\n        /* \"#utility.yul\":11610:11615   */\n      dup2\n        /* \"#utility.yul\":11592:11616   */\n      tag_227\n      jump\t// in\n    tag_405:\n        /* \"#utility.yul\":11587:11590   */\n      dup3\n        /* \"#utility.yul\":11580:11617   */\n      mstore\n        /* \"#utility.yul\":11515:11623   */\n      pop\n      pop\n      jump\t// out\n        /* \"#utility.yul\":11629:11808   */\n    tag_260:\n        /* \"#utility.yul\":11698:11708   */\n      0x00\n        /* \"#utility.yul\":11719:11765   */\n      tag_407\n        /* \"#utility.yul\":11761:11764   */\n      dup4\n        /* \"#utility.yul\":11753:11759   */\n      dup4\n        /* \"#utility.yul\":11719:11765   */\n      tag_259\n      jump\t// in\n    tag_407:\n        /* \"#utility.yul\":11797:11801   */\n      0x20\n        /* \"#utility.yul\":11792:11795   */\n      dup4\n        /* \"#utility.yul\":11788:11802   */\n      add\n        /* \"#utility.yul\":11774:11802   */\n      swap1\n      pop\n        /* \"#utility.yul\":11629:11808   */\n      swap3\n      swap2\n      pop\n      pop\n      jump\t// out\n        /* \"#utility.yul\":11814:11927   */\n    tag_261:\n        /* \"#utility.yul\":11884:11888   */\n      0x00\n        /* \"#utility.yul\":11916:11920   */\n      0x20\n        /* \"#utility.yul\":11911:11914   */\n      dup3\n        /* \"#utility.yul\":11907:11921   */\n      add\n        /* \"#utility.yul\":11899:11921   */\n      swap1\n      pop\n        /* \"#utility.yul\":11814:11927   */\n      swap2\n      swap1\n      pop\n      jump\t// out\n        /* \"#utility.yul\":11963:12695   */\n    tag_262:\n        /* \"#utility.yul\":12082:12085   */\n      0x00\n        /* \"#utility.yul\":12111:12165   */\n      tag_410\n        /* \"#utility.yul\":12159:12164   */\n      dup3\n        /* \"#utility.yul\":12111:12165   */\n      tag_256\n      jump\t// in\n    tag_410:\n        /* \"#utility.yul\":12181:12267   */\n      tag_411\n        /* \"#utility.yul\":12260:12266   */\n      dup2\n        /* \"#utility.yul\":12255:12258   */\n      dup6\n        /* \"#utility.yul\":12181:12267   */\n      tag_257\n      jump\t// in\n    tag_411:\n        /* \"#utility.yul\":12174:12267   */\n      swap4\n      pop\n        /* \"#utility.yul\":12291:12347   */\n      tag_412\n        /* \"#utility.yul\":12341:12346   */\n      dup4\n        /* \"#utility.yul\":12291:12347   */\n      tag_258\n      jump\t// in\n    tag_412:\n        /* \"#utility.yul\":12370:12377   */\n      dup1\n        /* \"#utility.yul\":12401:12402   */\n      0x00\n        /* \"#utility.yul\":12386:12670   */\n    tag_413:\n        /* \"#utility.yul\":12411:12417   */\n      dup4\n        /* \"#utility.yul\":12408:12409   */\n      dup2\n        /* \"#utility.yul\":12405:12418   */\n      lt\n        /* \"#utility.yul\":12386:12670   */\n      iszero\n      tag_415\n      jumpi\n        /* \"#utility.yul\":12487:12493   */\n      dup2\n        /* \"#utility.yul\":12481:12494   */\n      mload\n        /* \"#utility.yul\":12514:12577   */\n      tag_416\n        /* \"#utility.yul\":12573:12576   */\n      dup9\n        /* \"#utility.yul\":12558:12571   */\n      dup3\n        /* \"#utility.yul\":12514:12577   */\n      tag_260\n      jump\t// in\n    tag_416:\n        /* \"#utility.yul\":12507:12577   */\n      swap8\n      pop\n        /* \"#utility.yul\":12600:12660   */\n      tag_417\n        /* \"#utility.yul\":12653:12659   */\n      dup4\n        /* \"#utility.yul\":12600:12660   */\n      tag_261\n      jump\t// in\n    tag_417:\n        /* \"#utility.yul\":12590:12660   */\n      swap3\n      pop\n        /* \"#utility.yul\":12446:12670   */\n      pop\n        /* \"#utility.yul\":12433:12434   */\n      0x01\n        /* \"#utility.yul\":12430:12431   */\n      dup2\n        /* \"#utility.yul\":12426:12435   */\n      add\n        /* \"#utility.yul\":12421:12435   */\n      swap1\n      pop\n        /* \"#utility.yul\":12386:12670   */\n      jump(tag_413)\n    tag_415:\n        /* \"#utility.yul\":12390:12404   */\n      pop\n        /* \"#utility.yul\":12686:12689   */\n      dup6\n        /* \"#utility.yul\":12679:12689   */\n      swap4\n      pop\n        /* \"#utility.yul\":12087:12695   */\n      pop\n      pop\n      pop\n        /* \"#utility.yul\":11963:12695   */\n      swap3\n      swap2\n      pop\n      pop\n      jump\t// out\n        /* \"#utility.yul\":12701:13978   */\n    tag_35:\n        /* \"#utility.yul\":13138:13142   */\n      0x00\n        /* \"#utility.yul\":13176:13179   */\n      0x80\n        /* \"#utility.yul\":13165:13174   */\n      dup3\n        /* \"#utility.yul\":13161:13180   */\n      add\n        /* \"#utility.yul\":13153:13180   */\n      swap1\n      pop\n        /* \"#utility.yul\":13226:13235   */\n      dup2\n        /* \"#utility.yul\":13220:13224   */\n      dup2\n        /* \"#utility.yul\":13216:13236   */\n      sub\n        /* \"#utility.yul\":13212:13213   */\n      0x00\n        /* \"#utility.yul\":13201:13210   */\n      dup4\n        /* \"#utility.yul\":13197:13214   */\n      add\n        /* \"#utility.yul\":13190:13237   */\n      mstore\n        /* \"#utility.yul\":13254:13382   */\n      tag_419\n        /* \"#utility.yul\":13377:13381   */\n      dup2\n        /* \"#utility.yul\":13368:13374   */\n      dup8\n        /* \"#utility.yul\":13254:13382   */\n      tag_255\n      jump\t// in\n    tag_419:\n        /* \"#utility.yul\":13246:13382   */\n      swap1\n      pop\n        /* \"#utility.yul\":13429:13438   */\n      dup2\n        /* \"#utility.yul\":13423:13427   */\n      dup2\n        /* \"#utility.yul\":13419:13439   */\n      sub\n        /* \"#utility.yul\":13414:13416   */\n      0x20\n        /* \"#utility.yul\":13403:13412   */\n      dup4\n        /* \"#utility.yul\":13399:13417   */\n      add\n        /* \"#utility.yul\":13392:13440   */\n      mstore\n        /* \"#utility.yul\":13457:13585   */\n      tag_420\n        /* \"#utility.yul\":13580:13584   */\n      dup2\n        /* \"#utility.yul\":13571:13577   */\n      dup7\n        /* \"#utility.yul\":13457:13585   */\n      tag_255\n      jump\t// in\n    tag_420:\n        /* \"#utility.yul\":13449:13585   */\n      swap1\n      pop\n        /* \"#utility.yul\":13632:13641   */\n      dup2\n        /* \"#utility.yul\":13626:13630   */\n      dup2\n        /* \"#utility.yul\":13622:13642   */\n      sub\n        /* \"#utility.yul\":13617:13619   */\n      0x40\n        /* \"#utility.yul\":13606:13615   */\n      dup4\n        /* \"#utility.yul\":13602:13620   */\n      add\n        /* \"#utility.yul\":13595:13643   */\n      mstore\n        /* \"#utility.yul\":13660:13788   */\n      tag_421\n        /* \"#utility.yul\":13783:13787   */\n      dup2\n        /* \"#utility.yul\":13774:13780   */\n      dup6\n        /* \"#utility.yul\":13660:13788   */\n      tag_255\n      jump\t// in\n    tag_421:\n        /* \"#utility.yul\":13652:13788   */\n      swap1\n      pop\n        /* \"#utility.yul\":13835:13844   */\n      dup2\n        /* \"#utility.yul\":13829:13833   */\n      dup2\n        /* \"#utility.yul\":13825:13845   */\n      sub\n        /* \"#utility.yul\":13820:13822   */\n      0x60\n        /* \"#utility.yul\":13809:13818   */\n      dup4\n        /* \"#utility.yul\":13805:13823   */\n      add\n        /* \"#utility.yul\":13798:13846   */\n      mstore\n        /* \"#utility.yul\":13863:13971   */\n      tag_422\n        /* \"#utility.yul\":13966:13970   */\n      dup2\n        /* \"#utility.yul\":13957:13963   */\n      dup5\n        /* \"#utility.yul\":13863:13971   */\n      tag_262\n      jump\t// in\n    tag_422:\n        /* \"#utility.yul\":13855:13971   */\n      swap1\n      pop\n        /* \"#utility.yul\":12701:13978   */\n      swap6\n      swap5\n      pop\n      pop\n      pop\n      pop\n      pop\n      jump\t// out\n        /* \"#utility.yul\":13984:14963   */\n    tag_38:\n        /* \"#utility.yul\":14081:14087   */\n      0x00\n        /* \"#utility.yul\":14089:14095   */\n      dup1\n        /* \"#utility.yul\":14097:14103   */\n      0x00\n        /* \"#utility.yul\":14146:14148   */\n      0x60\n        /* \"#utility.yul\":14134:14143   */\n      dup5\n        /* \"#utility.yul\":14125:14132   */\n      dup7\n        /* \"#utility.yul\":14121:14144   */\n      sub\n        /* \"#utility.yul\":14117:14149   */\n      slt\n        /* \"#utility.yul\":14114:14233   */\n      iszero\n      tag_424\n      jumpi\n        /* \"#utility.yul\":14152:14231   */\n      tag_425\n      tag_225\n      jump\t// in\n    tag_425:\n        /* \"#utility.yul\":14114:14233   */\n    tag_424:\n        /* \"#utility.yul\":14300:14301   */\n      0x00\n        /* \"#utility.yul\":14289:14298   */\n      dup5\n        /* \"#utility.yul\":14285:14302   */\n      add\n        /* \"#utility.yul\":14272:14303   */\n      calldataload\n        /* \"#utility.yul\":14330:14348   */\n      0xffffffffffffffff\n        /* \"#utility.yul\":14322:14328   */\n      dup2\n        /* \"#utility.yul\":14319:14349   */\n      gt\n        /* \"#utility.yul\":14316:14433   */\n      iszero\n      tag_426\n      jumpi\n        /* \"#utility.yul\":14352:14431   */\n      tag_427\n      tag_226\n      jump\t// in\n    tag_427:\n        /* \"#utility.yul\":14316:14433   */\n    tag_426:\n        /* \"#utility.yul\":14457:14520   */\n      tag_428\n        /* \"#utility.yul\":14512:14519   */\n      dup7\n        /* \"#utility.yul\":14503:14509   */\n      dup3\n        /* \"#utility.yul\":14492:14501   */\n      dup8\n        /* \"#utility.yul\":14488:14510   */\n      add\n        /* \"#utility.yul\":14457:14520   */\n      tag_242\n      jump\t// in\n    tag_428:\n        /* \"#utility.yul\":14447:14520   */\n      swap4\n      pop\n        /* \"#utility.yul\":14243:14530   */\n      pop\n        /* \"#utility.yul\":14597:14599   */\n      0x20\n        /* \"#utility.yul\":14586:14595   */\n      dup5\n        /* \"#utility.yul\":14582:14600   */\n      add\n        /* \"#utility.yul\":14569:14601   */\n      calldataload\n        /* \"#utility.yul\":14628:14646   */\n      0xffffffffffffffff\n        /* \"#utility.yul\":14620:14626   */\n      dup2\n        /* \"#utility.yul\":14617:14647   */\n      gt\n        /* \"#utility.yul\":14614:14731   */\n      iszero\n      tag_429\n      jumpi\n        /* \"#utility.yul\":14650:14729   */\n      tag_430\n      tag_226\n      jump\t// in\n    tag_430:\n        /* \"#utility.yul\":14614:14731   */\n    tag_429:\n        /* \"#utility.yul\":14755:14818   */\n      tag_431\n        /* \"#utility.yul\":14810:14817   */\n      dup7\n        /* \"#utility.yul\":14801:14807   */\n      dup3\n        /* \"#utility.yul\":14790:14799   */\n      dup8\n        /* \"#utility.yul\":14786:14808   */\n      add\n        /* \"#utility.yul\":14755:14818   */\n      tag_242\n      jump\t// in\n    tag_431:\n        /* \"#utility.yul\":14745:14818   */\n      swap3\n      pop\n        /* \"#utility.yul\":14540:14828   */\n      pop\n        /* \"#utility.yul\":14867:14869   */\n      0x40\n        /* \"#utility.yul\":14893:14946   */\n      tag_432\n        /* \"#utility.yul\":14938:14945   */\n      dup7\n        /* \"#utility.yul\":14929:14935   */\n      dup3\n        /* \"#utility.yul\":14918:14927   */\n      dup8\n        /* \"#utility.yul\":14914:14936   */\n      add\n        /* \"#utility.yul\":14893:14946   */\n      tag_246\n      jump\t// in\n    tag_432:\n        /* \"#utility.yul\":14883:14946   */\n      swap2\n      pop\n        /* \"#utility.yul\":14838:14956   */\n      pop\n        /* \"#utility.yul\":13984:14963   */\n      swap3\n      pop\n      swap3\n      pop\n      swap3\n      jump\t// out\n        /* \"#utility.yul\":14969:15149   */\n    tag_263:\n        /* \"#utility.yul\":15017:15094   */\n      0x4e487b7100000000000000000000000000000000000000000000000000000000\n        /* \"#utility.yul\":15014:15015   */\n      0x00\n        /* \"#utility.yul\":15007:15095   */\n      mstore\n        /* \"#utility.yul\":15114:15118   */\n      0x22\n        /* \"#utility.yul\":15111:15112   */\n      0x04\n        /* \"#utility.yul\":15104:15119   */\n      mstore\n        /* \"#utility.yul\":15138:15142   */\n      0x24\n        /* \"#utility.yul\":15135:15136   */\n      0x00\n        /* \"#utility.yul\":15128:15143   */\n      revert\n        /* \"#utility.yul\":15155:15475   */\n    tag_45:\n        /* \"#utility.yul\":15199:15205   */\n      0x00\n        /* \"#utility.yul\":15236:15237   */\n      0x02\n        /* \"#utility.yul\":15230:15234   */\n      dup3\n        /* \"#utility.yul\":15226:15238   */\n      div\n        /* \"#utility.yul\":15216:15238   */\n      swap1\n      pop\n        /* \"#utility.yul\":15283:15284   */\n      0x01\n        /* \"#utility.yul\":15277:15281   */\n      dup3\n        /* \"#utility.yul\":15273:15285   */\n      and\n        /* \"#utility.yul\":15304:15322   */\n      dup1\n        /* \"#utility.yul\":15294:15375   */\n      tag_435\n      jumpi\n        /* \"#utility.yul\":15360:15364   */\n      0x7f\n        /* \"#utility.yul\":15352:15358   */\n      dup3\n        /* \"#utility.yul\":15348:15365   */\n      and\n        /* \"#utility.yul\":15338:15365   */\n      swap2\n      pop\n        /* \"#utility.yul\":15294:15375   */\n    tag_435:\n        /* \"#utility.yul\":15422:15424   */\n      0x20\n        /* \"#utility.yul\":15414:15420   */\n      dup3\n        /* \"#utility.yul\":15411:15425   */\n      lt\n        /* \"#utility.yul\":15391:15409   */\n      dup2\n        /* \"#utility.yul\":15388:15426   */\n      sub\n        /* \"#utility.yul\":15385:15469   */\n      tag_436\n      jumpi\n        /* \"#utility.yul\":15441:15459   */\n      tag_437\n      tag_263\n      jump\t// in\n    tag_437:\n        /* \"#utility.yul\":15385:15469   */\n    tag_436:\n        /* \"#utility.yul\":15206:15475   */\n      pop\n        /* \"#utility.yul\":15155:15475   */\n      swap2\n      swap1\n      pop\n      jump\t// out\n        /* \"#utility.yul\":15481:15599   */\n    tag_264:\n        /* \"#utility.yul\":15568:15592   */\n      tag_439\n        /* \"#utility.yul\":15586:15591   */\n      dup2\n        /* \"#utility.yul\":15568:15592   */\n      tag_244\n      jump\t// in\n    tag_439:\n        /* \"#utility.yul\":15563:15566   */\n      dup3\n        /* \"#utility.yul\":15556:15593   */\n      mstore\n        /* \"#utility.yul\":15481:15599   */\n      pop\n      pop\n      jump\t// out\n        /* \"#utility.yul\":15605:15827   */\n    tag_63:\n        /* \"#utility.yul\":15698:15702   */\n      0x00\n        /* \"#utility.yul\":15736:15738   */\n      0x20\n        /* \"#utility.yul\":15725:15734   */\n      dup3\n        /* \"#utility.yul\":15721:15739   */\n      add\n        /* \"#utility.yul\":15713:15739   */\n      swap1\n      pop\n        /* \"#utility.yul\":15749:15820   */\n      tag_441\n        /* \"#utility.yul\":15817:15818   */\n      0x00\n        /* \"#utility.yul\":15806:15815   */\n      dup4\n        /* \"#utility.yul\":15802:15819   */\n      add\n        /* \"#utility.yul\":15793:15799   */\n      dup5\n        /* \"#utility.yul\":15749:15820   */\n      tag_264\n      jump\t// in\n    tag_441:\n        /* \"#utility.yul\":15605:15827   */\n      swap3\n      swap2\n      pop\n      pop\n      jump\t// out\n        /* \"#utility.yul\":15833:16267   */\n    tag_265:\n        /* \"#utility.yul\":15922:15927   */\n      0x00\n        /* \"#utility.yul\":15947:16013   */\n      tag_443\n        /* \"#utility.yul\":15963:16012   */\n      tag_444\n        /* \"#utility.yul\":16005:16011   */\n      dup5\n        /* \"#utility.yul\":15963:16012   */\n      tag_239\n      jump\t// in\n    tag_444:\n        /* \"#utility.yul\":15947:16013   */\n      tag_238\n      jump\t// in\n    tag_443:\n        /* \"#utility.yul\":15938:16013   */\n      swap1\n      pop\n        /* \"#utility.yul\":16036:16042   */\n      dup3\n        /* \"#utility.yul\":16029:16034   */\n      dup2\n        /* \"#utility.yul\":16022:16043   */\n      mstore\n        /* \"#utility.yul\":16074:16078   */\n      0x20\n        /* \"#utility.yul\":16067:16072   */\n      dup2\n        /* \"#utility.yul\":16063:16079   */\n      add\n        /* \"#utility.yul\":16112:16115   */\n      dup5\n        /* \"#utility.yul\":16103:16109   */\n      dup5\n        /* \"#utility.yul\":16098:16101   */\n      dup5\n        /* \"#utility.yul\":16094:16110   */\n      add\n        /* \"#utility.yul\":16091:16116   */\n      gt\n        /* \"#utility.yul\":16088:16200   */\n      iszero\n      tag_445\n      jumpi\n        /* \"#utility.yul\":16119:16198   */\n      tag_446\n      tag_236\n      jump\t// in\n    tag_446:\n        /* \"#utility.yul\":16088:16200   */\n    tag_445:\n        /* \"#utility.yul\":16209:16261   */\n      tag_447\n        /* \"#utility.yul\":16254:16260   */\n      dup5\n        /* \"#utility.yul\":16249:16252   */\n      dup3\n        /* \"#utility.yul\":16244:16247   */\n      dup6\n        /* \"#utility.yul\":16209:16261   */\n      tag_232\n      jump\t// in\n    tag_447:\n        /* \"#utility.yul\":15928:16267   */\n      pop\n        /* \"#utility.yul\":15833:16267   */\n      swap4\n      swap3\n      pop\n      pop\n      pop\n      jump\t// out\n        /* \"#utility.yul\":16287:16642   */\n    tag_266:\n        /* \"#utility.yul\":16354:16359   */\n      0x00\n        /* \"#utility.yul\":16403:16406   */\n      dup3\n        /* \"#utility.yul\":16396:16400   */\n      0x1f\n        /* \"#utility.yul\":16388:16394   */\n      dup4\n        /* \"#utility.yul\":16384:16401   */\n      add\n        /* \"#utility.yul\":16380:16407   */\n      slt\n        /* \"#utility.yul\":16370:16492   */\n      tag_449\n      jumpi\n        /* \"#utility.yul\":16411:16490   */\n      tag_450\n      tag_235\n      jump\t// in\n    tag_450:\n        /* \"#utility.yul\":16370:16492   */\n    tag_449:\n        /* \"#utility.yul\":16521:16527   */\n      dup2\n        /* \"#utility.yul\":16515:16528   */\n      mload\n        /* \"#utility.yul\":16546:16636   */\n      tag_451\n        /* \"#utility.yul\":16632:16635   */\n      dup5\n        /* \"#utility.yul\":16624:16630   */\n      dup3\n        /* \"#utility.yul\":16617:16621   */\n      0x20\n        /* \"#utility.yul\":16609:16615   */\n      dup7\n        /* \"#utility.yul\":16605:16622   */\n      add\n        /* \"#utility.yul\":16546:16636   */\n      tag_265\n      jump\t// in\n    tag_451:\n        /* \"#utility.yul\":16537:16636   */\n      swap2\n      pop\n        /* \"#utility.yul\":16360:16642   */\n      pop\n        /* \"#utility.yul\":16287:16642   */\n      swap3\n      swap2\n      pop\n      pop\n      jump\t// out\n        /* \"#utility.yul\":16648:17172   */\n    tag_67:\n        /* \"#utility.yul\":16728:16734   */\n      0x00\n        /* \"#utility.yul\":16777:16779   */\n      0x20\n        /* \"#utility.yul\":16765:16774   */\n      dup3\n        /* \"#utility.yul\":16756:16763   */\n      dup5\n        /* \"#utility.yul\":16752:16775   */\n      sub\n        /* \"#utility.yul\":16748:16780   */\n      slt\n        /* \"#utility.yul\":16745:16864   */\n      iszero\n      tag_453\n      jumpi\n        /* \"#utility.yul\":16783:16862   */\n      tag_454\n      tag_225\n      jump\t// in\n    tag_454:\n        /* \"#utility.yul\":16745:16864   */\n    tag_453:\n        /* \"#utility.yul\":16924:16925   */\n      0x00\n        /* \"#utility.yul\":16913:16922   */\n      dup3\n        /* \"#utility.yul\":16909:16926   */\n      add\n        /* \"#utility.yul\":16903:16927   */\n      mload\n        /* \"#utility.yul\":16954:16972   */\n      0xffffffffffffffff\n        /* \"#utility.yul\":16946:16952   */\n      dup2\n        /* \"#utility.yul\":16943:16973   */\n      gt\n        /* \"#utility.yul\":16940:17057   */\n      iszero\n      tag_455\n      jumpi\n        /* \"#utility.yul\":16976:17055   */\n      tag_456\n      tag_226\n      jump\t// in\n    tag_456:\n        /* \"#utility.yul\":16940:17057   */\n    tag_455:\n        /* \"#utility.yul\":17081:17155   */\n      tag_457\n        /* \"#utility.yul\":17147:17154   */\n      dup5\n        /* \"#utility.yul\":17138:17144   */\n      dup3\n        /* \"#utility.yul\":17127:17136   */\n      dup6\n        /* \"#utility.yul\":17123:17145   */\n      add\n        /* \"#utility.yul\":17081:17155   */\n      tag_266\n      jump\t// in\n    tag_457:\n        /* \"#utility.yul\":17071:17155   */\n      swap2\n      pop\n        /* \"#utility.yul\":16874:17165   */\n      pop\n        /* \"#utility.yul\":16648:17172   */\n      swap3\n      swap2\n      pop\n      pop\n      jump\t// out\n        /* \"#utility.yul\":17178:17326   */\n    tag_267:\n        /* \"#utility.yul\":17280:17291   */\n      0x00\n        /* \"#utility.yul\":17317:17320   */\n      dup2\n        /* \"#utility.yul\":17302:17320   */\n      swap1\n      pop\n        /* \"#utility.yul\":17178:17326   */\n      swap3\n      swap2\n      pop\n      pop\n      jump\t// out\n        /* \"#utility.yul\":17332:17722   */\n    tag_268:\n        /* \"#utility.yul\":17438:17441   */\n      0x00\n        /* \"#utility.yul\":17466:17505   */\n      tag_460\n        /* \"#utility.yul\":17499:17504   */\n      dup3\n        /* \"#utility.yul\":17466:17505   */\n      tag_230\n      jump\t// in\n    tag_460:\n        /* \"#utility.yul\":17521:17610   */\n      tag_461\n        /* \"#utility.yul\":17603:17609   */\n      dup2\n        /* \"#utility.yul\":17598:17601   */\n      dup6\n        /* \"#utility.yul\":17521:17610   */\n      tag_267\n      jump\t// in\n    tag_461:\n        /* \"#utility.yul\":17514:17610   */\n      swap4\n      pop\n        /* \"#utility.yul\":17619:17684   */\n      tag_462\n        /* \"#utility.yul\":17677:17683   */\n      dup2\n        /* \"#utility.yul\":17672:17675   */\n      dup6\n        /* \"#utility.yul\":17665:17669   */\n      0x20\n        /* \"#utility.yul\":17658:17663   */\n      dup7\n        /* \"#utility.yul\":17654:17670   */\n      add\n        /* \"#utility.yul\":17619:17684   */\n      tag_232\n      jump\t// in\n    tag_462:\n        /* \"#utility.yul\":17709:17715   */\n      dup1\n        /* \"#utility.yul\":17704:17707   */\n      dup5\n        /* \"#utility.yul\":17700:17716   */\n      add\n        /* \"#utility.yul\":17693:17716   */\n      swap2\n      pop\n        /* \"#utility.yul\":17442:17722   */\n      pop\n        /* \"#utility.yul\":17332:17722   */\n      swap3\n      swap2\n      pop\n      pop\n      jump\t// out\n        /* \"#utility.yul\":17728:18003   */\n    tag_69:\n        /* \"#utility.yul\":17860:17863   */\n      0x00\n        /* \"#utility.yul\":17882:17977   */\n      tag_464\n        /* \"#utility.yul\":17973:17976   */\n      dup3\n        /* \"#utility.yul\":17964:17970   */\n      dup5\n        /* \"#utility.yul\":17882:17977   */\n      tag_268\n      jump\t// in\n    tag_464:\n        /* \"#utility.yul\":17875:17977   */\n      swap2\n      pop\n        /* \"#utility.yul\":17994:17997   */\n      dup2\n        /* \"#utility.yul\":17987:17997   */\n      swap1\n      pop\n        /* \"#utility.yul\":17728:18003   */\n      swap3\n      swap2\n      pop\n      pop\n      jump\t// out\n        /* \"#utility.yul\":18009:18244   */\n    tag_269:\n        /* \"#utility.yul\":18149:18183   */\n      0x596f7520617265206e6f7420617574686f72697a656420746f20706572666f72\n        /* \"#utility.yul\":18145:18146   */\n      0x00\n        /* \"#utility.yul\":18137:18143   */\n      dup3\n        /* \"#utility.yul\":18133:18147   */\n      add\n        /* \"#utility.yul\":18126:18184   */\n      mstore\n        /* \"#utility.yul\":18218:18236   */\n      0x6d20746869732066756e6374696f6e2100000000000000000000000000000000\n        /* \"#utility.yul\":18213:18215   */\n      0x20\n        /* \"#utility.yul\":18205:18211   */\n      dup3\n        /* \"#utility.yul\":18201:18216   */\n      add\n        /* \"#utility.yul\":18194:18237   */\n      mstore\n        /* \"#utility.yul\":18009:18244   */\n      pop\n      jump\t// out\n        /* \"#utility.yul\":18250:18616   */\n    tag_270:\n        /* \"#utility.yul\":18392:18395   */\n      0x00\n        /* \"#utility.yul\":18413:18480   */\n      tag_467\n        /* \"#utility.yul\":18477:18479   */\n      0x30\n        /* \"#utility.yul\":18472:18475   */\n      dup4\n        /* \"#utility.yul\":18413:18480   */\n      tag_231\n      jump\t// in\n    tag_467:\n        /* \"#utility.yul\":18406:18480   */\n      swap2\n      pop\n        /* \"#utility.yul\":18489:18582   */\n      tag_468\n        /* \"#utility.yul\":18578:18581   */\n      dup3\n        /* \"#utility.yul\":18489:18582   */\n      tag_269\n      jump\t// in\n    tag_468:\n        /* \"#utility.yul\":18607:18609   */\n      0x40\n        /* \"#utility.yul\":18602:18605   */\n      dup3\n        /* \"#utility.yul\":18598:18610   */\n      add\n        /* \"#utility.yul\":18591:18610   */\n      swap1\n      pop\n        /* \"#utility.yul\":18250:18616   */\n      swap2\n      swap1\n      pop\n      jump\t// out\n        /* \"#utility.yul\":18622:19041   */\n    tag_73:\n        /* \"#utility.yul\":18788:18792   */\n      0x00\n        /* \"#utility.yul\":18826:18828   */\n      0x20\n        /* \"#utility.yul\":18815:18824   */\n      dup3\n        /* \"#utility.yul\":18811:18829   */\n      add\n        /* \"#utility.yul\":18803:18829   */\n      swap1\n      pop\n        /* \"#utility.yul\":18875:18884   */\n      dup2\n        /* \"#utility.yul\":18869:18873   */\n      dup2\n        /* \"#utility.yul\":18865:18885   */\n      sub\n        /* \"#utility.yul\":18861:18862   */\n      0x00\n        /* \"#utility.yul\":18850:18859   */\n      dup4\n        /* \"#utility.yul\":18846:18863   */\n      add\n        /* \"#utility.yul\":18839:18886   */\n      mstore\n        /* \"#utility.yul\":18903:19034   */\n      tag_470\n        /* \"#utility.yul\":19029:19033   */\n      dup2\n        /* \"#utility.yul\":18903:19034   */\n      tag_270\n      jump\t// in\n    tag_470:\n        /* \"#utility.yul\":18895:19034   */\n      swap1\n      pop\n        /* \"#utility.yul\":18622:19041   */\n      swap2\n      swap1\n      pop\n      jump\t// out\n        /* \"#utility.yul\":19047:19188   */\n    tag_271:\n        /* \"#utility.yul\":19096:19100   */\n      0x00\n        /* \"#utility.yul\":19119:19122   */\n      dup2\n        /* \"#utility.yul\":19111:19122   */\n      swap1\n      pop\n        /* \"#utility.yul\":19142:19145   */\n      dup2\n        /* \"#utility.yul\":19139:19140   */\n      0x00\n        /* \"#utility.yul\":19132:19146   */\n      mstore\n        /* \"#utility.yul\":19176:19180   */\n      0x20\n        /* \"#utility.yul\":19173:19174   */\n      0x00\n        /* \"#utility.yul\":19163:19181   */\n      keccak256\n        /* \"#utility.yul\":19155:19181   */\n      swap1\n      pop\n        /* \"#utility.yul\":19047:19188   */\n      swap2\n      swap1\n      pop\n      jump\t// out\n        /* \"#utility.yul\":19194:19287   */\n    tag_272:\n        /* \"#utility.yul\":19231:19237   */\n      0x00\n        /* \"#utility.yul\":19278:19280   */\n      0x20\n        /* \"#utility.yul\":19273:19275   */\n      0x1f\n        /* \"#utility.yul\":19266:19271   */\n      dup4\n        /* \"#utility.yul\":19262:19276   */\n      add\n        /* \"#utility.yul\":19258:19281   */\n      div\n        /* \"#utility.yul\":19248:19281   */\n      swap1\n      pop\n        /* \"#utility.yul\":19194:19287   */\n      swap2\n      swap1\n      pop\n      jump\t// out\n        /* \"#utility.yul\":19293:19400   */\n    tag_273:\n        /* \"#utility.yul\":19337:19345   */\n      0x00\n        /* \"#utility.yul\":19387:19392   */\n      dup3\n        /* \"#utility.yul\":19381:19385   */\n      dup3\n        /* \"#utility.yul\":19377:19393   */\n      shl\n        /* \"#utility.yul\":19356:19393   */\n      swap1\n      pop\n        /* \"#utility.yul\":19293:19400   */\n      swap3\n      swap2\n      pop\n      pop\n      jump\t// out\n        /* \"#utility.yul\":19406:19799   */\n    tag_274:\n        /* \"#utility.yul\":19475:19481   */\n      0x00\n        /* \"#utility.yul\":19525:19526   */\n      0x08\n        /* \"#utility.yul\":19513:19523   */\n      dup4\n        /* \"#utility.yul\":19509:19527   */\n      mul\n        /* \"#utility.yul\":19548:19645   */\n      tag_475\n        /* \"#utility.yul\":19578:19644   */\n      0xffffffffffffffffffffffffffffffffffffffffffffffffffffffffffffffff\n        /* \"#utility.yul\":19567:19576   */\n      dup3\n        /* \"#utility.yul\":19548:19645   */\n      tag_273\n      jump\t// in\n    tag_475:\n        /* \"#utility.yul\":19666:19705   */\n      tag_476\n        /* \"#utility.yul\":19696:19704   */\n      dup7\n        /* \"#utility.yul\":19685:19694   */\n      dup4\n        /* \"#utility.yul\":19666:19705   */\n      tag_273\n      jump\t// in\n    tag_476:\n        /* \"#utility.yul\":19654:19705   */\n      swap6\n      pop\n        /* \"#utility.yul\":19738:19742   */\n      dup1\n        /* \"#utility.yul\":19734:19743   */\n      not\n        /* \"#utility.yul\":19727:19732   */\n      dup5\n        /* \"#utility.yul\":19723:19744   */\n      and\n        /* \"#utility.yul\":19714:19744   */\n      swap4\n      pop\n        /* \"#utility.yul\":19787:19791   */\n      dup1\n        /* \"#utility.yul\":19777:19785   */\n      dup7\n        /* \"#utility.yul\":19773:19792   */\n      and\n        /* \"#utility.yul\":19766:19771   */\n      dup5\n        /* \"#utility.yul\":19763:19793   */\n      or\n        /* \"#utility.yul\":19753:19793   */\n      swap3\n      pop\n        /* \"#utility.yul\":19482:19799   */\n      pop\n      pop\n        /* \"#utility.yul\":19406:19799   */\n      swap4\n      swap3\n      pop\n      pop\n      pop\n      jump\t// out\n        /* \"#utility.yul\":19805:19865   */\n    tag_275:\n        /* \"#utility.yul\":19833:19836   */\n      0x00\n        /* \"#utility.yul\":19854:19859   */\n      dup2\n        /* \"#utility.yul\":19847:19859   */\n      swap1\n      pop\n        /* \"#utility.yul\":19805:19865   */\n      swap2\n      swap1\n      pop\n      jump\t// out\n        /* \"#utility.yul\":19871:20013   */\n    tag_276:\n        /* \"#utility.yul\":19921:19930   */\n      0x00\n        /* \"#utility.yul\":19954:20007   */\n      tag_479\n        /* \"#utility.yul\":19972:20006   */\n      tag_480\n        /* \"#utility.yul\":19981:20005   */\n      tag_481\n        /* \"#utility.yul\":19999:20004   */\n      dup5\n        /* \"#utility.yul\":19981:20005   */\n      tag_227\n      jump\t// in\n    tag_481:\n        /* \"#utility.yul\":19972:20006   */\n      tag_275\n      jump\t// in\n    tag_480:\n        /* \"#utility.yul\":19954:20007   */\n      tag_227\n      jump\t// in\n    tag_479:\n        /* \"#utility.yul\":19941:20007   */\n      swap1\n      pop\n        /* \"#utility.yul\":19871:20013   */\n      swap2\n      swap1\n      pop\n      jump\t// out\n        /* \"#utility.yul\":20019:20094   */\n    tag_277:\n        /* \"#utility.yul\":20062:20065   */\n      0x00\n        /* \"#utility.yul\":20083:20088   */\n      dup2\n        /* \"#utility.yul\":20076:20088   */\n      swap1\n      pop\n        /* \"#utility.yul\":20019:20094   */\n      swap2\n      swap1\n      pop\n      jump\t// out\n        /* \"#utility.yul\":20100:20369   */\n    tag_278:\n        /* \"#utility.yul\":20210:20249   */\n      tag_484\n        /* \"#utility.yul\":20241:20248   */\n      dup4\n        /* \"#utility.yul\":20210:20249   */\n      tag_276\n      jump\t// in\n    tag_484:\n        /* \"#utility.yul\":20271:20362   */\n      tag_485\n        /* \"#utility.yul\":20320:20361   */\n      tag_486\n        /* \"#utility.yul\":20344:20360   */\n      dup3\n        /* \"#utility.yul\":20320:20361   */\n      tag_277\n      jump\t// in\n    tag_486:\n        /* \"#utility.yul\":20312:20318   */\n      dup5\n        /* \"#utility.yul\":20305:20309   */\n      dup5\n        /* \"#utility.yul\":20299:20310   */\n      sload\n        /* \"#utility.yul\":20271:20362   */\n      tag_274\n      jump\t// in\n    tag_485:\n        /* \"#utility.yul\":20265:20269   */\n      dup3\n        /* \"#utility.yul\":20258:20363   */\n      sstore\n        /* \"#utility.yul\":20176:20369   */\n      pop\n        /* \"#utility.yul\":20100:20369   */\n      pop\n      pop\n      pop\n      jump\t// out\n        /* \"#utility.yul\":20375:20448   */\n    tag_279:\n        /* \"#utility.yul\":20420:20423   */\n      0x00\n        /* \"#utility.yul\":20375:20448   */\n      swap1\n      jump\t// out\n        /* \"#utility.yul\":20454:20643   */\n    tag_280:\n        /* \"#utility.yul\":20531:20563   */\n      tag_489\n      tag_279\n      jump\t// in\n    tag_489:\n        /* \"#utility.yul\":20572:20637   */\n      tag_490\n        /* \"#utility.yul\":20630:20636   */\n      dup2\n        /* \"#utility.yul\":20622:20628   */\n      dup5\n        /* \"#utility.yul\":20616:20620   */\n      dup5\n        /* \"#utility.yul\":20572:20637   */\n      tag_278\n      jump\t// in\n    tag_490:\n        /* \"#utility.yul\":20507:20643   */\n      pop\n        /* \"#utility.yul\":20454:20643   */\n      pop\n      pop\n      jump\t// out\n        /* \"#utility.yul\":20649:20835   */\n    tag_281:\n        /* \"#utility.yul\":20709:20829   */\n    tag_492:\n        /* \"#utility.yul\":20726:20729   */\n      dup2\n        /* \"#utility.yul\":20719:20724   */\n      dup2\n        /* \"#utility.yul\":20716:20730   */\n      lt\n        /* \"#utility.yul\":20709:20829   */\n      iszero\n      tag_494\n      jumpi\n        /* \"#utility.yul\":20780:20819   */\n      tag_495\n        /* \"#utility.yul\":20817:20818   */\n      0x00\n        /* \"#utility.yul\":20810:20815   */\n      dup3\n        /* \"#utility.yul\":20780:20819   */\n      tag_280\n      jump\t// in\n    tag_495:\n        /* \"#utility.yul\":20753:20754   */\n      0x01\n        /* \"#utility.yul\":20746:20751   */\n      dup2\n        /* \"#utility.yul\":20742:20755   */\n      add\n        /* \"#utility.yul\":20733:20755   */\n      swap1\n      pop\n        /* \"#utility.yul\":20709:20829   */\n      jump(tag_492)\n    tag_494:\n        /* \"#utility.yul\":20649:20835   */\n      pop\n      pop\n      jump\t// out\n        /* \"#utility.yul\":20841:21384   */\n    tag_282:\n        /* \"#utility.yul\":20942:20944   */\n      0x1f\n        /* \"#utility.yul\":20937:20940   */\n      dup3\n        /* \"#utility.yul\":20934:20945   */\n      gt\n        /* \"#utility.yul\":20931:21377   */\n      iszero\n      tag_497\n      jumpi\n        /* \"#utility.yul\":20976:21014   */\n      tag_498\n        /* \"#utility.yul\":21008:21013   */\n      dup2\n        /* \"#utility.yul\":20976:21014   */\n      tag_271\n      jump\t// in\n    tag_498:\n        /* \"#utility.yul\":21060:21089   */\n      tag_499\n        /* \"#utility.yul\":21078:21088   */\n      dup5\n        /* \"#utility.yul\":21060:21089   */\n      tag_272\n      jump\t// in\n    tag_499:\n        /* \"#utility.yul\":21050:21058   */\n      dup2\n        /* \"#utility.yul\":21046:21090   */\n      add\n        /* \"#utility.yul\":21243:21245   */\n      0x20\n        /* \"#utility.yul\":21231:21241   */\n      dup6\n        /* \"#utility.yul\":21228:21246   */\n      lt\n        /* \"#utility.yul\":21225:21274   */\n      iszero\n      tag_500\n      jumpi\n        /* \"#utility.yul\":21264:21272   */\n      dup2\n        /* \"#utility.yul\":21249:21272   */\n      swap1\n      pop\n        /* \"#utility.yul\":21225:21274   */\n    tag_500:\n        /* \"#utility.yul\":21287:21367   */\n      tag_501\n        /* \"#utility.yul\":21343:21365   */\n      tag_502\n        /* \"#utility.yul\":21361:21364   */\n      dup6\n        /* \"#utility.yul\":21343:21365   */\n      tag_272\n      jump\t// in\n    tag_502:\n        /* \"#utility.yul\":21333:21341   */\n      dup4\n        /* \"#utility.yul\":21329:21366   */\n      add\n        /* \"#utility.yul\":21316:21327   */\n      dup3\n        /* \"#utility.yul\":21287:21367   */\n      tag_281\n      jump\t// in\n    tag_501:\n        /* \"#utility.yul\":20946:21377   */\n      pop\n      pop\n        /* \"#utility.yul\":20931:21377   */\n    tag_497:\n        /* \"#utility.yul\":20841:21384   */\n      pop\n      pop\n      pop\n      jump\t// out\n        /* \"#utility.yul\":21390:21507   */\n    tag_283:\n        /* \"#utility.yul\":21444:21452   */\n      0x00\n        /* \"#utility.yul\":21494:21499   */\n      dup3\n        /* \"#utility.yul\":21488:21492   */\n      dup3\n        /* \"#utility.yul\":21484:21500   */\n      shr\n        /* \"#utility.yul\":21463:21500   */\n      swap1\n      pop\n        /* \"#utility.yul\":21390:21507   */\n      swap3\n      swap2\n      pop\n      pop\n      jump\t// out\n        /* \"#utility.yul\":21513:21682   */\n    tag_284:\n        /* \"#utility.yul\":21557:21563   */\n      0x00\n        /* \"#utility.yul\":21590:21641   */\n      tag_505\n        /* \"#utility.yul\":21638:21639   */\n      0x00\n        /* \"#utility.yul\":21634:21640   */\n      not\n        /* \"#utility.yul\":21626:21631   */\n      dup5\n        /* \"#utility.yul\":21623:21624   */\n      0x08\n        /* \"#utility.yul\":21619:21632   */\n      mul\n        /* \"#utility.yul\":21590:21641   */\n      tag_283\n      jump\t// in\n    tag_505:\n        /* \"#utility.yul\":21586:21642   */\n      not\n        /* \"#utility.yul\":21671:21675   */\n      dup1\n        /* \"#utility.yul\":21665:21669   */\n      dup4\n        /* \"#utility.yul\":21661:21676   */\n      and\n        /* \"#utility.yul\":21651:21676   */\n      swap2\n      pop\n        /* \"#utility.yul\":21564:21682   */\n      pop\n        /* \"#utility.yul\":21513:21682   */\n      swap3\n      swap2\n      pop\n      pop\n      jump\t// out\n        /* \"#utility.yul\":21687:21982   */\n    tag_285:\n        /* \"#utility.yul\":21763:21767   */\n      0x00\n        /* \"#utility.yul\":21909:21938   */\n      tag_507\n        /* \"#utility.yul\":21934:21937   */\n      dup4\n        /* \"#utility.yul\":21928:21932   */\n      dup4\n        /* \"#utility.yul\":21909:21938   */\n      tag_284\n      jump\t// in\n    tag_507:\n        /* \"#utility.yul\":21901:21938   */\n      swap2\n      pop\n        /* \"#utility.yul\":21971:21974   */\n      dup3\n        /* \"#utility.yul\":21968:21969   */\n      0x02\n        /* \"#utility.yul\":21964:21975   */\n      mul\n        /* \"#utility.yul\":21958:21962   */\n      dup3\n        /* \"#utility.yul\":21955:21976   */\n      or\n        /* \"#utility.yul\":21947:21976   */\n      swap1\n      pop\n        /* \"#utility.yul\":21687:21982   */\n      swap3\n      swap2\n      pop\n      pop\n      jump\t// out\n        /* \"#utility.yul\":21987:23382   */\n    tag_81:\n        /* \"#utility.yul\":22104:22141   */\n      tag_509\n        /* \"#utility.yul\":22137:22140   */\n      dup3\n        /* \"#utility.yul\":22104:22141   */\n      tag_230\n      jump\t// in\n    tag_509:\n        /* \"#utility.yul\":22206:22224   */\n      0xffffffffffffffff\n        /* \"#utility.yul\":22198:22204   */\n      dup2\n        /* \"#utility.yul\":22195:22225   */\n      gt\n        /* \"#utility.yul\":22192:22248   */\n      iszero\n      tag_510\n      jumpi\n        /* \"#utility.yul\":22228:22246   */\n      tag_511\n      tag_138\n      jump\t// in\n    tag_511:\n        /* \"#utility.yul\":22192:22248   */\n    tag_510:\n        /* \"#utility.yul\":22272:22310   */\n      tag_512\n        /* \"#utility.yul\":22304:22308   */\n      dup3\n        /* \"#utility.yul\":22298:22309   */\n      sload\n        /* \"#utility.yul\":22272:22310   */\n      tag_45\n      jump\t// in\n    tag_512:\n        /* \"#utility.yul\":22357:22424   */\n      tag_513\n        /* \"#utility.yul\":22417:22423   */\n      dup3\n        /* \"#utility.yul\":22409:22415   */\n      dup3\n        /* \"#utility.yul\":22403:22407   */\n      dup6\n        /* \"#utility.yul\":22357:22424   */\n      tag_282\n      jump\t// in\n    tag_513:\n        /* \"#utility.yul\":22451:22452   */\n      0x00\n        /* \"#utility.yul\":22475:22479   */\n      0x20\n        /* \"#utility.yul\":22462:22479   */\n      swap1\n      pop\n        /* \"#utility.yul\":22507:22509   */\n      0x1f\n        /* \"#utility.yul\":22499:22505   */\n      dup4\n        /* \"#utility.yul\":22496:22510   */\n      gt\n        /* \"#utility.yul\":22524:22525   */\n      0x01\n        /* \"#utility.yul\":22519:23137   */\n      dup2\n      eq\n      tag_515\n      jumpi\n        /* \"#utility.yul\":23181:23182   */\n      0x00\n        /* \"#utility.yul\":23198:23204   */\n      dup5\n        /* \"#utility.yul\":23195:23272   */\n      iszero\n      tag_516\n      jumpi\n        /* \"#utility.yul\":23247:23256   */\n      dup3\n        /* \"#utility.yul\":23242:23245   */\n      dup8\n        /* \"#utility.yul\":23238:23257   */\n      add\n        /* \"#utility.yul\":23232:23258   */\n      mload\n        /* \"#utility.yul\":23223:23258   */\n      swap1\n      pop\n        /* \"#utility.yul\":23195:23272   */\n    tag_516:\n        /* \"#utility.yul\":23298:23365   */\n      tag_517\n        /* \"#utility.yul\":23358:23364   */\n      dup6\n        /* \"#utility.yul\":23351:23356   */\n      dup3\n        /* \"#utility.yul\":23298:23365   */\n      tag_285\n      jump\t// in\n    tag_517:\n        /* \"#utility.yul\":23292:23296   */\n      dup7\n        /* \"#utility.yul\":23285:23366   */\n      sstore\n        /* \"#utility.yul\":23154:23376   */\n      pop\n        /* \"#utility.yul\":22489:23376   */\n      jump(tag_514)\n        /* \"#utility.yul\":22519:23137   */\n    tag_515:\n        /* \"#utility.yul\":22571:22575   */\n      0x1f\n        /* \"#utility.yul\":22567:22576   */\n      not\n        /* \"#utility.yul\":22559:22565   */\n      dup5\n        /* \"#utility.yul\":22555:22577   */\n      and\n        /* \"#utility.yul\":22605:22642   */\n      tag_518\n        /* \"#utility.yul\":22637:22641   */\n      dup7\n        /* \"#utility.yul\":22605:22642   */\n      tag_271\n      jump\t// in\n    tag_518:\n        /* \"#utility.yul\":22664:22665   */\n      0x00\n        /* \"#utility.yul\":22678:22886   */\n    tag_519:\n        /* \"#utility.yul\":22692:22699   */\n      dup3\n        /* \"#utility.yul\":22689:22690   */\n      dup2\n        /* \"#utility.yul\":22686:22700   */\n      lt\n        /* \"#utility.yul\":22678:22886   */\n      iszero\n      tag_521\n      jumpi\n        /* \"#utility.yul\":22771:22780   */\n      dup5\n        /* \"#utility.yul\":22766:22769   */\n      dup10\n        /* \"#utility.yul\":22762:22781   */\n      add\n        /* \"#utility.yul\":22756:22782   */\n      mload\n        /* \"#utility.yul\":22748:22754   */\n      dup3\n        /* \"#utility.yul\":22741:22783   */\n      sstore\n        /* \"#utility.yul\":22822:22823   */\n      0x01\n        /* \"#utility.yul\":22814:22820   */\n      dup3\n        /* \"#utility.yul\":22810:22824   */\n      add\n        /* \"#utility.yul\":22800:22824   */\n      swap2\n      pop\n        /* \"#utility.yul\":22869:22871   */\n      0x20\n        /* \"#utility.yul\":22858:22867   */\n      dup6\n        /* \"#utility.yul\":22854:22872   */\n      add\n        /* \"#utility.yul\":22841:22872   */\n      swap5\n      pop\n        /* \"#utility.yul\":22715:22719   */\n      0x20\n        /* \"#utility.yul\":22712:22713   */\n      dup2\n        /* \"#utility.yul\":22708:22720   */\n      add\n        /* \"#utility.yul\":22703:22720   */\n      swap1\n      pop\n        /* \"#utility.yul\":22678:22886   */\n      jump(tag_519)\n    tag_521:\n        /* \"#utility.yul\":22914:22920   */\n      dup7\n        /* \"#utility.yul\":22905:22912   */\n      dup4\n        /* \"#utility.yul\":22902:22921   */\n      lt\n        /* \"#utility.yul\":22899:23078   */\n      iszero\n      tag_522\n      jumpi\n        /* \"#utility.yul\":22972:22981   */\n      dup5\n        /* \"#utility.yul\":22967:22970   */\n      dup10\n        /* \"#utility.yul\":22963:22982   */\n      add\n        /* \"#utility.yul\":22957:22983   */\n      mload\n        /* \"#utility.yul\":23015:23063   */\n      tag_523\n        /* \"#utility.yul\":23057:23061   */\n      0x1f\n        /* \"#utility.yul\":23049:23055   */\n      dup10\n        /* \"#utility.yul\":23045:23062   */\n      and\n        /* \"#utility.yul\":23034:23043   */\n      dup3\n        /* \"#utility.yul\":23015:23063   */\n      tag_284\n      jump\t// in\n    tag_523:\n        /* \"#utility.yul\":23007:23013   */\n      dup4\n        /* \"#utility.yul\":23000:23064   */\n      sstore\n        /* \"#utility.yul\":22922:23078   */\n      pop\n        /* \"#utility.yul\":22899:23078   */\n    tag_522:\n        /* \"#utility.yul\":23124:23125   */\n      0x01\n        /* \"#utility.yul\":23120:23121   */\n      0x02\n        /* \"#utility.yul\":23112:23118   */\n      dup9\n        /* \"#utility.yul\":23108:23122   */\n      mul\n        /* \"#utility.yul\":23104:23126   */\n      add\n        /* \"#utility.yul\":23098:23102   */\n      dup9\n        /* \"#utility.yul\":23091:23127   */\n      sstore\n        /* \"#utility.yul\":22526:23137   */\n      pop\n      pop\n      pop\n        /* \"#utility.yul\":22489:23376   */\n    tag_514:\n      pop\n        /* \"#utility.yul\":22079:23382   */\n      pop\n      pop\n      pop\n        /* \"#utility.yul\":21987:23382   */\n      pop\n      pop\n      jump\t// out\n        /* \"#utility.yul\":23388:23569   */\n    tag_286:\n        /* \"#utility.yul\":23528:23561   */\n      0x50616765206d757374206e6f7420626520657175616c20746f207a65726f2100\n        /* \"#utility.yul\":23524:23525   */\n      0x00\n        /* \"#utility.yul\":23516:23522   */\n      dup3\n        /* \"#utility.yul\":23512:23526   */\n      add\n        /* \"#utility.yul\":23505:23562   */\n      mstore\n        /* \"#utility.yul\":23388:23569   */\n      pop\n      jump\t// out\n        /* \"#utility.yul\":23575:23941   */\n    tag_287:\n        /* \"#utility.yul\":23717:23720   */\n      0x00\n        /* \"#utility.yul\":23738:23805   */\n      tag_526\n        /* \"#utility.yul\":23802:23804   */\n      0x1f\n        /* \"#utility.yul\":23797:23800   */\n      dup4\n        /* \"#utility.yul\":23738:23805   */\n      tag_231\n      jump\t// in\n    tag_526:\n        /* \"#utility.yul\":23731:23805   */\n      swap2\n      pop\n        /* \"#utility.yul\":23814:23907   */\n      tag_527\n        /* \"#utility.yul\":23903:23906   */\n      dup3\n        /* \"#utility.yul\":23814:23907   */\n      tag_286\n      jump\t// in\n    tag_527:\n        /* \"#utility.yul\":23932:23934   */\n      0x20\n        /* \"#utility.yul\":23927:23930   */\n      dup3\n        /* \"#utility.yul\":23923:23935   */\n      add\n        /* \"#utility.yul\":23916:23935   */\n      swap1\n      pop\n        /* \"#utility.yul\":23575:23941   */\n      swap2\n      swap1\n      pop\n      jump\t// out\n        /* \"#utility.yul\":23947:24366   */\n    tag_122:\n        /* \"#utility.yul\":24113:24117   */\n      0x00\n        /* \"#utility.yul\":24151:24153   */\n      0x20\n        /* \"#utility.yul\":24140:24149   */\n      dup3\n        /* \"#utility.yul\":24136:24154   */\n      add\n        /* \"#utility.yul\":24128:24154   */\n      swap1\n      pop\n        /* \"#utility.yul\":24200:24209   */\n      dup2\n        /* \"#utility.yul\":24194:24198   */\n      dup2\n        /* \"#utility.yul\":24190:24210   */\n      sub\n        /* \"#utility.yul\":24186:24187   */\n      0x00\n        /* \"#utility.yul\":24175:24184   */\n      dup4\n        /* \"#utility.yul\":24171:24188   */\n      add\n        /* \"#utility.yul\":24164:24211   */\n      mstore\n        /* \"#utility.yul\":24228:24359   */\n      tag_529\n        /* \"#utility.yul\":24354:24358   */\n      dup2\n        /* \"#utility.yul\":24228:24359   */\n      tag_287\n      jump\t// in\n    tag_529:\n        /* \"#utility.yul\":24220:24359   */\n      swap1\n      pop\n        /* \"#utility.yul\":23947:24366   */\n      swap2\n      swap1\n      pop\n      jump\t// out\n        /* \"#utility.yul\":24372:24595   */\n    tag_288:\n        /* \"#utility.yul\":24512:24546   */\n      0x506167652073697a65206d757374206e6f7420626520657175616c20746f207a\n        /* \"#utility.yul\":24508:24509   */\n      0x00\n        /* \"#utility.yul\":24500:24506   */\n      dup3\n        /* \"#utility.yul\":24496:24510   */\n      add\n        /* \"#utility.yul\":24489:24547   */\n      mstore\n        /* \"#utility.yul\":24581:24587   */\n      0x65726f2100000000000000000000000000000000000000000000000000000000\n        /* \"#utility.yul\":24576:24578   */\n      0x20\n        /* \"#utility.yul\":24568:24574   */\n      dup3\n        /* \"#utility.yul\":24564:24579   */\n      add\n        /* \"#utility.yul\":24557:24588   */\n      mstore\n        /* \"#utility.yul\":24372:24595   */\n      pop\n      jump\t// out\n        /* \"#utility.yul\":24601:24967   */\n    tag_289:\n        /* \"#utility.yul\":24743:24746   */\n      0x00\n        /* \"#utility.yul\":24764:24831   */\n      tag_532\n        /* \"#utility.yul\":24828:24830   */\n      0x24\n        /* \"#utility.yul\":24823:24826   */\n      dup4\n        /* \"#utility.yul\":24764:24831   */\n      tag_231\n      jump\t// in\n    tag_532:\n        /* \"#utility.yul\":24757:24831   */\n      swap2\n      pop\n        /* \"#utility.yul\":24840:24933   */\n      tag_533\n        /* \"#utility.yul\":24929:24932   */\n      dup3\n        /* \"#utility.yul\":24840:24933   */\n      tag_288\n      jump\t// in\n    tag_533:\n        /* \"#utility.yul\":24958:24960   */\n      0x40\n        /* \"#utility.yul\":24953:24956   */\n      dup3\n        /* \"#utility.yul\":24949:24961   */\n      add\n        /* \"#utility.yul\":24942:24961   */\n      swap1\n      pop\n        /* \"#utility.yul\":24601:24967   */\n      swap2\n      swap1\n      pop\n      jump\t// out\n        /* \"#utility.yul\":24973:25392   */\n    tag_125:\n        /* \"#utility.yul\":25139:25143   */\n      0x00\n        /* \"#utility.yul\":25177:25179   */\n      0x20\n        /* \"#utility.yul\":25166:25175   */\n      dup3\n        /* \"#utility.yul\":25162:25180   */\n      add\n        /* \"#utility.yul\":25154:25180   */\n      swap1\n      pop\n        /* \"#utility.yul\":25226:25235   */\n      dup2\n        /* \"#utility.yul\":25220:25224   */\n      dup2\n        /* \"#utility.yul\":25216:25236   */\n      sub\n        /* \"#utility.yul\":25212:25213   */\n      0x00\n        /* \"#utility.yul\":25201:25210   */\n      dup4\n        /* \"#utility.yul\":25197:25214   */\n      add\n        /* \"#utility.yul\":25190:25237   */\n      mstore\n        /* \"#utility.yul\":25254:25385   */\n      tag_535\n        /* \"#utility.yul\":25380:25384   */\n      dup2\n        /* \"#utility.yul\":25254:25385   */\n      tag_289\n      jump\t// in\n    tag_535:\n        /* \"#utility.yul\":25246:25385   */\n      swap1\n      pop\n        /* \"#utility.yul\":24973:25392   */\n      swap2\n      swap1\n      pop\n      jump\t// out\n        /* \"#utility.yul\":25398:25578   */\n    tag_290:\n        /* \"#utility.yul\":25446:25523   */\n      0x4e487b7100000000000000000000000000000000000000000000000000000000\n        /* \"#utility.yul\":25443:25444   */\n      0x00\n        /* \"#utility.yul\":25436:25524   */\n      mstore\n        /* \"#utility.yul\":25543:25547   */\n      0x11\n        /* \"#utility.yul\":25540:25541   */\n      0x04\n        /* \"#utility.yul\":25533:25548   */\n      mstore\n        /* \"#utility.yul\":25567:25571   */\n      0x24\n        /* \"#utility.yul\":25564:25565   */\n      0x00\n        /* \"#utility.yul\":25557:25572   */\n      revert\n        /* \"#utility.yul\":25584:25778   */\n    tag_127:\n        /* \"#utility.yul\":25624:25628   */\n      0x00\n        /* \"#utility.yul\":25644:25664   */\n      tag_538\n        /* \"#utility.yul\":25662:25663   */\n      dup3\n        /* \"#utility.yul\":25644:25664   */\n      tag_227\n      jump\t// in\n    tag_538:\n        /* \"#utility.yul\":25639:25664   */\n      swap2\n      pop\n        /* \"#utility.yul\":25678:25698   */\n      tag_539\n        /* \"#utility.yul\":25696:25697   */\n      dup4\n        /* \"#utility.yul\":25678:25698   */\n      tag_227\n      jump\t// in\n    tag_539:\n        /* \"#utility.yul\":25673:25698   */\n      swap3\n      pop\n        /* \"#utility.yul\":25722:25723   */\n      dup3\n        /* \"#utility.yul\":25719:25720   */\n      dup3\n        /* \"#utility.yul\":25715:25724   */\n      sub\n        /* \"#utility.yul\":25707:25724   */\n      swap1\n      pop\n        /* \"#utility.yul\":25746:25747   */\n      dup2\n        /* \"#utility.yul\":25740:25744   */\n      dup2\n        /* \"#utility.yul\":25737:25748   */\n      gt\n        /* \"#utility.yul\":25734:25771   */\n      iszero\n      tag_540\n      jumpi\n        /* \"#utility.yul\":25751:25769   */\n      tag_541\n      tag_290\n      jump\t// in\n    tag_541:\n        /* \"#utility.yul\":25734:25771   */\n    tag_540:\n        /* \"#utility.yul\":25584:25778   */\n      swap3\n      swap2\n      pop\n      pop\n      jump\t// out\n        /* \"#utility.yul\":25784:26194   */\n    tag_129:\n        /* \"#utility.yul\":25824:25831   */\n      0x00\n        /* \"#utility.yul\":25847:25867   */\n      tag_543\n        /* \"#utility.yul\":25865:25866   */\n      dup3\n        /* \"#utility.yul\":25847:25867   */\n      tag_227\n      jump\t// in\n    tag_543:\n        /* \"#utility.yul\":25842:25867   */\n      swap2\n      pop\n        /* \"#utility.yul\":25881:25901   */\n      tag_544\n        /* \"#utility.yul\":25899:25900   */\n      dup4\n        /* \"#utility.yul\":25881:25901   */\n      tag_227\n      jump\t// in\n    tag_544:\n        /* \"#utility.yul\":25876:25901   */\n      swap3\n      pop\n        /* \"#utility.yul\":25936:25937   */\n      dup3\n        /* \"#utility.yul\":25933:25934   */\n      dup3\n        /* \"#utility.yul\":25929:25938   */\n      mul\n        /* \"#utility.yul\":25958:25988   */\n      tag_545\n        /* \"#utility.yul\":25976:25987   */\n      dup2\n        /* \"#utility.yul\":25958:25988   */\n      tag_227\n      jump\t// in\n    tag_545:\n        /* \"#utility.yul\":25947:25988   */\n      swap2\n      pop\n        /* \"#utility.yul\":26137:26138   */\n      dup3\n        /* \"#utility.yul\":26128:26135   */\n      dup3\n        /* \"#utility.yul\":26124:26139   */\n      div\n        /* \"#utility.yul\":26121:26122   */\n      dup5\n        /* \"#utility.yul\":26118:26140   */\n      eq\n        /* \"#utility.yul\":26098:26099   */\n      dup4\n        /* \"#utility.yul\":26091:26100   */\n      iszero\n        /* \"#utility.yul\":26071:26154   */\n      or\n        /* \"#utility.yul\":26048:26187   */\n      tag_546\n      jumpi\n        /* \"#utility.yul\":26167:26185   */\n      tag_547\n      tag_290\n      jump\t// in\n    tag_547:\n        /* \"#utility.yul\":26048:26187   */\n    tag_546:\n        /* \"#utility.yul\":25832:26194   */\n      pop\n        /* \"#utility.yul\":25784:26194   */\n      swap3\n      swap2\n      pop\n      pop\n      jump\t// out\n        /* \"#utility.yul\":26200:26391   */\n    tag_131:\n        /* \"#utility.yul\":26240:26243   */\n      0x00\n        /* \"#utility.yul\":26259:26279   */\n      tag_549\n        /* \"#utility.yul\":26277:26278   */\n      dup3\n        /* \"#utility.yul\":26259:26279   */\n      tag_227\n      jump\t// in\n    tag_549:\n        /* \"#utility.yul\":26254:26279   */\n      swap2\n      pop\n        /* \"#utility.yul\":26293:26313   */\n      tag_550\n        /* \"#utility.yul\":26311:26312   */\n      dup4\n        /* \"#utility.yul\":26293:26313   */\n      tag_227\n      jump\t// in\n    tag_550:\n        /* \"#utility.yul\":26288:26313   */\n      swap3\n      pop\n        /* \"#utility.yul\":26336:26337   */\n      dup3\n        /* \"#utility.yul\":26333:26334   */\n      dup3\n        /* \"#utility.yul\":26329:26338   */\n      add\n        /* \"#utility.yul\":26322:26338   */\n      swap1\n      pop\n        /* \"#utility.yul\":26357:26360   */\n      dup1\n        /* \"#utility.yul\":26354:26355   */\n      dup3\n        /* \"#utility.yul\":26351:26361   */\n      gt\n        /* \"#utility.yul\":26348:26384   */\n      iszero\n      tag_551\n      jumpi\n        /* \"#utility.yul\":26364:26382   */\n      tag_552\n      tag_290\n      jump\t// in\n    tag_552:\n        /* \"#utility.yul\":26348:26384   */\n    tag_551:\n        /* \"#utility.yul\":26200:26391   */\n      swap3\n      swap2\n      pop\n      pop\n      jump\t// out\n        /* \"#utility.yul\":26397:26577   */\n    tag_166:\n        /* \"#utility.yul\":26445:26522   */\n      0x4e487b7100000000000000000000000000000000000000000000000000000000\n        /* \"#utility.yul\":26442:26443   */\n      0x00\n        /* \"#utility.yul\":26435:26523   */\n      mstore\n        /* \"#utility.yul\":26542:26546   */\n      0x32\n        /* \"#utility.yul\":26539:26540   */\n      0x04\n        /* \"#utility.yul\":26532:26547   */\n      mstore\n        /* \"#utility.yul\":26566:26570   */\n      0x24\n        /* \"#utility.yul\":26563:26564   */\n      0x00\n        /* \"#utility.yul\":26556:26571   */\n      revert\n        /* \"#utility.yul\":26583:26816   */\n    tag_187:\n        /* \"#utility.yul\":26622:26625   */\n      0x00\n        /* \"#utility.yul\":26645:26669   */\n      tag_555\n        /* \"#utility.yul\":26663:26668   */\n      dup3\n        /* \"#utility.yul\":26645:26669   */\n      tag_227\n      jump\t// in\n    tag_555:\n        /* \"#utility.yul\":26636:26669   */\n      swap2\n      pop\n        /* \"#utility.yul\":26691:26757   */\n      0xffffffffffffffffffffffffffffffffffffffffffffffffffffffffffffffff\n        /* \"#utility.yul\":26684:26689   */\n      dup3\n        /* \"#utility.yul\":26681:26758   */\n      sub\n        /* \"#utility.yul\":26678:26781   */\n      tag_556\n      jumpi\n        /* \"#utility.yul\":26761:26779   */\n      tag_557\n      tag_290\n      jump\t// in\n    tag_557:\n        /* \"#utility.yul\":26678:26781   */\n    tag_556:\n        /* \"#utility.yul\":26808:26809   */\n      0x01\n        /* \"#utility.yul\":26801:26806   */\n      dup3\n        /* \"#utility.yul\":26797:26810   */\n      add\n        /* \"#utility.yul\":26790:26810   */\n      swap1\n      pop\n        /* \"#utility.yul\":26583:26816   */\n      swap2\n      swap1\n      pop\n      jump\t// out\n        /* \"#utility.yul\":26822:26988   */\n    tag_291:\n        /* \"#utility.yul\":26962:26980   */\n      0x496e76616c696420706f73742069642100000000000000000000000000000000\n        /* \"#utility.yul\":26958:26959   */\n      0x00\n        /* \"#utility.yul\":26950:26956   */\n      dup3\n        /* \"#utility.yul\":26946:26960   */\n      add\n        /* \"#utility.yul\":26939:26981   */\n      mstore\n        /* \"#utility.yul\":26822:26988   */\n      pop\n      jump\t// out\n        /* \"#utility.yul\":26994:27360   */\n    tag_292:\n        /* \"#utility.yul\":27136:27139   */\n      0x00\n        /* \"#utility.yul\":27157:27224   */\n      tag_560\n        /* \"#utility.yul\":27221:27223   */\n      0x10\n        /* \"#utility.yul\":27216:27219   */\n      dup4\n        /* \"#utility.yul\":27157:27224   */\n      tag_231\n      jump\t// in\n    tag_560:\n        /* \"#utility.yul\":27150:27224   */\n      swap2\n      pop\n        /* \"#utility.yul\":27233:27326   */\n      tag_561\n        /* \"#utility.yul\":27322:27325   */\n      dup3\n        /* \"#utility.yul\":27233:27326   */\n      tag_291\n      jump\t// in\n    tag_561:\n        /* \"#utility.yul\":27351:27353   */\n      0x20\n        /* \"#utility.yul\":27346:27349   */\n      dup3\n        /* \"#utility.yul\":27342:27354   */\n      add\n        /* \"#utility.yul\":27335:27354   */\n      swap1\n      pop\n        /* \"#utility.yul\":26994:27360   */\n      swap2\n      swap1\n      pop\n      jump\t// out\n        /* \"#utility.yul\":27366:27785   */\n    tag_216:\n        /* \"#utility.yul\":27532:27536   */\n      0x00\n        /* \"#utility.yul\":27570:27572   */\n      0x20\n        /* \"#utility.yul\":27559:27568   */\n      dup3\n        /* \"#utility.yul\":27555:27573   */\n      add\n        /* \"#utility.yul\":27547:27573   */\n      swap1\n      pop\n        /* \"#utility.yul\":27619:27628   */\n      dup2\n        /* \"#utility.yul\":27613:27617   */\n      dup2\n        /* \"#utility.yul\":27609:27629   */\n      sub\n        /* \"#utility.yul\":27605:27606   */\n      0x00\n        /* \"#utility.yul\":27594:27603   */\n      dup4\n        /* \"#utility.yul\":27590:27607   */\n      add\n        /* \"#utility.yul\":27583:27630   */\n      mstore\n        /* \"#utility.yul\":27647:27778   */\n      tag_563\n        /* \"#utility.yul\":27773:27777   */\n      dup2\n        /* \"#utility.yul\":27647:27778   */\n      tag_292\n      jump\t// in\n    tag_563:\n        /* \"#utility.yul\":27639:27778   */\n      swap1\n      pop\n        /* \"#utility.yul\":27366:27785   */\n      swap2\n      swap1\n      pop\n      jump\t// out\n\n    auxdata: 0xa2646970667358221220e2299e3009a51f7ae3d8e48ab033d72964f3df4c0971127fce30aa881c91591864736f6c63430008190033\n}\n",
				"bytecode": {
					"linkReferences": {},
					"object": "60806040525f600155348015610013575f80fd5b50604051612127380380612127833981810160405281019061003591906100e9565b805f806101000a81548173ffffffffffffffffffffffffffffffffffffffff021916908373ffffffffffffffffffffffffffffffffffffffff16021790555050610114565b5f80fd5b5f73ffffffffffffffffffffffffffffffffffffffff82169050919050565b5f6100a78261007e565b9050919050565b5f6100b88261009d565b9050919050565b6100c8816100ae565b81146100d2575f80fd5b50565b5f815190506100e3816100bf565b92915050565b5f602082840312156100fe576100fd61007a565b5b5f61010b848285016100d5565b91505092915050565b612006806101215f395ff3fe608060405234801561000f575f80fd5b506004361061007b575f3560e01c806340b4baf91161005957806340b4baf9146100fd5780634ffd1be614610119578063862407511461014c578063e098f8bf146101685761007b565b80630b1e7f831461007f5780633c66c162146100b157806340731c24146100cd575b5f80fd5b61009960048036038101906100949190611207565b610198565b6040516100a8939291906112a2565b60405180910390f35b6100cb60048036038101906100c69190611472565b610350565b005b6100e760048036038101906100e29190611207565b6105a4565b6040516100f491906115b1565b60405180910390f35b610117600480360381019061011291906115d1565b610788565b005b610133600480360381019061012e919061160f565b610912565b60405161014394939291906117bf565b60405180910390f35b6101666004803603810190610161919061181e565b610dff565b005b610182600480360381019061017d9190611207565b610f25565b60405161018f91906115b1565b60405180910390f35b6002602052805f5260405f205f91509050805f0180546101b7906118d3565b80601f01602080910402602001604051908101604052809291908181526020018280546101e3906118d3565b801561022e5780601f106102055761010080835404028352916020019161022e565b820191905f5260205f20905b81548152906001019060200180831161021157829003601f168201915b505050505090806001018054610243906118d3565b80601f016020809104026020016040519081016040528092919081815260200182805461026f906118d3565b80156102ba5780601f10610291576101008083540402835291602001916102ba565b820191905f5260205f20905b81548152906001019060200180831161029d57829003601f168201915b5050505050908060020180546102cf906118d3565b80601f01602080910402602001604051908101604052809291908181526020018280546102fb906118d3565b80156103465780601f1061031d57610100808354040283529160200191610346565b820191905f5260205f20905b81548152906001019060200180831161032957829003601f168201915b5050505050905083565b83815f61035c83610f25565b90505f8054906101000a900473ffffffffffffffffffffffffffffffffffffffff1673ffffffffffffffffffffffffffffffffffffffff16631c6a0254836040518263ffffffff1660e01b81526004016103b69190611912565b5f60405180830381865afa1580156103d0573d5f803e3d5ffd5b505050506040513d5f823e3d601f19601f820116820180604052508101906103f89190611999565b6040516020016104089190611a1a565b6040516020818303038152906040528051906020012081604001516040516020016104339190611a1a565b6040516020818303038152906040528051906020012014610489576040517f08c379a000000000000000000000000000000000000000000000000000000000815260040161048090611aa0565b60405180910390fd5b61049287610f25565b5060405180606001604052808781526020018681526020015f8054906101000a900473ffffffffffffffffffffffffffffffffffffffff1673ffffffffffffffffffffffffffffffffffffffff16631c6a0254876040518263ffffffff1660e01b81526004016105029190611912565b5f60405180830381865afa15801561051c573d5f803e3d5ffd5b505050506040513d5f823e3d601f19601f820116820180604052508101906105449190611999565b81525060025f8981526020019081526020015f205f820151815f01908161056b9190611c5b565b5060208201518160010190816105819190611c5b565b5060408201518160020190816105979190611c5b565b5090505050505050505050565b6105ac61114a565b6105b582610f25565b5060025f8381526020019081526020015f206040518060600160405290815f820180546105e1906118d3565b80601f016020809104026020016040519081016040528092919081815260200182805461060d906118d3565b80156106585780601f1061062f57610100808354040283529160200191610658565b820191905f5260205f20905b81548152906001019060200180831161063b57829003601f168201915b50505050508152602001600182018054610671906118d3565b80601f016020809104026020016040519081016040528092919081815260200182805461069d906118d3565b80156106e85780601f106106bf576101008083540402835291602001916106e8565b820191905f5260205f20905b8154815290600101906020018083116106cb57829003601f168201915b50505050508152602001600282018054610701906118d3565b80601f016020809104026020016040519081016040528092919081815260200182805461072d906118d3565b80156107785780601f1061074f57610100808354040283529160200191610778565b820191905f5260205f20905b81548152906001019060200180831161075b57829003601f168201915b5050505050815250509050919050565b81815f61079483610f25565b90505f8054906101000a900473ffffffffffffffffffffffffffffffffffffffff1673ffffffffffffffffffffffffffffffffffffffff16631c6a0254836040518263ffffffff1660e01b81526004016107ee9190611912565b5f60405180830381865afa158015610808573d5f803e3d5ffd5b505050506040513d5f823e3d601f19601f820116820180604052508101906108309190611999565b6040516020016108409190611a1a565b60405160208183030381529060405280519060200120816040015160405160200161086b9190611a1a565b60405160208183030381529060405280519060200120146108c1576040517f08c379a00000000000000000000000000000000000000000000000000000000081526004016108b890611aa0565b60405180910390fd5b6108ca85610f25565b5060025f8681526020019081526020015f205f8082015f6108eb919061116b565b600182015f6108fa919061116b565b600282015f610909919061116b565b50505050505050565b6060806060805f860361095a576040517f08c379a000000000000000000000000000000000000000000000000000000000815260040161095190611d74565b60405180910390fd5b5f850361099c576040517f08c379a000000000000000000000000000000000000000000000000000000000815260040161099390611e02565b60405180910390fd5b5f856001886109ab9190611e4d565b6109b59190611e80565b90505f60015487836109c79190611ec1565b116109dd5786826109d89190611ec1565b6109e1565b6001545b90505f81836109f09190611e4d565b67ffffffffffffffff811115610a0957610a086112f4565b5b604051908082528060200260200182016040528015610a3c57816020015b6060815260200190600190039081610a275790505b5090505f8284610a4c9190611e4d565b67ffffffffffffffff811115610a6557610a646112f4565b5b604051908082528060200260200182016040528015610a9857816020015b6060815260200190600190039081610a835790505b5090505f8385610aa89190611e4d565b67ffffffffffffffff811115610ac157610ac06112f4565b5b604051908082528060200260200182016040528015610af457816020015b6060815260200190600190039081610adf5790505b5090505f8486610b049190611e4d565b67ffffffffffffffff811115610b1d57610b1c6112f4565b5b604051908082528060200260200182016040528015610b4b5781602001602082028036833780820191505090505b5090505f8690505b858111610de35760025f8281526020019081526020015f205f018054610b78906118d3565b80601f0160208091040260200160405190810160405280929190818152602001828054610ba4906118d3565b8015610bef5780601f10610bc657610100808354040283529160200191610bef565b820191905f5260205f20905b815481529060010190602001808311610bd257829003601f168201915b5050505050858883610c019190611e4d565b81518110610c1257610c11611ef4565b5b602002602001018190525060025f8281526020019081526020015f206001018054610c3c906118d3565b80601f0160208091040260200160405190810160405280929190818152602001828054610c68906118d3565b8015610cb35780601f10610c8a57610100808354040283529160200191610cb3565b820191905f5260205f20905b815481529060010190602001808311610c9657829003601f168201915b5050505050848883610cc59190611e4d565b81518110610cd657610cd5611ef4565b5b602002602001018190525060025f8281526020019081526020015f206002018054610d00906118d3565b80601f0160208091040260200160405190810160405280929190818152602001828054610d2c906118d3565b8015610d775780601f10610d4e57610100808354040283529160200191610d77565b820191905f5260205f20905b815481529060010190602001808311610d5a57829003601f168201915b5050505050838883610d899190611e4d565b81518110610d9a57610d99611ef4565b5b602002602001018190525080828883610db39190611e4d565b81518110610dc457610dc3611ef4565b5b6020026020010181815250508080610ddb90611f21565b915050610b53565b5083838383995099509950995050505050505092959194509250565b60405180606001604052808481526020018381526020015f8054906101000a900473ffffffffffffffffffffffffffffffffffffffff1673ffffffffffffffffffffffffffffffffffffffff16631c6a0254846040518263ffffffff1660e01b8152600401610e6e9190611912565b5f60405180830381865afa158015610e88573d5f803e3d5ffd5b505050506040513d5f823e3d601f19601f82011682018060405250810190610eb09190611999565b81525060025f60015481526020019081526020015f205f820151815f019081610ed99190611c5b565b506020820151816001019081610eef9190611c5b565b506040820151816002019081610f059190611c5b565b5090505060015f815480929190610f1b90611f21565b9190505550505050565b610f2d61114a565b5f60025f8481526020019081526020015f206040518060600160405290815f82018054610f59906118d3565b80601f0160208091040260200160405190810160405280929190818152602001828054610f85906118d3565b8015610fd05780601f10610fa757610100808354040283529160200191610fd0565b820191905f5260205f20905b815481529060010190602001808311610fb357829003601f168201915b50505050508152602001600182018054610fe9906118d3565b80601f0160208091040260200160405190810160405280929190818152602001828054611015906118d3565b80156110605780601f1061103757610100808354040283529160200191611060565b820191905f5260205f20905b81548152906001019060200180831161104357829003601f168201915b50505050508152602001600282018054611079906118d3565b80601f01602080910402602001604051908101604052809291908181526020018280546110a5906118d3565b80156110f05780601f106110c7576101008083540402835291602001916110f0565b820191905f5260205f20905b8154815290600101906020018083116110d357829003601f168201915b50505050508152505090505f815f01515111611141576040517f08c379a000000000000000000000000000000000000000000000000000000000815260040161113890611fb2565b60405180910390fd5b80915050919050565b60405180606001604052806060815260200160608152602001606081525090565b508054611177906118d3565b5f825580601f1061118857506111a5565b601f0160209004905f5260205f20908101906111a491906111a8565b5b50565b5b808211156111bf575f815f9055506001016111a9565b5090565b5f604051905090565b5f80fd5b5f80fd5b5f819050919050565b6111e6816111d4565b81146111f0575f80fd5b50565b5f81359050611201816111dd565b92915050565b5f6020828403121561121c5761121b6111cc565b5b5f611229848285016111f3565b91505092915050565b5f81519050919050565b5f82825260208201905092915050565b8281835e5f83830152505050565b5f601f19601f8301169050919050565b5f61127482611232565b61127e818561123c565b935061128e81856020860161124c565b6112978161125a565b840191505092915050565b5f6060820190508181035f8301526112ba818661126a565b905081810360208301526112ce818561126a565b905081810360408301526112e2818461126a565b9050949350505050565b5f80fd5b5f80fd5b7f4e487b71000000000000000000000000000000000000000000000000000000005f52604160045260245ffd5b61132a8261125a565b810181811067ffffffffffffffff82111715611349576113486112f4565b5b80604052505050565b5f61135b6111c3565b90506113678282611321565b919050565b5f67ffffffffffffffff821115611386576113856112f4565b5b61138f8261125a565b9050602081019050919050565b828183375f83830152505050565b5f6113bc6113b78461136c565b611352565b9050828152602081018484840111156113d8576113d76112f0565b5b6113e384828561139c565b509392505050565b5f82601f8301126113ff576113fe6112ec565b5b813561140f8482602086016113aa565b91505092915050565b5f73ffffffffffffffffffffffffffffffffffffffff82169050919050565b5f61144182611418565b9050919050565b61145181611437565b811461145b575f80fd5b50565b5f8135905061146c81611448565b92915050565b5f805f806080858703121561148a576114896111cc565b5b5f611497878288016111f3565b945050602085013567ffffffffffffffff8111156114b8576114b76111d0565b5b6114c4878288016113eb565b935050604085013567ffffffffffffffff8111156114e5576114e46111d0565b5b6114f1878288016113eb565b92505060606115028782880161145e565b91505092959194509250565b5f82825260208201905092915050565b5f61152882611232565b611532818561150e565b935061154281856020860161124c565b61154b8161125a565b840191505092915050565b5f606083015f8301518482035f860152611570828261151e565b9150506020830151848203602086015261158a828261151e565b915050604083015184820360408601526115a4828261151e565b9150508091505092915050565b5f6020820190508181035f8301526115c98184611556565b905092915050565b5f80604083850312156115e7576115e66111cc565b5b5f6115f4858286016111f3565b92505060206116058582860161145e565b9150509250929050565b5f8060408385031215611625576116246111cc565b5b5f611632858286016111f3565b9250506020611643858286016111f3565b9150509250929050565b5f81519050919050565b5f82825260208201905092915050565b5f819050602082019050919050565b5f611681838361151e565b905092915050565b5f602082019050919050565b5f61169f8261164d565b6116a98185611657565b9350836020820285016116bb85611667565b805f5b858110156116f657848403895281516116d78582611676565b94506116e283611689565b925060208a019950506001810190506116be565b50829750879550505050505092915050565b5f81519050919050565b5f82825260208201905092915050565b5f819050602082019050919050565b61173a816111d4565b82525050565b5f61174b8383611731565b60208301905092915050565b5f602082019050919050565b5f61176d82611708565b6117778185611712565b935061178283611722565b805f5b838110156117b25781516117998882611740565b97506117a483611757565b925050600181019050611785565b5085935050505092915050565b5f6080820190508181035f8301526117d78187611695565b905081810360208301526117eb8186611695565b905081810360408301526117ff8185611695565b905081810360608301526118138184611763565b905095945050505050565b5f805f60608486031215611835576118346111cc565b5b5f84013567ffffffffffffffff811115611852576118516111d0565b5b61185e868287016113eb565b935050602084013567ffffffffffffffff81111561187f5761187e6111d0565b5b61188b868287016113eb565b925050604061189c8682870161145e565b9150509250925092565b7f4e487b71000000000000000000000000000000000000000000000000000000005f52602260045260245ffd5b5f60028204905060018216806118ea57607f821691505b6020821081036118fd576118fc6118a6565b5b50919050565b61190c81611437565b82525050565b5f6020820190506119255f830184611903565b92915050565b5f61193d6119388461136c565b611352565b905082815260208101848484011115611959576119586112f0565b5b61196484828561124c565b509392505050565b5f82601f8301126119805761197f6112ec565b5b815161199084826020860161192b565b91505092915050565b5f602082840312156119ae576119ad6111cc565b5b5f82015167ffffffffffffffff8111156119cb576119ca6111d0565b5b6119d78482850161196c565b91505092915050565b5f81905092915050565b5f6119f482611232565b6119fe81856119e0565b9350611a0e81856020860161124c565b80840191505092915050565b5f611a2582846119ea565b915081905092915050565b7f596f7520617265206e6f7420617574686f72697a656420746f20706572666f725f8201527f6d20746869732066756e6374696f6e2100000000000000000000000000000000602082015250565b5f611a8a60308361123c565b9150611a9582611a30565b604082019050919050565b5f6020820190508181035f830152611ab781611a7e565b9050919050565b5f819050815f5260205f209050919050565b5f6020601f8301049050919050565b5f82821b905092915050565b5f60088302611b1a7fffffffffffffffffffffffffffffffffffffffffffffffffffffffffffffffff82611adf565b611b248683611adf565b95508019841693508086168417925050509392505050565b5f819050919050565b5f611b5f611b5a611b55846111d4565b611b3c565b6111d4565b9050919050565b5f819050919050565b611b7883611b45565b611b8c611b8482611b66565b848454611aeb565b825550505050565b5f90565b611ba0611b94565b611bab818484611b6f565b505050565b5b81811015611bce57611bc35f82611b98565b600181019050611bb1565b5050565b601f821115611c1357611be481611abe565b611bed84611ad0565b81016020851015611bfc578190505b611c10611c0885611ad0565b830182611bb0565b50505b505050565b5f82821c905092915050565b5f611c335f1984600802611c18565b1980831691505092915050565b5f611c4b8383611c24565b9150826002028217905092915050565b611c6482611232565b67ffffffffffffffff811115611c7d57611c7c6112f4565b5b611c8782546118d3565b611c92828285611bd2565b5f60209050601f831160018114611cc3575f8415611cb1578287015190505b611cbb8582611c40565b865550611d22565b601f198416611cd186611abe565b5f5b82811015611cf857848901518255600182019150602085019450602081019050611cd3565b86831015611d155784890151611d11601f891682611c24565b8355505b6001600288020188555050505b505050505050565b7f50616765206d757374206e6f7420626520657175616c20746f207a65726f21005f82015250565b5f611d5e601f8361123c565b9150611d6982611d2a565b602082019050919050565b5f6020820190508181035f830152611d8b81611d52565b9050919050565b7f506167652073697a65206d757374206e6f7420626520657175616c20746f207a5f8201527f65726f2100000000000000000000000000000000000000000000000000000000602082015250565b5f611dec60248361123c565b9150611df782611d92565b604082019050919050565b5f6020820190508181035f830152611e1981611de0565b9050919050565b7f4e487b71000000000000000000000000000000000000000000000000000000005f52601160045260245ffd5b5f611e57826111d4565b9150611e62836111d4565b9250828203905081811115611e7a57611e79611e20565b5b92915050565b5f611e8a826111d4565b9150611e95836111d4565b9250828202611ea3816111d4565b91508282048414831517611eba57611eb9611e20565b5b5092915050565b5f611ecb826111d4565b9150611ed6836111d4565b9250828201905080821115611eee57611eed611e20565b5b92915050565b7f4e487b71000000000000000000000000000000000000000000000000000000005f52603260045260245ffd5b5f611f2b826111d4565b91507fffffffffffffffffffffffffffffffffffffffffffffffffffffffffffffffff8203611f5d57611f5c611e20565b5b600182019050919050565b7f496e76616c696420706f737420696421000000000000000000000000000000005f82015250565b5f611f9c60108361123c565b9150611fa782611f68565b602082019050919050565b5f6020820190508181035f830152611fc981611f90565b905091905056fea2646970667358221220e2299e3009a51f7ae3d8e48ab033d72964f3df4c0971127fce30aa881c91591864736f6c63430008190033",
					"opcodes": "PUSH1 0x80 PUSH1 0x40 MSTORE PUSH0 PUSH1 0x1 SSTORE CALLVALUE DUP1 ISZERO PUSH2 0x13 JUMPI PUSH0 DUP1 REVERT JUMPDEST POP PUSH1 0x40 MLOAD PUSH2 0x2127 CODESIZE SUB DUP1 PUSH2 0x2127 DUP4 CODECOPY DUP2 DUP2 ADD PUSH1 0x40 MSTORE DUP2 ADD SWAP1 PUSH2 0x35 SWAP2 SWAP1 PUSH2 0xE9 JUMP JUMPDEST DUP1 PUSH0 DUP1 PUSH2 0x100 EXP DUP2 SLOAD DUP2 PUSH20 0xFFFFFFFFFFFFFFFFFFFFFFFFFFFFFFFFFFFFFFFF MUL NOT AND SWAP1 DUP4 PUSH20 0xFFFFFFFFFFFFFFFFFFFFFFFFFFFFFFFFFFFFFFFF AND MUL OR SWAP1 SSTORE POP POP PUSH2 0x114 JUMP JUMPDEST PUSH0 DUP1 REVERT JUMPDEST PUSH0 PUSH20 0xFFFFFFFFFFFFFFFFFFFFFFFFFFFFFFFFFFFFFFFF DUP3 AND SWAP1 POP SWAP2 SWAP1 POP JUMP JUMPDEST PUSH0 PUSH2 0xA7 DUP3 PUSH2 0x7E JUMP JUMPDEST SWAP1 POP SWAP2 SWAP1 POP JUMP JUMPDEST PUSH0 PUSH2 0xB8 DUP3 PUSH2 0x9D JUMP JUMPDEST SWAP1 POP SWAP2 SWAP1 POP JUMP JUMPDEST PUSH2 0xC8 DUP2 PUSH2 0xAE JUMP JUMPDEST DUP2 EQ PUSH2 0xD2 JUMPI PUSH0 DUP1 REVERT JUMPDEST POP JUMP JUMPDEST PUSH0 DUP2 MLOAD SWAP1 POP PUSH2 0xE3 DUP2 PUSH2 0xBF JUMP JUMPDEST SWAP3 SWAP2 POP POP JUMP JUMPDEST PUSH0 PUSH1 0x20 DUP3 DUP5 SUB SLT ISZERO PUSH2 0xFE JUMPI PUSH2 0xFD PUSH2 0x7A JUMP JUMPDEST JUMPDEST PUSH0 PUSH2 0x10B DUP5 DUP3 DUP6 ADD PUSH2 0xD5 JUMP JUMPDEST SWAP2 POP POP SWAP3 SWAP2 POP POP JUMP JUMPDEST PUSH2 0x2006 DUP1 PUSH2 0x121 PUSH0 CODECOPY PUSH0 RETURN INVALID PUSH1 0x80 PUSH1 0x40 MSTORE CALLVALUE DUP1 ISZERO PUSH2 0xF JUMPI PUSH0 DUP1 REVERT JUMPDEST POP PUSH1 0x4 CALLDATASIZE LT PUSH2 0x7B JUMPI PUSH0 CALLDATALOAD PUSH1 0xE0 SHR DUP1 PUSH4 0x40B4BAF9 GT PUSH2 0x59 JUMPI DUP1 PUSH4 0x40B4BAF9 EQ PUSH2 0xFD JUMPI DUP1 PUSH4 0x4FFD1BE6 EQ PUSH2 0x119 JUMPI DUP1 PUSH4 0x86240751 EQ PUSH2 0x14C JUMPI DUP1 PUSH4 0xE098F8BF EQ PUSH2 0x168 JUMPI PUSH2 0x7B JUMP JUMPDEST DUP1 PUSH4 0xB1E7F83 EQ PUSH2 0x7F JUMPI DUP1 PUSH4 0x3C66C162 EQ PUSH2 0xB1 JUMPI DUP1 PUSH4 0x40731C24 EQ PUSH2 0xCD JUMPI JUMPDEST PUSH0 DUP1 REVERT JUMPDEST PUSH2 0x99 PUSH1 0x4 DUP1 CALLDATASIZE SUB DUP2 ADD SWAP1 PUSH2 0x94 SWAP2 SWAP1 PUSH2 0x1207 JUMP JUMPDEST PUSH2 0x198 JUMP JUMPDEST PUSH1 0x40 MLOAD PUSH2 0xA8 SWAP4 SWAP3 SWAP2 SWAP1 PUSH2 0x12A2 JUMP JUMPDEST PUSH1 0x40 MLOAD DUP1 SWAP2 SUB SWAP1 RETURN JUMPDEST PUSH2 0xCB PUSH1 0x4 DUP1 CALLDATASIZE SUB DUP2 ADD SWAP1 PUSH2 0xC6 SWAP2 SWAP1 PUSH2 0x1472 JUMP JUMPDEST PUSH2 0x350 JUMP JUMPDEST STOP JUMPDEST PUSH2 0xE7 PUSH1 0x4 DUP1 CALLDATASIZE SUB DUP2 ADD SWAP1 PUSH2 0xE2 SWAP2 SWAP1 PUSH2 0x1207 JUMP JUMPDEST PUSH2 0x5A4 JUMP JUMPDEST PUSH1 0x40 MLOAD PUSH2 0xF4 SWAP2 SWAP1 PUSH2 0x15B1 JUMP JUMPDEST PUSH1 0x40 MLOAD DUP1 SWAP2 SUB SWAP1 RETURN JUMPDEST PUSH2 0x117 PUSH1 0x4 DUP1 CALLDATASIZE SUB DUP2 ADD SWAP1 PUSH2 0x112 SWAP2 SWAP1 PUSH2 0x15D1 JUMP JUMPDEST PUSH2 0x788 JUMP JUMPDEST STOP JUMPDEST PUSH2 0x133 PUSH1 0x4 DUP1 CALLDATASIZE SUB DUP2 ADD SWAP1 PUSH2 0x12E SWAP2 SWAP1 PUSH2 0x160F JUMP JUMPDEST PUSH2 0x912 JUMP JUMPDEST PUSH1 0x40 MLOAD PUSH2 0x143 SWAP5 SWAP4 SWAP3 SWAP2 SWAP1 PUSH2 0x17BF JUMP JUMPDEST PUSH1 0x40 MLOAD DUP1 SWAP2 SUB SWAP1 RETURN JUMPDEST PUSH2 0x166 PUSH1 0x4 DUP1 CALLDATASIZE SUB DUP2 ADD SWAP1 PUSH2 0x161 SWAP2 SWAP1 PUSH2 0x181E JUMP JUMPDEST PUSH2 0xDFF JUMP JUMPDEST STOP JUMPDEST PUSH2 0x182 PUSH1 0x4 DUP1 CALLDATASIZE SUB DUP2 ADD SWAP1 PUSH2 0x17D SWAP2 SWAP1 PUSH2 0x1207 JUMP JUMPDEST PUSH2 0xF25 JUMP JUMPDEST PUSH1 0x40 MLOAD PUSH2 0x18F SWAP2 SWAP1 PUSH2 0x15B1 JUMP JUMPDEST PUSH1 0x40 MLOAD DUP1 SWAP2 SUB SWAP1 RETURN JUMPDEST PUSH1 0x2 PUSH1 0x20 MSTORE DUP1 PUSH0 MSTORE PUSH1 0x40 PUSH0 KECCAK256 PUSH0 SWAP2 POP SWAP1 POP DUP1 PUSH0 ADD DUP1 SLOAD PUSH2 0x1B7 SWAP1 PUSH2 0x18D3 JUMP JUMPDEST DUP1 PUSH1 0x1F ADD PUSH1 0x20 DUP1 SWAP2 DIV MUL PUSH1 0x20 ADD PUSH1 0x40 MLOAD SWAP1 DUP2 ADD PUSH1 0x40 MSTORE DUP1 SWAP3 SWAP2 SWAP1 DUP2 DUP2 MSTORE PUSH1 0x20 ADD DUP3 DUP1 SLOAD PUSH2 0x1E3 SWAP1 PUSH2 0x18D3 JUMP JUMPDEST DUP1 ISZERO PUSH2 0x22E JUMPI DUP1 PUSH1 0x1F LT PUSH2 0x205 JUMPI PUSH2 0x100 DUP1 DUP4 SLOAD DIV MUL DUP4 MSTORE SWAP2 PUSH1 0x20 ADD SWAP2 PUSH2 0x22E JUMP JUMPDEST DUP3 ADD SWAP2 SWAP1 PUSH0 MSTORE PUSH1 0x20 PUSH0 KECCAK256 SWAP1 JUMPDEST DUP2 SLOAD DUP2 MSTORE SWAP1 PUSH1 0x1 ADD SWAP1 PUSH1 0x20 ADD DUP1 DUP4 GT PUSH2 0x211 JUMPI DUP3 SWAP1 SUB PUSH1 0x1F AND DUP3 ADD SWAP2 JUMPDEST POP POP POP POP POP SWAP1 DUP1 PUSH1 0x1 ADD DUP1 SLOAD PUSH2 0x243 SWAP1 PUSH2 0x18D3 JUMP JUMPDEST DUP1 PUSH1 0x1F ADD PUSH1 0x20 DUP1 SWAP2 DIV MUL PUSH1 0x20 ADD PUSH1 0x40 MLOAD SWAP1 DUP2 ADD PUSH1 0x40 MSTORE DUP1 SWAP3 SWAP2 SWAP1 DUP2 DUP2 MSTORE PUSH1 0x20 ADD DUP3 DUP1 SLOAD PUSH2 0x26F SWAP1 PUSH2 0x18D3 JUMP JUMPDEST DUP1 ISZERO PUSH2 0x2BA JUMPI DUP1 PUSH1 0x1F LT PUSH2 0x291 JUMPI PUSH2 0x100 DUP1 DUP4 SLOAD DIV MUL DUP4 MSTORE SWAP2 PUSH1 0x20 ADD SWAP2 PUSH2 0x2BA JUMP JUMPDEST DUP3 ADD SWAP2 SWAP1 PUSH0 MSTORE PUSH1 0x20 PUSH0 KECCAK256 SWAP1 JUMPDEST DUP2 SLOAD DUP2 MSTORE SWAP1 PUSH1 0x1 ADD SWAP1 PUSH1 0x20 ADD DUP1 DUP4 GT PUSH2 0x29D JUMPI DUP3 SWAP1 SUB PUSH1 0x1F AND DUP3 ADD SWAP2 JUMPDEST POP POP POP POP POP SWAP1 DUP1 PUSH1 0x2 ADD DUP1 SLOAD PUSH2 0x2CF SWAP1 PUSH2 0x18D3 JUMP JUMPDEST DUP1 PUSH1 0x1F ADD PUSH1 0x20 DUP1 SWAP2 DIV MUL PUSH1 0x20 ADD PUSH1 0x40 MLOAD SWAP1 DUP2 ADD PUSH1 0x40 MSTORE DUP1 SWAP3 SWAP2 SWAP1 DUP2 DUP2 MSTORE PUSH1 0x20 ADD DUP3 DUP1 SLOAD PUSH2 0x2FB SWAP1 PUSH2 0x18D3 JUMP JUMPDEST DUP1 ISZERO PUSH2 0x346 JUMPI DUP1 PUSH1 0x1F LT PUSH2 0x31D JUMPI PUSH2 0x100 DUP1 DUP4 SLOAD DIV MUL DUP4 MSTORE SWAP2 PUSH1 0x20 ADD SWAP2 PUSH2 0x346 JUMP JUMPDEST DUP3 ADD SWAP2 SWAP1 PUSH0 MSTORE PUSH1 0x20 PUSH0 KECCAK256 SWAP1 JUMPDEST DUP2 SLOAD DUP2 MSTORE SWAP1 PUSH1 0x1 ADD SWAP1 PUSH1 0x20 ADD DUP1 DUP4 GT PUSH2 0x329 JUMPI DUP3 SWAP1 SUB PUSH1 0x1F AND DUP3 ADD SWAP2 JUMPDEST POP POP POP POP POP SWAP1 POP DUP4 JUMP JUMPDEST DUP4 DUP2 PUSH0 PUSH2 0x35C DUP4 PUSH2 0xF25 JUMP JUMPDEST SWAP1 POP PUSH0 DUP1 SLOAD SWAP1 PUSH2 0x100 EXP SWAP1 DIV PUSH20 0xFFFFFFFFFFFFFFFFFFFFFFFFFFFFFFFFFFFFFFFF AND PUSH20 0xFFFFFFFFFFFFFFFFFFFFFFFFFFFFFFFFFFFFFFFF AND PUSH4 0x1C6A0254 DUP4 PUSH1 0x40 MLOAD DUP3 PUSH4 0xFFFFFFFF AND PUSH1 0xE0 SHL DUP2 MSTORE PUSH1 0x4 ADD PUSH2 0x3B6 SWAP2 SWAP1 PUSH2 0x1912 JUMP JUMPDEST PUSH0 PUSH1 0x40 MLOAD DUP1 DUP4 SUB DUP2 DUP7 GAS STATICCALL ISZERO DUP1 ISZERO PUSH2 0x3D0 JUMPI RETURNDATASIZE PUSH0 DUP1 RETURNDATACOPY RETURNDATASIZE PUSH0 REVERT JUMPDEST POP POP POP POP PUSH1 0x40 MLOAD RETURNDATASIZE PUSH0 DUP3 RETURNDATACOPY RETURNDATASIZE PUSH1 0x1F NOT PUSH1 0x1F DUP3 ADD AND DUP3 ADD DUP1 PUSH1 0x40 MSTORE POP DUP2 ADD SWAP1 PUSH2 0x3F8 SWAP2 SWAP1 PUSH2 0x1999 JUMP JUMPDEST PUSH1 0x40 MLOAD PUSH1 0x20 ADD PUSH2 0x408 SWAP2 SWAP1 PUSH2 0x1A1A JUMP JUMPDEST PUSH1 0x40 MLOAD PUSH1 0x20 DUP2 DUP4 SUB SUB DUP2 MSTORE SWAP1 PUSH1 0x40 MSTORE DUP1 MLOAD SWAP1 PUSH1 0x20 ADD KECCAK256 DUP2 PUSH1 0x40 ADD MLOAD PUSH1 0x40 MLOAD PUSH1 0x20 ADD PUSH2 0x433 SWAP2 SWAP1 PUSH2 0x1A1A JUMP JUMPDEST PUSH1 0x40 MLOAD PUSH1 0x20 DUP2 DUP4 SUB SUB DUP2 MSTORE SWAP1 PUSH1 0x40 MSTORE DUP1 MLOAD SWAP1 PUSH1 0x20 ADD KECCAK256 EQ PUSH2 0x489 JUMPI PUSH1 0x40 MLOAD PUSH32 0x8C379A000000000000000000000000000000000000000000000000000000000 DUP2 MSTORE PUSH1 0x4 ADD PUSH2 0x480 SWAP1 PUSH2 0x1AA0 JUMP JUMPDEST PUSH1 0x40 MLOAD DUP1 SWAP2 SUB SWAP1 REVERT JUMPDEST PUSH2 0x492 DUP8 PUSH2 0xF25 JUMP JUMPDEST POP PUSH1 0x40 MLOAD DUP1 PUSH1 0x60 ADD PUSH1 0x40 MSTORE DUP1 DUP8 DUP2 MSTORE PUSH1 0x20 ADD DUP7 DUP2 MSTORE PUSH1 0x20 ADD PUSH0 DUP1 SLOAD SWAP1 PUSH2 0x100 EXP SWAP1 DIV PUSH20 0xFFFFFFFFFFFFFFFFFFFFFFFFFFFFFFFFFFFFFFFF AND PUSH20 0xFFFFFFFFFFFFFFFFFFFFFFFFFFFFFFFFFFFFFFFF AND PUSH4 0x1C6A0254 DUP8 PUSH1 0x40 MLOAD DUP3 PUSH4 0xFFFFFFFF AND PUSH1 0xE0 SHL DUP2 MSTORE PUSH1 0x4 ADD PUSH2 0x502 SWAP2 SWAP1 PUSH2 0x1912 JUMP JUMPDEST PUSH0 PUSH1 0x40 MLOAD DUP1 DUP4 SUB DUP2 DUP7 GAS STATICCALL ISZERO DUP1 ISZERO PUSH2 0x51C JUMPI RETURNDATASIZE PUSH0 DUP1 RETURNDATACOPY RETURNDATASIZE PUSH0 REVERT JUMPDEST POP POP POP POP PUSH1 0x40 MLOAD RETURNDATASIZE PUSH0 DUP3 RETURNDATACOPY RETURNDATASIZE PUSH1 0x1F NOT PUSH1 0x1F DUP3 ADD AND DUP3 ADD DUP1 PUSH1 0x40 MSTORE POP DUP2 ADD SWAP1 PUSH2 0x544 SWAP2 SWAP1 PUSH2 0x1999 JUMP JUMPDEST DUP2 MSTORE POP PUSH1 0x2 PUSH0 DUP10 DUP2 MSTORE PUSH1 0x20 ADD SWAP1 DUP2 MSTORE PUSH1 0x20 ADD PUSH0 KECCAK256 PUSH0 DUP3 ADD MLOAD DUP2 PUSH0 ADD SWAP1 DUP2 PUSH2 0x56B SWAP2 SWAP1 PUSH2 0x1C5B JUMP JUMPDEST POP PUSH1 0x20 DUP3 ADD MLOAD DUP2 PUSH1 0x1 ADD SWAP1 DUP2 PUSH2 0x581 SWAP2 SWAP1 PUSH2 0x1C5B JUMP JUMPDEST POP PUSH1 0x40 DUP3 ADD MLOAD DUP2 PUSH1 0x2 ADD SWAP1 DUP2 PUSH2 0x597 SWAP2 SWAP1 PUSH2 0x1C5B JUMP JUMPDEST POP SWAP1 POP POP POP POP POP POP POP POP POP JUMP JUMPDEST PUSH2 0x5AC PUSH2 0x114A JUMP JUMPDEST PUSH2 0x5B5 DUP3 PUSH2 0xF25 JUMP JUMPDEST POP PUSH1 0x2 PUSH0 DUP4 DUP2 MSTORE PUSH1 0x20 ADD SWAP1 DUP2 MSTORE PUSH1 0x20 ADD PUSH0 KECCAK256 PUSH1 0x40 MLOAD DUP1 PUSH1 0x60 ADD PUSH1 0x40 MSTORE SWAP1 DUP2 PUSH0 DUP3 ADD DUP1 SLOAD PUSH2 0x5E1 SWAP1 PUSH2 0x18D3 JUMP JUMPDEST DUP1 PUSH1 0x1F ADD PUSH1 0x20 DUP1 SWAP2 DIV MUL PUSH1 0x20 ADD PUSH1 0x40 MLOAD SWAP1 DUP2 ADD PUSH1 0x40 MSTORE DUP1 SWAP3 SWAP2 SWAP1 DUP2 DUP2 MSTORE PUSH1 0x20 ADD DUP3 DUP1 SLOAD PUSH2 0x60D SWAP1 PUSH2 0x18D3 JUMP JUMPDEST DUP1 ISZERO PUSH2 0x658 JUMPI DUP1 PUSH1 0x1F LT PUSH2 0x62F JUMPI PUSH2 0x100 DUP1 DUP4 SLOAD DIV MUL DUP4 MSTORE SWAP2 PUSH1 0x20 ADD SWAP2 PUSH2 0x658 JUMP JUMPDEST DUP3 ADD SWAP2 SWAP1 PUSH0 MSTORE PUSH1 0x20 PUSH0 KECCAK256 SWAP1 JUMPDEST DUP2 SLOAD DUP2 MSTORE SWAP1 PUSH1 0x1 ADD SWAP1 PUSH1 0x20 ADD DUP1 DUP4 GT PUSH2 0x63B JUMPI DUP3 SWAP1 SUB PUSH1 0x1F AND DUP3 ADD SWAP2 JUMPDEST POP POP POP POP POP DUP2 MSTORE PUSH1 0x20 ADD PUSH1 0x1 DUP3 ADD DUP1 SLOAD PUSH2 0x671 SWAP1 PUSH2 0x18D3 JUMP JUMPDEST DUP1 PUSH1 0x1F ADD PUSH1 0x20 DUP1 SWAP2 DIV MUL PUSH1 0x20 ADD PUSH1 0x40 MLOAD SWAP1 DUP2 ADD PUSH1 0x40 MSTORE DUP1 SWAP3 SWAP2 SWAP1 DUP2 DUP2 MSTORE PUSH1 0x20 ADD DUP3 DUP1 SLOAD PUSH2 0x69D SWAP1 PUSH2 0x18D3 JUMP JUMPDEST DUP1 ISZERO PUSH2 0x6E8 JUMPI DUP1 PUSH1 0x1F LT PUSH2 0x6BF JUMPI PUSH2 0x100 DUP1 DUP4 SLOAD DIV MUL DUP4 MSTORE SWAP2 PUSH1 0x20 ADD SWAP2 PUSH2 0x6E8 JUMP JUMPDEST DUP3 ADD SWAP2 SWAP1 PUSH0 MSTORE PUSH1 0x20 PUSH0 KECCAK256 SWAP1 JUMPDEST DUP2 SLOAD DUP2 MSTORE SWAP1 PUSH1 0x1 ADD SWAP1 PUSH1 0x20 ADD DUP1 DUP4 GT PUSH2 0x6CB JUMPI DUP3 SWAP1 SUB PUSH1 0x1F AND DUP3 ADD SWAP2 JUMPDEST POP POP POP POP POP DUP2 MSTORE PUSH1 0x20 ADD PUSH1 0x2 DUP3 ADD DUP1 SLOAD PUSH2 0x701 SWAP1 PUSH2 0x18D3 JUMP JUMPDEST DUP1 PUSH1 0x1F ADD PUSH1 0x20 DUP1 SWAP2 DIV MUL PUSH1 0x20 ADD PUSH1 0x40 MLOAD SWAP1 DUP2 ADD PUSH1 0x40 MSTORE DUP1 SWAP3 SWAP2 SWAP1 DUP2 DUP2 MSTORE PUSH1 0x20 ADD DUP3 DUP1 SLOAD PUSH2 0x72D SWAP1 PUSH2 0x18D3 JUMP JUMPDEST DUP1 ISZERO PUSH2 0x778 JUMPI DUP1 PUSH1 0x1F LT PUSH2 0x74F JUMPI PUSH2 0x100 DUP1 DUP4 SLOAD DIV MUL DUP4 MSTORE SWAP2 PUSH1 0x20 ADD SWAP2 PUSH2 0x778 JUMP JUMPDEST DUP3 ADD SWAP2 SWAP1 PUSH0 MSTORE PUSH1 0x20 PUSH0 KECCAK256 SWAP1 JUMPDEST DUP2 SLOAD DUP2 MSTORE SWAP1 PUSH1 0x1 ADD SWAP1 PUSH1 0x20 ADD DUP1 DUP4 GT PUSH2 0x75B JUMPI DUP3 SWAP1 SUB PUSH1 0x1F AND DUP3 ADD SWAP2 JUMPDEST POP POP POP POP POP DUP2 MSTORE POP POP SWAP1 POP SWAP2 SWAP1 POP JUMP JUMPDEST DUP2 DUP2 PUSH0 PUSH2 0x794 DUP4 PUSH2 0xF25 JUMP JUMPDEST SWAP1 POP PUSH0 DUP1 SLOAD SWAP1 PUSH2 0x100 EXP SWAP1 DIV PUSH20 0xFFFFFFFFFFFFFFFFFFFFFFFFFFFFFFFFFFFFFFFF AND PUSH20 0xFFFFFFFFFFFFFFFFFFFFFFFFFFFFFFFFFFFFFFFF AND PUSH4 0x1C6A0254 DUP4 PUSH1 0x40 MLOAD DUP3 PUSH4 0xFFFFFFFF AND PUSH1 0xE0 SHL DUP2 MSTORE PUSH1 0x4 ADD PUSH2 0x7EE SWAP2 SWAP1 PUSH2 0x1912 JUMP JUMPDEST PUSH0 PUSH1 0x40 MLOAD DUP1 DUP4 SUB DUP2 DUP7 GAS STATICCALL ISZERO DUP1 ISZERO PUSH2 0x808 JUMPI RETURNDATASIZE PUSH0 DUP1 RETURNDATACOPY RETURNDATASIZE PUSH0 REVERT JUMPDEST POP POP POP POP PUSH1 0x40 MLOAD RETURNDATASIZE PUSH0 DUP3 RETURNDATACOPY RETURNDATASIZE PUSH1 0x1F NOT PUSH1 0x1F DUP3 ADD AND DUP3 ADD DUP1 PUSH1 0x40 MSTORE POP DUP2 ADD SWAP1 PUSH2 0x830 SWAP2 SWAP1 PUSH2 0x1999 JUMP JUMPDEST PUSH1 0x40 MLOAD PUSH1 0x20 ADD PUSH2 0x840 SWAP2 SWAP1 PUSH2 0x1A1A JUMP JUMPDEST PUSH1 0x40 MLOAD PUSH1 0x20 DUP2 DUP4 SUB SUB DUP2 MSTORE SWAP1 PUSH1 0x40 MSTORE DUP1 MLOAD SWAP1 PUSH1 0x20 ADD KECCAK256 DUP2 PUSH1 0x40 ADD MLOAD PUSH1 0x40 MLOAD PUSH1 0x20 ADD PUSH2 0x86B SWAP2 SWAP1 PUSH2 0x1A1A JUMP JUMPDEST PUSH1 0x40 MLOAD PUSH1 0x20 DUP2 DUP4 SUB SUB DUP2 MSTORE SWAP1 PUSH1 0x40 MSTORE DUP1 MLOAD SWAP1 PUSH1 0x20 ADD KECCAK256 EQ PUSH2 0x8C1 JUMPI PUSH1 0x40 MLOAD PUSH32 0x8C379A000000000000000000000000000000000000000000000000000000000 DUP2 MSTORE PUSH1 0x4 ADD PUSH2 0x8B8 SWAP1 PUSH2 0x1AA0 JUMP JUMPDEST PUSH1 0x40 MLOAD DUP1 SWAP2 SUB SWAP1 REVERT JUMPDEST PUSH2 0x8CA DUP6 PUSH2 0xF25 JUMP JUMPDEST POP PUSH1 0x2 PUSH0 DUP7 DUP2 MSTORE PUSH1 0x20 ADD SWAP1 DUP2 MSTORE PUSH1 0x20 ADD PUSH0 KECCAK256 PUSH0 DUP1 DUP3 ADD PUSH0 PUSH2 0x8EB SWAP2 SWAP1 PUSH2 0x116B JUMP JUMPDEST PUSH1 0x1 DUP3 ADD PUSH0 PUSH2 0x8FA SWAP2 SWAP1 PUSH2 0x116B JUMP JUMPDEST PUSH1 0x2 DUP3 ADD PUSH0 PUSH2 0x909 SWAP2 SWAP1 PUSH2 0x116B JUMP JUMPDEST POP POP POP POP POP POP POP JUMP JUMPDEST PUSH1 0x60 DUP1 PUSH1 0x60 DUP1 PUSH0 DUP7 SUB PUSH2 0x95A JUMPI PUSH1 0x40 MLOAD PUSH32 0x8C379A000000000000000000000000000000000000000000000000000000000 DUP2 MSTORE PUSH1 0x4 ADD PUSH2 0x951 SWAP1 PUSH2 0x1D74 JUMP JUMPDEST PUSH1 0x40 MLOAD DUP1 SWAP2 SUB SWAP1 REVERT JUMPDEST PUSH0 DUP6 SUB PUSH2 0x99C JUMPI PUSH1 0x40 MLOAD PUSH32 0x8C379A000000000000000000000000000000000000000000000000000000000 DUP2 MSTORE PUSH1 0x4 ADD PUSH2 0x993 SWAP1 PUSH2 0x1E02 JUMP JUMPDEST PUSH1 0x40 MLOAD DUP1 SWAP2 SUB SWAP1 REVERT JUMPDEST PUSH0 DUP6 PUSH1 0x1 DUP9 PUSH2 0x9AB SWAP2 SWAP1 PUSH2 0x1E4D JUMP JUMPDEST PUSH2 0x9B5 SWAP2 SWAP1 PUSH2 0x1E80 JUMP JUMPDEST SWAP1 POP PUSH0 PUSH1 0x1 SLOAD DUP8 DUP4 PUSH2 0x9C7 SWAP2 SWAP1 PUSH2 0x1EC1 JUMP JUMPDEST GT PUSH2 0x9DD JUMPI DUP7 DUP3 PUSH2 0x9D8 SWAP2 SWAP1 PUSH2 0x1EC1 JUMP JUMPDEST PUSH2 0x9E1 JUMP JUMPDEST PUSH1 0x1 SLOAD JUMPDEST SWAP1 POP PUSH0 DUP2 DUP4 PUSH2 0x9F0 SWAP2 SWAP1 PUSH2 0x1E4D JUMP JUMPDEST PUSH8 0xFFFFFFFFFFFFFFFF DUP2 GT ISZERO PUSH2 0xA09 JUMPI PUSH2 0xA08 PUSH2 0x12F4 JUMP JUMPDEST JUMPDEST PUSH1 0x40 MLOAD SWAP1 DUP1 DUP3 MSTORE DUP1 PUSH1 0x20 MUL PUSH1 0x20 ADD DUP3 ADD PUSH1 0x40 MSTORE DUP1 ISZERO PUSH2 0xA3C JUMPI DUP2 PUSH1 0x20 ADD JUMPDEST PUSH1 0x60 DUP2 MSTORE PUSH1 0x20 ADD SWAP1 PUSH1 0x1 SWAP1 SUB SWAP1 DUP2 PUSH2 0xA27 JUMPI SWAP1 POP JUMPDEST POP SWAP1 POP PUSH0 DUP3 DUP5 PUSH2 0xA4C SWAP2 SWAP1 PUSH2 0x1E4D JUMP JUMPDEST PUSH8 0xFFFFFFFFFFFFFFFF DUP2 GT ISZERO PUSH2 0xA65 JUMPI PUSH2 0xA64 PUSH2 0x12F4 JUMP JUMPDEST JUMPDEST PUSH1 0x40 MLOAD SWAP1 DUP1 DUP3 MSTORE DUP1 PUSH1 0x20 MUL PUSH1 0x20 ADD DUP3 ADD PUSH1 0x40 MSTORE DUP1 ISZERO PUSH2 0xA98 JUMPI DUP2 PUSH1 0x20 ADD JUMPDEST PUSH1 0x60 DUP2 MSTORE PUSH1 0x20 ADD SWAP1 PUSH1 0x1 SWAP1 SUB SWAP1 DUP2 PUSH2 0xA83 JUMPI SWAP1 POP JUMPDEST POP SWAP1 POP PUSH0 DUP4 DUP6 PUSH2 0xAA8 SWAP2 SWAP1 PUSH2 0x1E4D JUMP JUMPDEST PUSH8 0xFFFFFFFFFFFFFFFF DUP2 GT ISZERO PUSH2 0xAC1 JUMPI PUSH2 0xAC0 PUSH2 0x12F4 JUMP JUMPDEST JUMPDEST PUSH1 0x40 MLOAD SWAP1 DUP1 DUP3 MSTORE DUP1 PUSH1 0x20 MUL PUSH1 0x20 ADD DUP3 ADD PUSH1 0x40 MSTORE DUP1 ISZERO PUSH2 0xAF4 JUMPI DUP2 PUSH1 0x20 ADD JUMPDEST PUSH1 0x60 DUP2 MSTORE PUSH1 0x20 ADD SWAP1 PUSH1 0x1 SWAP1 SUB SWAP1 DUP2 PUSH2 0xADF JUMPI SWAP1 POP JUMPDEST POP SWAP1 POP PUSH0 DUP5 DUP7 PUSH2 0xB04 SWAP2 SWAP1 PUSH2 0x1E4D JUMP JUMPDEST PUSH8 0xFFFFFFFFFFFFFFFF DUP2 GT ISZERO PUSH2 0xB1D JUMPI PUSH2 0xB1C PUSH2 0x12F4 JUMP JUMPDEST JUMPDEST PUSH1 0x40 MLOAD SWAP1 DUP1 DUP3 MSTORE DUP1 PUSH1 0x20 MUL PUSH1 0x20 ADD DUP3 ADD PUSH1 0x40 MSTORE DUP1 ISZERO PUSH2 0xB4B JUMPI DUP2 PUSH1 0x20 ADD PUSH1 0x20 DUP3 MUL DUP1 CALLDATASIZE DUP4 CALLDATACOPY DUP1 DUP3 ADD SWAP2 POP POP SWAP1 POP JUMPDEST POP SWAP1 POP PUSH0 DUP7 SWAP1 POP JUMPDEST DUP6 DUP2 GT PUSH2 0xDE3 JUMPI PUSH1 0x2 PUSH0 DUP3 DUP2 MSTORE PUSH1 0x20 ADD SWAP1 DUP2 MSTORE PUSH1 0x20 ADD PUSH0 KECCAK256 PUSH0 ADD DUP1 SLOAD PUSH2 0xB78 SWAP1 PUSH2 0x18D3 JUMP JUMPDEST DUP1 PUSH1 0x1F ADD PUSH1 0x20 DUP1 SWAP2 DIV MUL PUSH1 0x20 ADD PUSH1 0x40 MLOAD SWAP1 DUP2 ADD PUSH1 0x40 MSTORE DUP1 SWAP3 SWAP2 SWAP1 DUP2 DUP2 MSTORE PUSH1 0x20 ADD DUP3 DUP1 SLOAD PUSH2 0xBA4 SWAP1 PUSH2 0x18D3 JUMP JUMPDEST DUP1 ISZERO PUSH2 0xBEF JUMPI DUP1 PUSH1 0x1F LT PUSH2 0xBC6 JUMPI PUSH2 0x100 DUP1 DUP4 SLOAD DIV MUL DUP4 MSTORE SWAP2 PUSH1 0x20 ADD SWAP2 PUSH2 0xBEF JUMP JUMPDEST DUP3 ADD SWAP2 SWAP1 PUSH0 MSTORE PUSH1 0x20 PUSH0 KECCAK256 SWAP1 JUMPDEST DUP2 SLOAD DUP2 MSTORE SWAP1 PUSH1 0x1 ADD SWAP1 PUSH1 0x20 ADD DUP1 DUP4 GT PUSH2 0xBD2 JUMPI DUP3 SWAP1 SUB PUSH1 0x1F AND DUP3 ADD SWAP2 JUMPDEST POP POP POP POP POP DUP6 DUP9 DUP4 PUSH2 0xC01 SWAP2 SWAP1 PUSH2 0x1E4D JUMP JUMPDEST DUP2 MLOAD DUP2 LT PUSH2 0xC12 JUMPI PUSH2 0xC11 PUSH2 0x1EF4 JUMP JUMPDEST JUMPDEST PUSH1 0x20 MUL PUSH1 0x20 ADD ADD DUP2 SWAP1 MSTORE POP PUSH1 0x2 PUSH0 DUP3 DUP2 MSTORE PUSH1 0x20 ADD SWAP1 DUP2 MSTORE PUSH1 0x20 ADD PUSH0 KECCAK256 PUSH1 0x1 ADD DUP1 SLOAD PUSH2 0xC3C SWAP1 PUSH2 0x18D3 JUMP JUMPDEST DUP1 PUSH1 0x1F ADD PUSH1 0x20 DUP1 SWAP2 DIV MUL PUSH1 0x20 ADD PUSH1 0x40 MLOAD SWAP1 DUP2 ADD PUSH1 0x40 MSTORE DUP1 SWAP3 SWAP2 SWAP1 DUP2 DUP2 MSTORE PUSH1 0x20 ADD DUP3 DUP1 SLOAD PUSH2 0xC68 SWAP1 PUSH2 0x18D3 JUMP JUMPDEST DUP1 ISZERO PUSH2 0xCB3 JUMPI DUP1 PUSH1 0x1F LT PUSH2 0xC8A JUMPI PUSH2 0x100 DUP1 DUP4 SLOAD DIV MUL DUP4 MSTORE SWAP2 PUSH1 0x20 ADD SWAP2 PUSH2 0xCB3 JUMP JUMPDEST DUP3 ADD SWAP2 SWAP1 PUSH0 MSTORE PUSH1 0x20 PUSH0 KECCAK256 SWAP1 JUMPDEST DUP2 SLOAD DUP2 MSTORE SWAP1 PUSH1 0x1 ADD SWAP1 PUSH1 0x20 ADD DUP1 DUP4 GT PUSH2 0xC96 JUMPI DUP3 SWAP1 SUB PUSH1 0x1F AND DUP3 ADD SWAP2 JUMPDEST POP POP POP POP POP DUP5 DUP9 DUP4 PUSH2 0xCC5 SWAP2 SWAP1 PUSH2 0x1E4D JUMP JUMPDEST DUP2 MLOAD DUP2 LT PUSH2 0xCD6 JUMPI PUSH2 0xCD5 PUSH2 0x1EF4 JUMP JUMPDEST JUMPDEST PUSH1 0x20 MUL PUSH1 0x20 ADD ADD DUP2 SWAP1 MSTORE POP PUSH1 0x2 PUSH0 DUP3 DUP2 MSTORE PUSH1 0x20 ADD SWAP1 DUP2 MSTORE PUSH1 0x20 ADD PUSH0 KECCAK256 PUSH1 0x2 ADD DUP1 SLOAD PUSH2 0xD00 SWAP1 PUSH2 0x18D3 JUMP JUMPDEST DUP1 PUSH1 0x1F ADD PUSH1 0x20 DUP1 SWAP2 DIV MUL PUSH1 0x20 ADD PUSH1 0x40 MLOAD SWAP1 DUP2 ADD PUSH1 0x40 MSTORE DUP1 SWAP3 SWAP2 SWAP1 DUP2 DUP2 MSTORE PUSH1 0x20 ADD DUP3 DUP1 SLOAD PUSH2 0xD2C SWAP1 PUSH2 0x18D3 JUMP JUMPDEST DUP1 ISZERO PUSH2 0xD77 JUMPI DUP1 PUSH1 0x1F LT PUSH2 0xD4E JUMPI PUSH2 0x100 DUP1 DUP4 SLOAD DIV MUL DUP4 MSTORE SWAP2 PUSH1 0x20 ADD SWAP2 PUSH2 0xD77 JUMP JUMPDEST DUP3 ADD SWAP2 SWAP1 PUSH0 MSTORE PUSH1 0x20 PUSH0 KECCAK256 SWAP1 JUMPDEST DUP2 SLOAD DUP2 MSTORE SWAP1 PUSH1 0x1 ADD SWAP1 PUSH1 0x20 ADD DUP1 DUP4 GT PUSH2 0xD5A JUMPI DUP3 SWAP1 SUB PUSH1 0x1F AND DUP3 ADD SWAP2 JUMPDEST POP POP POP POP POP DUP4 DUP9 DUP4 PUSH2 0xD89 SWAP2 SWAP1 PUSH2 0x1E4D JUMP JUMPDEST DUP2 MLOAD DUP2 LT PUSH2 0xD9A JUMPI PUSH2 0xD99 PUSH2 0x1EF4 JUMP JUMPDEST JUMPDEST PUSH1 0x20 MUL PUSH1 0x20 ADD ADD DUP2 SWAP1 MSTORE POP DUP1 DUP3 DUP9 DUP4 PUSH2 0xDB3 SWAP2 SWAP1 PUSH2 0x1E4D JUMP JUMPDEST DUP2 MLOAD DUP2 LT PUSH2 0xDC4 JUMPI PUSH2 0xDC3 PUSH2 0x1EF4 JUMP JUMPDEST JUMPDEST PUSH1 0x20 MUL PUSH1 0x20 ADD ADD DUP2 DUP2 MSTORE POP POP DUP1 DUP1 PUSH2 0xDDB SWAP1 PUSH2 0x1F21 JUMP JUMPDEST SWAP2 POP POP PUSH2 0xB53 JUMP JUMPDEST POP DUP4 DUP4 DUP4 DUP4 SWAP10 POP SWAP10 POP SWAP10 POP SWAP10 POP POP POP POP POP POP POP SWAP3 SWAP6 SWAP2 SWAP5 POP SWAP3 POP JUMP JUMPDEST PUSH1 0x40 MLOAD DUP1 PUSH1 0x60 ADD PUSH1 0x40 MSTORE DUP1 DUP5 DUP2 MSTORE PUSH1 0x20 ADD DUP4 DUP2 MSTORE PUSH1 0x20 ADD PUSH0 DUP1 SLOAD SWAP1 PUSH2 0x100 EXP SWAP1 DIV PUSH20 0xFFFFFFFFFFFFFFFFFFFFFFFFFFFFFFFFFFFFFFFF AND PUSH20 0xFFFFFFFFFFFFFFFFFFFFFFFFFFFFFFFFFFFFFFFF AND PUSH4 0x1C6A0254 DUP5 PUSH1 0x40 MLOAD DUP3 PUSH4 0xFFFFFFFF AND PUSH1 0xE0 SHL DUP2 MSTORE PUSH1 0x4 ADD PUSH2 0xE6E SWAP2 SWAP1 PUSH2 0x1912 JUMP JUMPDEST PUSH0 PUSH1 0x40 MLOAD DUP1 DUP4 SUB DUP2 DUP7 GAS STATICCALL ISZERO DUP1 ISZERO PUSH2 0xE88 JUMPI RETURNDATASIZE PUSH0 DUP1 RETURNDATACOPY RETURNDATASIZE PUSH0 REVERT JUMPDEST POP POP POP POP PUSH1 0x40 MLOAD RETURNDATASIZE PUSH0 DUP3 RETURNDATACOPY RETURNDATASIZE PUSH1 0x1F NOT PUSH1 0x1F DUP3 ADD AND DUP3 ADD DUP1 PUSH1 0x40 MSTORE POP DUP2 ADD SWAP1 PUSH2 0xEB0 SWAP2 SWAP1 PUSH2 0x1999 JUMP JUMPDEST DUP2 MSTORE POP PUSH1 0x2 PUSH0 PUSH1 0x1 SLOAD DUP2 MSTORE PUSH1 0x20 ADD SWAP1 DUP2 MSTORE PUSH1 0x20 ADD PUSH0 KECCAK256 PUSH0 DUP3 ADD MLOAD DUP2 PUSH0 ADD SWAP1 DUP2 PUSH2 0xED9 SWAP2 SWAP1 PUSH2 0x1C5B JUMP JUMPDEST POP PUSH1 0x20 DUP3 ADD MLOAD DUP2 PUSH1 0x1 ADD SWAP1 DUP2 PUSH2 0xEEF SWAP2 SWAP1 PUSH2 0x1C5B JUMP JUMPDEST POP PUSH1 0x40 DUP3 ADD MLOAD DUP2 PUSH1 0x2 ADD SWAP1 DUP2 PUSH2 0xF05 SWAP2 SWAP1 PUSH2 0x1C5B JUMP JUMPDEST POP SWAP1 POP POP PUSH1 0x1 PUSH0 DUP2 SLOAD DUP1 SWAP3 SWAP2 SWAP1 PUSH2 0xF1B SWAP1 PUSH2 0x1F21 JUMP JUMPDEST SWAP2 SWAP1 POP SSTORE POP POP POP POP JUMP JUMPDEST PUSH2 0xF2D PUSH2 0x114A JUMP JUMPDEST PUSH0 PUSH1 0x2 PUSH0 DUP5 DUP2 MSTORE PUSH1 0x20 ADD SWAP1 DUP2 MSTORE PUSH1 0x20 ADD PUSH0 KECCAK256 PUSH1 0x40 MLOAD DUP1 PUSH1 0x60 ADD PUSH1 0x40 MSTORE SWAP1 DUP2 PUSH0 DUP3 ADD DUP1 SLOAD PUSH2 0xF59 SWAP1 PUSH2 0x18D3 JUMP JUMPDEST DUP1 PUSH1 0x1F ADD PUSH1 0x20 DUP1 SWAP2 DIV MUL PUSH1 0x20 ADD PUSH1 0x40 MLOAD SWAP1 DUP2 ADD PUSH1 0x40 MSTORE DUP1 SWAP3 SWAP2 SWAP1 DUP2 DUP2 MSTORE PUSH1 0x20 ADD DUP3 DUP1 SLOAD PUSH2 0xF85 SWAP1 PUSH2 0x18D3 JUMP JUMPDEST DUP1 ISZERO PUSH2 0xFD0 JUMPI DUP1 PUSH1 0x1F LT PUSH2 0xFA7 JUMPI PUSH2 0x100 DUP1 DUP4 SLOAD DIV MUL DUP4 MSTORE SWAP2 PUSH1 0x20 ADD SWAP2 PUSH2 0xFD0 JUMP JUMPDEST DUP3 ADD SWAP2 SWAP1 PUSH0 MSTORE PUSH1 0x20 PUSH0 KECCAK256 SWAP1 JUMPDEST DUP2 SLOAD DUP2 MSTORE SWAP1 PUSH1 0x1 ADD SWAP1 PUSH1 0x20 ADD DUP1 DUP4 GT PUSH2 0xFB3 JUMPI DUP3 SWAP1 SUB PUSH1 0x1F AND DUP3 ADD SWAP2 JUMPDEST POP POP POP POP POP DUP2 MSTORE PUSH1 0x20 ADD PUSH1 0x1 DUP3 ADD DUP1 SLOAD PUSH2 0xFE9 SWAP1 PUSH2 0x18D3 JUMP JUMPDEST DUP1 PUSH1 0x1F ADD PUSH1 0x20 DUP1 SWAP2 DIV MUL PUSH1 0x20 ADD PUSH1 0x40 MLOAD SWAP1 DUP2 ADD PUSH1 0x40 MSTORE DUP1 SWAP3 SWAP2 SWAP1 DUP2 DUP2 MSTORE PUSH1 0x20 ADD DUP3 DUP1 SLOAD PUSH2 0x1015 SWAP1 PUSH2 0x18D3 JUMP JUMPDEST DUP1 ISZERO PUSH2 0x1060 JUMPI DUP1 PUSH1 0x1F LT PUSH2 0x1037 JUMPI PUSH2 0x100 DUP1 DUP4 SLOAD DIV MUL DUP4 MSTORE SWAP2 PUSH1 0x20 ADD SWAP2 PUSH2 0x1060 JUMP JUMPDEST DUP3 ADD SWAP2 SWAP1 PUSH0 MSTORE PUSH1 0x20 PUSH0 KECCAK256 SWAP1 JUMPDEST DUP2 SLOAD DUP2 MSTORE SWAP1 PUSH1 0x1 ADD SWAP1 PUSH1 0x20 ADD DUP1 DUP4 GT PUSH2 0x1043 JUMPI DUP3 SWAP1 SUB PUSH1 0x1F AND DUP3 ADD SWAP2 JUMPDEST POP POP POP POP POP DUP2 MSTORE PUSH1 0x20 ADD PUSH1 0x2 DUP3 ADD DUP1 SLOAD PUSH2 0x1079 SWAP1 PUSH2 0x18D3 JUMP JUMPDEST DUP1 PUSH1 0x1F ADD PUSH1 0x20 DUP1 SWAP2 DIV MUL PUSH1 0x20 ADD PUSH1 0x40 MLOAD SWAP1 DUP2 ADD PUSH1 0x40 MSTORE DUP1 SWAP3 SWAP2 SWAP1 DUP2 DUP2 MSTORE PUSH1 0x20 ADD DUP3 DUP1 SLOAD PUSH2 0x10A5 SWAP1 PUSH2 0x18D3 JUMP JUMPDEST DUP1 ISZERO PUSH2 0x10F0 JUMPI DUP1 PUSH1 0x1F LT PUSH2 0x10C7 JUMPI PUSH2 0x100 DUP1 DUP4 SLOAD DIV MUL DUP4 MSTORE SWAP2 PUSH1 0x20 ADD SWAP2 PUSH2 0x10F0 JUMP JUMPDEST DUP3 ADD SWAP2 SWAP1 PUSH0 MSTORE PUSH1 0x20 PUSH0 KECCAK256 SWAP1 JUMPDEST DUP2 SLOAD DUP2 MSTORE SWAP1 PUSH1 0x1 ADD SWAP1 PUSH1 0x20 ADD DUP1 DUP4 GT PUSH2 0x10D3 JUMPI DUP3 SWAP1 SUB PUSH1 0x1F AND DUP3 ADD SWAP2 JUMPDEST POP POP POP POP POP DUP2 MSTORE POP POP SWAP1 POP PUSH0 DUP2 PUSH0 ADD MLOAD MLOAD GT PUSH2 0x1141 JUMPI PUSH1 0x40 MLOAD PUSH32 0x8C379A000000000000000000000000000000000000000000000000000000000 DUP2 MSTORE PUSH1 0x4 ADD PUSH2 0x1138 SWAP1 PUSH2 0x1FB2 JUMP JUMPDEST PUSH1 0x40 MLOAD DUP1 SWAP2 SUB SWAP1 REVERT JUMPDEST DUP1 SWAP2 POP POP SWAP2 SWAP1 POP JUMP JUMPDEST PUSH1 0x40 MLOAD DUP1 PUSH1 0x60 ADD PUSH1 0x40 MSTORE DUP1 PUSH1 0x60 DUP2 MSTORE PUSH1 0x20 ADD PUSH1 0x60 DUP2 MSTORE PUSH1 0x20 ADD PUSH1 0x60 DUP2 MSTORE POP SWAP1 JUMP JUMPDEST POP DUP1 SLOAD PUSH2 0x1177 SWAP1 PUSH2 0x18D3 JUMP JUMPDEST PUSH0 DUP3 SSTORE DUP1 PUSH1 0x1F LT PUSH2 0x1188 JUMPI POP PUSH2 0x11A5 JUMP JUMPDEST PUSH1 0x1F ADD PUSH1 0x20 SWAP1 DIV SWAP1 PUSH0 MSTORE PUSH1 0x20 PUSH0 KECCAK256 SWAP1 DUP2 ADD SWAP1 PUSH2 0x11A4 SWAP2 SWAP1 PUSH2 0x11A8 JUMP JUMPDEST JUMPDEST POP JUMP JUMPDEST JUMPDEST DUP1 DUP3 GT ISZERO PUSH2 0x11BF JUMPI PUSH0 DUP2 PUSH0 SWAP1 SSTORE POP PUSH1 0x1 ADD PUSH2 0x11A9 JUMP JUMPDEST POP SWAP1 JUMP JUMPDEST PUSH0 PUSH1 0x40 MLOAD SWAP1 POP SWAP1 JUMP JUMPDEST PUSH0 DUP1 REVERT JUMPDEST PUSH0 DUP1 REVERT JUMPDEST PUSH0 DUP2 SWAP1 POP SWAP2 SWAP1 POP JUMP JUMPDEST PUSH2 0x11E6 DUP2 PUSH2 0x11D4 JUMP JUMPDEST DUP2 EQ PUSH2 0x11F0 JUMPI PUSH0 DUP1 REVERT JUMPDEST POP JUMP JUMPDEST PUSH0 DUP2 CALLDATALOAD SWAP1 POP PUSH2 0x1201 DUP2 PUSH2 0x11DD JUMP JUMPDEST SWAP3 SWAP2 POP POP JUMP JUMPDEST PUSH0 PUSH1 0x20 DUP3 DUP5 SUB SLT ISZERO PUSH2 0x121C JUMPI PUSH2 0x121B PUSH2 0x11CC JUMP JUMPDEST JUMPDEST PUSH0 PUSH2 0x1229 DUP5 DUP3 DUP6 ADD PUSH2 0x11F3 JUMP JUMPDEST SWAP2 POP POP SWAP3 SWAP2 POP POP JUMP JUMPDEST PUSH0 DUP2 MLOAD SWAP1 POP SWAP2 SWAP1 POP JUMP JUMPDEST PUSH0 DUP3 DUP3 MSTORE PUSH1 0x20 DUP3 ADD SWAP1 POP SWAP3 SWAP2 POP POP JUMP JUMPDEST DUP3 DUP2 DUP4 MCOPY PUSH0 DUP4 DUP4 ADD MSTORE POP POP POP JUMP JUMPDEST PUSH0 PUSH1 0x1F NOT PUSH1 0x1F DUP4 ADD AND SWAP1 POP SWAP2 SWAP1 POP JUMP JUMPDEST PUSH0 PUSH2 0x1274 DUP3 PUSH2 0x1232 JUMP JUMPDEST PUSH2 0x127E DUP2 DUP6 PUSH2 0x123C JUMP JUMPDEST SWAP4 POP PUSH2 0x128E DUP2 DUP6 PUSH1 0x20 DUP7 ADD PUSH2 0x124C JUMP JUMPDEST PUSH2 0x1297 DUP2 PUSH2 0x125A JUMP JUMPDEST DUP5 ADD SWAP2 POP POP SWAP3 SWAP2 POP POP JUMP JUMPDEST PUSH0 PUSH1 0x60 DUP3 ADD SWAP1 POP DUP2 DUP2 SUB PUSH0 DUP4 ADD MSTORE PUSH2 0x12BA DUP2 DUP7 PUSH2 0x126A JUMP JUMPDEST SWAP1 POP DUP2 DUP2 SUB PUSH1 0x20 DUP4 ADD MSTORE PUSH2 0x12CE DUP2 DUP6 PUSH2 0x126A JUMP JUMPDEST SWAP1 POP DUP2 DUP2 SUB PUSH1 0x40 DUP4 ADD MSTORE PUSH2 0x12E2 DUP2 DUP5 PUSH2 0x126A JUMP JUMPDEST SWAP1 POP SWAP5 SWAP4 POP POP POP POP JUMP JUMPDEST PUSH0 DUP1 REVERT JUMPDEST PUSH0 DUP1 REVERT JUMPDEST PUSH32 0x4E487B7100000000000000000000000000000000000000000000000000000000 PUSH0 MSTORE PUSH1 0x41 PUSH1 0x4 MSTORE PUSH1 0x24 PUSH0 REVERT JUMPDEST PUSH2 0x132A DUP3 PUSH2 0x125A JUMP JUMPDEST DUP2 ADD DUP2 DUP2 LT PUSH8 0xFFFFFFFFFFFFFFFF DUP3 GT OR ISZERO PUSH2 0x1349 JUMPI PUSH2 0x1348 PUSH2 0x12F4 JUMP JUMPDEST JUMPDEST DUP1 PUSH1 0x40 MSTORE POP POP POP JUMP JUMPDEST PUSH0 PUSH2 0x135B PUSH2 0x11C3 JUMP JUMPDEST SWAP1 POP PUSH2 0x1367 DUP3 DUP3 PUSH2 0x1321 JUMP JUMPDEST SWAP2 SWAP1 POP JUMP JUMPDEST PUSH0 PUSH8 0xFFFFFFFFFFFFFFFF DUP3 GT ISZERO PUSH2 0x1386 JUMPI PUSH2 0x1385 PUSH2 0x12F4 JUMP JUMPDEST JUMPDEST PUSH2 0x138F DUP3 PUSH2 0x125A JUMP JUMPDEST SWAP1 POP PUSH1 0x20 DUP2 ADD SWAP1 POP SWAP2 SWAP1 POP JUMP JUMPDEST DUP3 DUP2 DUP4 CALLDATACOPY PUSH0 DUP4 DUP4 ADD MSTORE POP POP POP JUMP JUMPDEST PUSH0 PUSH2 0x13BC PUSH2 0x13B7 DUP5 PUSH2 0x136C JUMP JUMPDEST PUSH2 0x1352 JUMP JUMPDEST SWAP1 POP DUP3 DUP2 MSTORE PUSH1 0x20 DUP2 ADD DUP5 DUP5 DUP5 ADD GT ISZERO PUSH2 0x13D8 JUMPI PUSH2 0x13D7 PUSH2 0x12F0 JUMP JUMPDEST JUMPDEST PUSH2 0x13E3 DUP5 DUP3 DUP6 PUSH2 0x139C JUMP JUMPDEST POP SWAP4 SWAP3 POP POP POP JUMP JUMPDEST PUSH0 DUP3 PUSH1 0x1F DUP4 ADD SLT PUSH2 0x13FF JUMPI PUSH2 0x13FE PUSH2 0x12EC JUMP JUMPDEST JUMPDEST DUP2 CALLDATALOAD PUSH2 0x140F DUP5 DUP3 PUSH1 0x20 DUP7 ADD PUSH2 0x13AA JUMP JUMPDEST SWAP2 POP POP SWAP3 SWAP2 POP POP JUMP JUMPDEST PUSH0 PUSH20 0xFFFFFFFFFFFFFFFFFFFFFFFFFFFFFFFFFFFFFFFF DUP3 AND SWAP1 POP SWAP2 SWAP1 POP JUMP JUMPDEST PUSH0 PUSH2 0x1441 DUP3 PUSH2 0x1418 JUMP JUMPDEST SWAP1 POP SWAP2 SWAP1 POP JUMP JUMPDEST PUSH2 0x1451 DUP2 PUSH2 0x1437 JUMP JUMPDEST DUP2 EQ PUSH2 0x145B JUMPI PUSH0 DUP1 REVERT JUMPDEST POP JUMP JUMPDEST PUSH0 DUP2 CALLDATALOAD SWAP1 POP PUSH2 0x146C DUP2 PUSH2 0x1448 JUMP JUMPDEST SWAP3 SWAP2 POP POP JUMP JUMPDEST PUSH0 DUP1 PUSH0 DUP1 PUSH1 0x80 DUP6 DUP8 SUB SLT ISZERO PUSH2 0x148A JUMPI PUSH2 0x1489 PUSH2 0x11CC JUMP JUMPDEST JUMPDEST PUSH0 PUSH2 0x1497 DUP8 DUP3 DUP9 ADD PUSH2 0x11F3 JUMP JUMPDEST SWAP5 POP POP PUSH1 0x20 DUP6 ADD CALLDATALOAD PUSH8 0xFFFFFFFFFFFFFFFF DUP2 GT ISZERO PUSH2 0x14B8 JUMPI PUSH2 0x14B7 PUSH2 0x11D0 JUMP JUMPDEST JUMPDEST PUSH2 0x14C4 DUP8 DUP3 DUP9 ADD PUSH2 0x13EB JUMP JUMPDEST SWAP4 POP POP PUSH1 0x40 DUP6 ADD CALLDATALOAD PUSH8 0xFFFFFFFFFFFFFFFF DUP2 GT ISZERO PUSH2 0x14E5 JUMPI PUSH2 0x14E4 PUSH2 0x11D0 JUMP JUMPDEST JUMPDEST PUSH2 0x14F1 DUP8 DUP3 DUP9 ADD PUSH2 0x13EB JUMP JUMPDEST SWAP3 POP POP PUSH1 0x60 PUSH2 0x1502 DUP8 DUP3 DUP9 ADD PUSH2 0x145E JUMP JUMPDEST SWAP2 POP POP SWAP3 SWAP6 SWAP2 SWAP5 POP SWAP3 POP JUMP JUMPDEST PUSH0 DUP3 DUP3 MSTORE PUSH1 0x20 DUP3 ADD SWAP1 POP SWAP3 SWAP2 POP POP JUMP JUMPDEST PUSH0 PUSH2 0x1528 DUP3 PUSH2 0x1232 JUMP JUMPDEST PUSH2 0x1532 DUP2 DUP6 PUSH2 0x150E JUMP JUMPDEST SWAP4 POP PUSH2 0x1542 DUP2 DUP6 PUSH1 0x20 DUP7 ADD PUSH2 0x124C JUMP JUMPDEST PUSH2 0x154B DUP2 PUSH2 0x125A JUMP JUMPDEST DUP5 ADD SWAP2 POP POP SWAP3 SWAP2 POP POP JUMP JUMPDEST PUSH0 PUSH1 0x60 DUP4 ADD PUSH0 DUP4 ADD MLOAD DUP5 DUP3 SUB PUSH0 DUP7 ADD MSTORE PUSH2 0x1570 DUP3 DUP3 PUSH2 0x151E JUMP JUMPDEST SWAP2 POP POP PUSH1 0x20 DUP4 ADD MLOAD DUP5 DUP3 SUB PUSH1 0x20 DUP7 ADD MSTORE PUSH2 0x158A DUP3 DUP3 PUSH2 0x151E JUMP JUMPDEST SWAP2 POP POP PUSH1 0x40 DUP4 ADD MLOAD DUP5 DUP3 SUB PUSH1 0x40 DUP7 ADD MSTORE PUSH2 0x15A4 DUP3 DUP3 PUSH2 0x151E JUMP JUMPDEST SWAP2 POP POP DUP1 SWAP2 POP POP SWAP3 SWAP2 POP POP JUMP JUMPDEST PUSH0 PUSH1 0x20 DUP3 ADD SWAP1 POP DUP2 DUP2 SUB PUSH0 DUP4 ADD MSTORE PUSH2 0x15C9 DUP2 DUP5 PUSH2 0x1556 JUMP JUMPDEST SWAP1 POP SWAP3 SWAP2 POP POP JUMP JUMPDEST PUSH0 DUP1 PUSH1 0x40 DUP4 DUP6 SUB SLT ISZERO PUSH2 0x15E7 JUMPI PUSH2 0x15E6 PUSH2 0x11CC JUMP JUMPDEST JUMPDEST PUSH0 PUSH2 0x15F4 DUP6 DUP3 DUP7 ADD PUSH2 0x11F3 JUMP JUMPDEST SWAP3 POP POP PUSH1 0x20 PUSH2 0x1605 DUP6 DUP3 DUP7 ADD PUSH2 0x145E JUMP JUMPDEST SWAP2 POP POP SWAP3 POP SWAP3 SWAP1 POP JUMP JUMPDEST PUSH0 DUP1 PUSH1 0x40 DUP4 DUP6 SUB SLT ISZERO PUSH2 0x1625 JUMPI PUSH2 0x1624 PUSH2 0x11CC JUMP JUMPDEST JUMPDEST PUSH0 PUSH2 0x1632 DUP6 DUP3 DUP7 ADD PUSH2 0x11F3 JUMP JUMPDEST SWAP3 POP POP PUSH1 0x20 PUSH2 0x1643 DUP6 DUP3 DUP7 ADD PUSH2 0x11F3 JUMP JUMPDEST SWAP2 POP POP SWAP3 POP SWAP3 SWAP1 POP JUMP JUMPDEST PUSH0 DUP2 MLOAD SWAP1 POP SWAP2 SWAP1 POP JUMP JUMPDEST PUSH0 DUP3 DUP3 MSTORE PUSH1 0x20 DUP3 ADD SWAP1 POP SWAP3 SWAP2 POP POP JUMP JUMPDEST PUSH0 DUP2 SWAP1 POP PUSH1 0x20 DUP3 ADD SWAP1 POP SWAP2 SWAP1 POP JUMP JUMPDEST PUSH0 PUSH2 0x1681 DUP4 DUP4 PUSH2 0x151E JUMP JUMPDEST SWAP1 POP SWAP3 SWAP2 POP POP JUMP JUMPDEST PUSH0 PUSH1 0x20 DUP3 ADD SWAP1 POP SWAP2 SWAP1 POP JUMP JUMPDEST PUSH0 PUSH2 0x169F DUP3 PUSH2 0x164D JUMP JUMPDEST PUSH2 0x16A9 DUP2 DUP6 PUSH2 0x1657 JUMP JUMPDEST SWAP4 POP DUP4 PUSH1 0x20 DUP3 MUL DUP6 ADD PUSH2 0x16BB DUP6 PUSH2 0x1667 JUMP JUMPDEST DUP1 PUSH0 JUMPDEST DUP6 DUP2 LT ISZERO PUSH2 0x16F6 JUMPI DUP5 DUP5 SUB DUP10 MSTORE DUP2 MLOAD PUSH2 0x16D7 DUP6 DUP3 PUSH2 0x1676 JUMP JUMPDEST SWAP5 POP PUSH2 0x16E2 DUP4 PUSH2 0x1689 JUMP JUMPDEST SWAP3 POP PUSH1 0x20 DUP11 ADD SWAP10 POP POP PUSH1 0x1 DUP2 ADD SWAP1 POP PUSH2 0x16BE JUMP JUMPDEST POP DUP3 SWAP8 POP DUP8 SWAP6 POP POP POP POP POP POP SWAP3 SWAP2 POP POP JUMP JUMPDEST PUSH0 DUP2 MLOAD SWAP1 POP SWAP2 SWAP1 POP JUMP JUMPDEST PUSH0 DUP3 DUP3 MSTORE PUSH1 0x20 DUP3 ADD SWAP1 POP SWAP3 SWAP2 POP POP JUMP JUMPDEST PUSH0 DUP2 SWAP1 POP PUSH1 0x20 DUP3 ADD SWAP1 POP SWAP2 SWAP1 POP JUMP JUMPDEST PUSH2 0x173A DUP2 PUSH2 0x11D4 JUMP JUMPDEST DUP3 MSTORE POP POP JUMP JUMPDEST PUSH0 PUSH2 0x174B DUP4 DUP4 PUSH2 0x1731 JUMP JUMPDEST PUSH1 0x20 DUP4 ADD SWAP1 POP SWAP3 SWAP2 POP POP JUMP JUMPDEST PUSH0 PUSH1 0x20 DUP3 ADD SWAP1 POP SWAP2 SWAP1 POP JUMP JUMPDEST PUSH0 PUSH2 0x176D DUP3 PUSH2 0x1708 JUMP JUMPDEST PUSH2 0x1777 DUP2 DUP6 PUSH2 0x1712 JUMP JUMPDEST SWAP4 POP PUSH2 0x1782 DUP4 PUSH2 0x1722 JUMP JUMPDEST DUP1 PUSH0 JUMPDEST DUP4 DUP2 LT ISZERO PUSH2 0x17B2 JUMPI DUP2 MLOAD PUSH2 0x1799 DUP9 DUP3 PUSH2 0x1740 JUMP JUMPDEST SWAP8 POP PUSH2 0x17A4 DUP4 PUSH2 0x1757 JUMP JUMPDEST SWAP3 POP POP PUSH1 0x1 DUP2 ADD SWAP1 POP PUSH2 0x1785 JUMP JUMPDEST POP DUP6 SWAP4 POP POP POP POP SWAP3 SWAP2 POP POP JUMP JUMPDEST PUSH0 PUSH1 0x80 DUP3 ADD SWAP1 POP DUP2 DUP2 SUB PUSH0 DUP4 ADD MSTORE PUSH2 0x17D7 DUP2 DUP8 PUSH2 0x1695 JUMP JUMPDEST SWAP1 POP DUP2 DUP2 SUB PUSH1 0x20 DUP4 ADD MSTORE PUSH2 0x17EB DUP2 DUP7 PUSH2 0x1695 JUMP JUMPDEST SWAP1 POP DUP2 DUP2 SUB PUSH1 0x40 DUP4 ADD MSTORE PUSH2 0x17FF DUP2 DUP6 PUSH2 0x1695 JUMP JUMPDEST SWAP1 POP DUP2 DUP2 SUB PUSH1 0x60 DUP4 ADD MSTORE PUSH2 0x1813 DUP2 DUP5 PUSH2 0x1763 JUMP JUMPDEST SWAP1 POP SWAP6 SWAP5 POP POP POP POP POP JUMP JUMPDEST PUSH0 DUP1 PUSH0 PUSH1 0x60 DUP5 DUP7 SUB SLT ISZERO PUSH2 0x1835 JUMPI PUSH2 0x1834 PUSH2 0x11CC JUMP JUMPDEST JUMPDEST PUSH0 DUP5 ADD CALLDATALOAD PUSH8 0xFFFFFFFFFFFFFFFF DUP2 GT ISZERO PUSH2 0x1852 JUMPI PUSH2 0x1851 PUSH2 0x11D0 JUMP JUMPDEST JUMPDEST PUSH2 0x185E DUP7 DUP3 DUP8 ADD PUSH2 0x13EB JUMP JUMPDEST SWAP4 POP POP PUSH1 0x20 DUP5 ADD CALLDATALOAD PUSH8 0xFFFFFFFFFFFFFFFF DUP2 GT ISZERO PUSH2 0x187F JUMPI PUSH2 0x187E PUSH2 0x11D0 JUMP JUMPDEST JUMPDEST PUSH2 0x188B DUP7 DUP3 DUP8 ADD PUSH2 0x13EB JUMP JUMPDEST SWAP3 POP POP PUSH1 0x40 PUSH2 0x189C DUP7 DUP3 DUP8 ADD PUSH2 0x145E JUMP JUMPDEST SWAP2 POP POP SWAP3 POP SWAP3 POP SWAP3 JUMP JUMPDEST PUSH32 0x4E487B7100000000000000000000000000000000000000000000000000000000 PUSH0 MSTORE PUSH1 0x22 PUSH1 0x4 MSTORE PUSH1 0x24 PUSH0 REVERT JUMPDEST PUSH0 PUSH1 0x2 DUP3 DIV SWAP1 POP PUSH1 0x1 DUP3 AND DUP1 PUSH2 0x18EA JUMPI PUSH1 0x7F DUP3 AND SWAP2 POP JUMPDEST PUSH1 0x20 DUP3 LT DUP2 SUB PUSH2 0x18FD JUMPI PUSH2 0x18FC PUSH2 0x18A6 JUMP JUMPDEST JUMPDEST POP SWAP2 SWAP1 POP JUMP JUMPDEST PUSH2 0x190C DUP2 PUSH2 0x1437 JUMP JUMPDEST DUP3 MSTORE POP POP JUMP JUMPDEST PUSH0 PUSH1 0x20 DUP3 ADD SWAP1 POP PUSH2 0x1925 PUSH0 DUP4 ADD DUP5 PUSH2 0x1903 JUMP JUMPDEST SWAP3 SWAP2 POP POP JUMP JUMPDEST PUSH0 PUSH2 0x193D PUSH2 0x1938 DUP5 PUSH2 0x136C JUMP JUMPDEST PUSH2 0x1352 JUMP JUMPDEST SWAP1 POP DUP3 DUP2 MSTORE PUSH1 0x20 DUP2 ADD DUP5 DUP5 DUP5 ADD GT ISZERO PUSH2 0x1959 JUMPI PUSH2 0x1958 PUSH2 0x12F0 JUMP JUMPDEST JUMPDEST PUSH2 0x1964 DUP5 DUP3 DUP6 PUSH2 0x124C JUMP JUMPDEST POP SWAP4 SWAP3 POP POP POP JUMP JUMPDEST PUSH0 DUP3 PUSH1 0x1F DUP4 ADD SLT PUSH2 0x1980 JUMPI PUSH2 0x197F PUSH2 0x12EC JUMP JUMPDEST JUMPDEST DUP2 MLOAD PUSH2 0x1990 DUP5 DUP3 PUSH1 0x20 DUP7 ADD PUSH2 0x192B JUMP JUMPDEST SWAP2 POP POP SWAP3 SWAP2 POP POP JUMP JUMPDEST PUSH0 PUSH1 0x20 DUP3 DUP5 SUB SLT ISZERO PUSH2 0x19AE JUMPI PUSH2 0x19AD PUSH2 0x11CC JUMP JUMPDEST JUMPDEST PUSH0 DUP3 ADD MLOAD PUSH8 0xFFFFFFFFFFFFFFFF DUP2 GT ISZERO PUSH2 0x19CB JUMPI PUSH2 0x19CA PUSH2 0x11D0 JUMP JUMPDEST JUMPDEST PUSH2 0x19D7 DUP5 DUP3 DUP6 ADD PUSH2 0x196C JUMP JUMPDEST SWAP2 POP POP SWAP3 SWAP2 POP POP JUMP JUMPDEST PUSH0 DUP2 SWAP1 POP SWAP3 SWAP2 POP POP JUMP JUMPDEST PUSH0 PUSH2 0x19F4 DUP3 PUSH2 0x1232 JUMP JUMPDEST PUSH2 0x19FE DUP2 DUP6 PUSH2 0x19E0 JUMP JUMPDEST SWAP4 POP PUSH2 0x1A0E DUP2 DUP6 PUSH1 0x20 DUP7 ADD PUSH2 0x124C JUMP JUMPDEST DUP1 DUP5 ADD SWAP2 POP POP SWAP3 SWAP2 POP POP JUMP JUMPDEST PUSH0 PUSH2 0x1A25 DUP3 DUP5 PUSH2 0x19EA JUMP JUMPDEST SWAP2 POP DUP2 SWAP1 POP SWAP3 SWAP2 POP POP JUMP JUMPDEST PUSH32 0x596F7520617265206E6F7420617574686F72697A656420746F20706572666F72 PUSH0 DUP3 ADD MSTORE PUSH32 0x6D20746869732066756E6374696F6E2100000000000000000000000000000000 PUSH1 0x20 DUP3 ADD MSTORE POP JUMP JUMPDEST PUSH0 PUSH2 0x1A8A PUSH1 0x30 DUP4 PUSH2 0x123C JUMP JUMPDEST SWAP2 POP PUSH2 0x1A95 DUP3 PUSH2 0x1A30 JUMP JUMPDEST PUSH1 0x40 DUP3 ADD SWAP1 POP SWAP2 SWAP1 POP JUMP JUMPDEST PUSH0 PUSH1 0x20 DUP3 ADD SWAP1 POP DUP2 DUP2 SUB PUSH0 DUP4 ADD MSTORE PUSH2 0x1AB7 DUP2 PUSH2 0x1A7E JUMP JUMPDEST SWAP1 POP SWAP2 SWAP1 POP JUMP JUMPDEST PUSH0 DUP2 SWAP1 POP DUP2 PUSH0 MSTORE PUSH1 0x20 PUSH0 KECCAK256 SWAP1 POP SWAP2 SWAP1 POP JUMP JUMPDEST PUSH0 PUSH1 0x20 PUSH1 0x1F DUP4 ADD DIV SWAP1 POP SWAP2 SWAP1 POP JUMP JUMPDEST PUSH0 DUP3 DUP3 SHL SWAP1 POP SWAP3 SWAP2 POP POP JUMP JUMPDEST PUSH0 PUSH1 0x8 DUP4 MUL PUSH2 0x1B1A PUSH32 0xFFFFFFFFFFFFFFFFFFFFFFFFFFFFFFFFFFFFFFFFFFFFFFFFFFFFFFFFFFFFFFFF DUP3 PUSH2 0x1ADF JUMP JUMPDEST PUSH2 0x1B24 DUP7 DUP4 PUSH2 0x1ADF JUMP JUMPDEST SWAP6 POP DUP1 NOT DUP5 AND SWAP4 POP DUP1 DUP7 AND DUP5 OR SWAP3 POP POP POP SWAP4 SWAP3 POP POP POP JUMP JUMPDEST PUSH0 DUP2 SWAP1 POP SWAP2 SWAP1 POP JUMP JUMPDEST PUSH0 PUSH2 0x1B5F PUSH2 0x1B5A PUSH2 0x1B55 DUP5 PUSH2 0x11D4 JUMP JUMPDEST PUSH2 0x1B3C JUMP JUMPDEST PUSH2 0x11D4 JUMP JUMPDEST SWAP1 POP SWAP2 SWAP1 POP JUMP JUMPDEST PUSH0 DUP2 SWAP1 POP SWAP2 SWAP1 POP JUMP JUMPDEST PUSH2 0x1B78 DUP4 PUSH2 0x1B45 JUMP JUMPDEST PUSH2 0x1B8C PUSH2 0x1B84 DUP3 PUSH2 0x1B66 JUMP JUMPDEST DUP5 DUP5 SLOAD PUSH2 0x1AEB JUMP JUMPDEST DUP3 SSTORE POP POP POP POP JUMP JUMPDEST PUSH0 SWAP1 JUMP JUMPDEST PUSH2 0x1BA0 PUSH2 0x1B94 JUMP JUMPDEST PUSH2 0x1BAB DUP2 DUP5 DUP5 PUSH2 0x1B6F JUMP JUMPDEST POP POP POP JUMP JUMPDEST JUMPDEST DUP2 DUP2 LT ISZERO PUSH2 0x1BCE JUMPI PUSH2 0x1BC3 PUSH0 DUP3 PUSH2 0x1B98 JUMP JUMPDEST PUSH1 0x1 DUP2 ADD SWAP1 POP PUSH2 0x1BB1 JUMP JUMPDEST POP POP JUMP JUMPDEST PUSH1 0x1F DUP3 GT ISZERO PUSH2 0x1C13 JUMPI PUSH2 0x1BE4 DUP2 PUSH2 0x1ABE JUMP JUMPDEST PUSH2 0x1BED DUP5 PUSH2 0x1AD0 JUMP JUMPDEST DUP2 ADD PUSH1 0x20 DUP6 LT ISZERO PUSH2 0x1BFC JUMPI DUP2 SWAP1 POP JUMPDEST PUSH2 0x1C10 PUSH2 0x1C08 DUP6 PUSH2 0x1AD0 JUMP JUMPDEST DUP4 ADD DUP3 PUSH2 0x1BB0 JUMP JUMPDEST POP POP JUMPDEST POP POP POP JUMP JUMPDEST PUSH0 DUP3 DUP3 SHR SWAP1 POP SWAP3 SWAP2 POP POP JUMP JUMPDEST PUSH0 PUSH2 0x1C33 PUSH0 NOT DUP5 PUSH1 0x8 MUL PUSH2 0x1C18 JUMP JUMPDEST NOT DUP1 DUP4 AND SWAP2 POP POP SWAP3 SWAP2 POP POP JUMP JUMPDEST PUSH0 PUSH2 0x1C4B DUP4 DUP4 PUSH2 0x1C24 JUMP JUMPDEST SWAP2 POP DUP3 PUSH1 0x2 MUL DUP3 OR SWAP1 POP SWAP3 SWAP2 POP POP JUMP JUMPDEST PUSH2 0x1C64 DUP3 PUSH2 0x1232 JUMP JUMPDEST PUSH8 0xFFFFFFFFFFFFFFFF DUP2 GT ISZERO PUSH2 0x1C7D JUMPI PUSH2 0x1C7C PUSH2 0x12F4 JUMP JUMPDEST JUMPDEST PUSH2 0x1C87 DUP3 SLOAD PUSH2 0x18D3 JUMP JUMPDEST PUSH2 0x1C92 DUP3 DUP3 DUP6 PUSH2 0x1BD2 JUMP JUMPDEST PUSH0 PUSH1 0x20 SWAP1 POP PUSH1 0x1F DUP4 GT PUSH1 0x1 DUP2 EQ PUSH2 0x1CC3 JUMPI PUSH0 DUP5 ISZERO PUSH2 0x1CB1 JUMPI DUP3 DUP8 ADD MLOAD SWAP1 POP JUMPDEST PUSH2 0x1CBB DUP6 DUP3 PUSH2 0x1C40 JUMP JUMPDEST DUP7 SSTORE POP PUSH2 0x1D22 JUMP JUMPDEST PUSH1 0x1F NOT DUP5 AND PUSH2 0x1CD1 DUP7 PUSH2 0x1ABE JUMP JUMPDEST PUSH0 JUMPDEST DUP3 DUP2 LT ISZERO PUSH2 0x1CF8 JUMPI DUP5 DUP10 ADD MLOAD DUP3 SSTORE PUSH1 0x1 DUP3 ADD SWAP2 POP PUSH1 0x20 DUP6 ADD SWAP5 POP PUSH1 0x20 DUP2 ADD SWAP1 POP PUSH2 0x1CD3 JUMP JUMPDEST DUP7 DUP4 LT ISZERO PUSH2 0x1D15 JUMPI DUP5 DUP10 ADD MLOAD PUSH2 0x1D11 PUSH1 0x1F DUP10 AND DUP3 PUSH2 0x1C24 JUMP JUMPDEST DUP4 SSTORE POP JUMPDEST PUSH1 0x1 PUSH1 0x2 DUP9 MUL ADD DUP9 SSTORE POP POP POP JUMPDEST POP POP POP POP POP POP JUMP JUMPDEST PUSH32 0x50616765206D757374206E6F7420626520657175616C20746F207A65726F2100 PUSH0 DUP3 ADD MSTORE POP JUMP JUMPDEST PUSH0 PUSH2 0x1D5E PUSH1 0x1F DUP4 PUSH2 0x123C JUMP JUMPDEST SWAP2 POP PUSH2 0x1D69 DUP3 PUSH2 0x1D2A JUMP JUMPDEST PUSH1 0x20 DUP3 ADD SWAP1 POP SWAP2 SWAP1 POP JUMP JUMPDEST PUSH0 PUSH1 0x20 DUP3 ADD SWAP1 POP DUP2 DUP2 SUB PUSH0 DUP4 ADD MSTORE PUSH2 0x1D8B DUP2 PUSH2 0x1D52 JUMP JUMPDEST SWAP1 POP SWAP2 SWAP1 POP JUMP JUMPDEST PUSH32 0x506167652073697A65206D757374206E6F7420626520657175616C20746F207A PUSH0 DUP3 ADD MSTORE PUSH32 0x65726F2100000000000000000000000000000000000000000000000000000000 PUSH1 0x20 DUP3 ADD MSTORE POP JUMP JUMPDEST PUSH0 PUSH2 0x1DEC PUSH1 0x24 DUP4 PUSH2 0x123C JUMP JUMPDEST SWAP2 POP PUSH2 0x1DF7 DUP3 PUSH2 0x1D92 JUMP JUMPDEST PUSH1 0x40 DUP3 ADD SWAP1 POP SWAP2 SWAP1 POP JUMP JUMPDEST PUSH0 PUSH1 0x20 DUP3 ADD SWAP1 POP DUP2 DUP2 SUB PUSH0 DUP4 ADD MSTORE PUSH2 0x1E19 DUP2 PUSH2 0x1DE0 JUMP JUMPDEST SWAP1 POP SWAP2 SWAP1 POP JUMP JUMPDEST PUSH32 0x4E487B7100000000000000000000000000000000000000000000000000000000 PUSH0 MSTORE PUSH1 0x11 PUSH1 0x4 MSTORE PUSH1 0x24 PUSH0 REVERT JUMPDEST PUSH0 PUSH2 0x1E57 DUP3 PUSH2 0x11D4 JUMP JUMPDEST SWAP2 POP PUSH2 0x1E62 DUP4 PUSH2 0x11D4 JUMP JUMPDEST SWAP3 POP DUP3 DUP3 SUB SWAP1 POP DUP2 DUP2 GT ISZERO PUSH2 0x1E7A JUMPI PUSH2 0x1E79 PUSH2 0x1E20 JUMP JUMPDEST JUMPDEST SWAP3 SWAP2 POP POP JUMP JUMPDEST PUSH0 PUSH2 0x1E8A DUP3 PUSH2 0x11D4 JUMP JUMPDEST SWAP2 POP PUSH2 0x1E95 DUP4 PUSH2 0x11D4 JUMP JUMPDEST SWAP3 POP DUP3 DUP3 MUL PUSH2 0x1EA3 DUP2 PUSH2 0x11D4 JUMP JUMPDEST SWAP2 POP DUP3 DUP3 DIV DUP5 EQ DUP4 ISZERO OR PUSH2 0x1EBA JUMPI PUSH2 0x1EB9 PUSH2 0x1E20 JUMP JUMPDEST JUMPDEST POP SWAP3 SWAP2 POP POP JUMP JUMPDEST PUSH0 PUSH2 0x1ECB DUP3 PUSH2 0x11D4 JUMP JUMPDEST SWAP2 POP PUSH2 0x1ED6 DUP4 PUSH2 0x11D4 JUMP JUMPDEST SWAP3 POP DUP3 DUP3 ADD SWAP1 POP DUP1 DUP3 GT ISZERO PUSH2 0x1EEE JUMPI PUSH2 0x1EED PUSH2 0x1E20 JUMP JUMPDEST JUMPDEST SWAP3 SWAP2 POP POP JUMP JUMPDEST PUSH32 0x4E487B7100000000000000000000000000000000000000000000000000000000 PUSH0 MSTORE PUSH1 0x32 PUSH1 0x4 MSTORE PUSH1 0x24 PUSH0 REVERT JUMPDEST PUSH0 PUSH2 0x1F2B DUP3 PUSH2 0x11D4 JUMP JUMPDEST SWAP2 POP PUSH32 0xFFFFFFFFFFFFFFFFFFFFFFFFFFFFFFFFFFFFFFFFFFFFFFFFFFFFFFFFFFFFFFFF DUP3 SUB PUSH2 0x1F5D JUMPI PUSH2 0x1F5C PUSH2 0x1E20 JUMP JUMPDEST JUMPDEST PUSH1 0x1 DUP3 ADD SWAP1 POP SWAP2 SWAP1 POP JUMP JUMPDEST PUSH32 0x496E76616C696420706F73742069642100000000000000000000000000000000 PUSH0 DUP3 ADD MSTORE POP JUMP JUMPDEST PUSH0 PUSH2 0x1F9C PUSH1 0x10 DUP4 PUSH2 0x123C JUMP JUMPDEST SWAP2 POP PUSH2 0x1FA7 DUP3 PUSH2 0x1F68 JUMP JUMPDEST PUSH1 0x20 DUP3 ADD SWAP1 POP SWAP2 SWAP1 POP JUMP JUMPDEST PUSH0 PUSH1 0x20 DUP3 ADD SWAP1 POP DUP2 DUP2 SUB PUSH0 DUP4 ADD MSTORE PUSH2 0x1FC9 DUP2 PUSH2 0x1F90 JUMP JUMPDEST SWAP1 POP SWAP2 SWAP1 POP JUMP INVALID LOG2 PUSH5 0x6970667358 0x22 SLT KECCAK256 0xE2 0x29 SWAP15 ADDRESS MULMOD 0xA5 0x1F PUSH27 0xE3D8E48AB033D72964F3DF4C0971127FCE30AA881C91591864736F PUSH13 0x63430008190033000000000000 "
				},
				"gasEstimates": {
					"creation": {
						"codeDepositCost": "1639600",
						"executionCost": "infinite",
						"totalCost": "infinite"
					},
					"external": {
						"createPost(string,string,address)": "infinite",
						"deletePost(uint256,address)": "infinite",
						"getPost(uint256)": "infinite",
						"getPosts(uint256,uint256)": "infinite",
						"postExist(uint256)": "infinite",
						"posts(uint256)": "infinite",
						"updatePost(uint256,string,string,address)": "infinite"
					}
				},
				"methodIdentifiers": {
					"createPost(string,string,address)": "86240751",
					"deletePost(uint256,address)": "40b4baf9",
					"getPost(uint256)": "40731c24",
					"getPosts(uint256,uint256)": "4ffd1be6",
					"postExist(uint256)": "e098f8bf",
					"posts(uint256)": "0b1e7f83",
					"updatePost(uint256,string,string,address)": "3c66c162"
				}
			},
			"storageLayout": {
				"storage": [
					{
						"astId": 5,
						"contract": "contracts/TccPost.sol:TccPost",
						"label": "user",
						"offset": 0,
						"slot": "0",
						"type": "t_contract(TccUser)511"
					},
					{
						"astId": 15,
						"contract": "contracts/TccPost.sol:TccPost",
						"label": "postCount",
						"offset": 0,
						"slot": "1",
						"type": "t_uint256"
					},
					{
						"astId": 20,
						"contract": "contracts/TccPost.sol:TccPost",
						"label": "posts",
						"offset": 0,
						"slot": "2",
						"type": "t_mapping(t_uint256,t_struct(Post)12_storage)"
					}
				],
				"types": {
					"t_contract(TccUser)511": {
						"encoding": "inplace",
						"label": "contract TccUser",
						"numberOfBytes": "20"
					},
					"t_mapping(t_uint256,t_struct(Post)12_storage)": {
						"encoding": "mapping",
						"key": "t_uint256",
						"label": "mapping(uint256 => struct TccPost.Post)",
						"numberOfBytes": "32",
						"value": "t_struct(Post)12_storage"
					},
					"t_string_storage": {
						"encoding": "bytes",
						"label": "string",
						"numberOfBytes": "32"
					},
					"t_struct(Post)12_storage": {
						"encoding": "inplace",
						"label": "struct TccPost.Post",
						"members": [
							{
								"astId": 7,
								"contract": "contracts/TccPost.sol:TccPost",
								"label": "title",
								"offset": 0,
								"slot": "0",
								"type": "t_string_storage"
							},
							{
								"astId": 9,
								"contract": "contracts/TccPost.sol:TccPost",
								"label": "body",
								"offset": 0,
								"slot": "1",
								"type": "t_string_storage"
							},
							{
								"astId": 11,
								"contract": "contracts/TccPost.sol:TccPost",
								"label": "username",
								"offset": 0,
								"slot": "2",
								"type": "t_string_storage"
							}
						],
						"numberOfBytes": "96"
					},
					"t_uint256": {
						"encoding": "inplace",
						"label": "uint256",
						"numberOfBytes": "32"
					}
				}
			},
			"userdoc": {
				"kind": "user",
				"methods": {},
				"version": 1
			}
		}
	}
}