{
	"contracts/TccUser.sol": {
		"TccUser": {
			"abi": [
				{
					"inputs": [
						{
							"internalType": "address",
							"name": "_walletAddress",
							"type": "address"
						}
					],
					"name": "getCurrentUserName",
					"outputs": [
						{
							"internalType": "string",
							"name": "",
							"type": "string"
						}
					],
					"stateMutability": "view",
					"type": "function"
				},
				{
					"inputs": [
						{
							"internalType": "string",
							"name": "_username",
							"type": "string"
						},
						{
							"internalType": "address",
							"name": "_walletAddress",
							"type": "address"
						}
					],
					"name": "login",
					"outputs": [
						{
							"components": [
								{
									"internalType": "string",
									"name": "username",
									"type": "string"
								},
								{
									"internalType": "string",
									"name": "fullname",
									"type": "string"
								},
								{
									"internalType": "address",
									"name": "walletAddress",
									"type": "address"
								}
							],
							"internalType": "struct TccUser.User",
							"name": "",
							"type": "tuple"
						}
					],
					"stateMutability": "view",
					"type": "function"
				},
				{
					"inputs": [
						{
							"internalType": "string",
							"name": "_username",
							"type": "string"
						},
						{
							"internalType": "string",
							"name": "_fullname",
							"type": "string"
						},
						{
							"internalType": "address",
							"name": "_walletAddress",
							"type": "address"
						}
					],
					"name": "registerUser",
					"outputs": [],
					"stateMutability": "nonpayable",
					"type": "function"
				},
				{
					"inputs": [
						{
							"internalType": "string",
							"name": "_username",
							"type": "string"
						}
					],
					"name": "userExist",
					"outputs": [],
					"stateMutability": "view",
					"type": "function"
				},
				{
					"inputs": [
						{
							"internalType": "address",
							"name": "",
							"type": "address"
						}
					],
					"name": "userNames",
					"outputs": [
						{
							"internalType": "string",
							"name": "",
							"type": "string"
						}
					],
					"stateMutability": "view",
					"type": "function"
				},
				{
					"inputs": [
						{
							"internalType": "string",
							"name": "",
							"type": "string"
						}
					],
					"name": "users",
					"outputs": [
						{
							"internalType": "string",
							"name": "username",
							"type": "string"
						},
						{
							"internalType": "string",
							"name": "fullname",
							"type": "string"
						},
						{
							"internalType": "address",
							"name": "walletAddress",
							"type": "address"
						}
					],
					"stateMutability": "view",
					"type": "function"
				}
			],
			"devdoc": {
				"kind": "dev",
				"methods": {},
				"version": 1
			},
			"evm": {
				"assembly": "    /* \"contracts/TccUser.sol\":58:1788  contract TccUser {... */\n  mstore(0x40, 0x80)\n  callvalue\n  dup1\n  iszero\n  tag_1\n  jumpi\n  0x00\n  dup1\n  revert\ntag_1:\n  pop\n  dataSize(sub_0)\n  dup1\n  dataOffset(sub_0)\n  0x00\n  codecopy\n  0x00\n  return\nstop\n\nsub_0: assembly {\n        /* \"contracts/TccUser.sol\":58:1788  contract TccUser {... */\n      mstore(0x40, 0x80)\n      callvalue\n      dup1\n      iszero\n      tag_1\n      jumpi\n      0x00\n      dup1\n      revert\n    tag_1:\n      pop\n      jumpi(tag_2, lt(calldatasize, 0x04))\n      shr(0xe0, calldataload(0x00))\n      dup1\n      0x1b81e2d2\n      eq\n      tag_3\n      jumpi\n      dup1\n      0x1c6a0254\n      eq\n      tag_4\n      jumpi\n      dup1\n      0x689e1c03\n      eq\n      tag_5\n      jumpi\n      dup1\n      0x7f281635\n      eq\n      tag_6\n      jumpi\n      dup1\n      0x88557b07\n      eq\n      tag_7\n      jumpi\n      dup1\n      0xef9b432a\n      eq\n      tag_8\n      jumpi\n    tag_2:\n      0x00\n      dup1\n      revert\n        /* \"contracts/TccUser.sol\":1233:1413  function userExist(string memory _username) public view {... */\n    tag_3:\n      tag_9\n      0x04\n      dup1\n      calldatasize\n      sub\n      dup2\n      add\n      swap1\n      tag_10\n      swap2\n      swap1\n      tag_11\n      jump\t// in\n    tag_10:\n      tag_12\n      jump\t// in\n    tag_9:\n      stop\n        /* \"contracts/TccUser.sol\":904:1196  function getCurrentUserName(address _walletAddress)... */\n    tag_4:\n      tag_13\n      0x04\n      dup1\n      calldatasize\n      sub\n      dup2\n      add\n      swap1\n      tag_14\n      swap2\n      swap1\n      tag_15\n      jump\t// in\n    tag_14:\n      tag_16\n      jump\t// in\n    tag_13:\n      mload(0x40)\n      tag_17\n      swap2\n      swap1\n      tag_18\n      jump\t// in\n    tag_17:\n      mload(0x40)\n      dup1\n      swap2\n      sub\n      swap1\n      return\n        /* \"contracts/TccUser.sol\":267:303  mapping(string => User) public users */\n    tag_5:\n      tag_19\n      0x04\n      dup1\n      calldatasize\n      sub\n      dup2\n      add\n      swap1\n      tag_20\n      swap2\n      swap1\n      tag_11\n      jump\t// in\n    tag_20:\n      tag_21\n      jump\t// in\n    tag_19:\n      mload(0x40)\n      tag_22\n      swap4\n      swap3\n      swap2\n      swap1\n      tag_23\n      jump\t// in\n    tag_22:\n      mload(0x40)\n      dup1\n      swap2\n      sub\n      swap1\n      return\n        /* \"contracts/TccUser.sol\":310:353  mapping(address => string) public userNames */\n    tag_6:\n      tag_24\n      0x04\n      dup1\n      calldatasize\n      sub\n      dup2\n      add\n      swap1\n      tag_25\n      swap2\n      swap1\n      tag_15\n      jump\t// in\n    tag_25:\n      tag_26\n      jump\t// in\n    tag_24:\n      mload(0x40)\n      tag_27\n      swap2\n      swap1\n      tag_18\n      jump\t// in\n    tag_27:\n      mload(0x40)\n      dup1\n      swap2\n      sub\n      swap1\n      return\n        /* \"contracts/TccUser.sol\":558:870  function registerUser(... */\n    tag_7:\n      tag_28\n      0x04\n      dup1\n      calldatasize\n      sub\n      dup2\n      add\n      swap1\n      tag_29\n      swap2\n      swap1\n      tag_30\n      jump\t// in\n    tag_29:\n      tag_31\n      jump\t// in\n    tag_28:\n      stop\n        /* \"contracts/TccUser.sol\":1438:1786  function login(string memory _username, address _walletAddress)... */\n    tag_8:\n      tag_32\n      0x04\n      dup1\n      calldatasize\n      sub\n      dup2\n      add\n      swap1\n      tag_33\n      swap2\n      swap1\n      tag_34\n      jump\t// in\n    tag_33:\n      tag_35\n      jump\t// in\n    tag_32:\n      mload(0x40)\n      tag_36\n      swap2\n      swap1\n      tag_37\n      jump\t// in\n    tag_36:\n      mload(0x40)\n      dup1\n      swap2\n      sub\n      swap1\n      return\n        /* \"contracts/TccUser.sol\":1233:1413  function userExist(string memory _username) public view {... */\n    tag_12:\n        /* \"contracts/TccUser.sol\":1362:1363  0 */\n      0x00\n        /* \"contracts/TccUser.sol\":1326:1331  users */\n      dup1\n        /* \"contracts/TccUser.sol\":1332:1341  _username */\n      dup3\n        /* \"contracts/TccUser.sol\":1326:1342  users[_username] */\n      mload(0x40)\n      tag_39\n      swap2\n      swap1\n      tag_40\n      jump\t// in\n    tag_39:\n      swap1\n      dup2\n      mstore\n      0x20\n      add\n      mload(0x40)\n      dup1\n      swap2\n      sub\n      swap1\n      keccak256\n        /* \"contracts/TccUser.sol\":1326:1351  users[_username].username */\n      0x00\n      add\n        /* \"contracts/TccUser.sol\":1320:1359  bytes(users[_username].username).length */\n      dup1\n      sload\n      tag_41\n      swap1\n      tag_42\n      jump\t// in\n    tag_41:\n      swap1\n      pop\n        /* \"contracts/TccUser.sol\":1320:1363  bytes(users[_username].username).length > 0 */\n      gt\n        /* \"contracts/TccUser.sol\":1299:1406  require(... */\n      tag_43\n      jumpi\n      mload(0x40)\n      0x08c379a000000000000000000000000000000000000000000000000000000000\n      dup2\n      mstore\n      0x04\n      add\n      tag_44\n      swap1\n      tag_45\n      jump\t// in\n    tag_44:\n      mload(0x40)\n      dup1\n      swap2\n      sub\n      swap1\n      revert\n    tag_43:\n        /* \"contracts/TccUser.sol\":1233:1413  function userExist(string memory _username) public view {... */\n      pop\n      jump\t// out\n        /* \"contracts/TccUser.sol\":904:1196  function getCurrentUserName(address _walletAddress)... */\n    tag_16:\n        /* \"contracts/TccUser.sol\":1001:1014  string memory */\n      0x60\n        /* \"contracts/TccUser.sol\":1093:1094  0 */\n      0x00\n        /* \"contracts/TccUser.sol\":1057:1066  userNames */\n      0x01\n        /* \"contracts/TccUser.sol\":1057:1082  userNames[_walletAddress] */\n      0x00\n        /* \"contracts/TccUser.sol\":1067:1081  _walletAddress */\n      dup5\n        /* \"contracts/TccUser.sol\":1057:1082  userNames[_walletAddress] */\n      0xffffffffffffffffffffffffffffffffffffffff\n      and\n      0xffffffffffffffffffffffffffffffffffffffff\n      and\n      dup2\n      mstore\n      0x20\n      add\n      swap1\n      dup2\n      mstore\n      0x20\n      add\n      0x00\n      keccak256\n        /* \"contracts/TccUser.sol\":1051:1090  bytes(userNames[_walletAddress]).length */\n      dup1\n      sload\n      tag_47\n      swap1\n      tag_42\n      jump\t// in\n    tag_47:\n      swap1\n      pop\n        /* \"contracts/TccUser.sol\":1051:1094  bytes(userNames[_walletAddress]).length > 0 */\n      gt\n        /* \"contracts/TccUser.sol\":1030:1144  require(... */\n      tag_48\n      jumpi\n      mload(0x40)\n      0x08c379a000000000000000000000000000000000000000000000000000000000\n      dup2\n      mstore\n      0x04\n      add\n      tag_49\n      swap1\n      tag_50\n      jump\t// in\n    tag_49:\n      mload(0x40)\n      dup1\n      swap2\n      sub\n      swap1\n      revert\n    tag_48:\n        /* \"contracts/TccUser.sol\":1163:1172  userNames */\n      0x01\n        /* \"contracts/TccUser.sol\":1163:1188  userNames[_walletAddress] */\n      0x00\n        /* \"contracts/TccUser.sol\":1173:1187  _walletAddress */\n      dup4\n        /* \"contracts/TccUser.sol\":1163:1188  userNames[_walletAddress] */\n      0xffffffffffffffffffffffffffffffffffffffff\n      and\n      0xffffffffffffffffffffffffffffffffffffffff\n      and\n      dup2\n      mstore\n      0x20\n      add\n      swap1\n      dup2\n      mstore\n      0x20\n      add\n      0x00\n      keccak256\n        /* \"contracts/TccUser.sol\":1155:1189  return (userNames[_walletAddress]) */\n      dup1\n      sload\n      tag_51\n      swap1\n      tag_42\n      jump\t// in\n    tag_51:\n      dup1\n      0x1f\n      add\n      0x20\n      dup1\n      swap2\n      div\n      mul\n      0x20\n      add\n      mload(0x40)\n      swap1\n      dup2\n      add\n      0x40\n      mstore\n      dup1\n      swap3\n      swap2\n      swap1\n      dup2\n      dup2\n      mstore\n      0x20\n      add\n      dup3\n      dup1\n      sload\n      tag_52\n      swap1\n      tag_42\n      jump\t// in\n    tag_52:\n      dup1\n      iszero\n      tag_53\n      jumpi\n      dup1\n      0x1f\n      lt\n      tag_54\n      jumpi\n      0x0100\n      dup1\n      dup4\n      sload\n      div\n      mul\n      dup4\n      mstore\n      swap2\n      0x20\n      add\n      swap2\n      jump(tag_53)\n    tag_54:\n      dup3\n      add\n      swap2\n      swap1\n      0x00\n      mstore\n      keccak256(0x00, 0x20)\n      swap1\n    tag_55:\n      dup2\n      sload\n      dup2\n      mstore\n      swap1\n      0x01\n      add\n      swap1\n      0x20\n      add\n      dup1\n      dup4\n      gt\n      tag_55\n      jumpi\n      dup3\n      swap1\n      sub\n      0x1f\n      and\n      dup3\n      add\n      swap2\n    tag_53:\n      pop\n      pop\n      pop\n      pop\n      pop\n      swap1\n      pop\n        /* \"contracts/TccUser.sol\":904:1196  function getCurrentUserName(address _walletAddress)... */\n      swap2\n      swap1\n      pop\n      jump\t// out\n        /* \"contracts/TccUser.sol\":267:303  mapping(string => User) public users */\n    tag_21:\n      0x00\n      dup2\n      dup1\n      mload\n      0x20\n      dup2\n      add\n      dup3\n      add\n      dup1\n      mload\n      dup5\n      dup3\n      mstore\n      0x20\n      dup4\n      add\n      0x20\n      dup6\n      add\n      keccak256\n      dup2\n      dup4\n      mstore\n      dup1\n      swap6\n      pop\n      pop\n      pop\n      pop\n      pop\n      pop\n      0x00\n      swap2\n      pop\n      swap1\n      pop\n      dup1\n      0x00\n      add\n      dup1\n      sload\n      tag_56\n      swap1\n      tag_42\n      jump\t// in\n    tag_56:\n      dup1\n      0x1f\n      add\n      0x20\n      dup1\n      swap2\n      div\n      mul\n      0x20\n      add\n      mload(0x40)\n      swap1\n      dup2\n      add\n      0x40\n      mstore\n      dup1\n      swap3\n      swap2\n      swap1\n      dup2\n      dup2\n      mstore\n      0x20\n      add\n      dup3\n      dup1\n      sload\n      tag_57\n      swap1\n      tag_42\n      jump\t// in\n    tag_57:\n      dup1\n      iszero\n      tag_58\n      jumpi\n      dup1\n      0x1f\n      lt\n      tag_59\n      jumpi\n      0x0100\n      dup1\n      dup4\n      sload\n      div\n      mul\n      dup4\n      mstore\n      swap2\n      0x20\n      add\n      swap2\n      jump(tag_58)\n    tag_59:\n      dup3\n      add\n      swap2\n      swap1\n      0x00\n      mstore\n      keccak256(0x00, 0x20)\n      swap1\n    tag_60:\n      dup2\n      sload\n      dup2\n      mstore\n      swap1\n      0x01\n      add\n      swap1\n      0x20\n      add\n      dup1\n      dup4\n      gt\n      tag_60\n      jumpi\n      dup3\n      swap1\n      sub\n      0x1f\n      and\n      dup3\n      add\n      swap2\n    tag_58:\n      pop\n      pop\n      pop\n      pop\n      pop\n      swap1\n      dup1\n      0x01\n      add\n      dup1\n      sload\n      tag_61\n      swap1\n      tag_42\n      jump\t// in\n    tag_61:\n      dup1\n      0x1f\n      add\n      0x20\n      dup1\n      swap2\n      div\n      mul\n      0x20\n      add\n      mload(0x40)\n      swap1\n      dup2\n      add\n      0x40\n      mstore\n      dup1\n      swap3\n      swap2\n      swap1\n      dup2\n      dup2\n      mstore\n      0x20\n      add\n      dup3\n      dup1\n      sload\n      tag_62\n      swap1\n      tag_42\n      jump\t// in\n    tag_62:\n      dup1\n      iszero\n      tag_63\n      jumpi\n      dup1\n      0x1f\n      lt\n      tag_64\n      jumpi\n      0x0100\n      dup1\n      dup4\n      sload\n      div\n      mul\n      dup4\n      mstore\n      swap2\n      0x20\n      add\n      swap2\n      jump(tag_63)\n    tag_64:\n      dup3\n      add\n      swap2\n      swap1\n      0x00\n      mstore\n      keccak256(0x00, 0x20)\n      swap1\n    tag_65:\n      dup2\n      sload\n      dup2\n      mstore\n      swap1\n      0x01\n      add\n      swap1\n      0x20\n      add\n      dup1\n      dup4\n      gt\n      tag_65\n      jumpi\n      dup3\n      swap1\n      sub\n      0x1f\n      and\n      dup3\n      add\n      swap2\n    tag_63:\n      pop\n      pop\n      pop\n      pop\n      pop\n      swap1\n      dup1\n      0x02\n      add\n      0x00\n      swap1\n      sload\n      swap1\n      0x0100\n      exp\n      swap1\n      div\n      0xffffffffffffffffffffffffffffffffffffffff\n      and\n      swap1\n      pop\n      dup4\n      jump\t// out\n        /* \"contracts/TccUser.sol\":310:353  mapping(address => string) public userNames */\n    tag_26:\n      mstore(0x20, 0x01)\n      dup1\n      0x00\n      mstore\n      keccak256(0x00, 0x40)\n      0x00\n      swap2\n      pop\n      swap1\n      pop\n      dup1\n      sload\n      tag_66\n      swap1\n      tag_42\n      jump\t// in\n    tag_66:\n      dup1\n      0x1f\n      add\n      0x20\n      dup1\n      swap2\n      div\n      mul\n      0x20\n      add\n      mload(0x40)\n      swap1\n      dup2\n      add\n      0x40\n      mstore\n      dup1\n      swap3\n      swap2\n      swap1\n      dup2\n      dup2\n      mstore\n      0x20\n      add\n      dup3\n      dup1\n      sload\n      tag_67\n      swap1\n      tag_42\n      jump\t// in\n    tag_67:\n      dup1\n      iszero\n      tag_68\n      jumpi\n      dup1\n      0x1f\n      lt\n      tag_69\n      jumpi\n      0x0100\n      dup1\n      dup4\n      sload\n      div\n      mul\n      dup4\n      mstore\n      swap2\n      0x20\n      add\n      swap2\n      jump(tag_68)\n    tag_69:\n      dup3\n      add\n      swap2\n      swap1\n      0x00\n      mstore\n      keccak256(0x00, 0x20)\n      swap1\n    tag_70:\n      dup2\n      sload\n      dup2\n      mstore\n      swap1\n      0x01\n      add\n      swap1\n      0x20\n      add\n      dup1\n      dup4\n      gt\n      tag_70\n      jumpi\n      dup3\n      swap1\n      sub\n      0x1f\n      and\n      dup3\n      add\n      swap2\n    tag_68:\n      pop\n      pop\n      pop\n      pop\n      pop\n      dup2\n      jump\t// out\n        /* \"contracts/TccUser.sol\":558:870  function registerUser(... */\n    tag_31:\n        /* \"contracts/TccUser.sol\":707:716  _username */\n      dup3\n        /* \"contracts/TccUser.sol\":484:485  0 */\n      0x00\n        /* \"contracts/TccUser.sol\":447:452  users */\n      dup1\n        /* \"contracts/TccUser.sol\":453:462  _username */\n      dup3\n        /* \"contracts/TccUser.sol\":447:463  users[_username] */\n      mload(0x40)\n      tag_72\n      swap2\n      swap1\n      tag_40\n      jump\t// in\n    tag_72:\n      swap1\n      dup2\n      mstore\n      0x20\n      add\n      mload(0x40)\n      dup1\n      swap2\n      sub\n      swap1\n      keccak256\n        /* \"contracts/TccUser.sol\":447:472  users[_username].username */\n      0x00\n      add\n        /* \"contracts/TccUser.sol\":441:480  bytes(users[_username].username).length */\n      dup1\n      sload\n      tag_73\n      swap1\n      tag_42\n      jump\t// in\n    tag_73:\n      swap1\n      pop\n        /* \"contracts/TccUser.sol\":441:485  bytes(users[_username].username).length == 0 */\n      eq\n        /* \"contracts/TccUser.sol\":420:534  require(... */\n      tag_74\n      jumpi\n      mload(0x40)\n      0x08c379a000000000000000000000000000000000000000000000000000000000\n      dup2\n      mstore\n      0x04\n      add\n      tag_75\n      swap1\n      tag_76\n      jump\t// in\n    tag_75:\n      mload(0x40)\n      dup1\n      swap2\n      sub\n      swap1\n      revert\n    tag_74:\n        /* \"contracts/TccUser.sol\":747:789  User(_username, _fullname, _walletAddress) */\n      mload(0x40)\n      dup1\n      0x60\n      add\n      0x40\n      mstore\n      dup1\n        /* \"contracts/TccUser.sol\":752:761  _username */\n      dup6\n        /* \"contracts/TccUser.sol\":747:789  User(_username, _fullname, _walletAddress) */\n      dup2\n      mstore\n      0x20\n      add\n        /* \"contracts/TccUser.sol\":763:772  _fullname */\n      dup5\n        /* \"contracts/TccUser.sol\":747:789  User(_username, _fullname, _walletAddress) */\n      dup2\n      mstore\n      0x20\n      add\n        /* \"contracts/TccUser.sol\":774:788  _walletAddress */\n      dup4\n        /* \"contracts/TccUser.sol\":747:789  User(_username, _fullname, _walletAddress) */\n      0xffffffffffffffffffffffffffffffffffffffff\n      and\n      dup2\n      mstore\n      pop\n        /* \"contracts/TccUser.sol\":728:733  users */\n      0x00\n        /* \"contracts/TccUser.sol\":734:743  _username */\n      dup6\n        /* \"contracts/TccUser.sol\":728:744  users[_username] */\n      mload(0x40)\n      tag_78\n      swap2\n      swap1\n      tag_40\n      jump\t// in\n    tag_78:\n      swap1\n      dup2\n      mstore\n      0x20\n      add\n      mload(0x40)\n      dup1\n      swap2\n      sub\n      swap1\n      keccak256\n        /* \"contracts/TccUser.sol\":728:789  users[_username] = User(_username, _fullname, _walletAddress) */\n      0x00\n      dup3\n      add\n      mload\n      dup2\n      0x00\n      add\n      swap1\n      dup2\n      tag_79\n      swap2\n      swap1\n      tag_80\n      jump\t// in\n    tag_79:\n      pop\n      0x20\n      dup3\n      add\n      mload\n      dup2\n      0x01\n      add\n      swap1\n      dup2\n      tag_81\n      swap2\n      swap1\n      tag_80\n      jump\t// in\n    tag_81:\n      pop\n      0x40\n      dup3\n      add\n      mload\n      dup2\n      0x02\n      add\n      exp(0x0100, 0x00)\n      dup2\n      sload\n      dup2\n      0xffffffffffffffffffffffffffffffffffffffff\n      mul\n      not\n      and\n      swap1\n      dup4\n      0xffffffffffffffffffffffffffffffffffffffff\n      and\n      mul\n      or\n      swap1\n      sstore\n      pop\n      swap1\n      pop\n      pop\n        /* \"contracts/TccUser.sol\":854:863  _username */\n      dup4\n        /* \"contracts/TccUser.sol\":826:835  userNames */\n      0x01\n        /* \"contracts/TccUser.sol\":826:851  userNames[_walletAddress] */\n      0x00\n        /* \"contracts/TccUser.sol\":836:850  _walletAddress */\n      dup5\n        /* \"contracts/TccUser.sol\":826:851  userNames[_walletAddress] */\n      0xffffffffffffffffffffffffffffffffffffffff\n      and\n      0xffffffffffffffffffffffffffffffffffffffff\n      and\n      dup2\n      mstore\n      0x20\n      add\n      swap1\n      dup2\n      mstore\n      0x20\n      add\n      0x00\n      keccak256\n        /* \"contracts/TccUser.sol\":826:863  userNames[_walletAddress] = _username */\n      swap1\n      dup2\n      tag_82\n      swap2\n      swap1\n      tag_80\n      jump\t// in\n    tag_82:\n      pop\n        /* \"contracts/TccUser.sol\":558:870  function registerUser(... */\n      pop\n      pop\n      pop\n      pop\n      jump\t// out\n        /* \"contracts/TccUser.sol\":1438:1786  function login(string memory _username, address _walletAddress)... */\n    tag_35:\n        /* \"contracts/TccUser.sol\":1547:1558  User memory */\n      tag_83\n      tag_84\n      jump\t// in\n    tag_83:\n        /* \"contracts/TccUser.sol\":1574:1594  userExist(_username) */\n      tag_86\n        /* \"contracts/TccUser.sol\":1584:1593  _username */\n      dup4\n        /* \"contracts/TccUser.sol\":1574:1583  userExist */\n      tag_12\n        /* \"contracts/TccUser.sol\":1574:1594  userExist(_username) */\n      jump\t// in\n    tag_86:\n        /* \"contracts/TccUser.sol\":1604:1620  User memory user */\n      0x00\n        /* \"contracts/TccUser.sol\":1623:1628  users */\n      dup1\n        /* \"contracts/TccUser.sol\":1629:1638  _username */\n      dup5\n        /* \"contracts/TccUser.sol\":1623:1639  users[_username] */\n      mload(0x40)\n      tag_87\n      swap2\n      swap1\n      tag_40\n      jump\t// in\n    tag_87:\n      swap1\n      dup2\n      mstore\n      0x20\n      add\n      mload(0x40)\n      dup1\n      swap2\n      sub\n      swap1\n      keccak256\n        /* \"contracts/TccUser.sol\":1604:1639  User memory user = users[_username] */\n      mload(0x40)\n      dup1\n      0x60\n      add\n      0x40\n      mstore\n      swap1\n      dup2\n      0x00\n      dup3\n      add\n      dup1\n      sload\n      tag_88\n      swap1\n      tag_42\n      jump\t// in\n    tag_88:\n      dup1\n      0x1f\n      add\n      0x20\n      dup1\n      swap2\n      div\n      mul\n      0x20\n      add\n      mload(0x40)\n      swap1\n      dup2\n      add\n      0x40\n      mstore\n      dup1\n      swap3\n      swap2\n      swap1\n      dup2\n      dup2\n      mstore\n      0x20\n      add\n      dup3\n      dup1\n      sload\n      tag_89\n      swap1\n      tag_42\n      jump\t// in\n    tag_89:\n      dup1\n      iszero\n      tag_90\n      jumpi\n      dup1\n      0x1f\n      lt\n      tag_91\n      jumpi\n      0x0100\n      dup1\n      dup4\n      sload\n      div\n      mul\n      dup4\n      mstore\n      swap2\n      0x20\n      add\n      swap2\n      jump(tag_90)\n    tag_91:\n      dup3\n      add\n      swap2\n      swap1\n      0x00\n      mstore\n      keccak256(0x00, 0x20)\n      swap1\n    tag_92:\n      dup2\n      sload\n      dup2\n      mstore\n      swap1\n      0x01\n      add\n      swap1\n      0x20\n      add\n      dup1\n      dup4\n      gt\n      tag_92\n      jumpi\n      dup3\n      swap1\n      sub\n      0x1f\n      and\n      dup3\n      add\n      swap2\n    tag_90:\n      pop\n      pop\n      pop\n      pop\n      pop\n      dup2\n      mstore\n      0x20\n      add\n      0x01\n      dup3\n      add\n      dup1\n      sload\n      tag_93\n      swap1\n      tag_42\n      jump\t// in\n    tag_93:\n      dup1\n      0x1f\n      add\n      0x20\n      dup1\n      swap2\n      div\n      mul\n      0x20\n      add\n      mload(0x40)\n      swap1\n      dup2\n      add\n      0x40\n      mstore\n      dup1\n      swap3\n      swap2\n      swap1\n      dup2\n      dup2\n      mstore\n      0x20\n      add\n      dup3\n      dup1\n      sload\n      tag_94\n      swap1\n      tag_42\n      jump\t// in\n    tag_94:\n      dup1\n      iszero\n      tag_95\n      jumpi\n      dup1\n      0x1f\n      lt\n      tag_96\n      jumpi\n      0x0100\n      dup1\n      dup4\n      sload\n      div\n      mul\n      dup4\n      mstore\n      swap2\n      0x20\n      add\n      swap2\n      jump(tag_95)\n    tag_96:\n      dup3\n      add\n      swap2\n      swap1\n      0x00\n      mstore\n      keccak256(0x00, 0x20)\n      swap1\n    tag_97:\n      dup2\n      sload\n      dup2\n      mstore\n      swap1\n      0x01\n      add\n      swap1\n      0x20\n      add\n      dup1\n      dup4\n      gt\n      tag_97\n      jumpi\n      dup3\n      swap1\n      sub\n      0x1f\n      and\n      dup3\n      add\n      swap2\n    tag_95:\n      pop\n      pop\n      pop\n      pop\n      pop\n      dup2\n      mstore\n      0x20\n      add\n      0x02\n      dup3\n      add\n      0x00\n      swap1\n      sload\n      swap1\n      0x0100\n      exp\n      swap1\n      div\n      0xffffffffffffffffffffffffffffffffffffffff\n      and\n      0xffffffffffffffffffffffffffffffffffffffff\n      and\n      0xffffffffffffffffffffffffffffffffffffffff\n      and\n      dup2\n      mstore\n      pop\n      pop\n      swap1\n      pop\n        /* \"contracts/TccUser.sol\":1692:1706  _walletAddress */\n      dup3\n        /* \"contracts/TccUser.sol\":1670:1706  user.walletAddress == _walletAddress */\n      0xffffffffffffffffffffffffffffffffffffffff\n      and\n        /* \"contracts/TccUser.sol\":1670:1674  user */\n      dup2\n        /* \"contracts/TccUser.sol\":1670:1688  user.walletAddress */\n      0x40\n      add\n      mload\n        /* \"contracts/TccUser.sol\":1670:1706  user.walletAddress == _walletAddress */\n      0xffffffffffffffffffffffffffffffffffffffff\n      and\n      eq\n        /* \"contracts/TccUser.sol\":1649:1755  require(... */\n      tag_98\n      jumpi\n      mload(0x40)\n      0x08c379a000000000000000000000000000000000000000000000000000000000\n      dup2\n      mstore\n      0x04\n      add\n      tag_99\n      swap1\n      tag_100\n      jump\t// in\n    tag_99:\n      mload(0x40)\n      dup1\n      swap2\n      sub\n      swap1\n      revert\n    tag_98:\n        /* \"contracts/TccUser.sol\":1774:1778  user */\n      dup1\n        /* \"contracts/TccUser.sol\":1766:1779  return (user) */\n      swap2\n      pop\n      pop\n        /* \"contracts/TccUser.sol\":1438:1786  function login(string memory _username, address _walletAddress)... */\n      swap3\n      swap2\n      pop\n      pop\n      jump\t// out\n    tag_84:\n      mload(0x40)\n      dup1\n      0x60\n      add\n      0x40\n      mstore\n      dup1\n      0x60\n      dup2\n      mstore\n      0x20\n      add\n      0x60\n      dup2\n      mstore\n      0x20\n      add\n      and(0xffffffffffffffffffffffffffffffffffffffff, 0x00)\n      dup2\n      mstore\n      pop\n      swap1\n      jump\t// out\n        /* \"#utility.yul\":7:82   */\n    tag_101:\n        /* \"#utility.yul\":40:46   */\n      0x00\n        /* \"#utility.yul\":73:75   */\n      0x40\n        /* \"#utility.yul\":67:76   */\n      mload\n        /* \"#utility.yul\":57:76   */\n      swap1\n      pop\n        /* \"#utility.yul\":7:82   */\n      swap1\n      jump\t// out\n        /* \"#utility.yul\":88:205   */\n    tag_102:\n        /* \"#utility.yul\":197:198   */\n      0x00\n        /* \"#utility.yul\":194:195   */\n      dup1\n        /* \"#utility.yul\":187:199   */\n      revert\n        /* \"#utility.yul\":211:328   */\n    tag_103:\n        /* \"#utility.yul\":320:321   */\n      0x00\n        /* \"#utility.yul\":317:318   */\n      dup1\n        /* \"#utility.yul\":310:322   */\n      revert\n        /* \"#utility.yul\":334:451   */\n    tag_104:\n        /* \"#utility.yul\":443:444   */\n      0x00\n        /* \"#utility.yul\":440:441   */\n      dup1\n        /* \"#utility.yul\":433:445   */\n      revert\n        /* \"#utility.yul\":457:574   */\n    tag_105:\n        /* \"#utility.yul\":566:567   */\n      0x00\n        /* \"#utility.yul\":563:564   */\n      dup1\n        /* \"#utility.yul\":556:568   */\n      revert\n        /* \"#utility.yul\":580:682   */\n    tag_106:\n        /* \"#utility.yul\":621:627   */\n      0x00\n        /* \"#utility.yul\":672:674   */\n      0x1f\n        /* \"#utility.yul\":668:675   */\n      not\n        /* \"#utility.yul\":663:665   */\n      0x1f\n        /* \"#utility.yul\":656:661   */\n      dup4\n        /* \"#utility.yul\":652:666   */\n      add\n        /* \"#utility.yul\":648:676   */\n      and\n        /* \"#utility.yul\":638:676   */\n      swap1\n      pop\n        /* \"#utility.yul\":580:682   */\n      swap2\n      swap1\n      pop\n      jump\t// out\n        /* \"#utility.yul\":688:868   */\n    tag_107:\n        /* \"#utility.yul\":736:813   */\n      0x4e487b7100000000000000000000000000000000000000000000000000000000\n        /* \"#utility.yul\":733:734   */\n      0x00\n        /* \"#utility.yul\":726:814   */\n      mstore\n        /* \"#utility.yul\":833:837   */\n      0x41\n        /* \"#utility.yul\":830:831   */\n      0x04\n        /* \"#utility.yul\":823:838   */\n      mstore\n        /* \"#utility.yul\":857:861   */\n      0x24\n        /* \"#utility.yul\":854:855   */\n      0x00\n        /* \"#utility.yul\":847:862   */\n      revert\n        /* \"#utility.yul\":874:1155   */\n    tag_108:\n        /* \"#utility.yul\":957:984   */\n      tag_163\n        /* \"#utility.yul\":979:983   */\n      dup3\n        /* \"#utility.yul\":957:984   */\n      tag_106\n      jump\t// in\n    tag_163:\n        /* \"#utility.yul\":949:955   */\n      dup2\n        /* \"#utility.yul\":945:985   */\n      add\n        /* \"#utility.yul\":1087:1093   */\n      dup2\n        /* \"#utility.yul\":1075:1085   */\n      dup2\n        /* \"#utility.yul\":1072:1094   */\n      lt\n        /* \"#utility.yul\":1051:1069   */\n      0xffffffffffffffff\n        /* \"#utility.yul\":1039:1049   */\n      dup3\n        /* \"#utility.yul\":1036:1070   */\n      gt\n        /* \"#utility.yul\":1033:1095   */\n      or\n        /* \"#utility.yul\":1030:1118   */\n      iszero\n      tag_164\n      jumpi\n        /* \"#utility.yul\":1098:1116   */\n      tag_165\n      tag_107\n      jump\t// in\n    tag_165:\n        /* \"#utility.yul\":1030:1118   */\n    tag_164:\n        /* \"#utility.yul\":1138:1148   */\n      dup1\n        /* \"#utility.yul\":1134:1136   */\n      0x40\n        /* \"#utility.yul\":1127:1149   */\n      mstore\n        /* \"#utility.yul\":917:1155   */\n      pop\n        /* \"#utility.yul\":874:1155   */\n      pop\n      pop\n      jump\t// out\n        /* \"#utility.yul\":1161:1290   */\n    tag_109:\n        /* \"#utility.yul\":1195:1201   */\n      0x00\n        /* \"#utility.yul\":1222:1242   */\n      tag_167\n      tag_101\n      jump\t// in\n    tag_167:\n        /* \"#utility.yul\":1212:1242   */\n      swap1\n      pop\n        /* \"#utility.yul\":1251:1284   */\n      tag_168\n        /* \"#utility.yul\":1279:1283   */\n      dup3\n        /* \"#utility.yul\":1271:1277   */\n      dup3\n        /* \"#utility.yul\":1251:1284   */\n      tag_108\n      jump\t// in\n    tag_168:\n        /* \"#utility.yul\":1161:1290   */\n      swap2\n      swap1\n      pop\n      jump\t// out\n        /* \"#utility.yul\":1296:1604   */\n    tag_110:\n        /* \"#utility.yul\":1358:1362   */\n      0x00\n        /* \"#utility.yul\":1448:1466   */\n      0xffffffffffffffff\n        /* \"#utility.yul\":1440:1446   */\n      dup3\n        /* \"#utility.yul\":1437:1467   */\n      gt\n        /* \"#utility.yul\":1434:1490   */\n      iszero\n      tag_170\n      jumpi\n        /* \"#utility.yul\":1470:1488   */\n      tag_171\n      tag_107\n      jump\t// in\n    tag_171:\n        /* \"#utility.yul\":1434:1490   */\n    tag_170:\n        /* \"#utility.yul\":1508:1537   */\n      tag_172\n        /* \"#utility.yul\":1530:1536   */\n      dup3\n        /* \"#utility.yul\":1508:1537   */\n      tag_106\n      jump\t// in\n    tag_172:\n        /* \"#utility.yul\":1500:1537   */\n      swap1\n      pop\n        /* \"#utility.yul\":1592:1596   */\n      0x20\n        /* \"#utility.yul\":1586:1590   */\n      dup2\n        /* \"#utility.yul\":1582:1597   */\n      add\n        /* \"#utility.yul\":1574:1597   */\n      swap1\n      pop\n        /* \"#utility.yul\":1296:1604   */\n      swap2\n      swap1\n      pop\n      jump\t// out\n        /* \"#utility.yul\":1610:1758   */\n    tag_111:\n        /* \"#utility.yul\":1708:1714   */\n      dup3\n        /* \"#utility.yul\":1703:1706   */\n      dup2\n        /* \"#utility.yul\":1698:1701   */\n      dup4\n        /* \"#utility.yul\":1685:1715   */\n      calldatacopy\n        /* \"#utility.yul\":1749:1750   */\n      0x00\n        /* \"#utility.yul\":1740:1746   */\n      dup4\n        /* \"#utility.yul\":1735:1738   */\n      dup4\n        /* \"#utility.yul\":1731:1747   */\n      add\n        /* \"#utility.yul\":1724:1751   */\n      mstore\n        /* \"#utility.yul\":1610:1758   */\n      pop\n      pop\n      pop\n      jump\t// out\n        /* \"#utility.yul\":1764:2189   */\n    tag_112:\n        /* \"#utility.yul\":1842:1847   */\n      0x00\n        /* \"#utility.yul\":1867:1933   */\n      tag_175\n        /* \"#utility.yul\":1883:1932   */\n      tag_176\n        /* \"#utility.yul\":1925:1931   */\n      dup5\n        /* \"#utility.yul\":1883:1932   */\n      tag_110\n      jump\t// in\n    tag_176:\n        /* \"#utility.yul\":1867:1933   */\n      tag_109\n      jump\t// in\n    tag_175:\n        /* \"#utility.yul\":1858:1933   */\n      swap1\n      pop\n        /* \"#utility.yul\":1956:1962   */\n      dup3\n        /* \"#utility.yul\":1949:1954   */\n      dup2\n        /* \"#utility.yul\":1942:1963   */\n      mstore\n        /* \"#utility.yul\":1994:1998   */\n      0x20\n        /* \"#utility.yul\":1987:1992   */\n      dup2\n        /* \"#utility.yul\":1983:1999   */\n      add\n        /* \"#utility.yul\":2032:2035   */\n      dup5\n        /* \"#utility.yul\":2023:2029   */\n      dup5\n        /* \"#utility.yul\":2018:2021   */\n      dup5\n        /* \"#utility.yul\":2014:2030   */\n      add\n        /* \"#utility.yul\":2011:2036   */\n      gt\n        /* \"#utility.yul\":2008:2120   */\n      iszero\n      tag_177\n      jumpi\n        /* \"#utility.yul\":2039:2118   */\n      tag_178\n      tag_105\n      jump\t// in\n    tag_178:\n        /* \"#utility.yul\":2008:2120   */\n    tag_177:\n        /* \"#utility.yul\":2129:2183   */\n      tag_179\n        /* \"#utility.yul\":2176:2182   */\n      dup5\n        /* \"#utility.yul\":2171:2174   */\n      dup3\n        /* \"#utility.yul\":2166:2169   */\n      dup6\n        /* \"#utility.yul\":2129:2183   */\n      tag_111\n      jump\t// in\n    tag_179:\n        /* \"#utility.yul\":1848:2189   */\n      pop\n        /* \"#utility.yul\":1764:2189   */\n      swap4\n      swap3\n      pop\n      pop\n      pop\n      jump\t// out\n        /* \"#utility.yul\":2209:2549   */\n    tag_113:\n        /* \"#utility.yul\":2265:2270   */\n      0x00\n        /* \"#utility.yul\":2314:2317   */\n      dup3\n        /* \"#utility.yul\":2307:2311   */\n      0x1f\n        /* \"#utility.yul\":2299:2305   */\n      dup4\n        /* \"#utility.yul\":2295:2312   */\n      add\n        /* \"#utility.yul\":2291:2318   */\n      slt\n        /* \"#utility.yul\":2281:2403   */\n      tag_181\n      jumpi\n        /* \"#utility.yul\":2322:2401   */\n      tag_182\n      tag_104\n      jump\t// in\n    tag_182:\n        /* \"#utility.yul\":2281:2403   */\n    tag_181:\n        /* \"#utility.yul\":2439:2445   */\n      dup2\n        /* \"#utility.yul\":2426:2446   */\n      calldataload\n        /* \"#utility.yul\":2464:2543   */\n      tag_183\n        /* \"#utility.yul\":2539:2542   */\n      dup5\n        /* \"#utility.yul\":2531:2537   */\n      dup3\n        /* \"#utility.yul\":2524:2528   */\n      0x20\n        /* \"#utility.yul\":2516:2522   */\n      dup7\n        /* \"#utility.yul\":2512:2529   */\n      add\n        /* \"#utility.yul\":2464:2543   */\n      tag_112\n      jump\t// in\n    tag_183:\n        /* \"#utility.yul\":2455:2543   */\n      swap2\n      pop\n        /* \"#utility.yul\":2271:2549   */\n      pop\n        /* \"#utility.yul\":2209:2549   */\n      swap3\n      swap2\n      pop\n      pop\n      jump\t// out\n        /* \"#utility.yul\":2555:3064   */\n    tag_11:\n        /* \"#utility.yul\":2624:2630   */\n      0x00\n        /* \"#utility.yul\":2673:2675   */\n      0x20\n        /* \"#utility.yul\":2661:2670   */\n      dup3\n        /* \"#utility.yul\":2652:2659   */\n      dup5\n        /* \"#utility.yul\":2648:2671   */\n      sub\n        /* \"#utility.yul\":2644:2676   */\n      slt\n        /* \"#utility.yul\":2641:2760   */\n      iszero\n      tag_185\n      jumpi\n        /* \"#utility.yul\":2679:2758   */\n      tag_186\n      tag_102\n      jump\t// in\n    tag_186:\n        /* \"#utility.yul\":2641:2760   */\n    tag_185:\n        /* \"#utility.yul\":2827:2828   */\n      0x00\n        /* \"#utility.yul\":2816:2825   */\n      dup3\n        /* \"#utility.yul\":2812:2829   */\n      add\n        /* \"#utility.yul\":2799:2830   */\n      calldataload\n        /* \"#utility.yul\":2857:2875   */\n      0xffffffffffffffff\n        /* \"#utility.yul\":2849:2855   */\n      dup2\n        /* \"#utility.yul\":2846:2876   */\n      gt\n        /* \"#utility.yul\":2843:2960   */\n      iszero\n      tag_187\n      jumpi\n        /* \"#utility.yul\":2879:2958   */\n      tag_188\n      tag_103\n      jump\t// in\n    tag_188:\n        /* \"#utility.yul\":2843:2960   */\n    tag_187:\n        /* \"#utility.yul\":2984:3047   */\n      tag_189\n        /* \"#utility.yul\":3039:3046   */\n      dup5\n        /* \"#utility.yul\":3030:3036   */\n      dup3\n        /* \"#utility.yul\":3019:3028   */\n      dup6\n        /* \"#utility.yul\":3015:3037   */\n      add\n        /* \"#utility.yul\":2984:3047   */\n      tag_113\n      jump\t// in\n    tag_189:\n        /* \"#utility.yul\":2974:3047   */\n      swap2\n      pop\n        /* \"#utility.yul\":2770:3057   */\n      pop\n        /* \"#utility.yul\":2555:3064   */\n      swap3\n      swap2\n      pop\n      pop\n      jump\t// out\n        /* \"#utility.yul\":3070:3196   */\n    tag_114:\n        /* \"#utility.yul\":3107:3114   */\n      0x00\n        /* \"#utility.yul\":3147:3189   */\n      0xffffffffffffffffffffffffffffffffffffffff\n        /* \"#utility.yul\":3140:3145   */\n      dup3\n        /* \"#utility.yul\":3136:3190   */\n      and\n        /* \"#utility.yul\":3125:3190   */\n      swap1\n      pop\n        /* \"#utility.yul\":3070:3196   */\n      swap2\n      swap1\n      pop\n      jump\t// out\n        /* \"#utility.yul\":3202:3298   */\n    tag_115:\n        /* \"#utility.yul\":3239:3246   */\n      0x00\n        /* \"#utility.yul\":3268:3292   */\n      tag_192\n        /* \"#utility.yul\":3286:3291   */\n      dup3\n        /* \"#utility.yul\":3268:3292   */\n      tag_114\n      jump\t// in\n    tag_192:\n        /* \"#utility.yul\":3257:3292   */\n      swap1\n      pop\n        /* \"#utility.yul\":3202:3298   */\n      swap2\n      swap1\n      pop\n      jump\t// out\n        /* \"#utility.yul\":3304:3426   */\n    tag_116:\n        /* \"#utility.yul\":3377:3401   */\n      tag_194\n        /* \"#utility.yul\":3395:3400   */\n      dup2\n        /* \"#utility.yul\":3377:3401   */\n      tag_115\n      jump\t// in\n    tag_194:\n        /* \"#utility.yul\":3370:3375   */\n      dup2\n        /* \"#utility.yul\":3367:3402   */\n      eq\n        /* \"#utility.yul\":3357:3420   */\n      tag_195\n      jumpi\n        /* \"#utility.yul\":3416:3417   */\n      0x00\n        /* \"#utility.yul\":3413:3414   */\n      dup1\n        /* \"#utility.yul\":3406:3418   */\n      revert\n        /* \"#utility.yul\":3357:3420   */\n    tag_195:\n        /* \"#utility.yul\":3304:3426   */\n      pop\n      jump\t// out\n        /* \"#utility.yul\":3432:3571   */\n    tag_117:\n        /* \"#utility.yul\":3478:3483   */\n      0x00\n        /* \"#utility.yul\":3516:3522   */\n      dup2\n        /* \"#utility.yul\":3503:3523   */\n      calldataload\n        /* \"#utility.yul\":3494:3523   */\n      swap1\n      pop\n        /* \"#utility.yul\":3532:3565   */\n      tag_197\n        /* \"#utility.yul\":3559:3564   */\n      dup2\n        /* \"#utility.yul\":3532:3565   */\n      tag_116\n      jump\t// in\n    tag_197:\n        /* \"#utility.yul\":3432:3571   */\n      swap3\n      swap2\n      pop\n      pop\n      jump\t// out\n        /* \"#utility.yul\":3577:3906   */\n    tag_15:\n        /* \"#utility.yul\":3636:3642   */\n      0x00\n        /* \"#utility.yul\":3685:3687   */\n      0x20\n        /* \"#utility.yul\":3673:3682   */\n      dup3\n        /* \"#utility.yul\":3664:3671   */\n      dup5\n        /* \"#utility.yul\":3660:3683   */\n      sub\n        /* \"#utility.yul\":3656:3688   */\n      slt\n        /* \"#utility.yul\":3653:3772   */\n      iszero\n      tag_199\n      jumpi\n        /* \"#utility.yul\":3691:3770   */\n      tag_200\n      tag_102\n      jump\t// in\n    tag_200:\n        /* \"#utility.yul\":3653:3772   */\n    tag_199:\n        /* \"#utility.yul\":3811:3812   */\n      0x00\n        /* \"#utility.yul\":3836:3889   */\n      tag_201\n        /* \"#utility.yul\":3881:3888   */\n      dup5\n        /* \"#utility.yul\":3872:3878   */\n      dup3\n        /* \"#utility.yul\":3861:3870   */\n      dup6\n        /* \"#utility.yul\":3857:3879   */\n      add\n        /* \"#utility.yul\":3836:3889   */\n      tag_117\n      jump\t// in\n    tag_201:\n        /* \"#utility.yul\":3826:3889   */\n      swap2\n      pop\n        /* \"#utility.yul\":3782:3899   */\n      pop\n        /* \"#utility.yul\":3577:3906   */\n      swap3\n      swap2\n      pop\n      pop\n      jump\t// out\n        /* \"#utility.yul\":3912:4011   */\n    tag_118:\n        /* \"#utility.yul\":3964:3970   */\n      0x00\n        /* \"#utility.yul\":3998:4003   */\n      dup2\n        /* \"#utility.yul\":3992:4004   */\n      mload\n        /* \"#utility.yul\":3982:4004   */\n      swap1\n      pop\n        /* \"#utility.yul\":3912:4011   */\n      swap2\n      swap1\n      pop\n      jump\t// out\n        /* \"#utility.yul\":4017:4186   */\n    tag_119:\n        /* \"#utility.yul\":4101:4112   */\n      0x00\n        /* \"#utility.yul\":4135:4141   */\n      dup3\n        /* \"#utility.yul\":4130:4133   */\n      dup3\n        /* \"#utility.yul\":4123:4142   */\n      mstore\n        /* \"#utility.yul\":4175:4179   */\n      0x20\n        /* \"#utility.yul\":4170:4173   */\n      dup3\n        /* \"#utility.yul\":4166:4180   */\n      add\n        /* \"#utility.yul\":4151:4180   */\n      swap1\n      pop\n        /* \"#utility.yul\":4017:4186   */\n      swap3\n      swap2\n      pop\n      pop\n      jump\t// out\n        /* \"#utility.yul\":4192:4331   */\n    tag_120:\n        /* \"#utility.yul\":4281:4287   */\n      dup3\n        /* \"#utility.yul\":4276:4279   */\n      dup2\n        /* \"#utility.yul\":4271:4274   */\n      dup4\n        /* \"#utility.yul\":4265:4288   */\n      mcopy\n        /* \"#utility.yul\":4322:4323   */\n      0x00\n        /* \"#utility.yul\":4313:4319   */\n      dup4\n        /* \"#utility.yul\":4308:4311   */\n      dup4\n        /* \"#utility.yul\":4304:4320   */\n      add\n        /* \"#utility.yul\":4297:4324   */\n      mstore\n        /* \"#utility.yul\":4192:4331   */\n      pop\n      pop\n      pop\n      jump\t// out\n        /* \"#utility.yul\":4337:4714   */\n    tag_121:\n        /* \"#utility.yul\":4425:4428   */\n      0x00\n        /* \"#utility.yul\":4453:4492   */\n      tag_206\n        /* \"#utility.yul\":4486:4491   */\n      dup3\n        /* \"#utility.yul\":4453:4492   */\n      tag_118\n      jump\t// in\n    tag_206:\n        /* \"#utility.yul\":4508:4579   */\n      tag_207\n        /* \"#utility.yul\":4572:4578   */\n      dup2\n        /* \"#utility.yul\":4567:4570   */\n      dup6\n        /* \"#utility.yul\":4508:4579   */\n      tag_119\n      jump\t// in\n    tag_207:\n        /* \"#utility.yul\":4501:4579   */\n      swap4\n      pop\n        /* \"#utility.yul\":4588:4653   */\n      tag_208\n        /* \"#utility.yul\":4646:4652   */\n      dup2\n        /* \"#utility.yul\":4641:4644   */\n      dup6\n        /* \"#utility.yul\":4634:4638   */\n      0x20\n        /* \"#utility.yul\":4627:4632   */\n      dup7\n        /* \"#utility.yul\":4623:4639   */\n      add\n        /* \"#utility.yul\":4588:4653   */\n      tag_120\n      jump\t// in\n    tag_208:\n        /* \"#utility.yul\":4678:4707   */\n      tag_209\n        /* \"#utility.yul\":4700:4706   */\n      dup2\n        /* \"#utility.yul\":4678:4707   */\n      tag_106\n      jump\t// in\n    tag_209:\n        /* \"#utility.yul\":4673:4676   */\n      dup5\n        /* \"#utility.yul\":4669:4708   */\n      add\n        /* \"#utility.yul\":4662:4708   */\n      swap2\n      pop\n        /* \"#utility.yul\":4429:4714   */\n      pop\n        /* \"#utility.yul\":4337:4714   */\n      swap3\n      swap2\n      pop\n      pop\n      jump\t// out\n        /* \"#utility.yul\":4720:5033   */\n    tag_18:\n        /* \"#utility.yul\":4833:4837   */\n      0x00\n        /* \"#utility.yul\":4871:4873   */\n      0x20\n        /* \"#utility.yul\":4860:4869   */\n      dup3\n        /* \"#utility.yul\":4856:4874   */\n      add\n        /* \"#utility.yul\":4848:4874   */\n      swap1\n      pop\n        /* \"#utility.yul\":4920:4929   */\n      dup2\n        /* \"#utility.yul\":4914:4918   */\n      dup2\n        /* \"#utility.yul\":4910:4930   */\n      sub\n        /* \"#utility.yul\":4906:4907   */\n      0x00\n        /* \"#utility.yul\":4895:4904   */\n      dup4\n        /* \"#utility.yul\":4891:4908   */\n      add\n        /* \"#utility.yul\":4884:4931   */\n      mstore\n        /* \"#utility.yul\":4948:5026   */\n      tag_211\n        /* \"#utility.yul\":5021:5025   */\n      dup2\n        /* \"#utility.yul\":5012:5018   */\n      dup5\n        /* \"#utility.yul\":4948:5026   */\n      tag_121\n      jump\t// in\n    tag_211:\n        /* \"#utility.yul\":4940:5026   */\n      swap1\n      pop\n        /* \"#utility.yul\":4720:5033   */\n      swap3\n      swap2\n      pop\n      pop\n      jump\t// out\n        /* \"#utility.yul\":5039:5157   */\n    tag_122:\n        /* \"#utility.yul\":5126:5150   */\n      tag_213\n        /* \"#utility.yul\":5144:5149   */\n      dup2\n        /* \"#utility.yul\":5126:5150   */\n      tag_115\n      jump\t// in\n    tag_213:\n        /* \"#utility.yul\":5121:5124   */\n      dup3\n        /* \"#utility.yul\":5114:5151   */\n      mstore\n        /* \"#utility.yul\":5039:5157   */\n      pop\n      pop\n      jump\t// out\n        /* \"#utility.yul\":5163:5787   */\n    tag_23:\n        /* \"#utility.yul\":5352:5356   */\n      0x00\n        /* \"#utility.yul\":5390:5392   */\n      0x60\n        /* \"#utility.yul\":5379:5388   */\n      dup3\n        /* \"#utility.yul\":5375:5393   */\n      add\n        /* \"#utility.yul\":5367:5393   */\n      swap1\n      pop\n        /* \"#utility.yul\":5439:5448   */\n      dup2\n        /* \"#utility.yul\":5433:5437   */\n      dup2\n        /* \"#utility.yul\":5429:5449   */\n      sub\n        /* \"#utility.yul\":5425:5426   */\n      0x00\n        /* \"#utility.yul\":5414:5423   */\n      dup4\n        /* \"#utility.yul\":5410:5427   */\n      add\n        /* \"#utility.yul\":5403:5450   */\n      mstore\n        /* \"#utility.yul\":5467:5545   */\n      tag_215\n        /* \"#utility.yul\":5540:5544   */\n      dup2\n        /* \"#utility.yul\":5531:5537   */\n      dup7\n        /* \"#utility.yul\":5467:5545   */\n      tag_121\n      jump\t// in\n    tag_215:\n        /* \"#utility.yul\":5459:5545   */\n      swap1\n      pop\n        /* \"#utility.yul\":5592:5601   */\n      dup2\n        /* \"#utility.yul\":5586:5590   */\n      dup2\n        /* \"#utility.yul\":5582:5602   */\n      sub\n        /* \"#utility.yul\":5577:5579   */\n      0x20\n        /* \"#utility.yul\":5566:5575   */\n      dup4\n        /* \"#utility.yul\":5562:5580   */\n      add\n        /* \"#utility.yul\":5555:5603   */\n      mstore\n        /* \"#utility.yul\":5620:5698   */\n      tag_216\n        /* \"#utility.yul\":5693:5697   */\n      dup2\n        /* \"#utility.yul\":5684:5690   */\n      dup6\n        /* \"#utility.yul\":5620:5698   */\n      tag_121\n      jump\t// in\n    tag_216:\n        /* \"#utility.yul\":5612:5698   */\n      swap1\n      pop\n        /* \"#utility.yul\":5708:5780   */\n      tag_217\n        /* \"#utility.yul\":5776:5778   */\n      0x40\n        /* \"#utility.yul\":5765:5774   */\n      dup4\n        /* \"#utility.yul\":5761:5779   */\n      add\n        /* \"#utility.yul\":5752:5758   */\n      dup5\n        /* \"#utility.yul\":5708:5780   */\n      tag_122\n      jump\t// in\n    tag_217:\n        /* \"#utility.yul\":5163:5787   */\n      swap5\n      swap4\n      pop\n      pop\n      pop\n      pop\n      jump\t// out\n        /* \"#utility.yul\":5793:6772   */\n    tag_30:\n        /* \"#utility.yul\":5890:5896   */\n      0x00\n        /* \"#utility.yul\":5898:5904   */\n      dup1\n        /* \"#utility.yul\":5906:5912   */\n      0x00\n        /* \"#utility.yul\":5955:5957   */\n      0x60\n        /* \"#utility.yul\":5943:5952   */\n      dup5\n        /* \"#utility.yul\":5934:5941   */\n      dup7\n        /* \"#utility.yul\":5930:5953   */\n      sub\n        /* \"#utility.yul\":5926:5958   */\n      slt\n        /* \"#utility.yul\":5923:6042   */\n      iszero\n      tag_219\n      jumpi\n        /* \"#utility.yul\":5961:6040   */\n      tag_220\n      tag_102\n      jump\t// in\n    tag_220:\n        /* \"#utility.yul\":5923:6042   */\n    tag_219:\n        /* \"#utility.yul\":6109:6110   */\n      0x00\n        /* \"#utility.yul\":6098:6107   */\n      dup5\n        /* \"#utility.yul\":6094:6111   */\n      add\n        /* \"#utility.yul\":6081:6112   */\n      calldataload\n        /* \"#utility.yul\":6139:6157   */\n      0xffffffffffffffff\n        /* \"#utility.yul\":6131:6137   */\n      dup2\n        /* \"#utility.yul\":6128:6158   */\n      gt\n        /* \"#utility.yul\":6125:6242   */\n      iszero\n      tag_221\n      jumpi\n        /* \"#utility.yul\":6161:6240   */\n      tag_222\n      tag_103\n      jump\t// in\n    tag_222:\n        /* \"#utility.yul\":6125:6242   */\n    tag_221:\n        /* \"#utility.yul\":6266:6329   */\n      tag_223\n        /* \"#utility.yul\":6321:6328   */\n      dup7\n        /* \"#utility.yul\":6312:6318   */\n      dup3\n        /* \"#utility.yul\":6301:6310   */\n      dup8\n        /* \"#utility.yul\":6297:6319   */\n      add\n        /* \"#utility.yul\":6266:6329   */\n      tag_113\n      jump\t// in\n    tag_223:\n        /* \"#utility.yul\":6256:6329   */\n      swap4\n      pop\n        /* \"#utility.yul\":6052:6339   */\n      pop\n        /* \"#utility.yul\":6406:6408   */\n      0x20\n        /* \"#utility.yul\":6395:6404   */\n      dup5\n        /* \"#utility.yul\":6391:6409   */\n      add\n        /* \"#utility.yul\":6378:6410   */\n      calldataload\n        /* \"#utility.yul\":6437:6455   */\n      0xffffffffffffffff\n        /* \"#utility.yul\":6429:6435   */\n      dup2\n        /* \"#utility.yul\":6426:6456   */\n      gt\n        /* \"#utility.yul\":6423:6540   */\n      iszero\n      tag_224\n      jumpi\n        /* \"#utility.yul\":6459:6538   */\n      tag_225\n      tag_103\n      jump\t// in\n    tag_225:\n        /* \"#utility.yul\":6423:6540   */\n    tag_224:\n        /* \"#utility.yul\":6564:6627   */\n      tag_226\n        /* \"#utility.yul\":6619:6626   */\n      dup7\n        /* \"#utility.yul\":6610:6616   */\n      dup3\n        /* \"#utility.yul\":6599:6608   */\n      dup8\n        /* \"#utility.yul\":6595:6617   */\n      add\n        /* \"#utility.yul\":6564:6627   */\n      tag_113\n      jump\t// in\n    tag_226:\n        /* \"#utility.yul\":6554:6627   */\n      swap3\n      pop\n        /* \"#utility.yul\":6349:6637   */\n      pop\n        /* \"#utility.yul\":6676:6678   */\n      0x40\n        /* \"#utility.yul\":6702:6755   */\n      tag_227\n        /* \"#utility.yul\":6747:6754   */\n      dup7\n        /* \"#utility.yul\":6738:6744   */\n      dup3\n        /* \"#utility.yul\":6727:6736   */\n      dup8\n        /* \"#utility.yul\":6723:6745   */\n      add\n        /* \"#utility.yul\":6702:6755   */\n      tag_117\n      jump\t// in\n    tag_227:\n        /* \"#utility.yul\":6692:6755   */\n      swap2\n      pop\n        /* \"#utility.yul\":6647:6765   */\n      pop\n        /* \"#utility.yul\":5793:6772   */\n      swap3\n      pop\n      swap3\n      pop\n      swap3\n      jump\t// out\n        /* \"#utility.yul\":6778:7432   */\n    tag_34:\n        /* \"#utility.yul\":6856:6862   */\n      0x00\n        /* \"#utility.yul\":6864:6870   */\n      dup1\n        /* \"#utility.yul\":6913:6915   */\n      0x40\n        /* \"#utility.yul\":6901:6910   */\n      dup4\n        /* \"#utility.yul\":6892:6899   */\n      dup6\n        /* \"#utility.yul\":6888:6911   */\n      sub\n        /* \"#utility.yul\":6884:6916   */\n      slt\n        /* \"#utility.yul\":6881:7000   */\n      iszero\n      tag_229\n      jumpi\n        /* \"#utility.yul\":6919:6998   */\n      tag_230\n      tag_102\n      jump\t// in\n    tag_230:\n        /* \"#utility.yul\":6881:7000   */\n    tag_229:\n        /* \"#utility.yul\":7067:7068   */\n      0x00\n        /* \"#utility.yul\":7056:7065   */\n      dup4\n        /* \"#utility.yul\":7052:7069   */\n      add\n        /* \"#utility.yul\":7039:7070   */\n      calldataload\n        /* \"#utility.yul\":7097:7115   */\n      0xffffffffffffffff\n        /* \"#utility.yul\":7089:7095   */\n      dup2\n        /* \"#utility.yul\":7086:7116   */\n      gt\n        /* \"#utility.yul\":7083:7200   */\n      iszero\n      tag_231\n      jumpi\n        /* \"#utility.yul\":7119:7198   */\n      tag_232\n      tag_103\n      jump\t// in\n    tag_232:\n        /* \"#utility.yul\":7083:7200   */\n    tag_231:\n        /* \"#utility.yul\":7224:7287   */\n      tag_233\n        /* \"#utility.yul\":7279:7286   */\n      dup6\n        /* \"#utility.yul\":7270:7276   */\n      dup3\n        /* \"#utility.yul\":7259:7268   */\n      dup7\n        /* \"#utility.yul\":7255:7277   */\n      add\n        /* \"#utility.yul\":7224:7287   */\n      tag_113\n      jump\t// in\n    tag_233:\n        /* \"#utility.yul\":7214:7287   */\n      swap3\n      pop\n        /* \"#utility.yul\":7010:7297   */\n      pop\n        /* \"#utility.yul\":7336:7338   */\n      0x20\n        /* \"#utility.yul\":7362:7415   */\n      tag_234\n        /* \"#utility.yul\":7407:7414   */\n      dup6\n        /* \"#utility.yul\":7398:7404   */\n      dup3\n        /* \"#utility.yul\":7387:7396   */\n      dup7\n        /* \"#utility.yul\":7383:7405   */\n      add\n        /* \"#utility.yul\":7362:7415   */\n      tag_117\n      jump\t// in\n    tag_234:\n        /* \"#utility.yul\":7352:7415   */\n      swap2\n      pop\n        /* \"#utility.yul\":7307:7425   */\n      pop\n        /* \"#utility.yul\":6778:7432   */\n      swap3\n      pop\n      swap3\n      swap1\n      pop\n      jump\t// out\n        /* \"#utility.yul\":7438:7597   */\n    tag_123:\n        /* \"#utility.yul\":7512:7523   */\n      0x00\n        /* \"#utility.yul\":7546:7552   */\n      dup3\n        /* \"#utility.yul\":7541:7544   */\n      dup3\n        /* \"#utility.yul\":7534:7553   */\n      mstore\n        /* \"#utility.yul\":7586:7590   */\n      0x20\n        /* \"#utility.yul\":7581:7584   */\n      dup3\n        /* \"#utility.yul\":7577:7591   */\n      add\n        /* \"#utility.yul\":7562:7591   */\n      swap1\n      pop\n        /* \"#utility.yul\":7438:7597   */\n      swap3\n      swap2\n      pop\n      pop\n      jump\t// out\n        /* \"#utility.yul\":7603:7960   */\n    tag_124:\n        /* \"#utility.yul\":7681:7684   */\n      0x00\n        /* \"#utility.yul\":7709:7748   */\n      tag_237\n        /* \"#utility.yul\":7742:7747   */\n      dup3\n        /* \"#utility.yul\":7709:7748   */\n      tag_118\n      jump\t// in\n    tag_237:\n        /* \"#utility.yul\":7764:7825   */\n      tag_238\n        /* \"#utility.yul\":7818:7824   */\n      dup2\n        /* \"#utility.yul\":7813:7816   */\n      dup6\n        /* \"#utility.yul\":7764:7825   */\n      tag_123\n      jump\t// in\n    tag_238:\n        /* \"#utility.yul\":7757:7825   */\n      swap4\n      pop\n        /* \"#utility.yul\":7834:7899   */\n      tag_239\n        /* \"#utility.yul\":7892:7898   */\n      dup2\n        /* \"#utility.yul\":7887:7890   */\n      dup6\n        /* \"#utility.yul\":7880:7884   */\n      0x20\n        /* \"#utility.yul\":7873:7878   */\n      dup7\n        /* \"#utility.yul\":7869:7885   */\n      add\n        /* \"#utility.yul\":7834:7899   */\n      tag_120\n      jump\t// in\n    tag_239:\n        /* \"#utility.yul\":7924:7953   */\n      tag_240\n        /* \"#utility.yul\":7946:7952   */\n      dup2\n        /* \"#utility.yul\":7924:7953   */\n      tag_106\n      jump\t// in\n    tag_240:\n        /* \"#utility.yul\":7919:7922   */\n      dup5\n        /* \"#utility.yul\":7915:7954   */\n      add\n        /* \"#utility.yul\":7908:7954   */\n      swap2\n      pop\n        /* \"#utility.yul\":7685:7960   */\n      pop\n        /* \"#utility.yul\":7603:7960   */\n      swap3\n      swap2\n      pop\n      pop\n      jump\t// out\n        /* \"#utility.yul\":7966:8074   */\n    tag_125:\n        /* \"#utility.yul\":8043:8067   */\n      tag_242\n        /* \"#utility.yul\":8061:8066   */\n      dup2\n        /* \"#utility.yul\":8043:8067   */\n      tag_115\n      jump\t// in\n    tag_242:\n        /* \"#utility.yul\":8038:8041   */\n      dup3\n        /* \"#utility.yul\":8031:8068   */\n      mstore\n        /* \"#utility.yul\":7966:8074   */\n      pop\n      pop\n      jump\t// out\n        /* \"#utility.yul\":8130:8990   */\n    tag_126:\n        /* \"#utility.yul\":8241:8244   */\n      0x00\n        /* \"#utility.yul\":8277:8281   */\n      0x60\n        /* \"#utility.yul\":8272:8275   */\n      dup4\n        /* \"#utility.yul\":8268:8282   */\n      add\n        /* \"#utility.yul\":8368:8372   */\n      0x00\n        /* \"#utility.yul\":8361:8366   */\n      dup4\n        /* \"#utility.yul\":8357:8373   */\n      add\n        /* \"#utility.yul\":8351:8374   */\n      mload\n        /* \"#utility.yul\":8421:8424   */\n      dup5\n        /* \"#utility.yul\":8415:8419   */\n      dup3\n        /* \"#utility.yul\":8411:8425   */\n      sub\n        /* \"#utility.yul\":8404:8408   */\n      0x00\n        /* \"#utility.yul\":8399:8402   */\n      dup7\n        /* \"#utility.yul\":8395:8409   */\n      add\n        /* \"#utility.yul\":8388:8426   */\n      mstore\n        /* \"#utility.yul\":8447:8520   */\n      tag_244\n        /* \"#utility.yul\":8515:8519   */\n      dup3\n        /* \"#utility.yul\":8501:8513   */\n      dup3\n        /* \"#utility.yul\":8447:8520   */\n      tag_124\n      jump\t// in\n    tag_244:\n        /* \"#utility.yul\":8439:8520   */\n      swap2\n      pop\n        /* \"#utility.yul\":8292:8531   */\n      pop\n        /* \"#utility.yul\":8617:8621   */\n      0x20\n        /* \"#utility.yul\":8610:8615   */\n      dup4\n        /* \"#utility.yul\":8606:8622   */\n      add\n        /* \"#utility.yul\":8600:8623   */\n      mload\n        /* \"#utility.yul\":8670:8673   */\n      dup5\n        /* \"#utility.yul\":8664:8668   */\n      dup3\n        /* \"#utility.yul\":8660:8674   */\n      sub\n        /* \"#utility.yul\":8653:8657   */\n      0x20\n        /* \"#utility.yul\":8648:8651   */\n      dup7\n        /* \"#utility.yul\":8644:8658   */\n      add\n        /* \"#utility.yul\":8637:8675   */\n      mstore\n        /* \"#utility.yul\":8696:8769   */\n      tag_245\n        /* \"#utility.yul\":8764:8768   */\n      dup3\n        /* \"#utility.yul\":8750:8762   */\n      dup3\n        /* \"#utility.yul\":8696:8769   */\n      tag_124\n      jump\t// in\n    tag_245:\n        /* \"#utility.yul\":8688:8769   */\n      swap2\n      pop\n        /* \"#utility.yul\":8541:8780   */\n      pop\n        /* \"#utility.yul\":8871:8875   */\n      0x40\n        /* \"#utility.yul\":8864:8869   */\n      dup4\n        /* \"#utility.yul\":8860:8876   */\n      add\n        /* \"#utility.yul\":8854:8877   */\n      mload\n        /* \"#utility.yul\":8890:8953   */\n      tag_246\n        /* \"#utility.yul\":8947:8951   */\n      0x40\n        /* \"#utility.yul\":8942:8945   */\n      dup7\n        /* \"#utility.yul\":8938:8952   */\n      add\n        /* \"#utility.yul\":8924:8936   */\n      dup3\n        /* \"#utility.yul\":8890:8953   */\n      tag_125\n      jump\t// in\n    tag_246:\n        /* \"#utility.yul\":8790:8963   */\n      pop\n        /* \"#utility.yul\":8980:8984   */\n      dup1\n        /* \"#utility.yul\":8973:8984   */\n      swap2\n      pop\n        /* \"#utility.yul\":8246:8990   */\n      pop\n        /* \"#utility.yul\":8130:8990   */\n      swap3\n      swap2\n      pop\n      pop\n      jump\t// out\n        /* \"#utility.yul\":8996:9353   */\n    tag_37:\n        /* \"#utility.yul\":9131:9135   */\n      0x00\n        /* \"#utility.yul\":9169:9171   */\n      0x20\n        /* \"#utility.yul\":9158:9167   */\n      dup3\n        /* \"#utility.yul\":9154:9172   */\n      add\n        /* \"#utility.yul\":9146:9172   */\n      swap1\n      pop\n        /* \"#utility.yul\":9218:9227   */\n      dup2\n        /* \"#utility.yul\":9212:9216   */\n      dup2\n        /* \"#utility.yul\":9208:9228   */\n      sub\n        /* \"#utility.yul\":9204:9205   */\n      0x00\n        /* \"#utility.yul\":9193:9202   */\n      dup4\n        /* \"#utility.yul\":9189:9206   */\n      add\n        /* \"#utility.yul\":9182:9229   */\n      mstore\n        /* \"#utility.yul\":9246:9346   */\n      tag_248\n        /* \"#utility.yul\":9341:9345   */\n      dup2\n        /* \"#utility.yul\":9332:9338   */\n      dup5\n        /* \"#utility.yul\":9246:9346   */\n      tag_126\n      jump\t// in\n    tag_248:\n        /* \"#utility.yul\":9238:9346   */\n      swap1\n      pop\n        /* \"#utility.yul\":8996:9353   */\n      swap3\n      swap2\n      pop\n      pop\n      jump\t// out\n        /* \"#utility.yul\":9359:9507   */\n    tag_127:\n        /* \"#utility.yul\":9461:9472   */\n      0x00\n        /* \"#utility.yul\":9498:9501   */\n      dup2\n        /* \"#utility.yul\":9483:9501   */\n      swap1\n      pop\n        /* \"#utility.yul\":9359:9507   */\n      swap3\n      swap2\n      pop\n      pop\n      jump\t// out\n        /* \"#utility.yul\":9513:9903   */\n    tag_128:\n        /* \"#utility.yul\":9619:9622   */\n      0x00\n        /* \"#utility.yul\":9647:9686   */\n      tag_251\n        /* \"#utility.yul\":9680:9685   */\n      dup3\n        /* \"#utility.yul\":9647:9686   */\n      tag_118\n      jump\t// in\n    tag_251:\n        /* \"#utility.yul\":9702:9791   */\n      tag_252\n        /* \"#utility.yul\":9784:9790   */\n      dup2\n        /* \"#utility.yul\":9779:9782   */\n      dup6\n        /* \"#utility.yul\":9702:9791   */\n      tag_127\n      jump\t// in\n    tag_252:\n        /* \"#utility.yul\":9695:9791   */\n      swap4\n      pop\n        /* \"#utility.yul\":9800:9865   */\n      tag_253\n        /* \"#utility.yul\":9858:9864   */\n      dup2\n        /* \"#utility.yul\":9853:9856   */\n      dup6\n        /* \"#utility.yul\":9846:9850   */\n      0x20\n        /* \"#utility.yul\":9839:9844   */\n      dup7\n        /* \"#utility.yul\":9835:9851   */\n      add\n        /* \"#utility.yul\":9800:9865   */\n      tag_120\n      jump\t// in\n    tag_253:\n        /* \"#utility.yul\":9890:9896   */\n      dup1\n        /* \"#utility.yul\":9885:9888   */\n      dup5\n        /* \"#utility.yul\":9881:9897   */\n      add\n        /* \"#utility.yul\":9874:9897   */\n      swap2\n      pop\n        /* \"#utility.yul\":9623:9903   */\n      pop\n        /* \"#utility.yul\":9513:9903   */\n      swap3\n      swap2\n      pop\n      pop\n      jump\t// out\n        /* \"#utility.yul\":9909:10184   */\n    tag_40:\n        /* \"#utility.yul\":10041:10044   */\n      0x00\n        /* \"#utility.yul\":10063:10158   */\n      tag_255\n        /* \"#utility.yul\":10154:10157   */\n      dup3\n        /* \"#utility.yul\":10145:10151   */\n      dup5\n        /* \"#utility.yul\":10063:10158   */\n      tag_128\n      jump\t// in\n    tag_255:\n        /* \"#utility.yul\":10056:10158   */\n      swap2\n      pop\n        /* \"#utility.yul\":10175:10178   */\n      dup2\n        /* \"#utility.yul\":10168:10178   */\n      swap1\n      pop\n        /* \"#utility.yul\":9909:10184   */\n      swap3\n      swap2\n      pop\n      pop\n      jump\t// out\n        /* \"#utility.yul\":10190:10370   */\n    tag_129:\n        /* \"#utility.yul\":10238:10315   */\n      0x4e487b7100000000000000000000000000000000000000000000000000000000\n        /* \"#utility.yul\":10235:10236   */\n      0x00\n        /* \"#utility.yul\":10228:10316   */\n      mstore\n        /* \"#utility.yul\":10335:10339   */\n      0x22\n        /* \"#utility.yul\":10332:10333   */\n      0x04\n        /* \"#utility.yul\":10325:10340   */\n      mstore\n        /* \"#utility.yul\":10359:10363   */\n      0x24\n        /* \"#utility.yul\":10356:10357   */\n      0x00\n        /* \"#utility.yul\":10349:10364   */\n      revert\n        /* \"#utility.yul\":10376:10696   */\n    tag_42:\n        /* \"#utility.yul\":10420:10426   */\n      0x00\n        /* \"#utility.yul\":10457:10458   */\n      0x02\n        /* \"#utility.yul\":10451:10455   */\n      dup3\n        /* \"#utility.yul\":10447:10459   */\n      div\n        /* \"#utility.yul\":10437:10459   */\n      swap1\n      pop\n        /* \"#utility.yul\":10504:10505   */\n      0x01\n        /* \"#utility.yul\":10498:10502   */\n      dup3\n        /* \"#utility.yul\":10494:10506   */\n      and\n        /* \"#utility.yul\":10525:10543   */\n      dup1\n        /* \"#utility.yul\":10515:10596   */\n      tag_258\n      jumpi\n        /* \"#utility.yul\":10581:10585   */\n      0x7f\n        /* \"#utility.yul\":10573:10579   */\n      dup3\n        /* \"#utility.yul\":10569:10586   */\n      and\n        /* \"#utility.yul\":10559:10586   */\n      swap2\n      pop\n        /* \"#utility.yul\":10515:10596   */\n    tag_258:\n        /* \"#utility.yul\":10643:10645   */\n      0x20\n        /* \"#utility.yul\":10635:10641   */\n      dup3\n        /* \"#utility.yul\":10632:10646   */\n      lt\n        /* \"#utility.yul\":10612:10630   */\n      dup2\n        /* \"#utility.yul\":10609:10647   */\n      sub\n        /* \"#utility.yul\":10606:10690   */\n      tag_259\n      jumpi\n        /* \"#utility.yul\":10662:10680   */\n      tag_260\n      tag_129\n      jump\t// in\n    tag_260:\n        /* \"#utility.yul\":10606:10690   */\n    tag_259:\n        /* \"#utility.yul\":10427:10696   */\n      pop\n        /* \"#utility.yul\":10376:10696   */\n      swap2\n      swap1\n      pop\n      jump\t// out\n        /* \"#utility.yul\":10702:10869   */\n    tag_130:\n        /* \"#utility.yul\":10842:10861   */\n      0x496e76616c696420757365726e616d6521000000000000000000000000000000\n        /* \"#utility.yul\":10838:10839   */\n      0x00\n        /* \"#utility.yul\":10830:10836   */\n      dup3\n        /* \"#utility.yul\":10826:10840   */\n      add\n        /* \"#utility.yul\":10819:10862   */\n      mstore\n        /* \"#utility.yul\":10702:10869   */\n      pop\n      jump\t// out\n        /* \"#utility.yul\":10875:11241   */\n    tag_131:\n        /* \"#utility.yul\":11017:11020   */\n      0x00\n        /* \"#utility.yul\":11038:11105   */\n      tag_263\n        /* \"#utility.yul\":11102:11104   */\n      0x11\n        /* \"#utility.yul\":11097:11100   */\n      dup4\n        /* \"#utility.yul\":11038:11105   */\n      tag_119\n      jump\t// in\n    tag_263:\n        /* \"#utility.yul\":11031:11105   */\n      swap2\n      pop\n        /* \"#utility.yul\":11114:11207   */\n      tag_264\n        /* \"#utility.yul\":11203:11206   */\n      dup3\n        /* \"#utility.yul\":11114:11207   */\n      tag_130\n      jump\t// in\n    tag_264:\n        /* \"#utility.yul\":11232:11234   */\n      0x20\n        /* \"#utility.yul\":11227:11230   */\n      dup3\n        /* \"#utility.yul\":11223:11235   */\n      add\n        /* \"#utility.yul\":11216:11235   */\n      swap1\n      pop\n        /* \"#utility.yul\":10875:11241   */\n      swap2\n      swap1\n      pop\n      jump\t// out\n        /* \"#utility.yul\":11247:11666   */\n    tag_45:\n        /* \"#utility.yul\":11413:11417   */\n      0x00\n        /* \"#utility.yul\":11451:11453   */\n      0x20\n        /* \"#utility.yul\":11440:11449   */\n      dup3\n        /* \"#utility.yul\":11436:11454   */\n      add\n        /* \"#utility.yul\":11428:11454   */\n      swap1\n      pop\n        /* \"#utility.yul\":11500:11509   */\n      dup2\n        /* \"#utility.yul\":11494:11498   */\n      dup2\n        /* \"#utility.yul\":11490:11510   */\n      sub\n        /* \"#utility.yul\":11486:11487   */\n      0x00\n        /* \"#utility.yul\":11475:11484   */\n      dup4\n        /* \"#utility.yul\":11471:11488   */\n      add\n        /* \"#utility.yul\":11464:11511   */\n      mstore\n        /* \"#utility.yul\":11528:11659   */\n      tag_266\n        /* \"#utility.yul\":11654:11658   */\n      dup2\n        /* \"#utility.yul\":11528:11659   */\n      tag_131\n      jump\t// in\n    tag_266:\n        /* \"#utility.yul\":11520:11659   */\n      swap1\n      pop\n        /* \"#utility.yul\":11247:11666   */\n      swap2\n      swap1\n      pop\n      jump\t// out\n        /* \"#utility.yul\":11672:11846   */\n    tag_132:\n        /* \"#utility.yul\":11812:11838   */\n      0x556e61626c6520746f2066696e6420757365726e616d65210000000000000000\n        /* \"#utility.yul\":11808:11809   */\n      0x00\n        /* \"#utility.yul\":11800:11806   */\n      dup3\n        /* \"#utility.yul\":11796:11810   */\n      add\n        /* \"#utility.yul\":11789:11839   */\n      mstore\n        /* \"#utility.yul\":11672:11846   */\n      pop\n      jump\t// out\n        /* \"#utility.yul\":11852:12218   */\n    tag_133:\n        /* \"#utility.yul\":11994:11997   */\n      0x00\n        /* \"#utility.yul\":12015:12082   */\n      tag_269\n        /* \"#utility.yul\":12079:12081   */\n      0x18\n        /* \"#utility.yul\":12074:12077   */\n      dup4\n        /* \"#utility.yul\":12015:12082   */\n      tag_119\n      jump\t// in\n    tag_269:\n        /* \"#utility.yul\":12008:12082   */\n      swap2\n      pop\n        /* \"#utility.yul\":12091:12184   */\n      tag_270\n        /* \"#utility.yul\":12180:12183   */\n      dup3\n        /* \"#utility.yul\":12091:12184   */\n      tag_132\n      jump\t// in\n    tag_270:\n        /* \"#utility.yul\":12209:12211   */\n      0x20\n        /* \"#utility.yul\":12204:12207   */\n      dup3\n        /* \"#utility.yul\":12200:12212   */\n      add\n        /* \"#utility.yul\":12193:12212   */\n      swap1\n      pop\n        /* \"#utility.yul\":11852:12218   */\n      swap2\n      swap1\n      pop\n      jump\t// out\n        /* \"#utility.yul\":12224:12643   */\n    tag_50:\n        /* \"#utility.yul\":12390:12394   */\n      0x00\n        /* \"#utility.yul\":12428:12430   */\n      0x20\n        /* \"#utility.yul\":12417:12426   */\n      dup3\n        /* \"#utility.yul\":12413:12431   */\n      add\n        /* \"#utility.yul\":12405:12431   */\n      swap1\n      pop\n        /* \"#utility.yul\":12477:12486   */\n      dup2\n        /* \"#utility.yul\":12471:12475   */\n      dup2\n        /* \"#utility.yul\":12467:12487   */\n      sub\n        /* \"#utility.yul\":12463:12464   */\n      0x00\n        /* \"#utility.yul\":12452:12461   */\n      dup4\n        /* \"#utility.yul\":12448:12465   */\n      add\n        /* \"#utility.yul\":12441:12488   */\n      mstore\n        /* \"#utility.yul\":12505:12636   */\n      tag_272\n        /* \"#utility.yul\":12631:12635   */\n      dup2\n        /* \"#utility.yul\":12505:12636   */\n      tag_133\n      jump\t// in\n    tag_272:\n        /* \"#utility.yul\":12497:12636   */\n      swap1\n      pop\n        /* \"#utility.yul\":12224:12643   */\n      swap2\n      swap1\n      pop\n      jump\t// out\n        /* \"#utility.yul\":12649:12822   */\n    tag_134:\n        /* \"#utility.yul\":12789:12814   */\n      0x557365726e616d6520616c726561647920657869737421000000000000000000\n        /* \"#utility.yul\":12785:12786   */\n      0x00\n        /* \"#utility.yul\":12777:12783   */\n      dup3\n        /* \"#utility.yul\":12773:12787   */\n      add\n        /* \"#utility.yul\":12766:12815   */\n      mstore\n        /* \"#utility.yul\":12649:12822   */\n      pop\n      jump\t// out\n        /* \"#utility.yul\":12828:13194   */\n    tag_135:\n        /* \"#utility.yul\":12970:12973   */\n      0x00\n        /* \"#utility.yul\":12991:13058   */\n      tag_275\n        /* \"#utility.yul\":13055:13057   */\n      0x17\n        /* \"#utility.yul\":13050:13053   */\n      dup4\n        /* \"#utility.yul\":12991:13058   */\n      tag_119\n      jump\t// in\n    tag_275:\n        /* \"#utility.yul\":12984:13058   */\n      swap2\n      pop\n        /* \"#utility.yul\":13067:13160   */\n      tag_276\n        /* \"#utility.yul\":13156:13159   */\n      dup3\n        /* \"#utility.yul\":13067:13160   */\n      tag_134\n      jump\t// in\n    tag_276:\n        /* \"#utility.yul\":13185:13187   */\n      0x20\n        /* \"#utility.yul\":13180:13183   */\n      dup3\n        /* \"#utility.yul\":13176:13188   */\n      add\n        /* \"#utility.yul\":13169:13188   */\n      swap1\n      pop\n        /* \"#utility.yul\":12828:13194   */\n      swap2\n      swap1\n      pop\n      jump\t// out\n        /* \"#utility.yul\":13200:13619   */\n    tag_76:\n        /* \"#utility.yul\":13366:13370   */\n      0x00\n        /* \"#utility.yul\":13404:13406   */\n      0x20\n        /* \"#utility.yul\":13393:13402   */\n      dup3\n        /* \"#utility.yul\":13389:13407   */\n      add\n        /* \"#utility.yul\":13381:13407   */\n      swap1\n      pop\n        /* \"#utility.yul\":13453:13462   */\n      dup2\n        /* \"#utility.yul\":13447:13451   */\n      dup2\n        /* \"#utility.yul\":13443:13463   */\n      sub\n        /* \"#utility.yul\":13439:13440   */\n      0x00\n        /* \"#utility.yul\":13428:13437   */\n      dup4\n        /* \"#utility.yul\":13424:13441   */\n      add\n        /* \"#utility.yul\":13417:13464   */\n      mstore\n        /* \"#utility.yul\":13481:13612   */\n      tag_278\n        /* \"#utility.yul\":13607:13611   */\n      dup2\n        /* \"#utility.yul\":13481:13612   */\n      tag_135\n      jump\t// in\n    tag_278:\n        /* \"#utility.yul\":13473:13612   */\n      swap1\n      pop\n        /* \"#utility.yul\":13200:13619   */\n      swap2\n      swap1\n      pop\n      jump\t// out\n        /* \"#utility.yul\":13625:13766   */\n    tag_136:\n        /* \"#utility.yul\":13674:13678   */\n      0x00\n        /* \"#utility.yul\":13697:13700   */\n      dup2\n        /* \"#utility.yul\":13689:13700   */\n      swap1\n      pop\n        /* \"#utility.yul\":13720:13723   */\n      dup2\n        /* \"#utility.yul\":13717:13718   */\n      0x00\n        /* \"#utility.yul\":13710:13724   */\n      mstore\n        /* \"#utility.yul\":13754:13758   */\n      0x20\n        /* \"#utility.yul\":13751:13752   */\n      0x00\n        /* \"#utility.yul\":13741:13759   */\n      keccak256\n        /* \"#utility.yul\":13733:13759   */\n      swap1\n      pop\n        /* \"#utility.yul\":13625:13766   */\n      swap2\n      swap1\n      pop\n      jump\t// out\n        /* \"#utility.yul\":13772:13865   */\n    tag_137:\n        /* \"#utility.yul\":13809:13815   */\n      0x00\n        /* \"#utility.yul\":13856:13858   */\n      0x20\n        /* \"#utility.yul\":13851:13853   */\n      0x1f\n        /* \"#utility.yul\":13844:13849   */\n      dup4\n        /* \"#utility.yul\":13840:13854   */\n      add\n        /* \"#utility.yul\":13836:13859   */\n      div\n        /* \"#utility.yul\":13826:13859   */\n      swap1\n      pop\n        /* \"#utility.yul\":13772:13865   */\n      swap2\n      swap1\n      pop\n      jump\t// out\n        /* \"#utility.yul\":13871:13978   */\n    tag_138:\n        /* \"#utility.yul\":13915:13923   */\n      0x00\n        /* \"#utility.yul\":13965:13970   */\n      dup3\n        /* \"#utility.yul\":13959:13963   */\n      dup3\n        /* \"#utility.yul\":13955:13971   */\n      shl\n        /* \"#utility.yul\":13934:13971   */\n      swap1\n      pop\n        /* \"#utility.yul\":13871:13978   */\n      swap3\n      swap2\n      pop\n      pop\n      jump\t// out\n        /* \"#utility.yul\":13984:14377   */\n    tag_139:\n        /* \"#utility.yul\":14053:14059   */\n      0x00\n        /* \"#utility.yul\":14103:14104   */\n      0x08\n        /* \"#utility.yul\":14091:14101   */\n      dup4\n        /* \"#utility.yul\":14087:14105   */\n      mul\n        /* \"#utility.yul\":14126:14223   */\n      tag_283\n        /* \"#utility.yul\":14156:14222   */\n      0xffffffffffffffffffffffffffffffffffffffffffffffffffffffffffffffff\n        /* \"#utility.yul\":14145:14154   */\n      dup3\n        /* \"#utility.yul\":14126:14223   */\n      tag_138\n      jump\t// in\n    tag_283:\n        /* \"#utility.yul\":14244:14283   */\n      tag_284\n        /* \"#utility.yul\":14274:14282   */\n      dup7\n        /* \"#utility.yul\":14263:14272   */\n      dup4\n        /* \"#utility.yul\":14244:14283   */\n      tag_138\n      jump\t// in\n    tag_284:\n        /* \"#utility.yul\":14232:14283   */\n      swap6\n      pop\n        /* \"#utility.yul\":14316:14320   */\n      dup1\n        /* \"#utility.yul\":14312:14321   */\n      not\n        /* \"#utility.yul\":14305:14310   */\n      dup5\n        /* \"#utility.yul\":14301:14322   */\n      and\n        /* \"#utility.yul\":14292:14322   */\n      swap4\n      pop\n        /* \"#utility.yul\":14365:14369   */\n      dup1\n        /* \"#utility.yul\":14355:14363   */\n      dup7\n        /* \"#utility.yul\":14351:14370   */\n      and\n        /* \"#utility.yul\":14344:14349   */\n      dup5\n        /* \"#utility.yul\":14341:14371   */\n      or\n        /* \"#utility.yul\":14331:14371   */\n      swap3\n      pop\n        /* \"#utility.yul\":14060:14377   */\n      pop\n      pop\n        /* \"#utility.yul\":13984:14377   */\n      swap4\n      swap3\n      pop\n      pop\n      pop\n      jump\t// out\n        /* \"#utility.yul\":14383:14460   */\n    tag_140:\n        /* \"#utility.yul\":14420:14427   */\n      0x00\n        /* \"#utility.yul\":14449:14454   */\n      dup2\n        /* \"#utility.yul\":14438:14454   */\n      swap1\n      pop\n        /* \"#utility.yul\":14383:14460   */\n      swap2\n      swap1\n      pop\n      jump\t// out\n        /* \"#utility.yul\":14466:14526   */\n    tag_141:\n        /* \"#utility.yul\":14494:14497   */\n      0x00\n        /* \"#utility.yul\":14515:14520   */\n      dup2\n        /* \"#utility.yul\":14508:14520   */\n      swap1\n      pop\n        /* \"#utility.yul\":14466:14526   */\n      swap2\n      swap1\n      pop\n      jump\t// out\n        /* \"#utility.yul\":14532:14674   */\n    tag_142:\n        /* \"#utility.yul\":14582:14591   */\n      0x00\n        /* \"#utility.yul\":14615:14668   */\n      tag_288\n        /* \"#utility.yul\":14633:14667   */\n      tag_289\n        /* \"#utility.yul\":14642:14666   */\n      tag_290\n        /* \"#utility.yul\":14660:14665   */\n      dup5\n        /* \"#utility.yul\":14642:14666   */\n      tag_140\n      jump\t// in\n    tag_290:\n        /* \"#utility.yul\":14633:14667   */\n      tag_141\n      jump\t// in\n    tag_289:\n        /* \"#utility.yul\":14615:14668   */\n      tag_140\n      jump\t// in\n    tag_288:\n        /* \"#utility.yul\":14602:14668   */\n      swap1\n      pop\n        /* \"#utility.yul\":14532:14674   */\n      swap2\n      swap1\n      pop\n      jump\t// out\n        /* \"#utility.yul\":14680:14755   */\n    tag_143:\n        /* \"#utility.yul\":14723:14726   */\n      0x00\n        /* \"#utility.yul\":14744:14749   */\n      dup2\n        /* \"#utility.yul\":14737:14749   */\n      swap1\n      pop\n        /* \"#utility.yul\":14680:14755   */\n      swap2\n      swap1\n      pop\n      jump\t// out\n        /* \"#utility.yul\":14761:15030   */\n    tag_144:\n        /* \"#utility.yul\":14871:14910   */\n      tag_293\n        /* \"#utility.yul\":14902:14909   */\n      dup4\n        /* \"#utility.yul\":14871:14910   */\n      tag_142\n      jump\t// in\n    tag_293:\n        /* \"#utility.yul\":14932:15023   */\n      tag_294\n        /* \"#utility.yul\":14981:15022   */\n      tag_295\n        /* \"#utility.yul\":15005:15021   */\n      dup3\n        /* \"#utility.yul\":14981:15022   */\n      tag_143\n      jump\t// in\n    tag_295:\n        /* \"#utility.yul\":14973:14979   */\n      dup5\n        /* \"#utility.yul\":14966:14970   */\n      dup5\n        /* \"#utility.yul\":14960:14971   */\n      sload\n        /* \"#utility.yul\":14932:15023   */\n      tag_139\n      jump\t// in\n    tag_294:\n        /* \"#utility.yul\":14926:14930   */\n      dup3\n        /* \"#utility.yul\":14919:15024   */\n      sstore\n        /* \"#utility.yul\":14837:15030   */\n      pop\n        /* \"#utility.yul\":14761:15030   */\n      pop\n      pop\n      pop\n      jump\t// out\n        /* \"#utility.yul\":15036:15109   */\n    tag_145:\n        /* \"#utility.yul\":15081:15084   */\n      0x00\n        /* \"#utility.yul\":15036:15109   */\n      swap1\n      jump\t// out\n        /* \"#utility.yul\":15115:15304   */\n    tag_146:\n        /* \"#utility.yul\":15192:15224   */\n      tag_298\n      tag_145\n      jump\t// in\n    tag_298:\n        /* \"#utility.yul\":15233:15298   */\n      tag_299\n        /* \"#utility.yul\":15291:15297   */\n      dup2\n        /* \"#utility.yul\":15283:15289   */\n      dup5\n        /* \"#utility.yul\":15277:15281   */\n      dup5\n        /* \"#utility.yul\":15233:15298   */\n      tag_144\n      jump\t// in\n    tag_299:\n        /* \"#utility.yul\":15168:15304   */\n      pop\n        /* \"#utility.yul\":15115:15304   */\n      pop\n      pop\n      jump\t// out\n        /* \"#utility.yul\":15310:15496   */\n    tag_147:\n        /* \"#utility.yul\":15370:15490   */\n    tag_301:\n        /* \"#utility.yul\":15387:15390   */\n      dup2\n        /* \"#utility.yul\":15380:15385   */\n      dup2\n        /* \"#utility.yul\":15377:15391   */\n      lt\n        /* \"#utility.yul\":15370:15490   */\n      iszero\n      tag_303\n      jumpi\n        /* \"#utility.yul\":15441:15480   */\n      tag_304\n        /* \"#utility.yul\":15478:15479   */\n      0x00\n        /* \"#utility.yul\":15471:15476   */\n      dup3\n        /* \"#utility.yul\":15441:15480   */\n      tag_146\n      jump\t// in\n    tag_304:\n        /* \"#utility.yul\":15414:15415   */\n      0x01\n        /* \"#utility.yul\":15407:15412   */\n      dup2\n        /* \"#utility.yul\":15403:15416   */\n      add\n        /* \"#utility.yul\":15394:15416   */\n      swap1\n      pop\n        /* \"#utility.yul\":15370:15490   */\n      jump(tag_301)\n    tag_303:\n        /* \"#utility.yul\":15310:15496   */\n      pop\n      pop\n      jump\t// out\n        /* \"#utility.yul\":15502:16045   */\n    tag_148:\n        /* \"#utility.yul\":15603:15605   */\n      0x1f\n        /* \"#utility.yul\":15598:15601   */\n      dup3\n        /* \"#utility.yul\":15595:15606   */\n      gt\n        /* \"#utility.yul\":15592:16038   */\n      iszero\n      tag_306\n      jumpi\n        /* \"#utility.yul\":15637:15675   */\n      tag_307\n        /* \"#utility.yul\":15669:15674   */\n      dup2\n        /* \"#utility.yul\":15637:15675   */\n      tag_136\n      jump\t// in\n    tag_307:\n        /* \"#utility.yul\":15721:15750   */\n      tag_308\n        /* \"#utility.yul\":15739:15749   */\n      dup5\n        /* \"#utility.yul\":15721:15750   */\n      tag_137\n      jump\t// in\n    tag_308:\n        /* \"#utility.yul\":15711:15719   */\n      dup2\n        /* \"#utility.yul\":15707:15751   */\n      add\n        /* \"#utility.yul\":15904:15906   */\n      0x20\n        /* \"#utility.yul\":15892:15902   */\n      dup6\n        /* \"#utility.yul\":15889:15907   */\n      lt\n        /* \"#utility.yul\":15886:15935   */\n      iszero\n      tag_309\n      jumpi\n        /* \"#utility.yul\":15925:15933   */\n      dup2\n        /* \"#utility.yul\":15910:15933   */\n      swap1\n      pop\n        /* \"#utility.yul\":15886:15935   */\n    tag_309:\n        /* \"#utility.yul\":15948:16028   */\n      tag_310\n        /* \"#utility.yul\":16004:16026   */\n      tag_311\n        /* \"#utility.yul\":16022:16025   */\n      dup6\n        /* \"#utility.yul\":16004:16026   */\n      tag_137\n      jump\t// in\n    tag_311:\n        /* \"#utility.yul\":15994:16002   */\n      dup4\n        /* \"#utility.yul\":15990:16027   */\n      add\n        /* \"#utility.yul\":15977:15988   */\n      dup3\n        /* \"#utility.yul\":15948:16028   */\n      tag_147\n      jump\t// in\n    tag_310:\n        /* \"#utility.yul\":15607:16038   */\n      pop\n      pop\n        /* \"#utility.yul\":15592:16038   */\n    tag_306:\n        /* \"#utility.yul\":15502:16045   */\n      pop\n      pop\n      pop\n      jump\t// out\n        /* \"#utility.yul\":16051:16168   */\n    tag_149:\n        /* \"#utility.yul\":16105:16113   */\n      0x00\n        /* \"#utility.yul\":16155:16160   */\n      dup3\n        /* \"#utility.yul\":16149:16153   */\n      dup3\n        /* \"#utility.yul\":16145:16161   */\n      shr\n        /* \"#utility.yul\":16124:16161   */\n      swap1\n      pop\n        /* \"#utility.yul\":16051:16168   */\n      swap3\n      swap2\n      pop\n      pop\n      jump\t// out\n        /* \"#utility.yul\":16174:16343   */\n    tag_150:\n        /* \"#utility.yul\":16218:16224   */\n      0x00\n        /* \"#utility.yul\":16251:16302   */\n      tag_314\n        /* \"#utility.yul\":16299:16300   */\n      0x00\n        /* \"#utility.yul\":16295:16301   */\n      not\n        /* \"#utility.yul\":16287:16292   */\n      dup5\n        /* \"#utility.yul\":16284:16285   */\n      0x08\n        /* \"#utility.yul\":16280:16293   */\n      mul\n        /* \"#utility.yul\":16251:16302   */\n      tag_149\n      jump\t// in\n    tag_314:\n        /* \"#utility.yul\":16247:16303   */\n      not\n        /* \"#utility.yul\":16332:16336   */\n      dup1\n        /* \"#utility.yul\":16326:16330   */\n      dup4\n        /* \"#utility.yul\":16322:16337   */\n      and\n        /* \"#utility.yul\":16312:16337   */\n      swap2\n      pop\n        /* \"#utility.yul\":16225:16343   */\n      pop\n        /* \"#utility.yul\":16174:16343   */\n      swap3\n      swap2\n      pop\n      pop\n      jump\t// out\n        /* \"#utility.yul\":16348:16643   */\n    tag_151:\n        /* \"#utility.yul\":16424:16428   */\n      0x00\n        /* \"#utility.yul\":16570:16599   */\n      tag_316\n        /* \"#utility.yul\":16595:16598   */\n      dup4\n        /* \"#utility.yul\":16589:16593   */\n      dup4\n        /* \"#utility.yul\":16570:16599   */\n      tag_150\n      jump\t// in\n    tag_316:\n        /* \"#utility.yul\":16562:16599   */\n      swap2\n      pop\n        /* \"#utility.yul\":16632:16635   */\n      dup3\n        /* \"#utility.yul\":16629:16630   */\n      0x02\n        /* \"#utility.yul\":16625:16636   */\n      mul\n        /* \"#utility.yul\":16619:16623   */\n      dup3\n        /* \"#utility.yul\":16616:16637   */\n      or\n        /* \"#utility.yul\":16608:16637   */\n      swap1\n      pop\n        /* \"#utility.yul\":16348:16643   */\n      swap3\n      swap2\n      pop\n      pop\n      jump\t// out\n        /* \"#utility.yul\":16648:18043   */\n    tag_80:\n        /* \"#utility.yul\":16765:16802   */\n      tag_318\n        /* \"#utility.yul\":16798:16801   */\n      dup3\n        /* \"#utility.yul\":16765:16802   */\n      tag_118\n      jump\t// in\n    tag_318:\n        /* \"#utility.yul\":16867:16885   */\n      0xffffffffffffffff\n        /* \"#utility.yul\":16859:16865   */\n      dup2\n        /* \"#utility.yul\":16856:16886   */\n      gt\n        /* \"#utility.yul\":16853:16909   */\n      iszero\n      tag_319\n      jumpi\n        /* \"#utility.yul\":16889:16907   */\n      tag_320\n      tag_107\n      jump\t// in\n    tag_320:\n        /* \"#utility.yul\":16853:16909   */\n    tag_319:\n        /* \"#utility.yul\":16933:16971   */\n      tag_321\n        /* \"#utility.yul\":16965:16969   */\n      dup3\n        /* \"#utility.yul\":16959:16970   */\n      sload\n        /* \"#utility.yul\":16933:16971   */\n      tag_42\n      jump\t// in\n    tag_321:\n        /* \"#utility.yul\":17018:17085   */\n      tag_322\n        /* \"#utility.yul\":17078:17084   */\n      dup3\n        /* \"#utility.yul\":17070:17076   */\n      dup3\n        /* \"#utility.yul\":17064:17068   */\n      dup6\n        /* \"#utility.yul\":17018:17085   */\n      tag_148\n      jump\t// in\n    tag_322:\n        /* \"#utility.yul\":17112:17113   */\n      0x00\n        /* \"#utility.yul\":17136:17140   */\n      0x20\n        /* \"#utility.yul\":17123:17140   */\n      swap1\n      pop\n        /* \"#utility.yul\":17168:17170   */\n      0x1f\n        /* \"#utility.yul\":17160:17166   */\n      dup4\n        /* \"#utility.yul\":17157:17171   */\n      gt\n        /* \"#utility.yul\":17185:17186   */\n      0x01\n        /* \"#utility.yul\":17180:17798   */\n      dup2\n      eq\n      tag_324\n      jumpi\n        /* \"#utility.yul\":17842:17843   */\n      0x00\n        /* \"#utility.yul\":17859:17865   */\n      dup5\n        /* \"#utility.yul\":17856:17933   */\n      iszero\n      tag_325\n      jumpi\n        /* \"#utility.yul\":17908:17917   */\n      dup3\n        /* \"#utility.yul\":17903:17906   */\n      dup8\n        /* \"#utility.yul\":17899:17918   */\n      add\n        /* \"#utility.yul\":17893:17919   */\n      mload\n        /* \"#utility.yul\":17884:17919   */\n      swap1\n      pop\n        /* \"#utility.yul\":17856:17933   */\n    tag_325:\n        /* \"#utility.yul\":17959:18026   */\n      tag_326\n        /* \"#utility.yul\":18019:18025   */\n      dup6\n        /* \"#utility.yul\":18012:18017   */\n      dup3\n        /* \"#utility.yul\":17959:18026   */\n      tag_151\n      jump\t// in\n    tag_326:\n        /* \"#utility.yul\":17953:17957   */\n      dup7\n        /* \"#utility.yul\":17946:18027   */\n      sstore\n        /* \"#utility.yul\":17815:18037   */\n      pop\n        /* \"#utility.yul\":17150:18037   */\n      jump(tag_323)\n        /* \"#utility.yul\":17180:17798   */\n    tag_324:\n        /* \"#utility.yul\":17232:17236   */\n      0x1f\n        /* \"#utility.yul\":17228:17237   */\n      not\n        /* \"#utility.yul\":17220:17226   */\n      dup5\n        /* \"#utility.yul\":17216:17238   */\n      and\n        /* \"#utility.yul\":17266:17303   */\n      tag_327\n        /* \"#utility.yul\":17298:17302   */\n      dup7\n        /* \"#utility.yul\":17266:17303   */\n      tag_136\n      jump\t// in\n    tag_327:\n        /* \"#utility.yul\":17325:17326   */\n      0x00\n        /* \"#utility.yul\":17339:17547   */\n    tag_328:\n        /* \"#utility.yul\":17353:17360   */\n      dup3\n        /* \"#utility.yul\":17350:17351   */\n      dup2\n        /* \"#utility.yul\":17347:17361   */\n      lt\n        /* \"#utility.yul\":17339:17547   */\n      iszero\n      tag_330\n      jumpi\n        /* \"#utility.yul\":17432:17441   */\n      dup5\n        /* \"#utility.yul\":17427:17430   */\n      dup10\n        /* \"#utility.yul\":17423:17442   */\n      add\n        /* \"#utility.yul\":17417:17443   */\n      mload\n        /* \"#utility.yul\":17409:17415   */\n      dup3\n        /* \"#utility.yul\":17402:17444   */\n      sstore\n        /* \"#utility.yul\":17483:17484   */\n      0x01\n        /* \"#utility.yul\":17475:17481   */\n      dup3\n        /* \"#utility.yul\":17471:17485   */\n      add\n        /* \"#utility.yul\":17461:17485   */\n      swap2\n      pop\n        /* \"#utility.yul\":17530:17532   */\n      0x20\n        /* \"#utility.yul\":17519:17528   */\n      dup6\n        /* \"#utility.yul\":17515:17533   */\n      add\n        /* \"#utility.yul\":17502:17533   */\n      swap5\n      pop\n        /* \"#utility.yul\":17376:17380   */\n      0x20\n        /* \"#utility.yul\":17373:17374   */\n      dup2\n        /* \"#utility.yul\":17369:17381   */\n      add\n        /* \"#utility.yul\":17364:17381   */\n      swap1\n      pop\n        /* \"#utility.yul\":17339:17547   */\n      jump(tag_328)\n    tag_330:\n        /* \"#utility.yul\":17575:17581   */\n      dup7\n        /* \"#utility.yul\":17566:17573   */\n      dup4\n        /* \"#utility.yul\":17563:17582   */\n      lt\n        /* \"#utility.yul\":17560:17739   */\n      iszero\n      tag_331\n      jumpi\n        /* \"#utility.yul\":17633:17642   */\n      dup5\n        /* \"#utility.yul\":17628:17631   */\n      dup10\n        /* \"#utility.yul\":17624:17643   */\n      add\n        /* \"#utility.yul\":17618:17644   */\n      mload\n        /* \"#utility.yul\":17676:17724   */\n      tag_332\n        /* \"#utility.yul\":17718:17722   */\n      0x1f\n        /* \"#utility.yul\":17710:17716   */\n      dup10\n        /* \"#utility.yul\":17706:17723   */\n      and\n        /* \"#utility.yul\":17695:17704   */\n      dup3\n        /* \"#utility.yul\":17676:17724   */\n      tag_150\n      jump\t// in\n    tag_332:\n        /* \"#utility.yul\":17668:17674   */\n      dup4\n        /* \"#utility.yul\":17661:17725   */\n      sstore\n        /* \"#utility.yul\":17583:17739   */\n      pop\n        /* \"#utility.yul\":17560:17739   */\n    tag_331:\n        /* \"#utility.yul\":17785:17786   */\n      0x01\n        /* \"#utility.yul\":17781:17782   */\n      0x02\n        /* \"#utility.yul\":17773:17779   */\n      dup9\n        /* \"#utility.yul\":17769:17783   */\n      mul\n        /* \"#utility.yul\":17765:17787   */\n      add\n        /* \"#utility.yul\":17759:17763   */\n      dup9\n        /* \"#utility.yul\":17752:17788   */\n      sstore\n        /* \"#utility.yul\":17187:17798   */\n      pop\n      pop\n      pop\n        /* \"#utility.yul\":17150:18037   */\n    tag_323:\n      pop\n        /* \"#utility.yul\":16740:18043   */\n      pop\n      pop\n      pop\n        /* \"#utility.yul\":16648:18043   */\n      pop\n      pop\n      jump\t// out\n        /* \"#utility.yul\":18049:18222   */\n    tag_152:\n        /* \"#utility.yul\":18189:18214   */\n      0x496e76616c69642077616c6c6574206164647265737321000000000000000000\n        /* \"#utility.yul\":18185:18186   */\n      0x00\n        /* \"#utility.yul\":18177:18183   */\n      dup3\n        /* \"#utility.yul\":18173:18187   */\n      add\n        /* \"#utility.yul\":18166:18215   */\n      mstore\n        /* \"#utility.yul\":18049:18222   */\n      pop\n      jump\t// out\n        /* \"#utility.yul\":18228:18594   */\n    tag_153:\n        /* \"#utility.yul\":18370:18373   */\n      0x00\n        /* \"#utility.yul\":18391:18458   */\n      tag_335\n        /* \"#utility.yul\":18455:18457   */\n      0x17\n        /* \"#utility.yul\":18450:18453   */\n      dup4\n        /* \"#utility.yul\":18391:18458   */\n      tag_119\n      jump\t// in\n    tag_335:\n        /* \"#utility.yul\":18384:18458   */\n      swap2\n      pop\n        /* \"#utility.yul\":18467:18560   */\n      tag_336\n        /* \"#utility.yul\":18556:18559   */\n      dup3\n        /* \"#utility.yul\":18467:18560   */\n      tag_152\n      jump\t// in\n    tag_336:\n        /* \"#utility.yul\":18585:18587   */\n      0x20\n        /* \"#utility.yul\":18580:18583   */\n      dup3\n        /* \"#utility.yul\":18576:18588   */\n      add\n        /* \"#utility.yul\":18569:18588   */\n      swap1\n      pop\n        /* \"#utility.yul\":18228:18594   */\n      swap2\n      swap1\n      pop\n      jump\t// out\n        /* \"#utility.yul\":18600:19019   */\n    tag_100:\n        /* \"#utility.yul\":18766:18770   */\n      0x00\n        /* \"#utility.yul\":18804:18806   */\n      0x20\n        /* \"#utility.yul\":18793:18802   */\n      dup3\n        /* \"#utility.yul\":18789:18807   */\n      add\n        /* \"#utility.yul\":18781:18807   */\n      swap1\n      pop\n        /* \"#utility.yul\":18853:18862   */\n      dup2\n        /* \"#utility.yul\":18847:18851   */\n      dup2\n        /* \"#utility.yul\":18843:18863   */\n      sub\n        /* \"#utility.yul\":18839:18840   */\n      0x00\n        /* \"#utility.yul\":18828:18837   */\n      dup4\n        /* \"#utility.yul\":18824:18841   */\n      add\n        /* \"#utility.yul\":18817:18864   */\n      mstore\n        /* \"#utility.yul\":18881:19012   */\n      tag_338\n        /* \"#utility.yul\":19007:19011   */\n      dup2\n        /* \"#utility.yul\":18881:19012   */\n      tag_153\n      jump\t// in\n    tag_338:\n        /* \"#utility.yul\":18873:19012   */\n      swap1\n      pop\n        /* \"#utility.yul\":18600:19019   */\n      swap2\n      swap1\n      pop\n      jump\t// out\n\n    auxdata: 0xa26469706673582212208dc94db6e7d422f1d1b51e39c3c0aaefba6cd21a9687e169bd06c10cf1a64f3364736f6c63430008190033\n}\n",
				"bytecode": {
					"linkReferences": {},
					"object": "6080604052348015600e575f80fd5b5061129b8061001c5f395ff3fe608060405234801561000f575f80fd5b5060043610610060575f3560e01c80631b81e2d2146100645780631c6a025414610080578063689e1c03146100b05780637f281635146100e257806388557b0714610112578063ef9b432a1461012e575b5f80fd5b61007e60048036038101906100799190610a58565b61015e565b005b61009a60048036038101906100959190610af9565b6101ce565b6040516100a79190610b84565b60405180910390f35b6100ca60048036038101906100c59190610a58565b610326565b6040516100d993929190610bb3565b60405180910390f35b6100fc60048036038101906100f79190610af9565b61048e565b6040516101099190610b84565b60405180910390f35b61012c60048036038101906101279190610bf6565b610529565b005b61014860048036038101906101439190610c7e565b6106a9565b6040516101559190610d83565b60405180910390f35b5f808260405161016e9190610ddd565b90815260200160405180910390205f01805461018990610e20565b9050116101cb576040517f08c379a00000000000000000000000000000000000000000000000000000000081526004016101c290610e9a565b60405180910390fd5b50565b60605f60015f8473ffffffffffffffffffffffffffffffffffffffff1673ffffffffffffffffffffffffffffffffffffffff1681526020019081526020015f20805461021990610e20565b90501161025b576040517f08c379a000000000000000000000000000000000000000000000000000000000815260040161025290610f02565b60405180910390fd5b60015f8373ffffffffffffffffffffffffffffffffffffffff1673ffffffffffffffffffffffffffffffffffffffff1681526020019081526020015f2080546102a390610e20565b80601f01602080910402602001604051908101604052809291908181526020018280546102cf90610e20565b801561031a5780601f106102f15761010080835404028352916020019161031a565b820191905f5260205f20905b8154815290600101906020018083116102fd57829003601f168201915b50505050509050919050565b5f818051602081018201805184825260208301602085012081835280955050505050505f91509050805f01805461035c90610e20565b80601f016020809104026020016040519081016040528092919081815260200182805461038890610e20565b80156103d35780601f106103aa576101008083540402835291602001916103d3565b820191905f5260205f20905b8154815290600101906020018083116103b657829003601f168201915b5050505050908060010180546103e890610e20565b80601f016020809104026020016040519081016040528092919081815260200182805461041490610e20565b801561045f5780601f106104365761010080835404028352916020019161045f565b820191905f5260205f20905b81548152906001019060200180831161044257829003601f168201915b505050505090806002015f9054906101000a900473ffffffffffffffffffffffffffffffffffffffff16905083565b6001602052805f5260405f205f9150905080546104aa90610e20565b80601f01602080910402602001604051908101604052809291908181526020018280546104d690610e20565b80156105215780601f106104f857610100808354040283529160200191610521565b820191905f5260205f20905b81548152906001019060200180831161050457829003601f168201915b505050505081565b825f808260405161053a9190610ddd565b90815260200160405180910390205f01805461055590610e20565b905014610597576040517f08c379a000000000000000000000000000000000000000000000000000000000815260040161058e90610f6a565b60405180910390fd5b60405180606001604052808581526020018481526020018373ffffffffffffffffffffffffffffffffffffffff168152505f856040516105d79190610ddd565b90815260200160405180910390205f820151815f0190816105f8919061112e565b50602082015181600101908161060e919061112e565b506040820151816002015f6101000a81548173ffffffffffffffffffffffffffffffffffffffff021916908373ffffffffffffffffffffffffffffffffffffffff1602179055509050508360015f8473ffffffffffffffffffffffffffffffffffffffff1673ffffffffffffffffffffffffffffffffffffffff1681526020019081526020015f2090816106a2919061112e565b5050505050565b6106b16108d5565b6106ba8361015e565b5f80846040516106ca9190610ddd565b90815260200160405180910390206040518060600160405290815f820180546106f290610e20565b80601f016020809104026020016040519081016040528092919081815260200182805461071e90610e20565b80156107695780601f1061074057610100808354040283529160200191610769565b820191905f5260205f20905b81548152906001019060200180831161074c57829003601f168201915b5050505050815260200160018201805461078290610e20565b80601f01602080910402602001604051908101604052809291908181526020018280546107ae90610e20565b80156107f95780601f106107d0576101008083540402835291602001916107f9565b820191905f5260205f20905b8154815290600101906020018083116107dc57829003601f168201915b50505050508152602001600282015f9054906101000a900473ffffffffffffffffffffffffffffffffffffffff1673ffffffffffffffffffffffffffffffffffffffff1673ffffffffffffffffffffffffffffffffffffffff168152505090508273ffffffffffffffffffffffffffffffffffffffff16816040015173ffffffffffffffffffffffffffffffffffffffff16146108cb576040517f08c379a00000000000000000000000000000000000000000000000000000000081526004016108c290611247565b60405180910390fd5b8091505092915050565b604051806060016040528060608152602001606081526020015f73ffffffffffffffffffffffffffffffffffffffff1681525090565b5f604051905090565b5f80fd5b5f80fd5b5f80fd5b5f80fd5b5f601f19601f8301169050919050565b7f4e487b71000000000000000000000000000000000000000000000000000000005f52604160045260245ffd5b61096a82610924565b810181811067ffffffffffffffff8211171561098957610988610934565b5b80604052505050565b5f61099b61090b565b90506109a78282610961565b919050565b5f67ffffffffffffffff8211156109c6576109c5610934565b5b6109cf82610924565b9050602081019050919050565b828183375f83830152505050565b5f6109fc6109f7846109ac565b610992565b905082815260208101848484011115610a1857610a17610920565b5b610a238482856109dc565b509392505050565b5f82601f830112610a3f57610a3e61091c565b5b8135610a4f8482602086016109ea565b91505092915050565b5f60208284031215610a6d57610a6c610914565b5b5f82013567ffffffffffffffff811115610a8a57610a89610918565b5b610a9684828501610a2b565b91505092915050565b5f73ffffffffffffffffffffffffffffffffffffffff82169050919050565b5f610ac882610a9f565b9050919050565b610ad881610abe565b8114610ae2575f80fd5b50565b5f81359050610af381610acf565b92915050565b5f60208284031215610b0e57610b0d610914565b5b5f610b1b84828501610ae5565b91505092915050565b5f81519050919050565b5f82825260208201905092915050565b8281835e5f83830152505050565b5f610b5682610b24565b610b608185610b2e565b9350610b70818560208601610b3e565b610b7981610924565b840191505092915050565b5f6020820190508181035f830152610b9c8184610b4c565b905092915050565b610bad81610abe565b82525050565b5f6060820190508181035f830152610bcb8186610b4c565b90508181036020830152610bdf8185610b4c565b9050610bee6040830184610ba4565b949350505050565b5f805f60608486031215610c0d57610c0c610914565b5b5f84013567ffffffffffffffff811115610c2a57610c29610918565b5b610c3686828701610a2b565b935050602084013567ffffffffffffffff811115610c5757610c56610918565b5b610c6386828701610a2b565b9250506040610c7486828701610ae5565b9150509250925092565b5f8060408385031215610c9457610c93610914565b5b5f83013567ffffffffffffffff811115610cb157610cb0610918565b5b610cbd85828601610a2b565b9250506020610cce85828601610ae5565b9150509250929050565b5f82825260208201905092915050565b5f610cf282610b24565b610cfc8185610cd8565b9350610d0c818560208601610b3e565b610d1581610924565b840191505092915050565b610d2981610abe565b82525050565b5f606083015f8301518482035f860152610d498282610ce8565b91505060208301518482036020860152610d638282610ce8565b9150506040830151610d786040860182610d20565b508091505092915050565b5f6020820190508181035f830152610d9b8184610d2f565b905092915050565b5f81905092915050565b5f610db782610b24565b610dc18185610da3565b9350610dd1818560208601610b3e565b80840191505092915050565b5f610de88284610dad565b915081905092915050565b7f4e487b71000000000000000000000000000000000000000000000000000000005f52602260045260245ffd5b5f6002820490506001821680610e3757607f821691505b602082108103610e4a57610e49610df3565b5b50919050565b7f496e76616c696420757365726e616d65210000000000000000000000000000005f82015250565b5f610e84601183610b2e565b9150610e8f82610e50565b602082019050919050565b5f6020820190508181035f830152610eb181610e78565b9050919050565b7f556e61626c6520746f2066696e6420757365726e616d652100000000000000005f82015250565b5f610eec601883610b2e565b9150610ef782610eb8565b602082019050919050565b5f6020820190508181035f830152610f1981610ee0565b9050919050565b7f557365726e616d6520616c7265616479206578697374210000000000000000005f82015250565b5f610f54601783610b2e565b9150610f5f82610f20565b602082019050919050565b5f6020820190508181035f830152610f8181610f48565b9050919050565b5f819050815f5260205f209050919050565b5f6020601f8301049050919050565b5f82821b905092915050565b5f60088302610fe47fffffffffffffffffffffffffffffffffffffffffffffffffffffffffffffffff82610fa9565b610fee8683610fa9565b95508019841693508086168417925050509392505050565b5f819050919050565b5f819050919050565b5f61103261102d61102884611006565b61100f565b611006565b9050919050565b5f819050919050565b61104b83611018565b61105f61105782611039565b848454610fb5565b825550505050565b5f90565b611073611067565b61107e818484611042565b505050565b5b818110156110a1576110965f8261106b565b600181019050611084565b5050565b601f8211156110e6576110b781610f88565b6110c084610f9a565b810160208510156110cf578190505b6110e36110db85610f9a565b830182611083565b50505b505050565b5f82821c905092915050565b5f6111065f19846008026110eb565b1980831691505092915050565b5f61111e83836110f7565b9150826002028217905092915050565b61113782610b24565b67ffffffffffffffff8111156111505761114f610934565b5b61115a8254610e20565b6111658282856110a5565b5f60209050601f831160018114611196575f8415611184578287015190505b61118e8582611113565b8655506111f5565b601f1984166111a486610f88565b5f5b828110156111cb578489015182556001820191506020850194506020810190506111a6565b868310156111e857848901516111e4601f8916826110f7565b8355505b6001600288020188555050505b505050505050565b7f496e76616c69642077616c6c65742061646472657373210000000000000000005f82015250565b5f611231601783610b2e565b915061123c826111fd565b602082019050919050565b5f6020820190508181035f83015261125e81611225565b905091905056fea26469706673582212208dc94db6e7d422f1d1b51e39c3c0aaefba6cd21a9687e169bd06c10cf1a64f3364736f6c63430008190033",
					"opcodes": "PUSH1 0x80 PUSH1 0x40 MSTORE CALLVALUE DUP1 ISZERO PUSH1 0xE JUMPI PUSH0 DUP1 REVERT JUMPDEST POP PUSH2 0x129B DUP1 PUSH2 0x1C PUSH0 CODECOPY PUSH0 RETURN INVALID PUSH1 0x80 PUSH1 0x40 MSTORE CALLVALUE DUP1 ISZERO PUSH2 0xF JUMPI PUSH0 DUP1 REVERT JUMPDEST POP PUSH1 0x4 CALLDATASIZE LT PUSH2 0x60 JUMPI PUSH0 CALLDATALOAD PUSH1 0xE0 SHR DUP1 PUSH4 0x1B81E2D2 EQ PUSH2 0x64 JUMPI DUP1 PUSH4 0x1C6A0254 EQ PUSH2 0x80 JUMPI DUP1 PUSH4 0x689E1C03 EQ PUSH2 0xB0 JUMPI DUP1 PUSH4 0x7F281635 EQ PUSH2 0xE2 JUMPI DUP1 PUSH4 0x88557B07 EQ PUSH2 0x112 JUMPI DUP1 PUSH4 0xEF9B432A EQ PUSH2 0x12E JUMPI JUMPDEST PUSH0 DUP1 REVERT JUMPDEST PUSH2 0x7E PUSH1 0x4 DUP1 CALLDATASIZE SUB DUP2 ADD SWAP1 PUSH2 0x79 SWAP2 SWAP1 PUSH2 0xA58 JUMP JUMPDEST PUSH2 0x15E JUMP JUMPDEST STOP JUMPDEST PUSH2 0x9A PUSH1 0x4 DUP1 CALLDATASIZE SUB DUP2 ADD SWAP1 PUSH2 0x95 SWAP2 SWAP1 PUSH2 0xAF9 JUMP JUMPDEST PUSH2 0x1CE JUMP JUMPDEST PUSH1 0x40 MLOAD PUSH2 0xA7 SWAP2 SWAP1 PUSH2 0xB84 JUMP JUMPDEST PUSH1 0x40 MLOAD DUP1 SWAP2 SUB SWAP1 RETURN JUMPDEST PUSH2 0xCA PUSH1 0x4 DUP1 CALLDATASIZE SUB DUP2 ADD SWAP1 PUSH2 0xC5 SWAP2 SWAP1 PUSH2 0xA58 JUMP JUMPDEST PUSH2 0x326 JUMP JUMPDEST PUSH1 0x40 MLOAD PUSH2 0xD9 SWAP4 SWAP3 SWAP2 SWAP1 PUSH2 0xBB3 JUMP JUMPDEST PUSH1 0x40 MLOAD DUP1 SWAP2 SUB SWAP1 RETURN JUMPDEST PUSH2 0xFC PUSH1 0x4 DUP1 CALLDATASIZE SUB DUP2 ADD SWAP1 PUSH2 0xF7 SWAP2 SWAP1 PUSH2 0xAF9 JUMP JUMPDEST PUSH2 0x48E JUMP JUMPDEST PUSH1 0x40 MLOAD PUSH2 0x109 SWAP2 SWAP1 PUSH2 0xB84 JUMP JUMPDEST PUSH1 0x40 MLOAD DUP1 SWAP2 SUB SWAP1 RETURN JUMPDEST PUSH2 0x12C PUSH1 0x4 DUP1 CALLDATASIZE SUB DUP2 ADD SWAP1 PUSH2 0x127 SWAP2 SWAP1 PUSH2 0xBF6 JUMP JUMPDEST PUSH2 0x529 JUMP JUMPDEST STOP JUMPDEST PUSH2 0x148 PUSH1 0x4 DUP1 CALLDATASIZE SUB DUP2 ADD SWAP1 PUSH2 0x143 SWAP2 SWAP1 PUSH2 0xC7E JUMP JUMPDEST PUSH2 0x6A9 JUMP JUMPDEST PUSH1 0x40 MLOAD PUSH2 0x155 SWAP2 SWAP1 PUSH2 0xD83 JUMP JUMPDEST PUSH1 0x40 MLOAD DUP1 SWAP2 SUB SWAP1 RETURN JUMPDEST PUSH0 DUP1 DUP3 PUSH1 0x40 MLOAD PUSH2 0x16E SWAP2 SWAP1 PUSH2 0xDDD JUMP JUMPDEST SWAP1 DUP2 MSTORE PUSH1 0x20 ADD PUSH1 0x40 MLOAD DUP1 SWAP2 SUB SWAP1 KECCAK256 PUSH0 ADD DUP1 SLOAD PUSH2 0x189 SWAP1 PUSH2 0xE20 JUMP JUMPDEST SWAP1 POP GT PUSH2 0x1CB JUMPI PUSH1 0x40 MLOAD PUSH32 0x8C379A000000000000000000000000000000000000000000000000000000000 DUP2 MSTORE PUSH1 0x4 ADD PUSH2 0x1C2 SWAP1 PUSH2 0xE9A JUMP JUMPDEST PUSH1 0x40 MLOAD DUP1 SWAP2 SUB SWAP1 REVERT JUMPDEST POP JUMP JUMPDEST PUSH1 0x60 PUSH0 PUSH1 0x1 PUSH0 DUP5 PUSH20 0xFFFFFFFFFFFFFFFFFFFFFFFFFFFFFFFFFFFFFFFF AND PUSH20 0xFFFFFFFFFFFFFFFFFFFFFFFFFFFFFFFFFFFFFFFF AND DUP2 MSTORE PUSH1 0x20 ADD SWAP1 DUP2 MSTORE PUSH1 0x20 ADD PUSH0 KECCAK256 DUP1 SLOAD PUSH2 0x219 SWAP1 PUSH2 0xE20 JUMP JUMPDEST SWAP1 POP GT PUSH2 0x25B JUMPI PUSH1 0x40 MLOAD PUSH32 0x8C379A000000000000000000000000000000000000000000000000000000000 DUP2 MSTORE PUSH1 0x4 ADD PUSH2 0x252 SWAP1 PUSH2 0xF02 JUMP JUMPDEST PUSH1 0x40 MLOAD DUP1 SWAP2 SUB SWAP1 REVERT JUMPDEST PUSH1 0x1 PUSH0 DUP4 PUSH20 0xFFFFFFFFFFFFFFFFFFFFFFFFFFFFFFFFFFFFFFFF AND PUSH20 0xFFFFFFFFFFFFFFFFFFFFFFFFFFFFFFFFFFFFFFFF AND DUP2 MSTORE PUSH1 0x20 ADD SWAP1 DUP2 MSTORE PUSH1 0x20 ADD PUSH0 KECCAK256 DUP1 SLOAD PUSH2 0x2A3 SWAP1 PUSH2 0xE20 JUMP JUMPDEST DUP1 PUSH1 0x1F ADD PUSH1 0x20 DUP1 SWAP2 DIV MUL PUSH1 0x20 ADD PUSH1 0x40 MLOAD SWAP1 DUP2 ADD PUSH1 0x40 MSTORE DUP1 SWAP3 SWAP2 SWAP1 DUP2 DUP2 MSTORE PUSH1 0x20 ADD DUP3 DUP1 SLOAD PUSH2 0x2CF SWAP1 PUSH2 0xE20 JUMP JUMPDEST DUP1 ISZERO PUSH2 0x31A JUMPI DUP1 PUSH1 0x1F LT PUSH2 0x2F1 JUMPI PUSH2 0x100 DUP1 DUP4 SLOAD DIV MUL DUP4 MSTORE SWAP2 PUSH1 0x20 ADD SWAP2 PUSH2 0x31A JUMP JUMPDEST DUP3 ADD SWAP2 SWAP1 PUSH0 MSTORE PUSH1 0x20 PUSH0 KECCAK256 SWAP1 JUMPDEST DUP2 SLOAD DUP2 MSTORE SWAP1 PUSH1 0x1 ADD SWAP1 PUSH1 0x20 ADD DUP1 DUP4 GT PUSH2 0x2FD JUMPI DUP3 SWAP1 SUB PUSH1 0x1F AND DUP3 ADD SWAP2 JUMPDEST POP POP POP POP POP SWAP1 POP SWAP2 SWAP1 POP JUMP JUMPDEST PUSH0 DUP2 DUP1 MLOAD PUSH1 0x20 DUP2 ADD DUP3 ADD DUP1 MLOAD DUP5 DUP3 MSTORE PUSH1 0x20 DUP4 ADD PUSH1 0x20 DUP6 ADD KECCAK256 DUP2 DUP4 MSTORE DUP1 SWAP6 POP POP POP POP POP POP PUSH0 SWAP2 POP SWAP1 POP DUP1 PUSH0 ADD DUP1 SLOAD PUSH2 0x35C SWAP1 PUSH2 0xE20 JUMP JUMPDEST DUP1 PUSH1 0x1F ADD PUSH1 0x20 DUP1 SWAP2 DIV MUL PUSH1 0x20 ADD PUSH1 0x40 MLOAD SWAP1 DUP2 ADD PUSH1 0x40 MSTORE DUP1 SWAP3 SWAP2 SWAP1 DUP2 DUP2 MSTORE PUSH1 0x20 ADD DUP3 DUP1 SLOAD PUSH2 0x388 SWAP1 PUSH2 0xE20 JUMP JUMPDEST DUP1 ISZERO PUSH2 0x3D3 JUMPI DUP1 PUSH1 0x1F LT PUSH2 0x3AA JUMPI PUSH2 0x100 DUP1 DUP4 SLOAD DIV MUL DUP4 MSTORE SWAP2 PUSH1 0x20 ADD SWAP2 PUSH2 0x3D3 JUMP JUMPDEST DUP3 ADD SWAP2 SWAP1 PUSH0 MSTORE PUSH1 0x20 PUSH0 KECCAK256 SWAP1 JUMPDEST DUP2 SLOAD DUP2 MSTORE SWAP1 PUSH1 0x1 ADD SWAP1 PUSH1 0x20 ADD DUP1 DUP4 GT PUSH2 0x3B6 JUMPI DUP3 SWAP1 SUB PUSH1 0x1F AND DUP3 ADD SWAP2 JUMPDEST POP POP POP POP POP SWAP1 DUP1 PUSH1 0x1 ADD DUP1 SLOAD PUSH2 0x3E8 SWAP1 PUSH2 0xE20 JUMP JUMPDEST DUP1 PUSH1 0x1F ADD PUSH1 0x20 DUP1 SWAP2 DIV MUL PUSH1 0x20 ADD PUSH1 0x40 MLOAD SWAP1 DUP2 ADD PUSH1 0x40 MSTORE DUP1 SWAP3 SWAP2 SWAP1 DUP2 DUP2 MSTORE PUSH1 0x20 ADD DUP3 DUP1 SLOAD PUSH2 0x414 SWAP1 PUSH2 0xE20 JUMP JUMPDEST DUP1 ISZERO PUSH2 0x45F JUMPI DUP1 PUSH1 0x1F LT PUSH2 0x436 JUMPI PUSH2 0x100 DUP1 DUP4 SLOAD DIV MUL DUP4 MSTORE SWAP2 PUSH1 0x20 ADD SWAP2 PUSH2 0x45F JUMP JUMPDEST DUP3 ADD SWAP2 SWAP1 PUSH0 MSTORE PUSH1 0x20 PUSH0 KECCAK256 SWAP1 JUMPDEST DUP2 SLOAD DUP2 MSTORE SWAP1 PUSH1 0x1 ADD SWAP1 PUSH1 0x20 ADD DUP1 DUP4 GT PUSH2 0x442 JUMPI DUP3 SWAP1 SUB PUSH1 0x1F AND DUP3 ADD SWAP2 JUMPDEST POP POP POP POP POP SWAP1 DUP1 PUSH1 0x2 ADD PUSH0 SWAP1 SLOAD SWAP1 PUSH2 0x100 EXP SWAP1 DIV PUSH20 0xFFFFFFFFFFFFFFFFFFFFFFFFFFFFFFFFFFFFFFFF AND SWAP1 POP DUP4 JUMP JUMPDEST PUSH1 0x1 PUSH1 0x20 MSTORE DUP1 PUSH0 MSTORE PUSH1 0x40 PUSH0 KECCAK256 PUSH0 SWAP2 POP SWAP1 POP DUP1 SLOAD PUSH2 0x4AA SWAP1 PUSH2 0xE20 JUMP JUMPDEST DUP1 PUSH1 0x1F ADD PUSH1 0x20 DUP1 SWAP2 DIV MUL PUSH1 0x20 ADD PUSH1 0x40 MLOAD SWAP1 DUP2 ADD PUSH1 0x40 MSTORE DUP1 SWAP3 SWAP2 SWAP1 DUP2 DUP2 MSTORE PUSH1 0x20 ADD DUP3 DUP1 SLOAD PUSH2 0x4D6 SWAP1 PUSH2 0xE20 JUMP JUMPDEST DUP1 ISZERO PUSH2 0x521 JUMPI DUP1 PUSH1 0x1F LT PUSH2 0x4F8 JUMPI PUSH2 0x100 DUP1 DUP4 SLOAD DIV MUL DUP4 MSTORE SWAP2 PUSH1 0x20 ADD SWAP2 PUSH2 0x521 JUMP JUMPDEST DUP3 ADD SWAP2 SWAP1 PUSH0 MSTORE PUSH1 0x20 PUSH0 KECCAK256 SWAP1 JUMPDEST DUP2 SLOAD DUP2 MSTORE SWAP1 PUSH1 0x1 ADD SWAP1 PUSH1 0x20 ADD DUP1 DUP4 GT PUSH2 0x504 JUMPI DUP3 SWAP1 SUB PUSH1 0x1F AND DUP3 ADD SWAP2 JUMPDEST POP POP POP POP POP DUP2 JUMP JUMPDEST DUP3 PUSH0 DUP1 DUP3 PUSH1 0x40 MLOAD PUSH2 0x53A SWAP2 SWAP1 PUSH2 0xDDD JUMP JUMPDEST SWAP1 DUP2 MSTORE PUSH1 0x20 ADD PUSH1 0x40 MLOAD DUP1 SWAP2 SUB SWAP1 KECCAK256 PUSH0 ADD DUP1 SLOAD PUSH2 0x555 SWAP1 PUSH2 0xE20 JUMP JUMPDEST SWAP1 POP EQ PUSH2 0x597 JUMPI PUSH1 0x40 MLOAD PUSH32 0x8C379A000000000000000000000000000000000000000000000000000000000 DUP2 MSTORE PUSH1 0x4 ADD PUSH2 0x58E SWAP1 PUSH2 0xF6A JUMP JUMPDEST PUSH1 0x40 MLOAD DUP1 SWAP2 SUB SWAP1 REVERT JUMPDEST PUSH1 0x40 MLOAD DUP1 PUSH1 0x60 ADD PUSH1 0x40 MSTORE DUP1 DUP6 DUP2 MSTORE PUSH1 0x20 ADD DUP5 DUP2 MSTORE PUSH1 0x20 ADD DUP4 PUSH20 0xFFFFFFFFFFFFFFFFFFFFFFFFFFFFFFFFFFFFFFFF AND DUP2 MSTORE POP PUSH0 DUP6 PUSH1 0x40 MLOAD PUSH2 0x5D7 SWAP2 SWAP1 PUSH2 0xDDD JUMP JUMPDEST SWAP1 DUP2 MSTORE PUSH1 0x20 ADD PUSH1 0x40 MLOAD DUP1 SWAP2 SUB SWAP1 KECCAK256 PUSH0 DUP3 ADD MLOAD DUP2 PUSH0 ADD SWAP1 DUP2 PUSH2 0x5F8 SWAP2 SWAP1 PUSH2 0x112E JUMP JUMPDEST POP PUSH1 0x20 DUP3 ADD MLOAD DUP2 PUSH1 0x1 ADD SWAP1 DUP2 PUSH2 0x60E SWAP2 SWAP1 PUSH2 0x112E JUMP JUMPDEST POP PUSH1 0x40 DUP3 ADD MLOAD DUP2 PUSH1 0x2 ADD PUSH0 PUSH2 0x100 EXP DUP2 SLOAD DUP2 PUSH20 0xFFFFFFFFFFFFFFFFFFFFFFFFFFFFFFFFFFFFFFFF MUL NOT AND SWAP1 DUP4 PUSH20 0xFFFFFFFFFFFFFFFFFFFFFFFFFFFFFFFFFFFFFFFF AND MUL OR SWAP1 SSTORE POP SWAP1 POP POP DUP4 PUSH1 0x1 PUSH0 DUP5 PUSH20 0xFFFFFFFFFFFFFFFFFFFFFFFFFFFFFFFFFFFFFFFF AND PUSH20 0xFFFFFFFFFFFFFFFFFFFFFFFFFFFFFFFFFFFFFFFF AND DUP2 MSTORE PUSH1 0x20 ADD SWAP1 DUP2 MSTORE PUSH1 0x20 ADD PUSH0 KECCAK256 SWAP1 DUP2 PUSH2 0x6A2 SWAP2 SWAP1 PUSH2 0x112E JUMP JUMPDEST POP POP POP POP POP JUMP JUMPDEST PUSH2 0x6B1 PUSH2 0x8D5 JUMP JUMPDEST PUSH2 0x6BA DUP4 PUSH2 0x15E JUMP JUMPDEST PUSH0 DUP1 DUP5 PUSH1 0x40 MLOAD PUSH2 0x6CA SWAP2 SWAP1 PUSH2 0xDDD JUMP JUMPDEST SWAP1 DUP2 MSTORE PUSH1 0x20 ADD PUSH1 0x40 MLOAD DUP1 SWAP2 SUB SWAP1 KECCAK256 PUSH1 0x40 MLOAD DUP1 PUSH1 0x60 ADD PUSH1 0x40 MSTORE SWAP1 DUP2 PUSH0 DUP3 ADD DUP1 SLOAD PUSH2 0x6F2 SWAP1 PUSH2 0xE20 JUMP JUMPDEST DUP1 PUSH1 0x1F ADD PUSH1 0x20 DUP1 SWAP2 DIV MUL PUSH1 0x20 ADD PUSH1 0x40 MLOAD SWAP1 DUP2 ADD PUSH1 0x40 MSTORE DUP1 SWAP3 SWAP2 SWAP1 DUP2 DUP2 MSTORE PUSH1 0x20 ADD DUP3 DUP1 SLOAD PUSH2 0x71E SWAP1 PUSH2 0xE20 JUMP JUMPDEST DUP1 ISZERO PUSH2 0x769 JUMPI DUP1 PUSH1 0x1F LT PUSH2 0x740 JUMPI PUSH2 0x100 DUP1 DUP4 SLOAD DIV MUL DUP4 MSTORE SWAP2 PUSH1 0x20 ADD SWAP2 PUSH2 0x769 JUMP JUMPDEST DUP3 ADD SWAP2 SWAP1 PUSH0 MSTORE PUSH1 0x20 PUSH0 KECCAK256 SWAP1 JUMPDEST DUP2 SLOAD DUP2 MSTORE SWAP1 PUSH1 0x1 ADD SWAP1 PUSH1 0x20 ADD DUP1 DUP4 GT PUSH2 0x74C JUMPI DUP3 SWAP1 SUB PUSH1 0x1F AND DUP3 ADD SWAP2 JUMPDEST POP POP POP POP POP DUP2 MSTORE PUSH1 0x20 ADD PUSH1 0x1 DUP3 ADD DUP1 SLOAD PUSH2 0x782 SWAP1 PUSH2 0xE20 JUMP JUMPDEST DUP1 PUSH1 0x1F ADD PUSH1 0x20 DUP1 SWAP2 DIV MUL PUSH1 0x20 ADD PUSH1 0x40 MLOAD SWAP1 DUP2 ADD PUSH1 0x40 MSTORE DUP1 SWAP3 SWAP2 SWAP1 DUP2 DUP2 MSTORE PUSH1 0x20 ADD DUP3 DUP1 SLOAD PUSH2 0x7AE SWAP1 PUSH2 0xE20 JUMP JUMPDEST DUP1 ISZERO PUSH2 0x7F9 JUMPI DUP1 PUSH1 0x1F LT PUSH2 0x7D0 JUMPI PUSH2 0x100 DUP1 DUP4 SLOAD DIV MUL DUP4 MSTORE SWAP2 PUSH1 0x20 ADD SWAP2 PUSH2 0x7F9 JUMP JUMPDEST DUP3 ADD SWAP2 SWAP1 PUSH0 MSTORE PUSH1 0x20 PUSH0 KECCAK256 SWAP1 JUMPDEST DUP2 SLOAD DUP2 MSTORE SWAP1 PUSH1 0x1 ADD SWAP1 PUSH1 0x20 ADD DUP1 DUP4 GT PUSH2 0x7DC JUMPI DUP3 SWAP1 SUB PUSH1 0x1F AND DUP3 ADD SWAP2 JUMPDEST POP POP POP POP POP DUP2 MSTORE PUSH1 0x20 ADD PUSH1 0x2 DUP3 ADD PUSH0 SWAP1 SLOAD SWAP1 PUSH2 0x100 EXP SWAP1 DIV PUSH20 0xFFFFFFFFFFFFFFFFFFFFFFFFFFFFFFFFFFFFFFFF AND PUSH20 0xFFFFFFFFFFFFFFFFFFFFFFFFFFFFFFFFFFFFFFFF AND PUSH20 0xFFFFFFFFFFFFFFFFFFFFFFFFFFFFFFFFFFFFFFFF AND DUP2 MSTORE POP POP SWAP1 POP DUP3 PUSH20 0xFFFFFFFFFFFFFFFFFFFFFFFFFFFFFFFFFFFFFFFF AND DUP2 PUSH1 0x40 ADD MLOAD PUSH20 0xFFFFFFFFFFFFFFFFFFFFFFFFFFFFFFFFFFFFFFFF AND EQ PUSH2 0x8CB JUMPI PUSH1 0x40 MLOAD PUSH32 0x8C379A000000000000000000000000000000000000000000000000000000000 DUP2 MSTORE PUSH1 0x4 ADD PUSH2 0x8C2 SWAP1 PUSH2 0x1247 JUMP JUMPDEST PUSH1 0x40 MLOAD DUP1 SWAP2 SUB SWAP1 REVERT JUMPDEST DUP1 SWAP2 POP POP SWAP3 SWAP2 POP POP JUMP JUMPDEST PUSH1 0x40 MLOAD DUP1 PUSH1 0x60 ADD PUSH1 0x40 MSTORE DUP1 PUSH1 0x60 DUP2 MSTORE PUSH1 0x20 ADD PUSH1 0x60 DUP2 MSTORE PUSH1 0x20 ADD PUSH0 PUSH20 0xFFFFFFFFFFFFFFFFFFFFFFFFFFFFFFFFFFFFFFFF AND DUP2 MSTORE POP SWAP1 JUMP JUMPDEST PUSH0 PUSH1 0x40 MLOAD SWAP1 POP SWAP1 JUMP JUMPDEST PUSH0 DUP1 REVERT JUMPDEST PUSH0 DUP1 REVERT JUMPDEST PUSH0 DUP1 REVERT JUMPDEST PUSH0 DUP1 REVERT JUMPDEST PUSH0 PUSH1 0x1F NOT PUSH1 0x1F DUP4 ADD AND SWAP1 POP SWAP2 SWAP1 POP JUMP JUMPDEST PUSH32 0x4E487B7100000000000000000000000000000000000000000000000000000000 PUSH0 MSTORE PUSH1 0x41 PUSH1 0x4 MSTORE PUSH1 0x24 PUSH0 REVERT JUMPDEST PUSH2 0x96A DUP3 PUSH2 0x924 JUMP JUMPDEST DUP2 ADD DUP2 DUP2 LT PUSH8 0xFFFFFFFFFFFFFFFF DUP3 GT OR ISZERO PUSH2 0x989 JUMPI PUSH2 0x988 PUSH2 0x934 JUMP JUMPDEST JUMPDEST DUP1 PUSH1 0x40 MSTORE POP POP POP JUMP JUMPDEST PUSH0 PUSH2 0x99B PUSH2 0x90B JUMP JUMPDEST SWAP1 POP PUSH2 0x9A7 DUP3 DUP3 PUSH2 0x961 JUMP JUMPDEST SWAP2 SWAP1 POP JUMP JUMPDEST PUSH0 PUSH8 0xFFFFFFFFFFFFFFFF DUP3 GT ISZERO PUSH2 0x9C6 JUMPI PUSH2 0x9C5 PUSH2 0x934 JUMP JUMPDEST JUMPDEST PUSH2 0x9CF DUP3 PUSH2 0x924 JUMP JUMPDEST SWAP1 POP PUSH1 0x20 DUP2 ADD SWAP1 POP SWAP2 SWAP1 POP JUMP JUMPDEST DUP3 DUP2 DUP4 CALLDATACOPY PUSH0 DUP4 DUP4 ADD MSTORE POP POP POP JUMP JUMPDEST PUSH0 PUSH2 0x9FC PUSH2 0x9F7 DUP5 PUSH2 0x9AC JUMP JUMPDEST PUSH2 0x992 JUMP JUMPDEST SWAP1 POP DUP3 DUP2 MSTORE PUSH1 0x20 DUP2 ADD DUP5 DUP5 DUP5 ADD GT ISZERO PUSH2 0xA18 JUMPI PUSH2 0xA17 PUSH2 0x920 JUMP JUMPDEST JUMPDEST PUSH2 0xA23 DUP5 DUP3 DUP6 PUSH2 0x9DC JUMP JUMPDEST POP SWAP4 SWAP3 POP POP POP JUMP JUMPDEST PUSH0 DUP3 PUSH1 0x1F DUP4 ADD SLT PUSH2 0xA3F JUMPI PUSH2 0xA3E PUSH2 0x91C JUMP JUMPDEST JUMPDEST DUP2 CALLDATALOAD PUSH2 0xA4F DUP5 DUP3 PUSH1 0x20 DUP7 ADD PUSH2 0x9EA JUMP JUMPDEST SWAP2 POP POP SWAP3 SWAP2 POP POP JUMP JUMPDEST PUSH0 PUSH1 0x20 DUP3 DUP5 SUB SLT ISZERO PUSH2 0xA6D JUMPI PUSH2 0xA6C PUSH2 0x914 JUMP JUMPDEST JUMPDEST PUSH0 DUP3 ADD CALLDATALOAD PUSH8 0xFFFFFFFFFFFFFFFF DUP2 GT ISZERO PUSH2 0xA8A JUMPI PUSH2 0xA89 PUSH2 0x918 JUMP JUMPDEST JUMPDEST PUSH2 0xA96 DUP5 DUP3 DUP6 ADD PUSH2 0xA2B JUMP JUMPDEST SWAP2 POP POP SWAP3 SWAP2 POP POP JUMP JUMPDEST PUSH0 PUSH20 0xFFFFFFFFFFFFFFFFFFFFFFFFFFFFFFFFFFFFFFFF DUP3 AND SWAP1 POP SWAP2 SWAP1 POP JUMP JUMPDEST PUSH0 PUSH2 0xAC8 DUP3 PUSH2 0xA9F JUMP JUMPDEST SWAP1 POP SWAP2 SWAP1 POP JUMP JUMPDEST PUSH2 0xAD8 DUP2 PUSH2 0xABE JUMP JUMPDEST DUP2 EQ PUSH2 0xAE2 JUMPI PUSH0 DUP1 REVERT JUMPDEST POP JUMP JUMPDEST PUSH0 DUP2 CALLDATALOAD SWAP1 POP PUSH2 0xAF3 DUP2 PUSH2 0xACF JUMP JUMPDEST SWAP3 SWAP2 POP POP JUMP JUMPDEST PUSH0 PUSH1 0x20 DUP3 DUP5 SUB SLT ISZERO PUSH2 0xB0E JUMPI PUSH2 0xB0D PUSH2 0x914 JUMP JUMPDEST JUMPDEST PUSH0 PUSH2 0xB1B DUP5 DUP3 DUP6 ADD PUSH2 0xAE5 JUMP JUMPDEST SWAP2 POP POP SWAP3 SWAP2 POP POP JUMP JUMPDEST PUSH0 DUP2 MLOAD SWAP1 POP SWAP2 SWAP1 POP JUMP JUMPDEST PUSH0 DUP3 DUP3 MSTORE PUSH1 0x20 DUP3 ADD SWAP1 POP SWAP3 SWAP2 POP POP JUMP JUMPDEST DUP3 DUP2 DUP4 MCOPY PUSH0 DUP4 DUP4 ADD MSTORE POP POP POP JUMP JUMPDEST PUSH0 PUSH2 0xB56 DUP3 PUSH2 0xB24 JUMP JUMPDEST PUSH2 0xB60 DUP2 DUP6 PUSH2 0xB2E JUMP JUMPDEST SWAP4 POP PUSH2 0xB70 DUP2 DUP6 PUSH1 0x20 DUP7 ADD PUSH2 0xB3E JUMP JUMPDEST PUSH2 0xB79 DUP2 PUSH2 0x924 JUMP JUMPDEST DUP5 ADD SWAP2 POP POP SWAP3 SWAP2 POP POP JUMP JUMPDEST PUSH0 PUSH1 0x20 DUP3 ADD SWAP1 POP DUP2 DUP2 SUB PUSH0 DUP4 ADD MSTORE PUSH2 0xB9C DUP2 DUP5 PUSH2 0xB4C JUMP JUMPDEST SWAP1 POP SWAP3 SWAP2 POP POP JUMP JUMPDEST PUSH2 0xBAD DUP2 PUSH2 0xABE JUMP JUMPDEST DUP3 MSTORE POP POP JUMP JUMPDEST PUSH0 PUSH1 0x60 DUP3 ADD SWAP1 POP DUP2 DUP2 SUB PUSH0 DUP4 ADD MSTORE PUSH2 0xBCB DUP2 DUP7 PUSH2 0xB4C JUMP JUMPDEST SWAP1 POP DUP2 DUP2 SUB PUSH1 0x20 DUP4 ADD MSTORE PUSH2 0xBDF DUP2 DUP6 PUSH2 0xB4C JUMP JUMPDEST SWAP1 POP PUSH2 0xBEE PUSH1 0x40 DUP4 ADD DUP5 PUSH2 0xBA4 JUMP JUMPDEST SWAP5 SWAP4 POP POP POP POP JUMP JUMPDEST PUSH0 DUP1 PUSH0 PUSH1 0x60 DUP5 DUP7 SUB SLT ISZERO PUSH2 0xC0D JUMPI PUSH2 0xC0C PUSH2 0x914 JUMP JUMPDEST JUMPDEST PUSH0 DUP5 ADD CALLDATALOAD PUSH8 0xFFFFFFFFFFFFFFFF DUP2 GT ISZERO PUSH2 0xC2A JUMPI PUSH2 0xC29 PUSH2 0x918 JUMP JUMPDEST JUMPDEST PUSH2 0xC36 DUP7 DUP3 DUP8 ADD PUSH2 0xA2B JUMP JUMPDEST SWAP4 POP POP PUSH1 0x20 DUP5 ADD CALLDATALOAD PUSH8 0xFFFFFFFFFFFFFFFF DUP2 GT ISZERO PUSH2 0xC57 JUMPI PUSH2 0xC56 PUSH2 0x918 JUMP JUMPDEST JUMPDEST PUSH2 0xC63 DUP7 DUP3 DUP8 ADD PUSH2 0xA2B JUMP JUMPDEST SWAP3 POP POP PUSH1 0x40 PUSH2 0xC74 DUP7 DUP3 DUP8 ADD PUSH2 0xAE5 JUMP JUMPDEST SWAP2 POP POP SWAP3 POP SWAP3 POP SWAP3 JUMP JUMPDEST PUSH0 DUP1 PUSH1 0x40 DUP4 DUP6 SUB SLT ISZERO PUSH2 0xC94 JUMPI PUSH2 0xC93 PUSH2 0x914 JUMP JUMPDEST JUMPDEST PUSH0 DUP4 ADD CALLDATALOAD PUSH8 0xFFFFFFFFFFFFFFFF DUP2 GT ISZERO PUSH2 0xCB1 JUMPI PUSH2 0xCB0 PUSH2 0x918 JUMP JUMPDEST JUMPDEST PUSH2 0xCBD DUP6 DUP3 DUP7 ADD PUSH2 0xA2B JUMP JUMPDEST SWAP3 POP POP PUSH1 0x20 PUSH2 0xCCE DUP6 DUP3 DUP7 ADD PUSH2 0xAE5 JUMP JUMPDEST SWAP2 POP POP SWAP3 POP SWAP3 SWAP1 POP JUMP JUMPDEST PUSH0 DUP3 DUP3 MSTORE PUSH1 0x20 DUP3 ADD SWAP1 POP SWAP3 SWAP2 POP POP JUMP JUMPDEST PUSH0 PUSH2 0xCF2 DUP3 PUSH2 0xB24 JUMP JUMPDEST PUSH2 0xCFC DUP2 DUP6 PUSH2 0xCD8 JUMP JUMPDEST SWAP4 POP PUSH2 0xD0C DUP2 DUP6 PUSH1 0x20 DUP7 ADD PUSH2 0xB3E JUMP JUMPDEST PUSH2 0xD15 DUP2 PUSH2 0x924 JUMP JUMPDEST DUP5 ADD SWAP2 POP POP SWAP3 SWAP2 POP POP JUMP JUMPDEST PUSH2 0xD29 DUP2 PUSH2 0xABE JUMP JUMPDEST DUP3 MSTORE POP POP JUMP JUMPDEST PUSH0 PUSH1 0x60 DUP4 ADD PUSH0 DUP4 ADD MLOAD DUP5 DUP3 SUB PUSH0 DUP7 ADD MSTORE PUSH2 0xD49 DUP3 DUP3 PUSH2 0xCE8 JUMP JUMPDEST SWAP2 POP POP PUSH1 0x20 DUP4 ADD MLOAD DUP5 DUP3 SUB PUSH1 0x20 DUP7 ADD MSTORE PUSH2 0xD63 DUP3 DUP3 PUSH2 0xCE8 JUMP JUMPDEST SWAP2 POP POP PUSH1 0x40 DUP4 ADD MLOAD PUSH2 0xD78 PUSH1 0x40 DUP7 ADD DUP3 PUSH2 0xD20 JUMP JUMPDEST POP DUP1 SWAP2 POP POP SWAP3 SWAP2 POP POP JUMP JUMPDEST PUSH0 PUSH1 0x20 DUP3 ADD SWAP1 POP DUP2 DUP2 SUB PUSH0 DUP4 ADD MSTORE PUSH2 0xD9B DUP2 DUP5 PUSH2 0xD2F JUMP JUMPDEST SWAP1 POP SWAP3 SWAP2 POP POP JUMP JUMPDEST PUSH0 DUP2 SWAP1 POP SWAP3 SWAP2 POP POP JUMP JUMPDEST PUSH0 PUSH2 0xDB7 DUP3 PUSH2 0xB24 JUMP JUMPDEST PUSH2 0xDC1 DUP2 DUP6 PUSH2 0xDA3 JUMP JUMPDEST SWAP4 POP PUSH2 0xDD1 DUP2 DUP6 PUSH1 0x20 DUP7 ADD PUSH2 0xB3E JUMP JUMPDEST DUP1 DUP5 ADD SWAP2 POP POP SWAP3 SWAP2 POP POP JUMP JUMPDEST PUSH0 PUSH2 0xDE8 DUP3 DUP5 PUSH2 0xDAD JUMP JUMPDEST SWAP2 POP DUP2 SWAP1 POP SWAP3 SWAP2 POP POP JUMP JUMPDEST PUSH32 0x4E487B7100000000000000000000000000000000000000000000000000000000 PUSH0 MSTORE PUSH1 0x22 PUSH1 0x4 MSTORE PUSH1 0x24 PUSH0 REVERT JUMPDEST PUSH0 PUSH1 0x2 DUP3 DIV SWAP1 POP PUSH1 0x1 DUP3 AND DUP1 PUSH2 0xE37 JUMPI PUSH1 0x7F DUP3 AND SWAP2 POP JUMPDEST PUSH1 0x20 DUP3 LT DUP2 SUB PUSH2 0xE4A JUMPI PUSH2 0xE49 PUSH2 0xDF3 JUMP JUMPDEST JUMPDEST POP SWAP2 SWAP1 POP JUMP JUMPDEST PUSH32 0x496E76616C696420757365726E616D6521000000000000000000000000000000 PUSH0 DUP3 ADD MSTORE POP JUMP JUMPDEST PUSH0 PUSH2 0xE84 PUSH1 0x11 DUP4 PUSH2 0xB2E JUMP JUMPDEST SWAP2 POP PUSH2 0xE8F DUP3 PUSH2 0xE50 JUMP JUMPDEST PUSH1 0x20 DUP3 ADD SWAP1 POP SWAP2 SWAP1 POP JUMP JUMPDEST PUSH0 PUSH1 0x20 DUP3 ADD SWAP1 POP DUP2 DUP2 SUB PUSH0 DUP4 ADD MSTORE PUSH2 0xEB1 DUP2 PUSH2 0xE78 JUMP JUMPDEST SWAP1 POP SWAP2 SWAP1 POP JUMP JUMPDEST PUSH32 0x556E61626C6520746F2066696E6420757365726E616D65210000000000000000 PUSH0 DUP3 ADD MSTORE POP JUMP JUMPDEST PUSH0 PUSH2 0xEEC PUSH1 0x18 DUP4 PUSH2 0xB2E JUMP JUMPDEST SWAP2 POP PUSH2 0xEF7 DUP3 PUSH2 0xEB8 JUMP JUMPDEST PUSH1 0x20 DUP3 ADD SWAP1 POP SWAP2 SWAP1 POP JUMP JUMPDEST PUSH0 PUSH1 0x20 DUP3 ADD SWAP1 POP DUP2 DUP2 SUB PUSH0 DUP4 ADD MSTORE PUSH2 0xF19 DUP2 PUSH2 0xEE0 JUMP JUMPDEST SWAP1 POP SWAP2 SWAP1 POP JUMP JUMPDEST PUSH32 0x557365726E616D6520616C726561647920657869737421000000000000000000 PUSH0 DUP3 ADD MSTORE POP JUMP JUMPDEST PUSH0 PUSH2 0xF54 PUSH1 0x17 DUP4 PUSH2 0xB2E JUMP JUMPDEST SWAP2 POP PUSH2 0xF5F DUP3 PUSH2 0xF20 JUMP JUMPDEST PUSH1 0x20 DUP3 ADD SWAP1 POP SWAP2 SWAP1 POP JUMP JUMPDEST PUSH0 PUSH1 0x20 DUP3 ADD SWAP1 POP DUP2 DUP2 SUB PUSH0 DUP4 ADD MSTORE PUSH2 0xF81 DUP2 PUSH2 0xF48 JUMP JUMPDEST SWAP1 POP SWAP2 SWAP1 POP JUMP JUMPDEST PUSH0 DUP2 SWAP1 POP DUP2 PUSH0 MSTORE PUSH1 0x20 PUSH0 KECCAK256 SWAP1 POP SWAP2 SWAP1 POP JUMP JUMPDEST PUSH0 PUSH1 0x20 PUSH1 0x1F DUP4 ADD DIV SWAP1 POP SWAP2 SWAP1 POP JUMP JUMPDEST PUSH0 DUP3 DUP3 SHL SWAP1 POP SWAP3 SWAP2 POP POP JUMP JUMPDEST PUSH0 PUSH1 0x8 DUP4 MUL PUSH2 0xFE4 PUSH32 0xFFFFFFFFFFFFFFFFFFFFFFFFFFFFFFFFFFFFFFFFFFFFFFFFFFFFFFFFFFFFFFFF DUP3 PUSH2 0xFA9 JUMP JUMPDEST PUSH2 0xFEE DUP7 DUP4 PUSH2 0xFA9 JUMP JUMPDEST SWAP6 POP DUP1 NOT DUP5 AND SWAP4 POP DUP1 DUP7 AND DUP5 OR SWAP3 POP POP POP SWAP4 SWAP3 POP POP POP JUMP JUMPDEST PUSH0 DUP2 SWAP1 POP SWAP2 SWAP1 POP JUMP JUMPDEST PUSH0 DUP2 SWAP1 POP SWAP2 SWAP1 POP JUMP JUMPDEST PUSH0 PUSH2 0x1032 PUSH2 0x102D PUSH2 0x1028 DUP5 PUSH2 0x1006 JUMP JUMPDEST PUSH2 0x100F JUMP JUMPDEST PUSH2 0x1006 JUMP JUMPDEST SWAP1 POP SWAP2 SWAP1 POP JUMP JUMPDEST PUSH0 DUP2 SWAP1 POP SWAP2 SWAP1 POP JUMP JUMPDEST PUSH2 0x104B DUP4 PUSH2 0x1018 JUMP JUMPDEST PUSH2 0x105F PUSH2 0x1057 DUP3 PUSH2 0x1039 JUMP JUMPDEST DUP5 DUP5 SLOAD PUSH2 0xFB5 JUMP JUMPDEST DUP3 SSTORE POP POP POP POP JUMP JUMPDEST PUSH0 SWAP1 JUMP JUMPDEST PUSH2 0x1073 PUSH2 0x1067 JUMP JUMPDEST PUSH2 0x107E DUP2 DUP5 DUP5 PUSH2 0x1042 JUMP JUMPDEST POP POP POP JUMP JUMPDEST JUMPDEST DUP2 DUP2 LT ISZERO PUSH2 0x10A1 JUMPI PUSH2 0x1096 PUSH0 DUP3 PUSH2 0x106B JUMP JUMPDEST PUSH1 0x1 DUP2 ADD SWAP1 POP PUSH2 0x1084 JUMP JUMPDEST POP POP JUMP JUMPDEST PUSH1 0x1F DUP3 GT ISZERO PUSH2 0x10E6 JUMPI PUSH2 0x10B7 DUP2 PUSH2 0xF88 JUMP JUMPDEST PUSH2 0x10C0 DUP5 PUSH2 0xF9A JUMP JUMPDEST DUP2 ADD PUSH1 0x20 DUP6 LT ISZERO PUSH2 0x10CF JUMPI DUP2 SWAP1 POP JUMPDEST PUSH2 0x10E3 PUSH2 0x10DB DUP6 PUSH2 0xF9A JUMP JUMPDEST DUP4 ADD DUP3 PUSH2 0x1083 JUMP JUMPDEST POP POP JUMPDEST POP POP POP JUMP JUMPDEST PUSH0 DUP3 DUP3 SHR SWAP1 POP SWAP3 SWAP2 POP POP JUMP JUMPDEST PUSH0 PUSH2 0x1106 PUSH0 NOT DUP5 PUSH1 0x8 MUL PUSH2 0x10EB JUMP JUMPDEST NOT DUP1 DUP4 AND SWAP2 POP POP SWAP3 SWAP2 POP POP JUMP JUMPDEST PUSH0 PUSH2 0x111E DUP4 DUP4 PUSH2 0x10F7 JUMP JUMPDEST SWAP2 POP DUP3 PUSH1 0x2 MUL DUP3 OR SWAP1 POP SWAP3 SWAP2 POP POP JUMP JUMPDEST PUSH2 0x1137 DUP3 PUSH2 0xB24 JUMP JUMPDEST PUSH8 0xFFFFFFFFFFFFFFFF DUP2 GT ISZERO PUSH2 0x1150 JUMPI PUSH2 0x114F PUSH2 0x934 JUMP JUMPDEST JUMPDEST PUSH2 0x115A DUP3 SLOAD PUSH2 0xE20 JUMP JUMPDEST PUSH2 0x1165 DUP3 DUP3 DUP6 PUSH2 0x10A5 JUMP JUMPDEST PUSH0 PUSH1 0x20 SWAP1 POP PUSH1 0x1F DUP4 GT PUSH1 0x1 DUP2 EQ PUSH2 0x1196 JUMPI PUSH0 DUP5 ISZERO PUSH2 0x1184 JUMPI DUP3 DUP8 ADD MLOAD SWAP1 POP JUMPDEST PUSH2 0x118E DUP6 DUP3 PUSH2 0x1113 JUMP JUMPDEST DUP7 SSTORE POP PUSH2 0x11F5 JUMP JUMPDEST PUSH1 0x1F NOT DUP5 AND PUSH2 0x11A4 DUP7 PUSH2 0xF88 JUMP JUMPDEST PUSH0 JUMPDEST DUP3 DUP2 LT ISZERO PUSH2 0x11CB JUMPI DUP5 DUP10 ADD MLOAD DUP3 SSTORE PUSH1 0x1 DUP3 ADD SWAP2 POP PUSH1 0x20 DUP6 ADD SWAP5 POP PUSH1 0x20 DUP2 ADD SWAP1 POP PUSH2 0x11A6 JUMP JUMPDEST DUP7 DUP4 LT ISZERO PUSH2 0x11E8 JUMPI DUP5 DUP10 ADD MLOAD PUSH2 0x11E4 PUSH1 0x1F DUP10 AND DUP3 PUSH2 0x10F7 JUMP JUMPDEST DUP4 SSTORE POP JUMPDEST PUSH1 0x1 PUSH1 0x2 DUP9 MUL ADD DUP9 SSTORE POP POP POP JUMPDEST POP POP POP POP POP POP JUMP JUMPDEST PUSH32 0x496E76616C69642077616C6C6574206164647265737321000000000000000000 PUSH0 DUP3 ADD MSTORE POP JUMP JUMPDEST PUSH0 PUSH2 0x1231 PUSH1 0x17 DUP4 PUSH2 0xB2E JUMP JUMPDEST SWAP2 POP PUSH2 0x123C DUP3 PUSH2 0x11FD JUMP JUMPDEST PUSH1 0x20 DUP3 ADD SWAP1 POP SWAP2 SWAP1 POP JUMP JUMPDEST PUSH0 PUSH1 0x20 DUP3 ADD SWAP1 POP DUP2 DUP2 SUB PUSH0 DUP4 ADD MSTORE PUSH2 0x125E DUP2 PUSH2 0x1225 JUMP JUMPDEST SWAP1 POP SWAP2 SWAP1 POP JUMP INVALID LOG2 PUSH5 0x6970667358 0x22 SLT KECCAK256 DUP14 0xC9 0x4D 0xB6 0xE7 0xD4 0x22 CALL 0xD1 0xB5 0x1E CODECOPY 0xC3 0xC0 0xAA 0xEF 0xBA PUSH13 0xD21A9687E169BD06C10CF1A64F CALLER PUSH5 0x736F6C6343 STOP ADDMOD NOT STOP CALLER "
				},
				"gasEstimates": {
					"creation": {
						"codeDepositCost": "952600",
						"executionCost": "986",
						"totalCost": "953586"
					},
					"external": {
						"getCurrentUserName(address)": "infinite",
						"login(string,address)": "infinite",
						"registerUser(string,string,address)": "infinite",
						"userExist(string)": "infinite",
						"userNames(address)": "infinite",
						"users(string)": "infinite"
					}
				},
				"methodIdentifiers": {
					"getCurrentUserName(address)": "1c6a0254",
					"login(string,address)": "ef9b432a",
					"registerUser(string,string,address)": "88557b07",
					"userExist(string)": "1b81e2d2",
					"userNames(address)": "7f281635",
					"users(string)": "689e1c03"
				}
			},
			"storageLayout": {
				"storage": [
					{
						"astId": 378,
						"contract": "contracts/TccUser.sol:TccUser",
						"label": "users",
						"offset": 0,
						"slot": "0",
						"type": "t_mapping(t_string_memory_ptr,t_struct(User)373_storage)"
					},
					{
						"astId": 382,
						"contract": "contracts/TccUser.sol:TccUser",
						"label": "userNames",
						"offset": 0,
						"slot": "1",
						"type": "t_mapping(t_address,t_string_storage)"
					}
				],
				"types": {
					"t_address": {
						"encoding": "inplace",
						"label": "address",
						"numberOfBytes": "20"
					},
					"t_mapping(t_address,t_string_storage)": {
						"encoding": "mapping",
						"key": "t_address",
						"label": "mapping(address => string)",
						"numberOfBytes": "32",
						"value": "t_string_storage"
					},
					"t_mapping(t_string_memory_ptr,t_struct(User)373_storage)": {
						"encoding": "mapping",
						"key": "t_string_memory_ptr",
						"label": "mapping(string => struct TccUser.User)",
						"numberOfBytes": "32",
						"value": "t_struct(User)373_storage"
					},
					"t_string_memory_ptr": {
						"encoding": "bytes",
						"label": "string",
						"numberOfBytes": "32"
					},
					"t_string_storage": {
						"encoding": "bytes",
						"label": "string",
						"numberOfBytes": "32"
					},
					"t_struct(User)373_storage": {
						"encoding": "inplace",
						"label": "struct TccUser.User",
						"members": [
							{
								"astId": 368,
								"contract": "contracts/TccUser.sol:TccUser",
								"label": "username",
								"offset": 0,
								"slot": "0",
								"type": "t_string_storage"
							},
							{
								"astId": 370,
								"contract": "contracts/TccUser.sol:TccUser",
								"label": "fullname",
								"offset": 0,
								"slot": "1",
								"type": "t_string_storage"
							},
							{
								"astId": 372,
								"contract": "contracts/TccUser.sol:TccUser",
								"label": "walletAddress",
								"offset": 0,
								"slot": "2",
								"type": "t_address"
							}
						],
						"numberOfBytes": "96"
					}
				}
			},
			"userdoc": {
				"kind": "user",
				"methods": {},
				"version": 1
			}
		}
	}
}