{
	"contracts/TCCFORUM.sol": {
		"TCCFORUM": {
			"abi": [
				{
					"inputs": [],
					"stateMutability": "nonpayable",
					"type": "constructor"
				},
				{
					"inputs": [],
					"name": "admin",
					"outputs": [
						{
							"internalType": "address",
							"name": "",
							"type": "address"
						}
					],
					"stateMutability": "view",
					"type": "function"
				},
				{
					"inputs": [
						{
							"internalType": "string",
							"name": "userName",
							"type": "string"
						},
						{
							"internalType": "string",
							"name": "fullName",
							"type": "string"
						}
					],
					"name": "createUser",
					"outputs": [],
					"stateMutability": "nonpayable",
					"type": "function"
				},
				{
					"inputs": [
						{
							"internalType": "uint256",
							"name": "index",
							"type": "uint256"
						}
					],
					"name": "deleteUser",
					"outputs": [],
					"stateMutability": "nonpayable",
					"type": "function"
				},
				{
					"inputs": [
						{
							"internalType": "string",
							"name": "userName",
							"type": "string"
						}
					],
					"name": "findUser",
					"outputs": [
						{
							"internalType": "string",
							"name": "",
							"type": "string"
						},
						{
							"internalType": "string",
							"name": "",
							"type": "string"
						}
					],
					"stateMutability": "view",
					"type": "function"
				},
				{
					"inputs": [],
					"name": "getUsers",
					"outputs": [
						{
							"components": [
								{
									"internalType": "string",
									"name": "userName",
									"type": "string"
								},
								{
									"internalType": "string",
									"name": "fullName",
									"type": "string"
								}
							],
							"internalType": "struct TCCFORUM.User[]",
							"name": "",
							"type": "tuple[]"
						}
					],
					"stateMutability": "view",
					"type": "function"
				},
				{
					"inputs": [
						{
							"internalType": "uint256",
							"name": "index",
							"type": "uint256"
						},
						{
							"internalType": "string",
							"name": "fullName",
							"type": "string"
						}
					],
					"name": "updateUserName",
					"outputs": [],
					"stateMutability": "nonpayable",
					"type": "function"
				},
				{
					"inputs": [
						{
							"internalType": "uint256",
							"name": "",
							"type": "uint256"
						}
					],
					"name": "users",
					"outputs": [
						{
							"internalType": "string",
							"name": "userName",
							"type": "string"
						},
						{
							"internalType": "string",
							"name": "fullName",
							"type": "string"
						}
					],
					"stateMutability": "view",
					"type": "function"
				}
			],
			"devdoc": {
				"kind": "dev",
				"methods": {},
				"version": 1
			},
			"evm": {
				"assembly": "    /* \"contracts/TCCFORUM.sol\":140:1735  contract TCCFORUM {... */\n  mstore(0x40, 0x80)\n    /* \"contracts/TCCFORUM.sol\":330:331  0 */\n  0x00\n    /* \"contracts/TCCFORUM.sol\":314:331  uint256 count = 0 */\n  0x02\n  sstore\n    /* \"contracts/TCCFORUM.sol\":338:387  constructor() {... */\n  callvalue\n  dup1\n  iszero\n  tag_1\n  jumpi\n  0x00\n  dup1\n  revert\ntag_1:\n  pop\n    /* \"contracts/TCCFORUM.sol\":370:380  msg.sender */\n  caller\n    /* \"contracts/TCCFORUM.sol\":362:367  admin */\n  0x00\n  dup1\n    /* \"contracts/TCCFORUM.sol\":362:380  admin = msg.sender */\n  0x0100\n  exp\n  dup2\n  sload\n  dup2\n  0xffffffffffffffffffffffffffffffffffffffff\n  mul\n  not\n  and\n  swap1\n  dup4\n  0xffffffffffffffffffffffffffffffffffffffff\n  and\n  mul\n  or\n  swap1\n  sstore\n  pop\n    /* \"contracts/TCCFORUM.sol\":140:1735  contract TCCFORUM {... */\n  dataSize(sub_0)\n  dup1\n  dataOffset(sub_0)\n  0x00\n  codecopy\n  0x00\n  return\nstop\n\nsub_0: assembly {\n        /* \"contracts/TCCFORUM.sol\":140:1735  contract TCCFORUM {... */\n      mstore(0x40, 0x80)\n      callvalue\n      dup1\n      iszero\n      tag_1\n      jumpi\n      0x00\n      dup1\n      revert\n    tag_1:\n      pop\n      jumpi(tag_2, lt(calldatasize, 0x04))\n      shr(0xe0, calldataload(0x00))\n      dup1\n      0x38f14845\n      gt\n      tag_10\n      jumpi\n      dup1\n      0x38f14845\n      eq\n      tag_6\n      jumpi\n      dup1\n      0x87b162b5\n      eq\n      tag_7\n      jumpi\n      dup1\n      0xa1c57ee6\n      eq\n      tag_8\n      jumpi\n      dup1\n      0xf851a440\n      eq\n      tag_9\n      jumpi\n      jump(tag_2)\n    tag_10:\n      dup1\n      0xce8e3e\n      eq\n      tag_3\n      jumpi\n      dup1\n      0x2006b1c2\n      eq\n      tag_4\n      jumpi\n      dup1\n      0x365b98b2\n      eq\n      tag_5\n      jumpi\n    tag_2:\n      0x00\n      dup1\n      revert\n        /* \"contracts/TCCFORUM.sol\":1438:1733  function getUsers() public view returns (User[] memory) {... */\n    tag_3:\n      tag_11\n      tag_12\n      jump\t// in\n    tag_11:\n      mload(0x40)\n      tag_13\n      swap2\n      swap1\n      tag_14\n      jump\t// in\n    tag_13:\n      mload(0x40)\n      dup1\n      swap2\n      sub\n      swap1\n      return\n        /* \"contracts/TCCFORUM.sol\":734:1223  function findUser(... */\n    tag_4:\n      tag_15\n      0x04\n      dup1\n      calldatasize\n      sub\n      dup2\n      add\n      swap1\n      tag_16\n      swap2\n      swap1\n      tag_17\n      jump\t// in\n    tag_16:\n      tag_18\n      jump\t// in\n    tag_15:\n      mload(0x40)\n      tag_19\n      swap3\n      swap2\n      swap1\n      tag_20\n      jump\t// in\n    tag_19:\n      mload(0x40)\n      dup1\n      swap2\n      sub\n      swap1\n      return\n        /* \"contracts/TCCFORUM.sol\":266:303  mapping(uint256 => User) public users */\n    tag_5:\n      tag_21\n      0x04\n      dup1\n      calldatasize\n      sub\n      dup2\n      add\n      swap1\n      tag_22\n      swap2\n      swap1\n      tag_23\n      jump\t// in\n    tag_22:\n      tag_24\n      jump\t// in\n    tag_21:\n      mload(0x40)\n      tag_25\n      swap3\n      swap2\n      swap1\n      tag_20\n      jump\t// in\n    tag_25:\n      mload(0x40)\n      dup1\n      swap2\n      sub\n      swap1\n      return\n        /* \"contracts/TCCFORUM.sol\":1229:1307  function deleteUser(uint256 index) public {... */\n    tag_6:\n      tag_26\n      0x04\n      dup1\n      calldatasize\n      sub\n      dup2\n      add\n      swap1\n      tag_27\n      swap2\n      swap1\n      tag_23\n      jump\t// in\n    tag_27:\n      tag_28\n      jump\t// in\n    tag_26:\n      stop\n        /* \"contracts/TCCFORUM.sol\":569:728  function createUser(string memory userName, string memory fullName) isAdmin public {... */\n    tag_7:\n      tag_29\n      0x04\n      dup1\n      calldatasize\n      sub\n      dup2\n      add\n      swap1\n      tag_30\n      swap2\n      swap1\n      tag_31\n      jump\t// in\n    tag_30:\n      tag_32\n      jump\t// in\n    tag_29:\n      stop\n        /* \"contracts/TCCFORUM.sol\":1313:1432  function updateUserName(uint256 index, string memory fullName) public {... */\n    tag_8:\n      tag_33\n      0x04\n      dup1\n      calldatasize\n      sub\n      dup2\n      add\n      swap1\n      tag_34\n      swap2\n      swap1\n      tag_35\n      jump\t// in\n    tag_34:\n      tag_36\n      jump\t// in\n    tag_33:\n      stop\n        /* \"contracts/TCCFORUM.sol\":164:184  address public admin */\n    tag_9:\n      tag_37\n      tag_38\n      jump\t// in\n    tag_37:\n      mload(0x40)\n      tag_39\n      swap2\n      swap1\n      tag_40\n      jump\t// in\n    tag_39:\n      mload(0x40)\n      dup1\n      swap2\n      sub\n      swap1\n      return\n        /* \"contracts/TCCFORUM.sol\":1438:1733  function getUsers() public view returns (User[] memory) {... */\n    tag_12:\n        /* \"contracts/TCCFORUM.sol\":1479:1492  User[] memory */\n      0x60\n        /* \"contracts/TCCFORUM.sol\":1532:1554  User[] memory userList */\n      0x00\n        /* \"contracts/TCCFORUM.sol\":1568:1573  count */\n      sload(0x02)\n        /* \"contracts/TCCFORUM.sol\":1557:1574  new User[](count) */\n      0xffffffffffffffff\n      dup2\n      gt\n      iszero\n      tag_42\n      jumpi\n      tag_43\n      tag_44\n      jump\t// in\n    tag_43:\n    tag_42:\n      mload(0x40)\n      swap1\n      dup1\n      dup3\n      mstore\n      dup1\n      0x20\n      mul\n      0x20\n      add\n      dup3\n      add\n      0x40\n      mstore\n      dup1\n      iszero\n      tag_45\n      jumpi\n      dup2\n      0x20\n      add\n    tag_46:\n      tag_47\n      tag_48\n      jump\t// in\n    tag_47:\n      dup2\n      mstore\n      0x20\n      add\n      swap1\n      0x01\n      swap1\n      sub\n      swap1\n      dup2\n      tag_46\n      jumpi\n      swap1\n      pop\n    tag_45:\n      pop\n        /* \"contracts/TCCFORUM.sol\":1532:1574  User[] memory userList = new User[](count) */\n      swap1\n      pop\n        /* \"contracts/TCCFORUM.sol\":1589:1605  uint256 newCount */\n      0x00\n        /* \"contracts/TCCFORUM.sol\":1584:1702  for (uint256 newCount = 0; newCount < count; newCount++) {... */\n    tag_49:\n        /* \"contracts/TCCFORUM.sol\":1622:1627  count */\n      sload(0x02)\n        /* \"contracts/TCCFORUM.sol\":1611:1619  newCount */\n      dup2\n        /* \"contracts/TCCFORUM.sol\":1611:1627  newCount < count */\n      lt\n        /* \"contracts/TCCFORUM.sol\":1584:1702  for (uint256 newCount = 0; newCount < count; newCount++) {... */\n      iszero\n      tag_50\n      jumpi\n        /* \"contracts/TCCFORUM.sol\":1676:1681  users */\n      0x01\n        /* \"contracts/TCCFORUM.sol\":1676:1691  users[newCount] */\n      0x00\n        /* \"contracts/TCCFORUM.sol\":1682:1690  newCount */\n      dup3\n        /* \"contracts/TCCFORUM.sol\":1676:1691  users[newCount] */\n      dup2\n      mstore\n      0x20\n      add\n      swap1\n      dup2\n      mstore\n      0x20\n      add\n      0x00\n      keccak256\n        /* \"contracts/TCCFORUM.sol\":1655:1691  userList[newCount] = users[newCount] */\n      mload(0x40)\n      dup1\n      0x40\n      add\n      0x40\n      mstore\n      swap1\n      dup2\n      0x00\n      dup3\n      add\n      dup1\n      sload\n      tag_52\n      swap1\n      tag_53\n      jump\t// in\n    tag_52:\n      dup1\n      0x1f\n      add\n      0x20\n      dup1\n      swap2\n      div\n      mul\n      0x20\n      add\n      mload(0x40)\n      swap1\n      dup2\n      add\n      0x40\n      mstore\n      dup1\n      swap3\n      swap2\n      swap1\n      dup2\n      dup2\n      mstore\n      0x20\n      add\n      dup3\n      dup1\n      sload\n      tag_54\n      swap1\n      tag_53\n      jump\t// in\n    tag_54:\n      dup1\n      iszero\n      tag_55\n      jumpi\n      dup1\n      0x1f\n      lt\n      tag_56\n      jumpi\n      0x0100\n      dup1\n      dup4\n      sload\n      div\n      mul\n      dup4\n      mstore\n      swap2\n      0x20\n      add\n      swap2\n      jump(tag_55)\n    tag_56:\n      dup3\n      add\n      swap2\n      swap1\n      0x00\n      mstore\n      keccak256(0x00, 0x20)\n      swap1\n    tag_57:\n      dup2\n      sload\n      dup2\n      mstore\n      swap1\n      0x01\n      add\n      swap1\n      0x20\n      add\n      dup1\n      dup4\n      gt\n      tag_57\n      jumpi\n      dup3\n      swap1\n      sub\n      0x1f\n      and\n      dup3\n      add\n      swap2\n    tag_55:\n      pop\n      pop\n      pop\n      pop\n      pop\n      dup2\n      mstore\n      0x20\n      add\n      0x01\n      dup3\n      add\n      dup1\n      sload\n      tag_58\n      swap1\n      tag_53\n      jump\t// in\n    tag_58:\n      dup1\n      0x1f\n      add\n      0x20\n      dup1\n      swap2\n      div\n      mul\n      0x20\n      add\n      mload(0x40)\n      swap1\n      dup2\n      add\n      0x40\n      mstore\n      dup1\n      swap3\n      swap2\n      swap1\n      dup2\n      dup2\n      mstore\n      0x20\n      add\n      dup3\n      dup1\n      sload\n      tag_59\n      swap1\n      tag_53\n      jump\t// in\n    tag_59:\n      dup1\n      iszero\n      tag_60\n      jumpi\n      dup1\n      0x1f\n      lt\n      tag_61\n      jumpi\n      0x0100\n      dup1\n      dup4\n      sload\n      div\n      mul\n      dup4\n      mstore\n      swap2\n      0x20\n      add\n      swap2\n      jump(tag_60)\n    tag_61:\n      dup3\n      add\n      swap2\n      swap1\n      0x00\n      mstore\n      keccak256(0x00, 0x20)\n      swap1\n    tag_62:\n      dup2\n      sload\n      dup2\n      mstore\n      swap1\n      0x01\n      add\n      swap1\n      0x20\n      add\n      dup1\n      dup4\n      gt\n      tag_62\n      jumpi\n      dup3\n      swap1\n      sub\n      0x1f\n      and\n      dup3\n      add\n      swap2\n    tag_60:\n      pop\n      pop\n      pop\n      pop\n      pop\n      dup2\n      mstore\n      pop\n      pop\n        /* \"contracts/TCCFORUM.sol\":1655:1663  userList */\n      dup3\n        /* \"contracts/TCCFORUM.sol\":1664:1672  newCount */\n      dup3\n        /* \"contracts/TCCFORUM.sol\":1655:1673  userList[newCount] */\n      dup2\n      mload\n      dup2\n      lt\n      tag_63\n      jumpi\n      tag_64\n      tag_65\n      jump\t// in\n    tag_64:\n    tag_63:\n      0x20\n      mul\n      0x20\n      add\n      add\n        /* \"contracts/TCCFORUM.sol\":1655:1691  userList[newCount] = users[newCount] */\n      dup2\n      swap1\n      mstore\n      pop\n        /* \"contracts/TCCFORUM.sol\":1629:1639  newCount++ */\n      dup1\n      dup1\n      0x01\n      add\n      swap2\n      pop\n      pop\n        /* \"contracts/TCCFORUM.sol\":1584:1702  for (uint256 newCount = 0; newCount < count; newCount++) {... */\n      jump(tag_49)\n    tag_50:\n      pop\n        /* \"contracts/TCCFORUM.sol\":1718:1726  userList */\n      dup1\n        /* \"contracts/TCCFORUM.sol\":1711:1726  return userList */\n      swap2\n      pop\n      pop\n        /* \"contracts/TCCFORUM.sol\":1438:1733  function getUsers() public view returns (User[] memory) {... */\n      swap1\n      jump\t// out\n        /* \"contracts/TCCFORUM.sol\":734:1223  function findUser(... */\n    tag_18:\n        /* \"contracts/TCCFORUM.sol\":811:824  string memory */\n      0x60\n        /* \"contracts/TCCFORUM.sol\":826:839  string memory */\n      dup1\n        /* \"contracts/TCCFORUM.sol\":856:865  uint256 i */\n      0x00\n        /* \"contracts/TCCFORUM.sol\":851:1169  for (uint256 i = 0; i < count; i++) {... */\n    tag_67:\n        /* \"contracts/TCCFORUM.sol\":875:880  count */\n      sload(0x02)\n        /* \"contracts/TCCFORUM.sol\":871:872  i */\n      dup2\n        /* \"contracts/TCCFORUM.sol\":871:880  i < count */\n      lt\n        /* \"contracts/TCCFORUM.sol\":851:1169  for (uint256 i = 0; i < count; i++) {... */\n      iszero\n      tag_68\n      jumpi\n        /* \"contracts/TCCFORUM.sol\":1015:1023  userName */\n      dup4\n        /* \"contracts/TCCFORUM.sol\":998:1024  abi.encodePacked(userName) */\n      add(0x20, mload(0x40))\n      tag_70\n      swap2\n      swap1\n      tag_71\n      jump\t// in\n    tag_70:\n      mload(0x40)\n      0x20\n      dup2\n      dup4\n      sub\n      sub\n      dup2\n      mstore\n      swap1\n      0x40\n      mstore\n        /* \"contracts/TCCFORUM.sol\":988:1025  keccak256(abi.encodePacked(userName)) */\n      dup1\n      mload\n      swap1\n      0x20\n      add\n      keccak256\n        /* \"contracts/TCCFORUM.sol\":949:954  users */\n      0x01\n        /* \"contracts/TCCFORUM.sol\":949:957  users[i] */\n      0x00\n        /* \"contracts/TCCFORUM.sol\":955:956  i */\n      dup4\n        /* \"contracts/TCCFORUM.sol\":949:957  users[i] */\n      dup2\n      mstore\n      0x20\n      add\n      swap1\n      dup2\n      mstore\n      0x20\n      add\n      0x00\n      keccak256\n        /* \"contracts/TCCFORUM.sol\":949:966  users[i].userName */\n      0x00\n      add\n        /* \"contracts/TCCFORUM.sol\":932:967  abi.encodePacked(users[i].userName) */\n      add(0x20, mload(0x40))\n      tag_72\n      swap2\n      swap1\n      tag_73\n      jump\t// in\n    tag_72:\n      mload(0x40)\n      0x20\n      dup2\n      dup4\n      sub\n      sub\n      dup2\n      mstore\n      swap1\n      0x40\n      mstore\n        /* \"contracts/TCCFORUM.sol\":922:968  keccak256(abi.encodePacked(users[i].userName)) */\n      dup1\n      mload\n      swap1\n      0x20\n      add\n      keccak256\n        /* \"contracts/TCCFORUM.sol\":922:1025  keccak256(abi.encodePacked(users[i].userName)) ==... */\n      sub\n        /* \"contracts/TCCFORUM.sol\":901:1159  if (... */\n      tag_74\n      jumpi\n        /* \"contracts/TCCFORUM.sol\":1107:1112  users */\n      0x01\n        /* \"contracts/TCCFORUM.sol\":1107:1115  users[i] */\n      0x00\n        /* \"contracts/TCCFORUM.sol\":1113:1114  i */\n      dup3\n        /* \"contracts/TCCFORUM.sol\":1107:1115  users[i] */\n      dup2\n      mstore\n      0x20\n      add\n      swap1\n      dup2\n      mstore\n      0x20\n      add\n      0x00\n      keccak256\n        /* \"contracts/TCCFORUM.sol\":1107:1124  users[i].userName */\n      0x00\n      add\n        /* \"contracts/TCCFORUM.sol\":1126:1131  users */\n      0x01\n        /* \"contracts/TCCFORUM.sol\":1126:1134  users[i] */\n      0x00\n        /* \"contracts/TCCFORUM.sol\":1132:1133  i */\n      dup4\n        /* \"contracts/TCCFORUM.sol\":1126:1134  users[i] */\n      dup2\n      mstore\n      0x20\n      add\n      swap1\n      dup2\n      mstore\n      0x20\n      add\n      0x00\n      keccak256\n        /* \"contracts/TCCFORUM.sol\":1126:1143  users[i].fullName */\n      0x01\n      add\n        /* \"contracts/TCCFORUM.sol\":1099:1144  return (users[i].userName, users[i].fullName) */\n      dup2\n      dup1\n      sload\n      tag_75\n      swap1\n      tag_53\n      jump\t// in\n    tag_75:\n      dup1\n      0x1f\n      add\n      0x20\n      dup1\n      swap2\n      div\n      mul\n      0x20\n      add\n      mload(0x40)\n      swap1\n      dup2\n      add\n      0x40\n      mstore\n      dup1\n      swap3\n      swap2\n      swap1\n      dup2\n      dup2\n      mstore\n      0x20\n      add\n      dup3\n      dup1\n      sload\n      tag_76\n      swap1\n      tag_53\n      jump\t// in\n    tag_76:\n      dup1\n      iszero\n      tag_77\n      jumpi\n      dup1\n      0x1f\n      lt\n      tag_78\n      jumpi\n      0x0100\n      dup1\n      dup4\n      sload\n      div\n      mul\n      dup4\n      mstore\n      swap2\n      0x20\n      add\n      swap2\n      jump(tag_77)\n    tag_78:\n      dup3\n      add\n      swap2\n      swap1\n      0x00\n      mstore\n      keccak256(0x00, 0x20)\n      swap1\n    tag_79:\n      dup2\n      sload\n      dup2\n      mstore\n      swap1\n      0x01\n      add\n      swap1\n      0x20\n      add\n      dup1\n      dup4\n      gt\n      tag_79\n      jumpi\n      dup3\n      swap1\n      sub\n      0x1f\n      and\n      dup3\n      add\n      swap2\n    tag_77:\n      pop\n      pop\n      pop\n      pop\n      pop\n      swap2\n      pop\n      dup1\n      dup1\n      sload\n      tag_80\n      swap1\n      tag_53\n      jump\t// in\n    tag_80:\n      dup1\n      0x1f\n      add\n      0x20\n      dup1\n      swap2\n      div\n      mul\n      0x20\n      add\n      mload(0x40)\n      swap1\n      dup2\n      add\n      0x40\n      mstore\n      dup1\n      swap3\n      swap2\n      swap1\n      dup2\n      dup2\n      mstore\n      0x20\n      add\n      dup3\n      dup1\n      sload\n      tag_81\n      swap1\n      tag_53\n      jump\t// in\n    tag_81:\n      dup1\n      iszero\n      tag_82\n      jumpi\n      dup1\n      0x1f\n      lt\n      tag_83\n      jumpi\n      0x0100\n      dup1\n      dup4\n      sload\n      div\n      mul\n      dup4\n      mstore\n      swap2\n      0x20\n      add\n      swap2\n      jump(tag_82)\n    tag_83:\n      dup3\n      add\n      swap2\n      swap1\n      0x00\n      mstore\n      keccak256(0x00, 0x20)\n      swap1\n    tag_84:\n      dup2\n      sload\n      dup2\n      mstore\n      swap1\n      0x01\n      add\n      swap1\n      0x20\n      add\n      dup1\n      dup4\n      gt\n      tag_84\n      jumpi\n      dup3\n      swap1\n      sub\n      0x1f\n      and\n      dup3\n      add\n      swap2\n    tag_82:\n      pop\n      pop\n      pop\n      pop\n      pop\n      swap1\n      pop\n      swap3\n      pop\n      swap3\n      pop\n      pop\n      jump(tag_66)\n        /* \"contracts/TCCFORUM.sol\":901:1159  if (... */\n    tag_74:\n        /* \"contracts/TCCFORUM.sol\":882:885  i++ */\n      dup1\n      dup1\n      0x01\n      add\n      swap2\n      pop\n      pop\n        /* \"contracts/TCCFORUM.sol\":851:1169  for (uint256 i = 0; i < count; i++) {... */\n      jump(tag_67)\n    tag_68:\n      pop\n        /* \"contracts/TCCFORUM.sol\":1186:1191  false */\n      0x00\n        /* \"contracts/TCCFORUM.sol\":1178:1216  require(false, \"Unable to find user!\") */\n      tag_85\n      jumpi\n      mload(0x40)\n      0x08c379a000000000000000000000000000000000000000000000000000000000\n      dup2\n      mstore\n      0x04\n      add\n      tag_86\n      swap1\n      tag_87\n      jump\t// in\n    tag_86:\n      mload(0x40)\n      dup1\n      swap2\n      sub\n      swap1\n      revert\n    tag_85:\n        /* \"contracts/TCCFORUM.sol\":734:1223  function findUser(... */\n    tag_66:\n      swap2\n      pop\n      swap2\n      jump\t// out\n        /* \"contracts/TCCFORUM.sol\":266:303  mapping(uint256 => User) public users */\n    tag_24:\n      mstore(0x20, 0x01)\n      dup1\n      0x00\n      mstore\n      keccak256(0x00, 0x40)\n      0x00\n      swap2\n      pop\n      swap1\n      pop\n      dup1\n      0x00\n      add\n      dup1\n      sload\n      tag_88\n      swap1\n      tag_53\n      jump\t// in\n    tag_88:\n      dup1\n      0x1f\n      add\n      0x20\n      dup1\n      swap2\n      div\n      mul\n      0x20\n      add\n      mload(0x40)\n      swap1\n      dup2\n      add\n      0x40\n      mstore\n      dup1\n      swap3\n      swap2\n      swap1\n      dup2\n      dup2\n      mstore\n      0x20\n      add\n      dup3\n      dup1\n      sload\n      tag_89\n      swap1\n      tag_53\n      jump\t// in\n    tag_89:\n      dup1\n      iszero\n      tag_90\n      jumpi\n      dup1\n      0x1f\n      lt\n      tag_91\n      jumpi\n      0x0100\n      dup1\n      dup4\n      sload\n      div\n      mul\n      dup4\n      mstore\n      swap2\n      0x20\n      add\n      swap2\n      jump(tag_90)\n    tag_91:\n      dup3\n      add\n      swap2\n      swap1\n      0x00\n      mstore\n      keccak256(0x00, 0x20)\n      swap1\n    tag_92:\n      dup2\n      sload\n      dup2\n      mstore\n      swap1\n      0x01\n      add\n      swap1\n      0x20\n      add\n      dup1\n      dup4\n      gt\n      tag_92\n      jumpi\n      dup3\n      swap1\n      sub\n      0x1f\n      and\n      dup3\n      add\n      swap2\n    tag_90:\n      pop\n      pop\n      pop\n      pop\n      pop\n      swap1\n      dup1\n      0x01\n      add\n      dup1\n      sload\n      tag_93\n      swap1\n      tag_53\n      jump\t// in\n    tag_93:\n      dup1\n      0x1f\n      add\n      0x20\n      dup1\n      swap2\n      div\n      mul\n      0x20\n      add\n      mload(0x40)\n      swap1\n      dup2\n      add\n      0x40\n      mstore\n      dup1\n      swap3\n      swap2\n      swap1\n      dup2\n      dup2\n      mstore\n      0x20\n      add\n      dup3\n      dup1\n      sload\n      tag_94\n      swap1\n      tag_53\n      jump\t// in\n    tag_94:\n      dup1\n      iszero\n      tag_95\n      jumpi\n      dup1\n      0x1f\n      lt\n      tag_96\n      jumpi\n      0x0100\n      dup1\n      dup4\n      sload\n      div\n      mul\n      dup4\n      mstore\n      swap2\n      0x20\n      add\n      swap2\n      jump(tag_95)\n    tag_96:\n      dup3\n      add\n      swap2\n      swap1\n      0x00\n      mstore\n      keccak256(0x00, 0x20)\n      swap1\n    tag_97:\n      dup2\n      sload\n      dup2\n      mstore\n      swap1\n      0x01\n      add\n      swap1\n      0x20\n      add\n      dup1\n      dup4\n      gt\n      tag_97\n      jumpi\n      dup3\n      swap1\n      sub\n      0x1f\n      and\n      dup3\n      add\n      swap2\n    tag_95:\n      pop\n      pop\n      pop\n      pop\n      pop\n      swap1\n      pop\n      dup3\n      jump\t// out\n        /* \"contracts/TCCFORUM.sol\":1229:1307  function deleteUser(uint256 index) public {... */\n    tag_28:\n        /* \"contracts/TCCFORUM.sol\":1288:1293  users */\n      0x01\n        /* \"contracts/TCCFORUM.sol\":1288:1300  users[index] */\n      0x00\n        /* \"contracts/TCCFORUM.sol\":1294:1299  index */\n      dup3\n        /* \"contracts/TCCFORUM.sol\":1288:1300  users[index] */\n      dup2\n      mstore\n      0x20\n      add\n      swap1\n      dup2\n      mstore\n      0x20\n      add\n      0x00\n      keccak256\n      0x00\n        /* \"contracts/TCCFORUM.sol\":1281:1300  delete users[index] */\n      dup1\n      dup3\n      add\n      0x00\n      tag_99\n      swap2\n      swap1\n      tag_100\n      jump\t// in\n    tag_99:\n      0x01\n      dup3\n      add\n      0x00\n      tag_101\n      swap2\n      swap1\n      tag_100\n      jump\t// in\n    tag_101:\n      pop\n      pop\n        /* \"contracts/TCCFORUM.sol\":1229:1307  function deleteUser(uint256 index) public {... */\n      pop\n      jump\t// out\n        /* \"contracts/TCCFORUM.sol\":569:728  function createUser(string memory userName, string memory fullName) isAdmin public {... */\n    tag_32:\n        /* \"contracts/TCCFORUM.sol\":511:516  admin */\n      0x00\n      dup1\n      sload\n      swap1\n      0x0100\n      exp\n      swap1\n      div\n      0xffffffffffffffffffffffffffffffffffffffff\n      and\n        /* \"contracts/TCCFORUM.sol\":499:516  msg.sender==admin */\n      0xffffffffffffffffffffffffffffffffffffffff\n      and\n        /* \"contracts/TCCFORUM.sol\":499:509  msg.sender */\n      caller\n        /* \"contracts/TCCFORUM.sol\":499:516  msg.sender==admin */\n      0xffffffffffffffffffffffffffffffffffffffff\n      and\n      eq\n        /* \"contracts/TCCFORUM.sol\":491:545  require(msg.sender==admin, \"You need to be an admin!\") */\n      tag_103\n      jumpi\n      mload(0x40)\n      0x08c379a000000000000000000000000000000000000000000000000000000000\n      dup2\n      mstore\n      0x04\n      add\n      tag_104\n      swap1\n      tag_105\n      jump\t// in\n    tag_104:\n      mload(0x40)\n      dup1\n      swap2\n      sub\n      swap1\n      revert\n    tag_103:\n        /* \"contracts/TCCFORUM.sol\":677:701  User(userName, fullName) */\n      mload(0x40)\n      dup1\n      0x40\n      add\n      0x40\n      mstore\n      dup1\n        /* \"contracts/TCCFORUM.sol\":682:690  userName */\n      dup4\n        /* \"contracts/TCCFORUM.sol\":677:701  User(userName, fullName) */\n      dup2\n      mstore\n      0x20\n      add\n        /* \"contracts/TCCFORUM.sol\":692:700  fullName */\n      dup3\n        /* \"contracts/TCCFORUM.sol\":677:701  User(userName, fullName) */\n      dup2\n      mstore\n      pop\n        /* \"contracts/TCCFORUM.sol\":662:667  users */\n      0x01\n        /* \"contracts/TCCFORUM.sol\":662:674  users[count] */\n      0x00\n        /* \"contracts/TCCFORUM.sol\":668:673  count */\n      sload(0x02)\n        /* \"contracts/TCCFORUM.sol\":662:674  users[count] */\n      dup2\n      mstore\n      0x20\n      add\n      swap1\n      dup2\n      mstore\n      0x20\n      add\n      0x00\n      keccak256\n        /* \"contracts/TCCFORUM.sol\":662:701  users[count] = User(userName, fullName) */\n      0x00\n      dup3\n      add\n      mload\n      dup2\n      0x00\n      add\n      swap1\n      dup2\n      tag_107\n      swap2\n      swap1\n      tag_108\n      jump\t// in\n    tag_107:\n      pop\n      0x20\n      dup3\n      add\n      mload\n      dup2\n      0x01\n      add\n      swap1\n      dup2\n      tag_109\n      swap2\n      swap1\n      tag_108\n      jump\t// in\n    tag_109:\n      pop\n      swap1\n      pop\n      pop\n        /* \"contracts/TCCFORUM.sol\":720:721  1 */\n      0x01\n        /* \"contracts/TCCFORUM.sol\":711:716  count */\n      0x02\n      0x00\n        /* \"contracts/TCCFORUM.sol\":711:721  count += 1 */\n      dup3\n      dup3\n      sload\n      tag_110\n      swap2\n      swap1\n      tag_111\n      jump\t// in\n    tag_110:\n      swap3\n      pop\n      pop\n      dup2\n      swap1\n      sstore\n      pop\n        /* \"contracts/TCCFORUM.sol\":569:728  function createUser(string memory userName, string memory fullName) isAdmin public {... */\n      pop\n      pop\n      jump\t// out\n        /* \"contracts/TCCFORUM.sol\":1313:1432  function updateUserName(uint256 index, string memory fullName) public {... */\n    tag_36:\n        /* \"contracts/TCCFORUM.sol\":1417:1425  fullName */\n      dup1\n        /* \"contracts/TCCFORUM.sol\":1393:1398  users */\n      0x01\n        /* \"contracts/TCCFORUM.sol\":1393:1405  users[index] */\n      0x00\n        /* \"contracts/TCCFORUM.sol\":1399:1404  index */\n      dup5\n        /* \"contracts/TCCFORUM.sol\":1393:1405  users[index] */\n      dup2\n      mstore\n      0x20\n      add\n      swap1\n      dup2\n      mstore\n      0x20\n      add\n      0x00\n      keccak256\n        /* \"contracts/TCCFORUM.sol\":1393:1414  users[index].userName */\n      0x00\n      add\n        /* \"contracts/TCCFORUM.sol\":1393:1425  users[index].userName = fullName */\n      swap1\n      dup2\n      tag_113\n      swap2\n      swap1\n      tag_108\n      jump\t// in\n    tag_113:\n      pop\n        /* \"contracts/TCCFORUM.sol\":1313:1432  function updateUserName(uint256 index, string memory fullName) public {... */\n      pop\n      pop\n      jump\t// out\n        /* \"contracts/TCCFORUM.sol\":164:184  address public admin */\n    tag_38:\n      0x00\n      dup1\n      sload\n      swap1\n      0x0100\n      exp\n      swap1\n      div\n      0xffffffffffffffffffffffffffffffffffffffff\n      and\n      dup2\n      jump\t// out\n    tag_48:\n      mload(0x40)\n      dup1\n      0x40\n      add\n      0x40\n      mstore\n      dup1\n      0x60\n      dup2\n      mstore\n      0x20\n      add\n      0x60\n      dup2\n      mstore\n      pop\n      swap1\n      jump\t// out\n    tag_100:\n      pop\n      dup1\n      sload\n      tag_114\n      swap1\n      tag_53\n      jump\t// in\n    tag_114:\n      0x00\n      dup3\n      sstore\n      dup1\n      0x1f\n      lt\n      tag_116\n      jumpi\n      pop\n      jump(tag_115)\n    tag_116:\n      0x1f\n      add\n      0x20\n      swap1\n      div\n      swap1\n      0x00\n      mstore\n      keccak256(0x00, 0x20)\n      swap1\n      dup2\n      add\n      swap1\n      tag_117\n      swap2\n      swap1\n      tag_118\n      jump\t// in\n    tag_117:\n    tag_115:\n      pop\n      jump\t// out\n    tag_118:\n    tag_119:\n      dup1\n      dup3\n      gt\n      iszero\n      tag_120\n      jumpi\n      0x00\n      dup2\n      0x00\n      swap1\n      sstore\n      pop\n      0x01\n      add\n      jump(tag_119)\n    tag_120:\n      pop\n      swap1\n      jump\t// out\n        /* \"#utility.yul\":7:140   */\n    tag_121:\n        /* \"#utility.yul\":93:99   */\n      0x00\n        /* \"#utility.yul\":127:132   */\n      dup2\n        /* \"#utility.yul\":121:133   */\n      mload\n        /* \"#utility.yul\":111:133   */\n      swap1\n      pop\n        /* \"#utility.yul\":7:140   */\n      swap2\n      swap1\n      pop\n      jump\t// out\n        /* \"#utility.yul\":146:349   */\n    tag_122:\n        /* \"#utility.yul\":264:275   */\n      0x00\n        /* \"#utility.yul\":298:304   */\n      dup3\n        /* \"#utility.yul\":293:296   */\n      dup3\n        /* \"#utility.yul\":286:305   */\n      mstore\n        /* \"#utility.yul\":338:342   */\n      0x20\n        /* \"#utility.yul\":333:336   */\n      dup3\n        /* \"#utility.yul\":329:343   */\n      add\n        /* \"#utility.yul\":314:343   */\n      swap1\n      pop\n        /* \"#utility.yul\":146:349   */\n      swap3\n      swap2\n      pop\n      pop\n      jump\t// out\n        /* \"#utility.yul\":355:506   */\n    tag_123:\n        /* \"#utility.yul\":441:445   */\n      0x00\n        /* \"#utility.yul\":464:467   */\n      dup2\n        /* \"#utility.yul\":456:467   */\n      swap1\n      pop\n        /* \"#utility.yul\":494:498   */\n      0x20\n        /* \"#utility.yul\":489:492   */\n      dup3\n        /* \"#utility.yul\":485:499   */\n      add\n        /* \"#utility.yul\":477:499   */\n      swap1\n      pop\n        /* \"#utility.yul\":355:506   */\n      swap2\n      swap1\n      pop\n      jump\t// out\n        /* \"#utility.yul\":512:611   */\n    tag_124:\n        /* \"#utility.yul\":564:570   */\n      0x00\n        /* \"#utility.yul\":598:603   */\n      dup2\n        /* \"#utility.yul\":592:604   */\n      mload\n        /* \"#utility.yul\":582:604   */\n      swap1\n      pop\n        /* \"#utility.yul\":512:611   */\n      swap2\n      swap1\n      pop\n      jump\t// out\n        /* \"#utility.yul\":617:776   */\n    tag_125:\n        /* \"#utility.yul\":691:702   */\n      0x00\n        /* \"#utility.yul\":725:731   */\n      dup3\n        /* \"#utility.yul\":720:723   */\n      dup3\n        /* \"#utility.yul\":713:732   */\n      mstore\n        /* \"#utility.yul\":765:769   */\n      0x20\n        /* \"#utility.yul\":760:763   */\n      dup3\n        /* \"#utility.yul\":756:770   */\n      add\n        /* \"#utility.yul\":741:770   */\n      swap1\n      pop\n        /* \"#utility.yul\":617:776   */\n      swap3\n      swap2\n      pop\n      pop\n      jump\t// out\n        /* \"#utility.yul\":782:1028   */\n    tag_126:\n        /* \"#utility.yul\":863:864   */\n      0x00\n        /* \"#utility.yul\":873:986   */\n    tag_183:\n        /* \"#utility.yul\":887:893   */\n      dup4\n        /* \"#utility.yul\":884:885   */\n      dup2\n        /* \"#utility.yul\":881:894   */\n      lt\n        /* \"#utility.yul\":873:986   */\n      iszero\n      tag_185\n      jumpi\n        /* \"#utility.yul\":972:973   */\n      dup1\n        /* \"#utility.yul\":967:970   */\n      dup3\n        /* \"#utility.yul\":963:974   */\n      add\n        /* \"#utility.yul\":957:975   */\n      mload\n        /* \"#utility.yul\":953:954   */\n      dup2\n        /* \"#utility.yul\":948:951   */\n      dup5\n        /* \"#utility.yul\":944:955   */\n      add\n        /* \"#utility.yul\":937:976   */\n      mstore\n        /* \"#utility.yul\":909:911   */\n      0x20\n        /* \"#utility.yul\":906:907   */\n      dup2\n        /* \"#utility.yul\":902:912   */\n      add\n        /* \"#utility.yul\":897:912   */\n      swap1\n      pop\n        /* \"#utility.yul\":873:986   */\n      jump(tag_183)\n    tag_185:\n        /* \"#utility.yul\":1020:1021   */\n      0x00\n        /* \"#utility.yul\":1011:1017   */\n      dup5\n        /* \"#utility.yul\":1006:1009   */\n      dup5\n        /* \"#utility.yul\":1002:1018   */\n      add\n        /* \"#utility.yul\":995:1022   */\n      mstore\n        /* \"#utility.yul\":844:1028   */\n      pop\n        /* \"#utility.yul\":782:1028   */\n      pop\n      pop\n      pop\n      jump\t// out\n        /* \"#utility.yul\":1034:1136   */\n    tag_127:\n        /* \"#utility.yul\":1075:1081   */\n      0x00\n        /* \"#utility.yul\":1126:1128   */\n      0x1f\n        /* \"#utility.yul\":1122:1129   */\n      not\n        /* \"#utility.yul\":1117:1119   */\n      0x1f\n        /* \"#utility.yul\":1110:1115   */\n      dup4\n        /* \"#utility.yul\":1106:1120   */\n      add\n        /* \"#utility.yul\":1102:1130   */\n      and\n        /* \"#utility.yul\":1092:1130   */\n      swap1\n      pop\n        /* \"#utility.yul\":1034:1136   */\n      swap2\n      swap1\n      pop\n      jump\t// out\n        /* \"#utility.yul\":1142:1499   */\n    tag_128:\n        /* \"#utility.yul\":1220:1223   */\n      0x00\n        /* \"#utility.yul\":1248:1287   */\n      tag_188\n        /* \"#utility.yul\":1281:1286   */\n      dup3\n        /* \"#utility.yul\":1248:1287   */\n      tag_124\n      jump\t// in\n    tag_188:\n        /* \"#utility.yul\":1303:1364   */\n      tag_189\n        /* \"#utility.yul\":1357:1363   */\n      dup2\n        /* \"#utility.yul\":1352:1355   */\n      dup6\n        /* \"#utility.yul\":1303:1364   */\n      tag_125\n      jump\t// in\n    tag_189:\n        /* \"#utility.yul\":1296:1364   */\n      swap4\n      pop\n        /* \"#utility.yul\":1373:1438   */\n      tag_190\n        /* \"#utility.yul\":1431:1437   */\n      dup2\n        /* \"#utility.yul\":1426:1429   */\n      dup6\n        /* \"#utility.yul\":1419:1423   */\n      0x20\n        /* \"#utility.yul\":1412:1417   */\n      dup7\n        /* \"#utility.yul\":1408:1424   */\n      add\n        /* \"#utility.yul\":1373:1438   */\n      tag_126\n      jump\t// in\n    tag_190:\n        /* \"#utility.yul\":1463:1492   */\n      tag_191\n        /* \"#utility.yul\":1485:1491   */\n      dup2\n        /* \"#utility.yul\":1463:1492   */\n      tag_127\n      jump\t// in\n    tag_191:\n        /* \"#utility.yul\":1458:1461   */\n      dup5\n        /* \"#utility.yul\":1454:1493   */\n      add\n        /* \"#utility.yul\":1447:1493   */\n      swap2\n      pop\n        /* \"#utility.yul\":1224:1499   */\n      pop\n        /* \"#utility.yul\":1142:1499   */\n      swap3\n      swap2\n      pop\n      pop\n      jump\t// out\n        /* \"#utility.yul\":1557:2220   */\n    tag_129:\n        /* \"#utility.yul\":1654:1657   */\n      0x00\n        /* \"#utility.yul\":1690:1694   */\n      0x40\n        /* \"#utility.yul\":1685:1688   */\n      dup4\n        /* \"#utility.yul\":1681:1695   */\n      add\n        /* \"#utility.yul\":1781:1785   */\n      0x00\n        /* \"#utility.yul\":1774:1779   */\n      dup4\n        /* \"#utility.yul\":1770:1786   */\n      add\n        /* \"#utility.yul\":1764:1787   */\n      mload\n        /* \"#utility.yul\":1834:1837   */\n      dup5\n        /* \"#utility.yul\":1828:1832   */\n      dup3\n        /* \"#utility.yul\":1824:1838   */\n      sub\n        /* \"#utility.yul\":1817:1821   */\n      0x00\n        /* \"#utility.yul\":1812:1815   */\n      dup7\n        /* \"#utility.yul\":1808:1822   */\n      add\n        /* \"#utility.yul\":1801:1839   */\n      mstore\n        /* \"#utility.yul\":1860:1933   */\n      tag_193\n        /* \"#utility.yul\":1928:1932   */\n      dup3\n        /* \"#utility.yul\":1914:1926   */\n      dup3\n        /* \"#utility.yul\":1860:1933   */\n      tag_128\n      jump\t// in\n    tag_193:\n        /* \"#utility.yul\":1852:1933   */\n      swap2\n      pop\n        /* \"#utility.yul\":1705:1944   */\n      pop\n        /* \"#utility.yul\":2030:2034   */\n      0x20\n        /* \"#utility.yul\":2023:2028   */\n      dup4\n        /* \"#utility.yul\":2019:2035   */\n      add\n        /* \"#utility.yul\":2013:2036   */\n      mload\n        /* \"#utility.yul\":2083:2086   */\n      dup5\n        /* \"#utility.yul\":2077:2081   */\n      dup3\n        /* \"#utility.yul\":2073:2087   */\n      sub\n        /* \"#utility.yul\":2066:2070   */\n      0x20\n        /* \"#utility.yul\":2061:2064   */\n      dup7\n        /* \"#utility.yul\":2057:2071   */\n      add\n        /* \"#utility.yul\":2050:2088   */\n      mstore\n        /* \"#utility.yul\":2109:2182   */\n      tag_194\n        /* \"#utility.yul\":2177:2181   */\n      dup3\n        /* \"#utility.yul\":2163:2175   */\n      dup3\n        /* \"#utility.yul\":2109:2182   */\n      tag_128\n      jump\t// in\n    tag_194:\n        /* \"#utility.yul\":2101:2182   */\n      swap2\n      pop\n        /* \"#utility.yul\":1954:2193   */\n      pop\n        /* \"#utility.yul\":2210:2214   */\n      dup1\n        /* \"#utility.yul\":2203:2214   */\n      swap2\n      pop\n        /* \"#utility.yul\":1659:2220   */\n      pop\n        /* \"#utility.yul\":1557:2220   */\n      swap3\n      swap2\n      pop\n      pop\n      jump\t// out\n        /* \"#utility.yul\":2226:2458   */\n    tag_130:\n        /* \"#utility.yul\":2333:2343   */\n      0x00\n        /* \"#utility.yul\":2368:2452   */\n      tag_196\n        /* \"#utility.yul\":2448:2451   */\n      dup4\n        /* \"#utility.yul\":2440:2446   */\n      dup4\n        /* \"#utility.yul\":2368:2452   */\n      tag_129\n      jump\t// in\n    tag_196:\n        /* \"#utility.yul\":2354:2452   */\n      swap1\n      pop\n        /* \"#utility.yul\":2226:2458   */\n      swap3\n      swap2\n      pop\n      pop\n      jump\t// out\n        /* \"#utility.yul\":2464:2596   */\n    tag_131:\n        /* \"#utility.yul\":2553:2557   */\n      0x00\n        /* \"#utility.yul\":2585:2589   */\n      0x20\n        /* \"#utility.yul\":2580:2583   */\n      dup3\n        /* \"#utility.yul\":2576:2590   */\n      add\n        /* \"#utility.yul\":2568:2590   */\n      swap1\n      pop\n        /* \"#utility.yul\":2464:2596   */\n      swap2\n      swap1\n      pop\n      jump\t// out\n        /* \"#utility.yul\":2658:3721   */\n    tag_132:\n        /* \"#utility.yul\":2815:2818   */\n      0x00\n        /* \"#utility.yul\":2844:2917   */\n      tag_199\n        /* \"#utility.yul\":2911:2916   */\n      dup3\n        /* \"#utility.yul\":2844:2917   */\n      tag_121\n      jump\t// in\n    tag_199:\n        /* \"#utility.yul\":2933:3038   */\n      tag_200\n        /* \"#utility.yul\":3031:3037   */\n      dup2\n        /* \"#utility.yul\":3026:3029   */\n      dup6\n        /* \"#utility.yul\":2933:3038   */\n      tag_122\n      jump\t// in\n    tag_200:\n        /* \"#utility.yul\":2926:3038   */\n      swap4\n      pop\n        /* \"#utility.yul\":3064:3067   */\n      dup4\n        /* \"#utility.yul\":3109:3113   */\n      0x20\n        /* \"#utility.yul\":3101:3107   */\n      dup3\n        /* \"#utility.yul\":3097:3114   */\n      mul\n        /* \"#utility.yul\":3092:3095   */\n      dup6\n        /* \"#utility.yul\":3088:3115   */\n      add\n        /* \"#utility.yul\":3139:3214   */\n      tag_201\n        /* \"#utility.yul\":3208:3213   */\n      dup6\n        /* \"#utility.yul\":3139:3214   */\n      tag_123\n      jump\t// in\n    tag_201:\n        /* \"#utility.yul\":3237:3244   */\n      dup1\n        /* \"#utility.yul\":3268:3269   */\n      0x00\n        /* \"#utility.yul\":3253:3676   */\n    tag_202:\n        /* \"#utility.yul\":3278:3284   */\n      dup6\n        /* \"#utility.yul\":3275:3276   */\n      dup2\n        /* \"#utility.yul\":3272:3285   */\n      lt\n        /* \"#utility.yul\":3253:3676   */\n      iszero\n      tag_204\n      jumpi\n        /* \"#utility.yul\":3349:3358   */\n      dup5\n        /* \"#utility.yul\":3343:3347   */\n      dup5\n        /* \"#utility.yul\":3339:3359   */\n      sub\n        /* \"#utility.yul\":3334:3337   */\n      dup10\n        /* \"#utility.yul\":3327:3360   */\n      mstore\n        /* \"#utility.yul\":3400:3406   */\n      dup2\n        /* \"#utility.yul\":3394:3407   */\n      mload\n        /* \"#utility.yul\":3428:3530   */\n      tag_205\n        /* \"#utility.yul\":3525:3529   */\n      dup6\n        /* \"#utility.yul\":3510:3523   */\n      dup3\n        /* \"#utility.yul\":3428:3530   */\n      tag_130\n      jump\t// in\n    tag_205:\n        /* \"#utility.yul\":3420:3530   */\n      swap5\n      pop\n        /* \"#utility.yul\":3553:3632   */\n      tag_206\n        /* \"#utility.yul\":3625:3631   */\n      dup4\n        /* \"#utility.yul\":3553:3632   */\n      tag_131\n      jump\t// in\n    tag_206:\n        /* \"#utility.yul\":3543:3632   */\n      swap3\n      pop\n        /* \"#utility.yul\":3661:3665   */\n      0x20\n        /* \"#utility.yul\":3656:3659   */\n      dup11\n        /* \"#utility.yul\":3652:3666   */\n      add\n        /* \"#utility.yul\":3645:3666   */\n      swap10\n      pop\n        /* \"#utility.yul\":3313:3676   */\n      pop\n        /* \"#utility.yul\":3300:3301   */\n      0x01\n        /* \"#utility.yul\":3297:3298   */\n      dup2\n        /* \"#utility.yul\":3293:3302   */\n      add\n        /* \"#utility.yul\":3288:3302   */\n      swap1\n      pop\n        /* \"#utility.yul\":3253:3676   */\n      jump(tag_202)\n    tag_204:\n        /* \"#utility.yul\":3257:3271   */\n      pop\n        /* \"#utility.yul\":3692:3696   */\n      dup3\n        /* \"#utility.yul\":3685:3696   */\n      swap8\n      pop\n        /* \"#utility.yul\":3712:3715   */\n      dup8\n        /* \"#utility.yul\":3705:3715   */\n      swap6\n      pop\n        /* \"#utility.yul\":2820:3721   */\n      pop\n      pop\n      pop\n      pop\n      pop\n        /* \"#utility.yul\":2658:3721   */\n      swap3\n      swap2\n      pop\n      pop\n      jump\t// out\n        /* \"#utility.yul\":3727:4176   */\n    tag_14:\n        /* \"#utility.yul\":3908:3912   */\n      0x00\n        /* \"#utility.yul\":3946:3948   */\n      0x20\n        /* \"#utility.yul\":3935:3944   */\n      dup3\n        /* \"#utility.yul\":3931:3949   */\n      add\n        /* \"#utility.yul\":3923:3949   */\n      swap1\n      pop\n        /* \"#utility.yul\":3995:4004   */\n      dup2\n        /* \"#utility.yul\":3989:3993   */\n      dup2\n        /* \"#utility.yul\":3985:4005   */\n      sub\n        /* \"#utility.yul\":3981:3982   */\n      0x00\n        /* \"#utility.yul\":3970:3979   */\n      dup4\n        /* \"#utility.yul\":3966:3983   */\n      add\n        /* \"#utility.yul\":3959:4006   */\n      mstore\n        /* \"#utility.yul\":4023:4169   */\n      tag_208\n        /* \"#utility.yul\":4164:4168   */\n      dup2\n        /* \"#utility.yul\":4155:4161   */\n      dup5\n        /* \"#utility.yul\":4023:4169   */\n      tag_132\n      jump\t// in\n    tag_208:\n        /* \"#utility.yul\":4015:4169   */\n      swap1\n      pop\n        /* \"#utility.yul\":3727:4176   */\n      swap3\n      swap2\n      pop\n      pop\n      jump\t// out\n        /* \"#utility.yul\":4182:4257   */\n    tag_133:\n        /* \"#utility.yul\":4215:4221   */\n      0x00\n        /* \"#utility.yul\":4248:4250   */\n      0x40\n        /* \"#utility.yul\":4242:4251   */\n      mload\n        /* \"#utility.yul\":4232:4251   */\n      swap1\n      pop\n        /* \"#utility.yul\":4182:4257   */\n      swap1\n      jump\t// out\n        /* \"#utility.yul\":4263:4380   */\n    tag_134:\n        /* \"#utility.yul\":4372:4373   */\n      0x00\n        /* \"#utility.yul\":4369:4370   */\n      dup1\n        /* \"#utility.yul\":4362:4374   */\n      revert\n        /* \"#utility.yul\":4386:4503   */\n    tag_135:\n        /* \"#utility.yul\":4495:4496   */\n      0x00\n        /* \"#utility.yul\":4492:4493   */\n      dup1\n        /* \"#utility.yul\":4485:4497   */\n      revert\n        /* \"#utility.yul\":4509:4626   */\n    tag_136:\n        /* \"#utility.yul\":4618:4619   */\n      0x00\n        /* \"#utility.yul\":4615:4616   */\n      dup1\n        /* \"#utility.yul\":4608:4620   */\n      revert\n        /* \"#utility.yul\":4632:4749   */\n    tag_137:\n        /* \"#utility.yul\":4741:4742   */\n      0x00\n        /* \"#utility.yul\":4738:4739   */\n      dup1\n        /* \"#utility.yul\":4731:4743   */\n      revert\n        /* \"#utility.yul\":4755:4935   */\n    tag_44:\n        /* \"#utility.yul\":4803:4880   */\n      0x4e487b7100000000000000000000000000000000000000000000000000000000\n        /* \"#utility.yul\":4800:4801   */\n      0x00\n        /* \"#utility.yul\":4793:4881   */\n      mstore\n        /* \"#utility.yul\":4900:4904   */\n      0x41\n        /* \"#utility.yul\":4897:4898   */\n      0x04\n        /* \"#utility.yul\":4890:4905   */\n      mstore\n        /* \"#utility.yul\":4924:4928   */\n      0x24\n        /* \"#utility.yul\":4921:4922   */\n      0x00\n        /* \"#utility.yul\":4914:4929   */\n      revert\n        /* \"#utility.yul\":4941:5222   */\n    tag_138:\n        /* \"#utility.yul\":5024:5051   */\n      tag_216\n        /* \"#utility.yul\":5046:5050   */\n      dup3\n        /* \"#utility.yul\":5024:5051   */\n      tag_127\n      jump\t// in\n    tag_216:\n        /* \"#utility.yul\":5016:5022   */\n      dup2\n        /* \"#utility.yul\":5012:5052   */\n      add\n        /* \"#utility.yul\":5154:5160   */\n      dup2\n        /* \"#utility.yul\":5142:5152   */\n      dup2\n        /* \"#utility.yul\":5139:5161   */\n      lt\n        /* \"#utility.yul\":5118:5136   */\n      0xffffffffffffffff\n        /* \"#utility.yul\":5106:5116   */\n      dup3\n        /* \"#utility.yul\":5103:5137   */\n      gt\n        /* \"#utility.yul\":5100:5162   */\n      or\n        /* \"#utility.yul\":5097:5185   */\n      iszero\n      tag_217\n      jumpi\n        /* \"#utility.yul\":5165:5183   */\n      tag_218\n      tag_44\n      jump\t// in\n    tag_218:\n        /* \"#utility.yul\":5097:5185   */\n    tag_217:\n        /* \"#utility.yul\":5205:5215   */\n      dup1\n        /* \"#utility.yul\":5201:5203   */\n      0x40\n        /* \"#utility.yul\":5194:5216   */\n      mstore\n        /* \"#utility.yul\":4984:5222   */\n      pop\n        /* \"#utility.yul\":4941:5222   */\n      pop\n      pop\n      jump\t// out\n        /* \"#utility.yul\":5228:5357   */\n    tag_139:\n        /* \"#utility.yul\":5262:5268   */\n      0x00\n        /* \"#utility.yul\":5289:5309   */\n      tag_220\n      tag_133\n      jump\t// in\n    tag_220:\n        /* \"#utility.yul\":5279:5309   */\n      swap1\n      pop\n        /* \"#utility.yul\":5318:5351   */\n      tag_221\n        /* \"#utility.yul\":5346:5350   */\n      dup3\n        /* \"#utility.yul\":5338:5344   */\n      dup3\n        /* \"#utility.yul\":5318:5351   */\n      tag_138\n      jump\t// in\n    tag_221:\n        /* \"#utility.yul\":5228:5357   */\n      swap2\n      swap1\n      pop\n      jump\t// out\n        /* \"#utility.yul\":5363:5671   */\n    tag_140:\n        /* \"#utility.yul\":5425:5429   */\n      0x00\n        /* \"#utility.yul\":5515:5533   */\n      0xffffffffffffffff\n        /* \"#utility.yul\":5507:5513   */\n      dup3\n        /* \"#utility.yul\":5504:5534   */\n      gt\n        /* \"#utility.yul\":5501:5557   */\n      iszero\n      tag_223\n      jumpi\n        /* \"#utility.yul\":5537:5555   */\n      tag_224\n      tag_44\n      jump\t// in\n    tag_224:\n        /* \"#utility.yul\":5501:5557   */\n    tag_223:\n        /* \"#utility.yul\":5575:5604   */\n      tag_225\n        /* \"#utility.yul\":5597:5603   */\n      dup3\n        /* \"#utility.yul\":5575:5604   */\n      tag_127\n      jump\t// in\n    tag_225:\n        /* \"#utility.yul\":5567:5604   */\n      swap1\n      pop\n        /* \"#utility.yul\":5659:5663   */\n      0x20\n        /* \"#utility.yul\":5653:5657   */\n      dup2\n        /* \"#utility.yul\":5649:5664   */\n      add\n        /* \"#utility.yul\":5641:5664   */\n      swap1\n      pop\n        /* \"#utility.yul\":5363:5671   */\n      swap2\n      swap1\n      pop\n      jump\t// out\n        /* \"#utility.yul\":5677:5823   */\n    tag_141:\n        /* \"#utility.yul\":5774:5780   */\n      dup3\n        /* \"#utility.yul\":5769:5772   */\n      dup2\n        /* \"#utility.yul\":5764:5767   */\n      dup4\n        /* \"#utility.yul\":5751:5781   */\n      calldatacopy\n        /* \"#utility.yul\":5815:5816   */\n      0x00\n        /* \"#utility.yul\":5806:5812   */\n      dup4\n        /* \"#utility.yul\":5801:5804   */\n      dup4\n        /* \"#utility.yul\":5797:5813   */\n      add\n        /* \"#utility.yul\":5790:5817   */\n      mstore\n        /* \"#utility.yul\":5677:5823   */\n      pop\n      pop\n      pop\n      jump\t// out\n        /* \"#utility.yul\":5829:6254   */\n    tag_142:\n        /* \"#utility.yul\":5907:5912   */\n      0x00\n        /* \"#utility.yul\":5932:5998   */\n      tag_228\n        /* \"#utility.yul\":5948:5997   */\n      tag_229\n        /* \"#utility.yul\":5990:5996   */\n      dup5\n        /* \"#utility.yul\":5948:5997   */\n      tag_140\n      jump\t// in\n    tag_229:\n        /* \"#utility.yul\":5932:5998   */\n      tag_139\n      jump\t// in\n    tag_228:\n        /* \"#utility.yul\":5923:5998   */\n      swap1\n      pop\n        /* \"#utility.yul\":6021:6027   */\n      dup3\n        /* \"#utility.yul\":6014:6019   */\n      dup2\n        /* \"#utility.yul\":6007:6028   */\n      mstore\n        /* \"#utility.yul\":6059:6063   */\n      0x20\n        /* \"#utility.yul\":6052:6057   */\n      dup2\n        /* \"#utility.yul\":6048:6064   */\n      add\n        /* \"#utility.yul\":6097:6100   */\n      dup5\n        /* \"#utility.yul\":6088:6094   */\n      dup5\n        /* \"#utility.yul\":6083:6086   */\n      dup5\n        /* \"#utility.yul\":6079:6095   */\n      add\n        /* \"#utility.yul\":6076:6101   */\n      gt\n        /* \"#utility.yul\":6073:6185   */\n      iszero\n      tag_230\n      jumpi\n        /* \"#utility.yul\":6104:6183   */\n      tag_231\n      tag_137\n      jump\t// in\n    tag_231:\n        /* \"#utility.yul\":6073:6185   */\n    tag_230:\n        /* \"#utility.yul\":6194:6248   */\n      tag_232\n        /* \"#utility.yul\":6241:6247   */\n      dup5\n        /* \"#utility.yul\":6236:6239   */\n      dup3\n        /* \"#utility.yul\":6231:6234   */\n      dup6\n        /* \"#utility.yul\":6194:6248   */\n      tag_141\n      jump\t// in\n    tag_232:\n        /* \"#utility.yul\":5913:6254   */\n      pop\n        /* \"#utility.yul\":5829:6254   */\n      swap4\n      swap3\n      pop\n      pop\n      pop\n      jump\t// out\n        /* \"#utility.yul\":6274:6614   */\n    tag_143:\n        /* \"#utility.yul\":6330:6335   */\n      0x00\n        /* \"#utility.yul\":6379:6382   */\n      dup3\n        /* \"#utility.yul\":6372:6376   */\n      0x1f\n        /* \"#utility.yul\":6364:6370   */\n      dup4\n        /* \"#utility.yul\":6360:6377   */\n      add\n        /* \"#utility.yul\":6356:6383   */\n      slt\n        /* \"#utility.yul\":6346:6468   */\n      tag_234\n      jumpi\n        /* \"#utility.yul\":6387:6466   */\n      tag_235\n      tag_136\n      jump\t// in\n    tag_235:\n        /* \"#utility.yul\":6346:6468   */\n    tag_234:\n        /* \"#utility.yul\":6504:6510   */\n      dup2\n        /* \"#utility.yul\":6491:6511   */\n      calldataload\n        /* \"#utility.yul\":6529:6608   */\n      tag_236\n        /* \"#utility.yul\":6604:6607   */\n      dup5\n        /* \"#utility.yul\":6596:6602   */\n      dup3\n        /* \"#utility.yul\":6589:6593   */\n      0x20\n        /* \"#utility.yul\":6581:6587   */\n      dup7\n        /* \"#utility.yul\":6577:6594   */\n      add\n        /* \"#utility.yul\":6529:6608   */\n      tag_142\n      jump\t// in\n    tag_236:\n        /* \"#utility.yul\":6520:6608   */\n      swap2\n      pop\n        /* \"#utility.yul\":6336:6614   */\n      pop\n        /* \"#utility.yul\":6274:6614   */\n      swap3\n      swap2\n      pop\n      pop\n      jump\t// out\n        /* \"#utility.yul\":6620:7129   */\n    tag_17:\n        /* \"#utility.yul\":6689:6695   */\n      0x00\n        /* \"#utility.yul\":6738:6740   */\n      0x20\n        /* \"#utility.yul\":6726:6735   */\n      dup3\n        /* \"#utility.yul\":6717:6724   */\n      dup5\n        /* \"#utility.yul\":6713:6736   */\n      sub\n        /* \"#utility.yul\":6709:6741   */\n      slt\n        /* \"#utility.yul\":6706:6825   */\n      iszero\n      tag_238\n      jumpi\n        /* \"#utility.yul\":6744:6823   */\n      tag_239\n      tag_134\n      jump\t// in\n    tag_239:\n        /* \"#utility.yul\":6706:6825   */\n    tag_238:\n        /* \"#utility.yul\":6892:6893   */\n      0x00\n        /* \"#utility.yul\":6881:6890   */\n      dup3\n        /* \"#utility.yul\":6877:6894   */\n      add\n        /* \"#utility.yul\":6864:6895   */\n      calldataload\n        /* \"#utility.yul\":6922:6940   */\n      0xffffffffffffffff\n        /* \"#utility.yul\":6914:6920   */\n      dup2\n        /* \"#utility.yul\":6911:6941   */\n      gt\n        /* \"#utility.yul\":6908:7025   */\n      iszero\n      tag_240\n      jumpi\n        /* \"#utility.yul\":6944:7023   */\n      tag_241\n      tag_135\n      jump\t// in\n    tag_241:\n        /* \"#utility.yul\":6908:7025   */\n    tag_240:\n        /* \"#utility.yul\":7049:7112   */\n      tag_242\n        /* \"#utility.yul\":7104:7111   */\n      dup5\n        /* \"#utility.yul\":7095:7101   */\n      dup3\n        /* \"#utility.yul\":7084:7093   */\n      dup6\n        /* \"#utility.yul\":7080:7102   */\n      add\n        /* \"#utility.yul\":7049:7112   */\n      tag_143\n      jump\t// in\n    tag_242:\n        /* \"#utility.yul\":7039:7112   */\n      swap2\n      pop\n        /* \"#utility.yul\":6835:7122   */\n      pop\n        /* \"#utility.yul\":6620:7129   */\n      swap3\n      swap2\n      pop\n      pop\n      jump\t// out\n        /* \"#utility.yul\":7135:7304   */\n    tag_144:\n        /* \"#utility.yul\":7219:7230   */\n      0x00\n        /* \"#utility.yul\":7253:7259   */\n      dup3\n        /* \"#utility.yul\":7248:7251   */\n      dup3\n        /* \"#utility.yul\":7241:7260   */\n      mstore\n        /* \"#utility.yul\":7293:7297   */\n      0x20\n        /* \"#utility.yul\":7288:7291   */\n      dup3\n        /* \"#utility.yul\":7284:7298   */\n      add\n        /* \"#utility.yul\":7269:7298   */\n      swap1\n      pop\n        /* \"#utility.yul\":7135:7304   */\n      swap3\n      swap2\n      pop\n      pop\n      jump\t// out\n        /* \"#utility.yul\":7310:7687   */\n    tag_145:\n        /* \"#utility.yul\":7398:7401   */\n      0x00\n        /* \"#utility.yul\":7426:7465   */\n      tag_245\n        /* \"#utility.yul\":7459:7464   */\n      dup3\n        /* \"#utility.yul\":7426:7465   */\n      tag_124\n      jump\t// in\n    tag_245:\n        /* \"#utility.yul\":7481:7552   */\n      tag_246\n        /* \"#utility.yul\":7545:7551   */\n      dup2\n        /* \"#utility.yul\":7540:7543   */\n      dup6\n        /* \"#utility.yul\":7481:7552   */\n      tag_144\n      jump\t// in\n    tag_246:\n        /* \"#utility.yul\":7474:7552   */\n      swap4\n      pop\n        /* \"#utility.yul\":7561:7626   */\n      tag_247\n        /* \"#utility.yul\":7619:7625   */\n      dup2\n        /* \"#utility.yul\":7614:7617   */\n      dup6\n        /* \"#utility.yul\":7607:7611   */\n      0x20\n        /* \"#utility.yul\":7600:7605   */\n      dup7\n        /* \"#utility.yul\":7596:7612   */\n      add\n        /* \"#utility.yul\":7561:7626   */\n      tag_126\n      jump\t// in\n    tag_247:\n        /* \"#utility.yul\":7651:7680   */\n      tag_248\n        /* \"#utility.yul\":7673:7679   */\n      dup2\n        /* \"#utility.yul\":7651:7680   */\n      tag_127\n      jump\t// in\n    tag_248:\n        /* \"#utility.yul\":7646:7649   */\n      dup5\n        /* \"#utility.yul\":7642:7681   */\n      add\n        /* \"#utility.yul\":7635:7681   */\n      swap2\n      pop\n        /* \"#utility.yul\":7402:7687   */\n      pop\n        /* \"#utility.yul\":7310:7687   */\n      swap3\n      swap2\n      pop\n      pop\n      jump\t// out\n        /* \"#utility.yul\":7693:8207   */\n    tag_20:\n        /* \"#utility.yul\":7854:7858   */\n      0x00\n        /* \"#utility.yul\":7892:7894   */\n      0x40\n        /* \"#utility.yul\":7881:7890   */\n      dup3\n        /* \"#utility.yul\":7877:7895   */\n      add\n        /* \"#utility.yul\":7869:7895   */\n      swap1\n      pop\n        /* \"#utility.yul\":7941:7950   */\n      dup2\n        /* \"#utility.yul\":7935:7939   */\n      dup2\n        /* \"#utility.yul\":7931:7951   */\n      sub\n        /* \"#utility.yul\":7927:7928   */\n      0x00\n        /* \"#utility.yul\":7916:7925   */\n      dup4\n        /* \"#utility.yul\":7912:7929   */\n      add\n        /* \"#utility.yul\":7905:7952   */\n      mstore\n        /* \"#utility.yul\":7969:8047   */\n      tag_250\n        /* \"#utility.yul\":8042:8046   */\n      dup2\n        /* \"#utility.yul\":8033:8039   */\n      dup6\n        /* \"#utility.yul\":7969:8047   */\n      tag_145\n      jump\t// in\n    tag_250:\n        /* \"#utility.yul\":7961:8047   */\n      swap1\n      pop\n        /* \"#utility.yul\":8094:8103   */\n      dup2\n        /* \"#utility.yul\":8088:8092   */\n      dup2\n        /* \"#utility.yul\":8084:8104   */\n      sub\n        /* \"#utility.yul\":8079:8081   */\n      0x20\n        /* \"#utility.yul\":8068:8077   */\n      dup4\n        /* \"#utility.yul\":8064:8082   */\n      add\n        /* \"#utility.yul\":8057:8105   */\n      mstore\n        /* \"#utility.yul\":8122:8200   */\n      tag_251\n        /* \"#utility.yul\":8195:8199   */\n      dup2\n        /* \"#utility.yul\":8186:8192   */\n      dup5\n        /* \"#utility.yul\":8122:8200   */\n      tag_145\n      jump\t// in\n    tag_251:\n        /* \"#utility.yul\":8114:8200   */\n      swap1\n      pop\n        /* \"#utility.yul\":7693:8207   */\n      swap4\n      swap3\n      pop\n      pop\n      pop\n      jump\t// out\n        /* \"#utility.yul\":8213:8290   */\n    tag_146:\n        /* \"#utility.yul\":8250:8257   */\n      0x00\n        /* \"#utility.yul\":8279:8284   */\n      dup2\n        /* \"#utility.yul\":8268:8284   */\n      swap1\n      pop\n        /* \"#utility.yul\":8213:8290   */\n      swap2\n      swap1\n      pop\n      jump\t// out\n        /* \"#utility.yul\":8296:8418   */\n    tag_147:\n        /* \"#utility.yul\":8369:8393   */\n      tag_254\n        /* \"#utility.yul\":8387:8392   */\n      dup2\n        /* \"#utility.yul\":8369:8393   */\n      tag_146\n      jump\t// in\n    tag_254:\n        /* \"#utility.yul\":8362:8367   */\n      dup2\n        /* \"#utility.yul\":8359:8394   */\n      eq\n        /* \"#utility.yul\":8349:8412   */\n      tag_255\n      jumpi\n        /* \"#utility.yul\":8408:8409   */\n      0x00\n        /* \"#utility.yul\":8405:8406   */\n      dup1\n        /* \"#utility.yul\":8398:8410   */\n      revert\n        /* \"#utility.yul\":8349:8412   */\n    tag_255:\n        /* \"#utility.yul\":8296:8418   */\n      pop\n      jump\t// out\n        /* \"#utility.yul\":8424:8563   */\n    tag_148:\n        /* \"#utility.yul\":8470:8475   */\n      0x00\n        /* \"#utility.yul\":8508:8514   */\n      dup2\n        /* \"#utility.yul\":8495:8515   */\n      calldataload\n        /* \"#utility.yul\":8486:8515   */\n      swap1\n      pop\n        /* \"#utility.yul\":8524:8557   */\n      tag_257\n        /* \"#utility.yul\":8551:8556   */\n      dup2\n        /* \"#utility.yul\":8524:8557   */\n      tag_147\n      jump\t// in\n    tag_257:\n        /* \"#utility.yul\":8424:8563   */\n      swap3\n      swap2\n      pop\n      pop\n      jump\t// out\n        /* \"#utility.yul\":8569:8898   */\n    tag_23:\n        /* \"#utility.yul\":8628:8634   */\n      0x00\n        /* \"#utility.yul\":8677:8679   */\n      0x20\n        /* \"#utility.yul\":8665:8674   */\n      dup3\n        /* \"#utility.yul\":8656:8663   */\n      dup5\n        /* \"#utility.yul\":8652:8675   */\n      sub\n        /* \"#utility.yul\":8648:8680   */\n      slt\n        /* \"#utility.yul\":8645:8764   */\n      iszero\n      tag_259\n      jumpi\n        /* \"#utility.yul\":8683:8762   */\n      tag_260\n      tag_134\n      jump\t// in\n    tag_260:\n        /* \"#utility.yul\":8645:8764   */\n    tag_259:\n        /* \"#utility.yul\":8803:8804   */\n      0x00\n        /* \"#utility.yul\":8828:8881   */\n      tag_261\n        /* \"#utility.yul\":8873:8880   */\n      dup5\n        /* \"#utility.yul\":8864:8870   */\n      dup3\n        /* \"#utility.yul\":8853:8862   */\n      dup6\n        /* \"#utility.yul\":8849:8871   */\n      add\n        /* \"#utility.yul\":8828:8881   */\n      tag_148\n      jump\t// in\n    tag_261:\n        /* \"#utility.yul\":8818:8881   */\n      swap2\n      pop\n        /* \"#utility.yul\":8774:8891   */\n      pop\n        /* \"#utility.yul\":8569:8898   */\n      swap3\n      swap2\n      pop\n      pop\n      jump\t// out\n        /* \"#utility.yul\":8904:9738   */\n    tag_31:\n        /* \"#utility.yul\":8992:8998   */\n      0x00\n        /* \"#utility.yul\":9000:9006   */\n      dup1\n        /* \"#utility.yul\":9049:9051   */\n      0x40\n        /* \"#utility.yul\":9037:9046   */\n      dup4\n        /* \"#utility.yul\":9028:9035   */\n      dup6\n        /* \"#utility.yul\":9024:9047   */\n      sub\n        /* \"#utility.yul\":9020:9052   */\n      slt\n        /* \"#utility.yul\":9017:9136   */\n      iszero\n      tag_263\n      jumpi\n        /* \"#utility.yul\":9055:9134   */\n      tag_264\n      tag_134\n      jump\t// in\n    tag_264:\n        /* \"#utility.yul\":9017:9136   */\n    tag_263:\n        /* \"#utility.yul\":9203:9204   */\n      0x00\n        /* \"#utility.yul\":9192:9201   */\n      dup4\n        /* \"#utility.yul\":9188:9205   */\n      add\n        /* \"#utility.yul\":9175:9206   */\n      calldataload\n        /* \"#utility.yul\":9233:9251   */\n      0xffffffffffffffff\n        /* \"#utility.yul\":9225:9231   */\n      dup2\n        /* \"#utility.yul\":9222:9252   */\n      gt\n        /* \"#utility.yul\":9219:9336   */\n      iszero\n      tag_265\n      jumpi\n        /* \"#utility.yul\":9255:9334   */\n      tag_266\n      tag_135\n      jump\t// in\n    tag_266:\n        /* \"#utility.yul\":9219:9336   */\n    tag_265:\n        /* \"#utility.yul\":9360:9423   */\n      tag_267\n        /* \"#utility.yul\":9415:9422   */\n      dup6\n        /* \"#utility.yul\":9406:9412   */\n      dup3\n        /* \"#utility.yul\":9395:9404   */\n      dup7\n        /* \"#utility.yul\":9391:9413   */\n      add\n        /* \"#utility.yul\":9360:9423   */\n      tag_143\n      jump\t// in\n    tag_267:\n        /* \"#utility.yul\":9350:9423   */\n      swap3\n      pop\n        /* \"#utility.yul\":9146:9433   */\n      pop\n        /* \"#utility.yul\":9500:9502   */\n      0x20\n        /* \"#utility.yul\":9489:9498   */\n      dup4\n        /* \"#utility.yul\":9485:9503   */\n      add\n        /* \"#utility.yul\":9472:9504   */\n      calldataload\n        /* \"#utility.yul\":9531:9549   */\n      0xffffffffffffffff\n        /* \"#utility.yul\":9523:9529   */\n      dup2\n        /* \"#utility.yul\":9520:9550   */\n      gt\n        /* \"#utility.yul\":9517:9634   */\n      iszero\n      tag_268\n      jumpi\n        /* \"#utility.yul\":9553:9632   */\n      tag_269\n      tag_135\n      jump\t// in\n    tag_269:\n        /* \"#utility.yul\":9517:9634   */\n    tag_268:\n        /* \"#utility.yul\":9658:9721   */\n      tag_270\n        /* \"#utility.yul\":9713:9720   */\n      dup6\n        /* \"#utility.yul\":9704:9710   */\n      dup3\n        /* \"#utility.yul\":9693:9702   */\n      dup7\n        /* \"#utility.yul\":9689:9711   */\n      add\n        /* \"#utility.yul\":9658:9721   */\n      tag_143\n      jump\t// in\n    tag_270:\n        /* \"#utility.yul\":9648:9721   */\n      swap2\n      pop\n        /* \"#utility.yul\":9443:9731   */\n      pop\n        /* \"#utility.yul\":8904:9738   */\n      swap3\n      pop\n      swap3\n      swap1\n      pop\n      jump\t// out\n        /* \"#utility.yul\":9744:10398   */\n    tag_35:\n        /* \"#utility.yul\":9822:9828   */\n      0x00\n        /* \"#utility.yul\":9830:9836   */\n      dup1\n        /* \"#utility.yul\":9879:9881   */\n      0x40\n        /* \"#utility.yul\":9867:9876   */\n      dup4\n        /* \"#utility.yul\":9858:9865   */\n      dup6\n        /* \"#utility.yul\":9854:9877   */\n      sub\n        /* \"#utility.yul\":9850:9882   */\n      slt\n        /* \"#utility.yul\":9847:9966   */\n      iszero\n      tag_272\n      jumpi\n        /* \"#utility.yul\":9885:9964   */\n      tag_273\n      tag_134\n      jump\t// in\n    tag_273:\n        /* \"#utility.yul\":9847:9966   */\n    tag_272:\n        /* \"#utility.yul\":10005:10006   */\n      0x00\n        /* \"#utility.yul\":10030:10083   */\n      tag_274\n        /* \"#utility.yul\":10075:10082   */\n      dup6\n        /* \"#utility.yul\":10066:10072   */\n      dup3\n        /* \"#utility.yul\":10055:10064   */\n      dup7\n        /* \"#utility.yul\":10051:10073   */\n      add\n        /* \"#utility.yul\":10030:10083   */\n      tag_148\n      jump\t// in\n    tag_274:\n        /* \"#utility.yul\":10020:10083   */\n      swap3\n      pop\n        /* \"#utility.yul\":9976:10093   */\n      pop\n        /* \"#utility.yul\":10160:10162   */\n      0x20\n        /* \"#utility.yul\":10149:10158   */\n      dup4\n        /* \"#utility.yul\":10145:10163   */\n      add\n        /* \"#utility.yul\":10132:10164   */\n      calldataload\n        /* \"#utility.yul\":10191:10209   */\n      0xffffffffffffffff\n        /* \"#utility.yul\":10183:10189   */\n      dup2\n        /* \"#utility.yul\":10180:10210   */\n      gt\n        /* \"#utility.yul\":10177:10294   */\n      iszero\n      tag_275\n      jumpi\n        /* \"#utility.yul\":10213:10292   */\n      tag_276\n      tag_135\n      jump\t// in\n    tag_276:\n        /* \"#utility.yul\":10177:10294   */\n    tag_275:\n        /* \"#utility.yul\":10318:10381   */\n      tag_277\n        /* \"#utility.yul\":10373:10380   */\n      dup6\n        /* \"#utility.yul\":10364:10370   */\n      dup3\n        /* \"#utility.yul\":10353:10362   */\n      dup7\n        /* \"#utility.yul\":10349:10371   */\n      add\n        /* \"#utility.yul\":10318:10381   */\n      tag_143\n      jump\t// in\n    tag_277:\n        /* \"#utility.yul\":10308:10381   */\n      swap2\n      pop\n        /* \"#utility.yul\":10103:10391   */\n      pop\n        /* \"#utility.yul\":9744:10398   */\n      swap3\n      pop\n      swap3\n      swap1\n      pop\n      jump\t// out\n        /* \"#utility.yul\":10404:10530   */\n    tag_149:\n        /* \"#utility.yul\":10441:10448   */\n      0x00\n        /* \"#utility.yul\":10481:10523   */\n      0xffffffffffffffffffffffffffffffffffffffff\n        /* \"#utility.yul\":10474:10479   */\n      dup3\n        /* \"#utility.yul\":10470:10524   */\n      and\n        /* \"#utility.yul\":10459:10524   */\n      swap1\n      pop\n        /* \"#utility.yul\":10404:10530   */\n      swap2\n      swap1\n      pop\n      jump\t// out\n        /* \"#utility.yul\":10536:10632   */\n    tag_150:\n        /* \"#utility.yul\":10573:10580   */\n      0x00\n        /* \"#utility.yul\":10602:10626   */\n      tag_280\n        /* \"#utility.yul\":10620:10625   */\n      dup3\n        /* \"#utility.yul\":10602:10626   */\n      tag_149\n      jump\t// in\n    tag_280:\n        /* \"#utility.yul\":10591:10626   */\n      swap1\n      pop\n        /* \"#utility.yul\":10536:10632   */\n      swap2\n      swap1\n      pop\n      jump\t// out\n        /* \"#utility.yul\":10638:10756   */\n    tag_151:\n        /* \"#utility.yul\":10725:10749   */\n      tag_282\n        /* \"#utility.yul\":10743:10748   */\n      dup2\n        /* \"#utility.yul\":10725:10749   */\n      tag_150\n      jump\t// in\n    tag_282:\n        /* \"#utility.yul\":10720:10723   */\n      dup3\n        /* \"#utility.yul\":10713:10750   */\n      mstore\n        /* \"#utility.yul\":10638:10756   */\n      pop\n      pop\n      jump\t// out\n        /* \"#utility.yul\":10762:10984   */\n    tag_40:\n        /* \"#utility.yul\":10855:10859   */\n      0x00\n        /* \"#utility.yul\":10893:10895   */\n      0x20\n        /* \"#utility.yul\":10882:10891   */\n      dup3\n        /* \"#utility.yul\":10878:10896   */\n      add\n        /* \"#utility.yul\":10870:10896   */\n      swap1\n      pop\n        /* \"#utility.yul\":10906:10977   */\n      tag_284\n        /* \"#utility.yul\":10974:10975   */\n      0x00\n        /* \"#utility.yul\":10963:10972   */\n      dup4\n        /* \"#utility.yul\":10959:10976   */\n      add\n        /* \"#utility.yul\":10950:10956   */\n      dup5\n        /* \"#utility.yul\":10906:10977   */\n      tag_151\n      jump\t// in\n    tag_284:\n        /* \"#utility.yul\":10762:10984   */\n      swap3\n      swap2\n      pop\n      pop\n      jump\t// out\n        /* \"#utility.yul\":10990:11170   */\n    tag_152:\n        /* \"#utility.yul\":11038:11115   */\n      0x4e487b7100000000000000000000000000000000000000000000000000000000\n        /* \"#utility.yul\":11035:11036   */\n      0x00\n        /* \"#utility.yul\":11028:11116   */\n      mstore\n        /* \"#utility.yul\":11135:11139   */\n      0x22\n        /* \"#utility.yul\":11132:11133   */\n      0x04\n        /* \"#utility.yul\":11125:11140   */\n      mstore\n        /* \"#utility.yul\":11159:11163   */\n      0x24\n        /* \"#utility.yul\":11156:11157   */\n      0x00\n        /* \"#utility.yul\":11149:11164   */\n      revert\n        /* \"#utility.yul\":11176:11496   */\n    tag_53:\n        /* \"#utility.yul\":11220:11226   */\n      0x00\n        /* \"#utility.yul\":11257:11258   */\n      0x02\n        /* \"#utility.yul\":11251:11255   */\n      dup3\n        /* \"#utility.yul\":11247:11259   */\n      div\n        /* \"#utility.yul\":11237:11259   */\n      swap1\n      pop\n        /* \"#utility.yul\":11304:11305   */\n      0x01\n        /* \"#utility.yul\":11298:11302   */\n      dup3\n        /* \"#utility.yul\":11294:11306   */\n      and\n        /* \"#utility.yul\":11325:11343   */\n      dup1\n        /* \"#utility.yul\":11315:11396   */\n      tag_287\n      jumpi\n        /* \"#utility.yul\":11381:11385   */\n      0x7f\n        /* \"#utility.yul\":11373:11379   */\n      dup3\n        /* \"#utility.yul\":11369:11386   */\n      and\n        /* \"#utility.yul\":11359:11386   */\n      swap2\n      pop\n        /* \"#utility.yul\":11315:11396   */\n    tag_287:\n        /* \"#utility.yul\":11443:11445   */\n      0x20\n        /* \"#utility.yul\":11435:11441   */\n      dup3\n        /* \"#utility.yul\":11432:11446   */\n      lt\n        /* \"#utility.yul\":11412:11430   */\n      dup2\n        /* \"#utility.yul\":11409:11447   */\n      sub\n        /* \"#utility.yul\":11406:11490   */\n      tag_288\n      jumpi\n        /* \"#utility.yul\":11462:11480   */\n      tag_289\n      tag_152\n      jump\t// in\n    tag_289:\n        /* \"#utility.yul\":11406:11490   */\n    tag_288:\n        /* \"#utility.yul\":11227:11496   */\n      pop\n        /* \"#utility.yul\":11176:11496   */\n      swap2\n      swap1\n      pop\n      jump\t// out\n        /* \"#utility.yul\":11502:11682   */\n    tag_65:\n        /* \"#utility.yul\":11550:11627   */\n      0x4e487b7100000000000000000000000000000000000000000000000000000000\n        /* \"#utility.yul\":11547:11548   */\n      0x00\n        /* \"#utility.yul\":11540:11628   */\n      mstore\n        /* \"#utility.yul\":11647:11651   */\n      0x32\n        /* \"#utility.yul\":11644:11645   */\n      0x04\n        /* \"#utility.yul\":11637:11652   */\n      mstore\n        /* \"#utility.yul\":11671:11675   */\n      0x24\n        /* \"#utility.yul\":11668:11669   */\n      0x00\n        /* \"#utility.yul\":11661:11676   */\n      revert\n        /* \"#utility.yul\":11688:11836   */\n    tag_153:\n        /* \"#utility.yul\":11790:11801   */\n      0x00\n        /* \"#utility.yul\":11827:11830   */\n      dup2\n        /* \"#utility.yul\":11812:11830   */\n      swap1\n      pop\n        /* \"#utility.yul\":11688:11836   */\n      swap3\n      swap2\n      pop\n      pop\n      jump\t// out\n        /* \"#utility.yul\":11842:12232   */\n    tag_154:\n        /* \"#utility.yul\":11948:11951   */\n      0x00\n        /* \"#utility.yul\":11976:12015   */\n      tag_293\n        /* \"#utility.yul\":12009:12014   */\n      dup3\n        /* \"#utility.yul\":11976:12015   */\n      tag_124\n      jump\t// in\n    tag_293:\n        /* \"#utility.yul\":12031:12120   */\n      tag_294\n        /* \"#utility.yul\":12113:12119   */\n      dup2\n        /* \"#utility.yul\":12108:12111   */\n      dup6\n        /* \"#utility.yul\":12031:12120   */\n      tag_153\n      jump\t// in\n    tag_294:\n        /* \"#utility.yul\":12024:12120   */\n      swap4\n      pop\n        /* \"#utility.yul\":12129:12194   */\n      tag_295\n        /* \"#utility.yul\":12187:12193   */\n      dup2\n        /* \"#utility.yul\":12182:12185   */\n      dup6\n        /* \"#utility.yul\":12175:12179   */\n      0x20\n        /* \"#utility.yul\":12168:12173   */\n      dup7\n        /* \"#utility.yul\":12164:12180   */\n      add\n        /* \"#utility.yul\":12129:12194   */\n      tag_126\n      jump\t// in\n    tag_295:\n        /* \"#utility.yul\":12219:12225   */\n      dup1\n        /* \"#utility.yul\":12214:12217   */\n      dup5\n        /* \"#utility.yul\":12210:12226   */\n      add\n        /* \"#utility.yul\":12203:12226   */\n      swap2\n      pop\n        /* \"#utility.yul\":11952:12232   */\n      pop\n        /* \"#utility.yul\":11842:12232   */\n      swap3\n      swap2\n      pop\n      pop\n      jump\t// out\n        /* \"#utility.yul\":12238:12513   */\n    tag_71:\n        /* \"#utility.yul\":12370:12373   */\n      0x00\n        /* \"#utility.yul\":12392:12487   */\n      tag_297\n        /* \"#utility.yul\":12483:12486   */\n      dup3\n        /* \"#utility.yul\":12474:12480   */\n      dup5\n        /* \"#utility.yul\":12392:12487   */\n      tag_154\n      jump\t// in\n    tag_297:\n        /* \"#utility.yul\":12385:12487   */\n      swap2\n      pop\n        /* \"#utility.yul\":12504:12507   */\n      dup2\n        /* \"#utility.yul\":12497:12507   */\n      swap1\n      pop\n        /* \"#utility.yul\":12238:12513   */\n      swap3\n      swap2\n      pop\n      pop\n      jump\t// out\n        /* \"#utility.yul\":12519:12660   */\n    tag_155:\n        /* \"#utility.yul\":12568:12572   */\n      0x00\n        /* \"#utility.yul\":12591:12594   */\n      dup2\n        /* \"#utility.yul\":12583:12594   */\n      swap1\n      pop\n        /* \"#utility.yul\":12614:12617   */\n      dup2\n        /* \"#utility.yul\":12611:12612   */\n      0x00\n        /* \"#utility.yul\":12604:12618   */\n      mstore\n        /* \"#utility.yul\":12648:12652   */\n      0x20\n        /* \"#utility.yul\":12645:12646   */\n      0x00\n        /* \"#utility.yul\":12635:12653   */\n      keccak256\n        /* \"#utility.yul\":12627:12653   */\n      swap1\n      pop\n        /* \"#utility.yul\":12519:12660   */\n      swap2\n      swap1\n      pop\n      jump\t// out\n        /* \"#utility.yul\":12690:13564   */\n    tag_156:\n        /* \"#utility.yul\":12793:12796   */\n      0x00\n        /* \"#utility.yul\":12830:12835   */\n      dup2\n        /* \"#utility.yul\":12824:12836   */\n      sload\n        /* \"#utility.yul\":12859:12895   */\n      tag_300\n        /* \"#utility.yul\":12885:12894   */\n      dup2\n        /* \"#utility.yul\":12859:12895   */\n      tag_53\n      jump\t// in\n    tag_300:\n        /* \"#utility.yul\":12911:13000   */\n      tag_301\n        /* \"#utility.yul\":12993:12999   */\n      dup2\n        /* \"#utility.yul\":12988:12991   */\n      dup7\n        /* \"#utility.yul\":12911:13000   */\n      tag_153\n      jump\t// in\n    tag_301:\n        /* \"#utility.yul\":12904:13000   */\n      swap5\n      pop\n        /* \"#utility.yul\":13031:13032   */\n      0x01\n        /* \"#utility.yul\":13020:13029   */\n      dup3\n        /* \"#utility.yul\":13016:13033   */\n      and\n        /* \"#utility.yul\":13047:13048   */\n      0x00\n        /* \"#utility.yul\":13042:13208   */\n      dup2\n      eq\n      tag_303\n      jumpi\n        /* \"#utility.yul\":13222:13223   */\n      0x01\n        /* \"#utility.yul\":13217:13558   */\n      dup2\n      eq\n      tag_304\n      jumpi\n        /* \"#utility.yul\":13009:13558   */\n      jump(tag_302)\n        /* \"#utility.yul\":13042:13208   */\n    tag_303:\n        /* \"#utility.yul\":13126:13130   */\n      0xff\n        /* \"#utility.yul\":13122:13131   */\n      not\n        /* \"#utility.yul\":13111:13120   */\n      dup4\n        /* \"#utility.yul\":13107:13132   */\n      and\n        /* \"#utility.yul\":13102:13105   */\n      dup7\n        /* \"#utility.yul\":13095:13133   */\n      mstore\n        /* \"#utility.yul\":13188:13194   */\n      dup2\n        /* \"#utility.yul\":13181:13195   */\n      iszero\n        /* \"#utility.yul\":13174:13196   */\n      iszero\n        /* \"#utility.yul\":13166:13172   */\n      dup3\n        /* \"#utility.yul\":13162:13197   */\n      mul\n        /* \"#utility.yul\":13157:13160   */\n      dup7\n        /* \"#utility.yul\":13153:13198   */\n      add\n        /* \"#utility.yul\":13146:13198   */\n      swap4\n      pop\n        /* \"#utility.yul\":13042:13208   */\n      jump(tag_302)\n        /* \"#utility.yul\":13217:13558   */\n    tag_304:\n        /* \"#utility.yul\":13284:13322   */\n      tag_305\n        /* \"#utility.yul\":13316:13321   */\n      dup6\n        /* \"#utility.yul\":13284:13322   */\n      tag_155\n      jump\t// in\n    tag_305:\n        /* \"#utility.yul\":13344:13345   */\n      0x00\n        /* \"#utility.yul\":13358:13512   */\n    tag_306:\n        /* \"#utility.yul\":13372:13378   */\n      dup4\n        /* \"#utility.yul\":13369:13370   */\n      dup2\n        /* \"#utility.yul\":13366:13379   */\n      lt\n        /* \"#utility.yul\":13358:13512   */\n      iszero\n      tag_308\n      jumpi\n        /* \"#utility.yul\":13446:13453   */\n      dup2\n        /* \"#utility.yul\":13440:13454   */\n      sload\n        /* \"#utility.yul\":13436:13437   */\n      dup2\n        /* \"#utility.yul\":13431:13434   */\n      dup10\n        /* \"#utility.yul\":13427:13438   */\n      add\n        /* \"#utility.yul\":13420:13455   */\n      mstore\n        /* \"#utility.yul\":13496:13497   */\n      0x01\n        /* \"#utility.yul\":13487:13494   */\n      dup3\n        /* \"#utility.yul\":13483:13498   */\n      add\n        /* \"#utility.yul\":13472:13498   */\n      swap2\n      pop\n        /* \"#utility.yul\":13394:13398   */\n      0x20\n        /* \"#utility.yul\":13391:13392   */\n      dup2\n        /* \"#utility.yul\":13387:13399   */\n      add\n        /* \"#utility.yul\":13382:13399   */\n      swap1\n      pop\n        /* \"#utility.yul\":13358:13512   */\n      jump(tag_306)\n    tag_308:\n        /* \"#utility.yul\":13541:13547   */\n      dup4\n        /* \"#utility.yul\":13536:13539   */\n      dup9\n        /* \"#utility.yul\":13532:13548   */\n      add\n        /* \"#utility.yul\":13525:13548   */\n      swap6\n      pop\n        /* \"#utility.yul\":13224:13558   */\n      pop\n      pop\n        /* \"#utility.yul\":13009:13558   */\n    tag_302:\n      pop\n        /* \"#utility.yul\":12797:13564   */\n      pop\n      pop\n        /* \"#utility.yul\":12690:13564   */\n      swap3\n      swap2\n      pop\n      pop\n      jump\t// out\n        /* \"#utility.yul\":13570:13839   */\n    tag_73:\n        /* \"#utility.yul\":13699:13702   */\n      0x00\n        /* \"#utility.yul\":13721:13813   */\n      tag_310\n        /* \"#utility.yul\":13809:13812   */\n      dup3\n        /* \"#utility.yul\":13800:13806   */\n      dup5\n        /* \"#utility.yul\":13721:13813   */\n      tag_156\n      jump\t// in\n    tag_310:\n        /* \"#utility.yul\":13714:13813   */\n      swap2\n      pop\n        /* \"#utility.yul\":13830:13833   */\n      dup2\n        /* \"#utility.yul\":13823:13833   */\n      swap1\n      pop\n        /* \"#utility.yul\":13570:13839   */\n      swap3\n      swap2\n      pop\n      pop\n      jump\t// out\n        /* \"#utility.yul\":13845:14015   */\n    tag_157:\n        /* \"#utility.yul\":13985:14007   */\n      0x556e61626c6520746f2066696e64207573657221000000000000000000000000\n        /* \"#utility.yul\":13981:13982   */\n      0x00\n        /* \"#utility.yul\":13973:13979   */\n      dup3\n        /* \"#utility.yul\":13969:13983   */\n      add\n        /* \"#utility.yul\":13962:14008   */\n      mstore\n        /* \"#utility.yul\":13845:14015   */\n      pop\n      jump\t// out\n        /* \"#utility.yul\":14021:14387   */\n    tag_158:\n        /* \"#utility.yul\":14163:14166   */\n      0x00\n        /* \"#utility.yul\":14184:14251   */\n      tag_313\n        /* \"#utility.yul\":14248:14250   */\n      0x14\n        /* \"#utility.yul\":14243:14246   */\n      dup4\n        /* \"#utility.yul\":14184:14251   */\n      tag_144\n      jump\t// in\n    tag_313:\n        /* \"#utility.yul\":14177:14251   */\n      swap2\n      pop\n        /* \"#utility.yul\":14260:14353   */\n      tag_314\n        /* \"#utility.yul\":14349:14352   */\n      dup3\n        /* \"#utility.yul\":14260:14353   */\n      tag_157\n      jump\t// in\n    tag_314:\n        /* \"#utility.yul\":14378:14380   */\n      0x20\n        /* \"#utility.yul\":14373:14376   */\n      dup3\n        /* \"#utility.yul\":14369:14381   */\n      add\n        /* \"#utility.yul\":14362:14381   */\n      swap1\n      pop\n        /* \"#utility.yul\":14021:14387   */\n      swap2\n      swap1\n      pop\n      jump\t// out\n        /* \"#utility.yul\":14393:14812   */\n    tag_87:\n        /* \"#utility.yul\":14559:14563   */\n      0x00\n        /* \"#utility.yul\":14597:14599   */\n      0x20\n        /* \"#utility.yul\":14586:14595   */\n      dup3\n        /* \"#utility.yul\":14582:14600   */\n      add\n        /* \"#utility.yul\":14574:14600   */\n      swap1\n      pop\n        /* \"#utility.yul\":14646:14655   */\n      dup2\n        /* \"#utility.yul\":14640:14644   */\n      dup2\n        /* \"#utility.yul\":14636:14656   */\n      sub\n        /* \"#utility.yul\":14632:14633   */\n      0x00\n        /* \"#utility.yul\":14621:14630   */\n      dup4\n        /* \"#utility.yul\":14617:14634   */\n      add\n        /* \"#utility.yul\":14610:14657   */\n      mstore\n        /* \"#utility.yul\":14674:14805   */\n      tag_316\n        /* \"#utility.yul\":14800:14804   */\n      dup2\n        /* \"#utility.yul\":14674:14805   */\n      tag_158\n      jump\t// in\n    tag_316:\n        /* \"#utility.yul\":14666:14805   */\n      swap1\n      pop\n        /* \"#utility.yul\":14393:14812   */\n      swap2\n      swap1\n      pop\n      jump\t// out\n        /* \"#utility.yul\":14818:14992   */\n    tag_159:\n        /* \"#utility.yul\":14958:14984   */\n      0x596f75206e65656420746f20626520616e2061646d696e210000000000000000\n        /* \"#utility.yul\":14954:14955   */\n      0x00\n        /* \"#utility.yul\":14946:14952   */\n      dup3\n        /* \"#utility.yul\":14942:14956   */\n      add\n        /* \"#utility.yul\":14935:14985   */\n      mstore\n        /* \"#utility.yul\":14818:14992   */\n      pop\n      jump\t// out\n        /* \"#utility.yul\":14998:15364   */\n    tag_160:\n        /* \"#utility.yul\":15140:15143   */\n      0x00\n        /* \"#utility.yul\":15161:15228   */\n      tag_319\n        /* \"#utility.yul\":15225:15227   */\n      0x18\n        /* \"#utility.yul\":15220:15223   */\n      dup4\n        /* \"#utility.yul\":15161:15228   */\n      tag_144\n      jump\t// in\n    tag_319:\n        /* \"#utility.yul\":15154:15228   */\n      swap2\n      pop\n        /* \"#utility.yul\":15237:15330   */\n      tag_320\n        /* \"#utility.yul\":15326:15329   */\n      dup3\n        /* \"#utility.yul\":15237:15330   */\n      tag_159\n      jump\t// in\n    tag_320:\n        /* \"#utility.yul\":15355:15357   */\n      0x20\n        /* \"#utility.yul\":15350:15353   */\n      dup3\n        /* \"#utility.yul\":15346:15358   */\n      add\n        /* \"#utility.yul\":15339:15358   */\n      swap1\n      pop\n        /* \"#utility.yul\":14998:15364   */\n      swap2\n      swap1\n      pop\n      jump\t// out\n        /* \"#utility.yul\":15370:15789   */\n    tag_105:\n        /* \"#utility.yul\":15536:15540   */\n      0x00\n        /* \"#utility.yul\":15574:15576   */\n      0x20\n        /* \"#utility.yul\":15563:15572   */\n      dup3\n        /* \"#utility.yul\":15559:15577   */\n      add\n        /* \"#utility.yul\":15551:15577   */\n      swap1\n      pop\n        /* \"#utility.yul\":15623:15632   */\n      dup2\n        /* \"#utility.yul\":15617:15621   */\n      dup2\n        /* \"#utility.yul\":15613:15633   */\n      sub\n        /* \"#utility.yul\":15609:15610   */\n      0x00\n        /* \"#utility.yul\":15598:15607   */\n      dup4\n        /* \"#utility.yul\":15594:15611   */\n      add\n        /* \"#utility.yul\":15587:15634   */\n      mstore\n        /* \"#utility.yul\":15651:15782   */\n      tag_322\n        /* \"#utility.yul\":15777:15781   */\n      dup2\n        /* \"#utility.yul\":15651:15782   */\n      tag_160\n      jump\t// in\n    tag_322:\n        /* \"#utility.yul\":15643:15782   */\n      swap1\n      pop\n        /* \"#utility.yul\":15370:15789   */\n      swap2\n      swap1\n      pop\n      jump\t// out\n        /* \"#utility.yul\":15795:15888   */\n    tag_161:\n        /* \"#utility.yul\":15832:15838   */\n      0x00\n        /* \"#utility.yul\":15879:15881   */\n      0x20\n        /* \"#utility.yul\":15874:15876   */\n      0x1f\n        /* \"#utility.yul\":15867:15872   */\n      dup4\n        /* \"#utility.yul\":15863:15877   */\n      add\n        /* \"#utility.yul\":15859:15882   */\n      div\n        /* \"#utility.yul\":15849:15882   */\n      swap1\n      pop\n        /* \"#utility.yul\":15795:15888   */\n      swap2\n      swap1\n      pop\n      jump\t// out\n        /* \"#utility.yul\":15894:16001   */\n    tag_162:\n        /* \"#utility.yul\":15938:15946   */\n      0x00\n        /* \"#utility.yul\":15988:15993   */\n      dup3\n        /* \"#utility.yul\":15982:15986   */\n      dup3\n        /* \"#utility.yul\":15978:15994   */\n      shl\n        /* \"#utility.yul\":15957:15994   */\n      swap1\n      pop\n        /* \"#utility.yul\":15894:16001   */\n      swap3\n      swap2\n      pop\n      pop\n      jump\t// out\n        /* \"#utility.yul\":16007:16400   */\n    tag_163:\n        /* \"#utility.yul\":16076:16082   */\n      0x00\n        /* \"#utility.yul\":16126:16127   */\n      0x08\n        /* \"#utility.yul\":16114:16124   */\n      dup4\n        /* \"#utility.yul\":16110:16128   */\n      mul\n        /* \"#utility.yul\":16149:16246   */\n      tag_326\n        /* \"#utility.yul\":16179:16245   */\n      0xffffffffffffffffffffffffffffffffffffffffffffffffffffffffffffffff\n        /* \"#utility.yul\":16168:16177   */\n      dup3\n        /* \"#utility.yul\":16149:16246   */\n      tag_162\n      jump\t// in\n    tag_326:\n        /* \"#utility.yul\":16267:16306   */\n      tag_327\n        /* \"#utility.yul\":16297:16305   */\n      dup7\n        /* \"#utility.yul\":16286:16295   */\n      dup4\n        /* \"#utility.yul\":16267:16306   */\n      tag_162\n      jump\t// in\n    tag_327:\n        /* \"#utility.yul\":16255:16306   */\n      swap6\n      pop\n        /* \"#utility.yul\":16339:16343   */\n      dup1\n        /* \"#utility.yul\":16335:16344   */\n      not\n        /* \"#utility.yul\":16328:16333   */\n      dup5\n        /* \"#utility.yul\":16324:16345   */\n      and\n        /* \"#utility.yul\":16315:16345   */\n      swap4\n      pop\n        /* \"#utility.yul\":16388:16392   */\n      dup1\n        /* \"#utility.yul\":16378:16386   */\n      dup7\n        /* \"#utility.yul\":16374:16393   */\n      and\n        /* \"#utility.yul\":16367:16372   */\n      dup5\n        /* \"#utility.yul\":16364:16394   */\n      or\n        /* \"#utility.yul\":16354:16394   */\n      swap3\n      pop\n        /* \"#utility.yul\":16083:16400   */\n      pop\n      pop\n        /* \"#utility.yul\":16007:16400   */\n      swap4\n      swap3\n      pop\n      pop\n      pop\n      jump\t// out\n        /* \"#utility.yul\":16406:16466   */\n    tag_164:\n        /* \"#utility.yul\":16434:16437   */\n      0x00\n        /* \"#utility.yul\":16455:16460   */\n      dup2\n        /* \"#utility.yul\":16448:16460   */\n      swap1\n      pop\n        /* \"#utility.yul\":16406:16466   */\n      swap2\n      swap1\n      pop\n      jump\t// out\n        /* \"#utility.yul\":16472:16614   */\n    tag_165:\n        /* \"#utility.yul\":16522:16531   */\n      0x00\n        /* \"#utility.yul\":16555:16608   */\n      tag_330\n        /* \"#utility.yul\":16573:16607   */\n      tag_331\n        /* \"#utility.yul\":16582:16606   */\n      tag_332\n        /* \"#utility.yul\":16600:16605   */\n      dup5\n        /* \"#utility.yul\":16582:16606   */\n      tag_146\n      jump\t// in\n    tag_332:\n        /* \"#utility.yul\":16573:16607   */\n      tag_164\n      jump\t// in\n    tag_331:\n        /* \"#utility.yul\":16555:16608   */\n      tag_146\n      jump\t// in\n    tag_330:\n        /* \"#utility.yul\":16542:16608   */\n      swap1\n      pop\n        /* \"#utility.yul\":16472:16614   */\n      swap2\n      swap1\n      pop\n      jump\t// out\n        /* \"#utility.yul\":16620:16695   */\n    tag_166:\n        /* \"#utility.yul\":16663:16666   */\n      0x00\n        /* \"#utility.yul\":16684:16689   */\n      dup2\n        /* \"#utility.yul\":16677:16689   */\n      swap1\n      pop\n        /* \"#utility.yul\":16620:16695   */\n      swap2\n      swap1\n      pop\n      jump\t// out\n        /* \"#utility.yul\":16701:16970   */\n    tag_167:\n        /* \"#utility.yul\":16811:16850   */\n      tag_335\n        /* \"#utility.yul\":16842:16849   */\n      dup4\n        /* \"#utility.yul\":16811:16850   */\n      tag_165\n      jump\t// in\n    tag_335:\n        /* \"#utility.yul\":16872:16963   */\n      tag_336\n        /* \"#utility.yul\":16921:16962   */\n      tag_337\n        /* \"#utility.yul\":16945:16961   */\n      dup3\n        /* \"#utility.yul\":16921:16962   */\n      tag_166\n      jump\t// in\n    tag_337:\n        /* \"#utility.yul\":16913:16919   */\n      dup5\n        /* \"#utility.yul\":16906:16910   */\n      dup5\n        /* \"#utility.yul\":16900:16911   */\n      sload\n        /* \"#utility.yul\":16872:16963   */\n      tag_163\n      jump\t// in\n    tag_336:\n        /* \"#utility.yul\":16866:16870   */\n      dup3\n        /* \"#utility.yul\":16859:16964   */\n      sstore\n        /* \"#utility.yul\":16777:16970   */\n      pop\n        /* \"#utility.yul\":16701:16970   */\n      pop\n      pop\n      pop\n      jump\t// out\n        /* \"#utility.yul\":16976:17049   */\n    tag_168:\n        /* \"#utility.yul\":17021:17024   */\n      0x00\n        /* \"#utility.yul\":16976:17049   */\n      swap1\n      jump\t// out\n        /* \"#utility.yul\":17055:17244   */\n    tag_169:\n        /* \"#utility.yul\":17132:17164   */\n      tag_340\n      tag_168\n      jump\t// in\n    tag_340:\n        /* \"#utility.yul\":17173:17238   */\n      tag_341\n        /* \"#utility.yul\":17231:17237   */\n      dup2\n        /* \"#utility.yul\":17223:17229   */\n      dup5\n        /* \"#utility.yul\":17217:17221   */\n      dup5\n        /* \"#utility.yul\":17173:17238   */\n      tag_167\n      jump\t// in\n    tag_341:\n        /* \"#utility.yul\":17108:17244   */\n      pop\n        /* \"#utility.yul\":17055:17244   */\n      pop\n      pop\n      jump\t// out\n        /* \"#utility.yul\":17250:17436   */\n    tag_170:\n        /* \"#utility.yul\":17310:17430   */\n    tag_343:\n        /* \"#utility.yul\":17327:17330   */\n      dup2\n        /* \"#utility.yul\":17320:17325   */\n      dup2\n        /* \"#utility.yul\":17317:17331   */\n      lt\n        /* \"#utility.yul\":17310:17430   */\n      iszero\n      tag_345\n      jumpi\n        /* \"#utility.yul\":17381:17420   */\n      tag_346\n        /* \"#utility.yul\":17418:17419   */\n      0x00\n        /* \"#utility.yul\":17411:17416   */\n      dup3\n        /* \"#utility.yul\":17381:17420   */\n      tag_169\n      jump\t// in\n    tag_346:\n        /* \"#utility.yul\":17354:17355   */\n      0x01\n        /* \"#utility.yul\":17347:17352   */\n      dup2\n        /* \"#utility.yul\":17343:17356   */\n      add\n        /* \"#utility.yul\":17334:17356   */\n      swap1\n      pop\n        /* \"#utility.yul\":17310:17430   */\n      jump(tag_343)\n    tag_345:\n        /* \"#utility.yul\":17250:17436   */\n      pop\n      pop\n      jump\t// out\n        /* \"#utility.yul\":17442:17985   */\n    tag_171:\n        /* \"#utility.yul\":17543:17545   */\n      0x1f\n        /* \"#utility.yul\":17538:17541   */\n      dup3\n        /* \"#utility.yul\":17535:17546   */\n      gt\n        /* \"#utility.yul\":17532:17978   */\n      iszero\n      tag_348\n      jumpi\n        /* \"#utility.yul\":17577:17615   */\n      tag_349\n        /* \"#utility.yul\":17609:17614   */\n      dup2\n        /* \"#utility.yul\":17577:17615   */\n      tag_155\n      jump\t// in\n    tag_349:\n        /* \"#utility.yul\":17661:17690   */\n      tag_350\n        /* \"#utility.yul\":17679:17689   */\n      dup5\n        /* \"#utility.yul\":17661:17690   */\n      tag_161\n      jump\t// in\n    tag_350:\n        /* \"#utility.yul\":17651:17659   */\n      dup2\n        /* \"#utility.yul\":17647:17691   */\n      add\n        /* \"#utility.yul\":17844:17846   */\n      0x20\n        /* \"#utility.yul\":17832:17842   */\n      dup6\n        /* \"#utility.yul\":17829:17847   */\n      lt\n        /* \"#utility.yul\":17826:17875   */\n      iszero\n      tag_351\n      jumpi\n        /* \"#utility.yul\":17865:17873   */\n      dup2\n        /* \"#utility.yul\":17850:17873   */\n      swap1\n      pop\n        /* \"#utility.yul\":17826:17875   */\n    tag_351:\n        /* \"#utility.yul\":17888:17968   */\n      tag_352\n        /* \"#utility.yul\":17944:17966   */\n      tag_353\n        /* \"#utility.yul\":17962:17965   */\n      dup6\n        /* \"#utility.yul\":17944:17966   */\n      tag_161\n      jump\t// in\n    tag_353:\n        /* \"#utility.yul\":17934:17942   */\n      dup4\n        /* \"#utility.yul\":17930:17967   */\n      add\n        /* \"#utility.yul\":17917:17928   */\n      dup3\n        /* \"#utility.yul\":17888:17968   */\n      tag_170\n      jump\t// in\n    tag_352:\n        /* \"#utility.yul\":17547:17978   */\n      pop\n      pop\n        /* \"#utility.yul\":17532:17978   */\n    tag_348:\n        /* \"#utility.yul\":17442:17985   */\n      pop\n      pop\n      pop\n      jump\t// out\n        /* \"#utility.yul\":17991:18108   */\n    tag_172:\n        /* \"#utility.yul\":18045:18053   */\n      0x00\n        /* \"#utility.yul\":18095:18100   */\n      dup3\n        /* \"#utility.yul\":18089:18093   */\n      dup3\n        /* \"#utility.yul\":18085:18101   */\n      shr\n        /* \"#utility.yul\":18064:18101   */\n      swap1\n      pop\n        /* \"#utility.yul\":17991:18108   */\n      swap3\n      swap2\n      pop\n      pop\n      jump\t// out\n        /* \"#utility.yul\":18114:18283   */\n    tag_173:\n        /* \"#utility.yul\":18158:18164   */\n      0x00\n        /* \"#utility.yul\":18191:18242   */\n      tag_356\n        /* \"#utility.yul\":18239:18240   */\n      0x00\n        /* \"#utility.yul\":18235:18241   */\n      not\n        /* \"#utility.yul\":18227:18232   */\n      dup5\n        /* \"#utility.yul\":18224:18225   */\n      0x08\n        /* \"#utility.yul\":18220:18233   */\n      mul\n        /* \"#utility.yul\":18191:18242   */\n      tag_172\n      jump\t// in\n    tag_356:\n        /* \"#utility.yul\":18187:18243   */\n      not\n        /* \"#utility.yul\":18272:18276   */\n      dup1\n        /* \"#utility.yul\":18266:18270   */\n      dup4\n        /* \"#utility.yul\":18262:18277   */\n      and\n        /* \"#utility.yul\":18252:18277   */\n      swap2\n      pop\n        /* \"#utility.yul\":18165:18283   */\n      pop\n        /* \"#utility.yul\":18114:18283   */\n      swap3\n      swap2\n      pop\n      pop\n      jump\t// out\n        /* \"#utility.yul\":18288:18583   */\n    tag_174:\n        /* \"#utility.yul\":18364:18368   */\n      0x00\n        /* \"#utility.yul\":18510:18539   */\n      tag_358\n        /* \"#utility.yul\":18535:18538   */\n      dup4\n        /* \"#utility.yul\":18529:18533   */\n      dup4\n        /* \"#utility.yul\":18510:18539   */\n      tag_173\n      jump\t// in\n    tag_358:\n        /* \"#utility.yul\":18502:18539   */\n      swap2\n      pop\n        /* \"#utility.yul\":18572:18575   */\n      dup3\n        /* \"#utility.yul\":18569:18570   */\n      0x02\n        /* \"#utility.yul\":18565:18576   */\n      mul\n        /* \"#utility.yul\":18559:18563   */\n      dup3\n        /* \"#utility.yul\":18556:18577   */\n      or\n        /* \"#utility.yul\":18548:18577   */\n      swap1\n      pop\n        /* \"#utility.yul\":18288:18583   */\n      swap3\n      swap2\n      pop\n      pop\n      jump\t// out\n        /* \"#utility.yul\":18588:19983   */\n    tag_108:\n        /* \"#utility.yul\":18705:18742   */\n      tag_360\n        /* \"#utility.yul\":18738:18741   */\n      dup3\n        /* \"#utility.yul\":18705:18742   */\n      tag_124\n      jump\t// in\n    tag_360:\n        /* \"#utility.yul\":18807:18825   */\n      0xffffffffffffffff\n        /* \"#utility.yul\":18799:18805   */\n      dup2\n        /* \"#utility.yul\":18796:18826   */\n      gt\n        /* \"#utility.yul\":18793:18849   */\n      iszero\n      tag_361\n      jumpi\n        /* \"#utility.yul\":18829:18847   */\n      tag_362\n      tag_44\n      jump\t// in\n    tag_362:\n        /* \"#utility.yul\":18793:18849   */\n    tag_361:\n        /* \"#utility.yul\":18873:18911   */\n      tag_363\n        /* \"#utility.yul\":18905:18909   */\n      dup3\n        /* \"#utility.yul\":18899:18910   */\n      sload\n        /* \"#utility.yul\":18873:18911   */\n      tag_53\n      jump\t// in\n    tag_363:\n        /* \"#utility.yul\":18958:19025   */\n      tag_364\n        /* \"#utility.yul\":19018:19024   */\n      dup3\n        /* \"#utility.yul\":19010:19016   */\n      dup3\n        /* \"#utility.yul\":19004:19008   */\n      dup6\n        /* \"#utility.yul\":18958:19025   */\n      tag_171\n      jump\t// in\n    tag_364:\n        /* \"#utility.yul\":19052:19053   */\n      0x00\n        /* \"#utility.yul\":19076:19080   */\n      0x20\n        /* \"#utility.yul\":19063:19080   */\n      swap1\n      pop\n        /* \"#utility.yul\":19108:19110   */\n      0x1f\n        /* \"#utility.yul\":19100:19106   */\n      dup4\n        /* \"#utility.yul\":19097:19111   */\n      gt\n        /* \"#utility.yul\":19125:19126   */\n      0x01\n        /* \"#utility.yul\":19120:19738   */\n      dup2\n      eq\n      tag_366\n      jumpi\n        /* \"#utility.yul\":19782:19783   */\n      0x00\n        /* \"#utility.yul\":19799:19805   */\n      dup5\n        /* \"#utility.yul\":19796:19873   */\n      iszero\n      tag_367\n      jumpi\n        /* \"#utility.yul\":19848:19857   */\n      dup3\n        /* \"#utility.yul\":19843:19846   */\n      dup8\n        /* \"#utility.yul\":19839:19858   */\n      add\n        /* \"#utility.yul\":19833:19859   */\n      mload\n        /* \"#utility.yul\":19824:19859   */\n      swap1\n      pop\n        /* \"#utility.yul\":19796:19873   */\n    tag_367:\n        /* \"#utility.yul\":19899:19966   */\n      tag_368\n        /* \"#utility.yul\":19959:19965   */\n      dup6\n        /* \"#utility.yul\":19952:19957   */\n      dup3\n        /* \"#utility.yul\":19899:19966   */\n      tag_174\n      jump\t// in\n    tag_368:\n        /* \"#utility.yul\":19893:19897   */\n      dup7\n        /* \"#utility.yul\":19886:19967   */\n      sstore\n        /* \"#utility.yul\":19755:19977   */\n      pop\n        /* \"#utility.yul\":19090:19977   */\n      jump(tag_365)\n        /* \"#utility.yul\":19120:19738   */\n    tag_366:\n        /* \"#utility.yul\":19172:19176   */\n      0x1f\n        /* \"#utility.yul\":19168:19177   */\n      not\n        /* \"#utility.yul\":19160:19166   */\n      dup5\n        /* \"#utility.yul\":19156:19178   */\n      and\n        /* \"#utility.yul\":19206:19243   */\n      tag_369\n        /* \"#utility.yul\":19238:19242   */\n      dup7\n        /* \"#utility.yul\":19206:19243   */\n      tag_155\n      jump\t// in\n    tag_369:\n        /* \"#utility.yul\":19265:19266   */\n      0x00\n        /* \"#utility.yul\":19279:19487   */\n    tag_370:\n        /* \"#utility.yul\":19293:19300   */\n      dup3\n        /* \"#utility.yul\":19290:19291   */\n      dup2\n        /* \"#utility.yul\":19287:19301   */\n      lt\n        /* \"#utility.yul\":19279:19487   */\n      iszero\n      tag_372\n      jumpi\n        /* \"#utility.yul\":19372:19381   */\n      dup5\n        /* \"#utility.yul\":19367:19370   */\n      dup10\n        /* \"#utility.yul\":19363:19382   */\n      add\n        /* \"#utility.yul\":19357:19383   */\n      mload\n        /* \"#utility.yul\":19349:19355   */\n      dup3\n        /* \"#utility.yul\":19342:19384   */\n      sstore\n        /* \"#utility.yul\":19423:19424   */\n      0x01\n        /* \"#utility.yul\":19415:19421   */\n      dup3\n        /* \"#utility.yul\":19411:19425   */\n      add\n        /* \"#utility.yul\":19401:19425   */\n      swap2\n      pop\n        /* \"#utility.yul\":19470:19472   */\n      0x20\n        /* \"#utility.yul\":19459:19468   */\n      dup6\n        /* \"#utility.yul\":19455:19473   */\n      add\n        /* \"#utility.yul\":19442:19473   */\n      swap5\n      pop\n        /* \"#utility.yul\":19316:19320   */\n      0x20\n        /* \"#utility.yul\":19313:19314   */\n      dup2\n        /* \"#utility.yul\":19309:19321   */\n      add\n        /* \"#utility.yul\":19304:19321   */\n      swap1\n      pop\n        /* \"#utility.yul\":19279:19487   */\n      jump(tag_370)\n    tag_372:\n        /* \"#utility.yul\":19515:19521   */\n      dup7\n        /* \"#utility.yul\":19506:19513   */\n      dup4\n        /* \"#utility.yul\":19503:19522   */\n      lt\n        /* \"#utility.yul\":19500:19679   */\n      iszero\n      tag_373\n      jumpi\n        /* \"#utility.yul\":19573:19582   */\n      dup5\n        /* \"#utility.yul\":19568:19571   */\n      dup10\n        /* \"#utility.yul\":19564:19583   */\n      add\n        /* \"#utility.yul\":19558:19584   */\n      mload\n        /* \"#utility.yul\":19616:19664   */\n      tag_374\n        /* \"#utility.yul\":19658:19662   */\n      0x1f\n        /* \"#utility.yul\":19650:19656   */\n      dup10\n        /* \"#utility.yul\":19646:19663   */\n      and\n        /* \"#utility.yul\":19635:19644   */\n      dup3\n        /* \"#utility.yul\":19616:19664   */\n      tag_173\n      jump\t// in\n    tag_374:\n        /* \"#utility.yul\":19608:19614   */\n      dup4\n        /* \"#utility.yul\":19601:19665   */\n      sstore\n        /* \"#utility.yul\":19523:19679   */\n      pop\n        /* \"#utility.yul\":19500:19679   */\n    tag_373:\n        /* \"#utility.yul\":19725:19726   */\n      0x01\n        /* \"#utility.yul\":19721:19722   */\n      0x02\n        /* \"#utility.yul\":19713:19719   */\n      dup9\n        /* \"#utility.yul\":19709:19723   */\n      mul\n        /* \"#utility.yul\":19705:19727   */\n      add\n        /* \"#utility.yul\":19699:19703   */\n      dup9\n        /* \"#utility.yul\":19692:19728   */\n      sstore\n        /* \"#utility.yul\":19127:19738   */\n      pop\n      pop\n      pop\n        /* \"#utility.yul\":19090:19977   */\n    tag_365:\n      pop\n        /* \"#utility.yul\":18680:19983   */\n      pop\n      pop\n      pop\n        /* \"#utility.yul\":18588:19983   */\n      pop\n      pop\n      jump\t// out\n        /* \"#utility.yul\":19989:20169   */\n    tag_175:\n        /* \"#utility.yul\":20037:20114   */\n      0x4e487b7100000000000000000000000000000000000000000000000000000000\n        /* \"#utility.yul\":20034:20035   */\n      0x00\n        /* \"#utility.yul\":20027:20115   */\n      mstore\n        /* \"#utility.yul\":20134:20138   */\n      0x11\n        /* \"#utility.yul\":20131:20132   */\n      0x04\n        /* \"#utility.yul\":20124:20139   */\n      mstore\n        /* \"#utility.yul\":20158:20162   */\n      0x24\n        /* \"#utility.yul\":20155:20156   */\n      0x00\n        /* \"#utility.yul\":20148:20163   */\n      revert\n        /* \"#utility.yul\":20175:20366   */\n    tag_111:\n        /* \"#utility.yul\":20215:20218   */\n      0x00\n        /* \"#utility.yul\":20234:20254   */\n      tag_377\n        /* \"#utility.yul\":20252:20253   */\n      dup3\n        /* \"#utility.yul\":20234:20254   */\n      tag_146\n      jump\t// in\n    tag_377:\n        /* \"#utility.yul\":20229:20254   */\n      swap2\n      pop\n        /* \"#utility.yul\":20268:20288   */\n      tag_378\n        /* \"#utility.yul\":20286:20287   */\n      dup4\n        /* \"#utility.yul\":20268:20288   */\n      tag_146\n      jump\t// in\n    tag_378:\n        /* \"#utility.yul\":20263:20288   */\n      swap3\n      pop\n        /* \"#utility.yul\":20311:20312   */\n      dup3\n        /* \"#utility.yul\":20308:20309   */\n      dup3\n        /* \"#utility.yul\":20304:20313   */\n      add\n        /* \"#utility.yul\":20297:20313   */\n      swap1\n      pop\n        /* \"#utility.yul\":20332:20335   */\n      dup1\n        /* \"#utility.yul\":20329:20330   */\n      dup3\n        /* \"#utility.yul\":20326:20336   */\n      gt\n        /* \"#utility.yul\":20323:20359   */\n      iszero\n      tag_379\n      jumpi\n        /* \"#utility.yul\":20339:20357   */\n      tag_380\n      tag_175\n      jump\t// in\n    tag_380:\n        /* \"#utility.yul\":20323:20359   */\n    tag_379:\n        /* \"#utility.yul\":20175:20366   */\n      swap3\n      swap2\n      pop\n      pop\n      jump\t// out\n\n    auxdata: 0xa2646970667358221220a73fcd40a62b4e50bd389810da2d64643aecea30f63d539e4bca6144e5304bd364736f6c63430008180033\n}\n",
				"bytecode": {
					"linkReferences": {},
					"object": "60806040525f600255348015610013575f80fd5b50335f806101000a81548173ffffffffffffffffffffffffffffffffffffffff021916908373ffffffffffffffffffffffffffffffffffffffff1602179055506112da806100605f395ff3fe608060405234801561000f575f80fd5b506004361061007a575f3560e01c806338f148451161005957806338f14845146100fe57806387b162b51461011a578063a1c57ee614610136578063f851a440146101525761007a565b8062ce8e3e1461007e5780632006b1c21461009c578063365b98b2146100cd575b5f80fd5b610086610170565b60405161009391906109f1565b60405180910390f35b6100b660048036038101906100b19190610b4e565b610345565b6040516100c4929190610bdd565b60405180910390f35b6100e760048036038101906100e29190610c45565b610552565b6040516100f5929190610bdd565b60405180910390f35b61011860048036038101906101139190610c45565b61067e565b005b610134600480360381019061012f9190610c70565b6106b2565b005b610150600480360381019061014b9190610ce6565b6107b1565b005b61015a6107d6565b6040516101679190610d7f565b60405180910390f35b60605f60025467ffffffffffffffff81111561018f5761018e610a2a565b5b6040519080825280602002602001820160405280156101c857816020015b6101b56107f9565b8152602001906001900390816101ad5790505b5090505f5b60025481101561033d5760015f8281526020019081526020015f206040518060400160405290815f8201805461020290610dc5565b80601f016020809104026020016040519081016040528092919081815260200182805461022e90610dc5565b80156102795780601f1061025057610100808354040283529160200191610279565b820191905f5260205f20905b81548152906001019060200180831161025c57829003601f168201915b5050505050815260200160018201805461029290610dc5565b80601f01602080910402602001604051908101604052809291908181526020018280546102be90610dc5565b80156103095780601f106102e057610100808354040283529160200191610309565b820191905f5260205f20905b8154815290600101906020018083116102ec57829003601f168201915b50505050508152505082828151811061032557610324610df5565b5b602002602001018190525080806001019150506101cd565b508091505090565b6060805f5b60025481101561050b57836040516020016103659190610e5c565b6040516020818303038152906040528051906020012060015f8381526020019081526020015f205f0160405160200161039e9190610f04565b60405160208183030381529060405280519060200120036104fe5760015f8281526020019081526020015f205f0160015f8381526020019081526020015f206001018180546103ec90610dc5565b80601f016020809104026020016040519081016040528092919081815260200182805461041890610dc5565b80156104635780601f1061043a57610100808354040283529160200191610463565b820191905f5260205f20905b81548152906001019060200180831161044657829003601f168201915b5050505050915080805461047690610dc5565b80601f01602080910402602001604051908101604052809291908181526020018280546104a290610dc5565b80156104ed5780601f106104c4576101008083540402835291602001916104ed565b820191905f5260205f20905b8154815290600101906020018083116104d057829003601f168201915b50505050509050925092505061054d565b808060010191505061034a565b505f61054c576040517f08c379a000000000000000000000000000000000000000000000000000000000815260040161054390610f64565b60405180910390fd5b5b915091565b6001602052805f5260405f205f91509050805f01805461057190610dc5565b80601f016020809104026020016040519081016040528092919081815260200182805461059d90610dc5565b80156105e85780601f106105bf576101008083540402835291602001916105e8565b820191905f5260205f20905b8154815290600101906020018083116105cb57829003601f168201915b5050505050908060010180546105fd90610dc5565b80601f016020809104026020016040519081016040528092919081815260200182805461062990610dc5565b80156106745780601f1061064b57610100808354040283529160200191610674565b820191905f5260205f20905b81548152906001019060200180831161065757829003601f168201915b5050505050905082565b60015f8281526020019081526020015f205f8082015f61069e9190610813565b600182015f6106ad9190610813565b505050565b5f8054906101000a900473ffffffffffffffffffffffffffffffffffffffff1673ffffffffffffffffffffffffffffffffffffffff163373ffffffffffffffffffffffffffffffffffffffff161461073f576040517f08c379a000000000000000000000000000000000000000000000000000000000815260040161073690610fcc565b60405180910390fd5b60405180604001604052808381526020018281525060015f60025481526020019081526020015f205f820151815f01908161077a9190611175565b5060208201518160010190816107909190611175565b50905050600160025f8282546107a69190611271565b925050819055505050565b8060015f8481526020019081526020015f205f0190816107d19190611175565b505050565b5f8054906101000a900473ffffffffffffffffffffffffffffffffffffffff1681565b604051806040016040528060608152602001606081525090565b50805461081f90610dc5565b5f825580601f10610830575061084d565b601f0160209004905f5260205f209081019061084c9190610850565b5b50565b5b80821115610867575f815f905550600101610851565b5090565b5f81519050919050565b5f82825260208201905092915050565b5f819050602082019050919050565b5f81519050919050565b5f82825260208201905092915050565b5f5b838110156108cb5780820151818401526020810190506108b0565b5f8484015250505050565b5f601f19601f8301169050919050565b5f6108f082610894565b6108fa818561089e565b935061090a8185602086016108ae565b610913816108d6565b840191505092915050565b5f604083015f8301518482035f86015261093882826108e6565b9150506020830151848203602086015261095282826108e6565b9150508091505092915050565b5f61096a838361091e565b905092915050565b5f602082019050919050565b5f6109888261086b565b6109928185610875565b9350836020820285016109a485610885565b805f5b858110156109df57848403895281516109c0858261095f565b94506109cb83610972565b925060208a019950506001810190506109a7565b50829750879550505050505092915050565b5f6020820190508181035f830152610a09818461097e565b905092915050565b5f604051905090565b5f80fd5b5f80fd5b5f80fd5b5f80fd5b7f4e487b71000000000000000000000000000000000000000000000000000000005f52604160045260245ffd5b610a60826108d6565b810181811067ffffffffffffffff82111715610a7f57610a7e610a2a565b5b80604052505050565b5f610a91610a11565b9050610a9d8282610a57565b919050565b5f67ffffffffffffffff821115610abc57610abb610a2a565b5b610ac5826108d6565b9050602081019050919050565b828183375f83830152505050565b5f610af2610aed84610aa2565b610a88565b905082815260208101848484011115610b0e57610b0d610a26565b5b610b19848285610ad2565b509392505050565b5f82601f830112610b3557610b34610a22565b5b8135610b45848260208601610ae0565b91505092915050565b5f60208284031215610b6357610b62610a1a565b5b5f82013567ffffffffffffffff811115610b8057610b7f610a1e565b5b610b8c84828501610b21565b91505092915050565b5f82825260208201905092915050565b5f610baf82610894565b610bb98185610b95565b9350610bc98185602086016108ae565b610bd2816108d6565b840191505092915050565b5f6040820190508181035f830152610bf58185610ba5565b90508181036020830152610c098184610ba5565b90509392505050565b5f819050919050565b610c2481610c12565b8114610c2e575f80fd5b50565b5f81359050610c3f81610c1b565b92915050565b5f60208284031215610c5a57610c59610a1a565b5b5f610c6784828501610c31565b91505092915050565b5f8060408385031215610c8657610c85610a1a565b5b5f83013567ffffffffffffffff811115610ca357610ca2610a1e565b5b610caf85828601610b21565b925050602083013567ffffffffffffffff811115610cd057610ccf610a1e565b5b610cdc85828601610b21565b9150509250929050565b5f8060408385031215610cfc57610cfb610a1a565b5b5f610d0985828601610c31565b925050602083013567ffffffffffffffff811115610d2a57610d29610a1e565b5b610d3685828601610b21565b9150509250929050565b5f73ffffffffffffffffffffffffffffffffffffffff82169050919050565b5f610d6982610d40565b9050919050565b610d7981610d5f565b82525050565b5f602082019050610d925f830184610d70565b92915050565b7f4e487b71000000000000000000000000000000000000000000000000000000005f52602260045260245ffd5b5f6002820490506001821680610ddc57607f821691505b602082108103610def57610dee610d98565b5b50919050565b7f4e487b71000000000000000000000000000000000000000000000000000000005f52603260045260245ffd5b5f81905092915050565b5f610e3682610894565b610e408185610e22565b9350610e508185602086016108ae565b80840191505092915050565b5f610e678284610e2c565b915081905092915050565b5f819050815f5260205f209050919050565b5f8154610e9081610dc5565b610e9a8186610e22565b9450600182165f8114610eb45760018114610ec957610efb565b60ff1983168652811515820286019350610efb565b610ed285610e72565b5f5b83811015610ef357815481890152600182019150602081019050610ed4565b838801955050505b50505092915050565b5f610f0f8284610e84565b915081905092915050565b7f556e61626c6520746f2066696e642075736572210000000000000000000000005f82015250565b5f610f4e601483610b95565b9150610f5982610f1a565b602082019050919050565b5f6020820190508181035f830152610f7b81610f42565b9050919050565b7f596f75206e65656420746f20626520616e2061646d696e2100000000000000005f82015250565b5f610fb6601883610b95565b9150610fc182610f82565b602082019050919050565b5f6020820190508181035f830152610fe381610faa565b9050919050565b5f6020601f8301049050919050565b5f82821b905092915050565b5f600883026110347fffffffffffffffffffffffffffffffffffffffffffffffffffffffffffffffff82610ff9565b61103e8683610ff9565b95508019841693508086168417925050509392505050565b5f819050919050565b5f61107961107461106f84610c12565b611056565b610c12565b9050919050565b5f819050919050565b6110928361105f565b6110a661109e82611080565b848454611005565b825550505050565b5f90565b6110ba6110ae565b6110c5818484611089565b505050565b5b818110156110e8576110dd5f826110b2565b6001810190506110cb565b5050565b601f82111561112d576110fe81610e72565b61110784610fea565b81016020851015611116578190505b61112a61112285610fea565b8301826110ca565b50505b505050565b5f82821c905092915050565b5f61114d5f1984600802611132565b1980831691505092915050565b5f611165838361113e565b9150826002028217905092915050565b61117e82610894565b67ffffffffffffffff81111561119757611196610a2a565b5b6111a18254610dc5565b6111ac8282856110ec565b5f60209050601f8311600181146111dd575f84156111cb578287015190505b6111d5858261115a565b86555061123c565b601f1984166111eb86610e72565b5f5b82811015611212578489015182556001820191506020850194506020810190506111ed565b8683101561122f578489015161122b601f89168261113e565b8355505b6001600288020188555050505b505050505050565b7f4e487b71000000000000000000000000000000000000000000000000000000005f52601160045260245ffd5b5f61127b82610c12565b915061128683610c12565b925082820190508082111561129e5761129d611244565b5b9291505056fea2646970667358221220a73fcd40a62b4e50bd389810da2d64643aecea30f63d539e4bca6144e5304bd364736f6c63430008180033",
					"opcodes": "PUSH1 0x80 PUSH1 0x40 MSTORE PUSH0 PUSH1 0x2 SSTORE CALLVALUE DUP1 ISZERO PUSH2 0x13 JUMPI PUSH0 DUP1 REVERT JUMPDEST POP CALLER PUSH0 DUP1 PUSH2 0x100 EXP DUP2 SLOAD DUP2 PUSH20 0xFFFFFFFFFFFFFFFFFFFFFFFFFFFFFFFFFFFFFFFF MUL NOT AND SWAP1 DUP4 PUSH20 0xFFFFFFFFFFFFFFFFFFFFFFFFFFFFFFFFFFFFFFFF AND MUL OR SWAP1 SSTORE POP PUSH2 0x12DA DUP1 PUSH2 0x60 PUSH0 CODECOPY PUSH0 RETURN INVALID PUSH1 0x80 PUSH1 0x40 MSTORE CALLVALUE DUP1 ISZERO PUSH2 0xF JUMPI PUSH0 DUP1 REVERT JUMPDEST POP PUSH1 0x4 CALLDATASIZE LT PUSH2 0x7A JUMPI PUSH0 CALLDATALOAD PUSH1 0xE0 SHR DUP1 PUSH4 0x38F14845 GT PUSH2 0x59 JUMPI DUP1 PUSH4 0x38F14845 EQ PUSH2 0xFE JUMPI DUP1 PUSH4 0x87B162B5 EQ PUSH2 0x11A JUMPI DUP1 PUSH4 0xA1C57EE6 EQ PUSH2 0x136 JUMPI DUP1 PUSH4 0xF851A440 EQ PUSH2 0x152 JUMPI PUSH2 0x7A JUMP JUMPDEST DUP1 PUSH3 0xCE8E3E EQ PUSH2 0x7E JUMPI DUP1 PUSH4 0x2006B1C2 EQ PUSH2 0x9C JUMPI DUP1 PUSH4 0x365B98B2 EQ PUSH2 0xCD JUMPI JUMPDEST PUSH0 DUP1 REVERT JUMPDEST PUSH2 0x86 PUSH2 0x170 JUMP JUMPDEST PUSH1 0x40 MLOAD PUSH2 0x93 SWAP2 SWAP1 PUSH2 0x9F1 JUMP JUMPDEST PUSH1 0x40 MLOAD DUP1 SWAP2 SUB SWAP1 RETURN JUMPDEST PUSH2 0xB6 PUSH1 0x4 DUP1 CALLDATASIZE SUB DUP2 ADD SWAP1 PUSH2 0xB1 SWAP2 SWAP1 PUSH2 0xB4E JUMP JUMPDEST PUSH2 0x345 JUMP JUMPDEST PUSH1 0x40 MLOAD PUSH2 0xC4 SWAP3 SWAP2 SWAP1 PUSH2 0xBDD JUMP JUMPDEST PUSH1 0x40 MLOAD DUP1 SWAP2 SUB SWAP1 RETURN JUMPDEST PUSH2 0xE7 PUSH1 0x4 DUP1 CALLDATASIZE SUB DUP2 ADD SWAP1 PUSH2 0xE2 SWAP2 SWAP1 PUSH2 0xC45 JUMP JUMPDEST PUSH2 0x552 JUMP JUMPDEST PUSH1 0x40 MLOAD PUSH2 0xF5 SWAP3 SWAP2 SWAP1 PUSH2 0xBDD JUMP JUMPDEST PUSH1 0x40 MLOAD DUP1 SWAP2 SUB SWAP1 RETURN JUMPDEST PUSH2 0x118 PUSH1 0x4 DUP1 CALLDATASIZE SUB DUP2 ADD SWAP1 PUSH2 0x113 SWAP2 SWAP1 PUSH2 0xC45 JUMP JUMPDEST PUSH2 0x67E JUMP JUMPDEST STOP JUMPDEST PUSH2 0x134 PUSH1 0x4 DUP1 CALLDATASIZE SUB DUP2 ADD SWAP1 PUSH2 0x12F SWAP2 SWAP1 PUSH2 0xC70 JUMP JUMPDEST PUSH2 0x6B2 JUMP JUMPDEST STOP JUMPDEST PUSH2 0x150 PUSH1 0x4 DUP1 CALLDATASIZE SUB DUP2 ADD SWAP1 PUSH2 0x14B SWAP2 SWAP1 PUSH2 0xCE6 JUMP JUMPDEST PUSH2 0x7B1 JUMP JUMPDEST STOP JUMPDEST PUSH2 0x15A PUSH2 0x7D6 JUMP JUMPDEST PUSH1 0x40 MLOAD PUSH2 0x167 SWAP2 SWAP1 PUSH2 0xD7F JUMP JUMPDEST PUSH1 0x40 MLOAD DUP1 SWAP2 SUB SWAP1 RETURN JUMPDEST PUSH1 0x60 PUSH0 PUSH1 0x2 SLOAD PUSH8 0xFFFFFFFFFFFFFFFF DUP2 GT ISZERO PUSH2 0x18F JUMPI PUSH2 0x18E PUSH2 0xA2A JUMP JUMPDEST JUMPDEST PUSH1 0x40 MLOAD SWAP1 DUP1 DUP3 MSTORE DUP1 PUSH1 0x20 MUL PUSH1 0x20 ADD DUP3 ADD PUSH1 0x40 MSTORE DUP1 ISZERO PUSH2 0x1C8 JUMPI DUP2 PUSH1 0x20 ADD JUMPDEST PUSH2 0x1B5 PUSH2 0x7F9 JUMP JUMPDEST DUP2 MSTORE PUSH1 0x20 ADD SWAP1 PUSH1 0x1 SWAP1 SUB SWAP1 DUP2 PUSH2 0x1AD JUMPI SWAP1 POP JUMPDEST POP SWAP1 POP PUSH0 JUMPDEST PUSH1 0x2 SLOAD DUP2 LT ISZERO PUSH2 0x33D JUMPI PUSH1 0x1 PUSH0 DUP3 DUP2 MSTORE PUSH1 0x20 ADD SWAP1 DUP2 MSTORE PUSH1 0x20 ADD PUSH0 KECCAK256 PUSH1 0x40 MLOAD DUP1 PUSH1 0x40 ADD PUSH1 0x40 MSTORE SWAP1 DUP2 PUSH0 DUP3 ADD DUP1 SLOAD PUSH2 0x202 SWAP1 PUSH2 0xDC5 JUMP JUMPDEST DUP1 PUSH1 0x1F ADD PUSH1 0x20 DUP1 SWAP2 DIV MUL PUSH1 0x20 ADD PUSH1 0x40 MLOAD SWAP1 DUP2 ADD PUSH1 0x40 MSTORE DUP1 SWAP3 SWAP2 SWAP1 DUP2 DUP2 MSTORE PUSH1 0x20 ADD DUP3 DUP1 SLOAD PUSH2 0x22E SWAP1 PUSH2 0xDC5 JUMP JUMPDEST DUP1 ISZERO PUSH2 0x279 JUMPI DUP1 PUSH1 0x1F LT PUSH2 0x250 JUMPI PUSH2 0x100 DUP1 DUP4 SLOAD DIV MUL DUP4 MSTORE SWAP2 PUSH1 0x20 ADD SWAP2 PUSH2 0x279 JUMP JUMPDEST DUP3 ADD SWAP2 SWAP1 PUSH0 MSTORE PUSH1 0x20 PUSH0 KECCAK256 SWAP1 JUMPDEST DUP2 SLOAD DUP2 MSTORE SWAP1 PUSH1 0x1 ADD SWAP1 PUSH1 0x20 ADD DUP1 DUP4 GT PUSH2 0x25C JUMPI DUP3 SWAP1 SUB PUSH1 0x1F AND DUP3 ADD SWAP2 JUMPDEST POP POP POP POP POP DUP2 MSTORE PUSH1 0x20 ADD PUSH1 0x1 DUP3 ADD DUP1 SLOAD PUSH2 0x292 SWAP1 PUSH2 0xDC5 JUMP JUMPDEST DUP1 PUSH1 0x1F ADD PUSH1 0x20 DUP1 SWAP2 DIV MUL PUSH1 0x20 ADD PUSH1 0x40 MLOAD SWAP1 DUP2 ADD PUSH1 0x40 MSTORE DUP1 SWAP3 SWAP2 SWAP1 DUP2 DUP2 MSTORE PUSH1 0x20 ADD DUP3 DUP1 SLOAD PUSH2 0x2BE SWAP1 PUSH2 0xDC5 JUMP JUMPDEST DUP1 ISZERO PUSH2 0x309 JUMPI DUP1 PUSH1 0x1F LT PUSH2 0x2E0 JUMPI PUSH2 0x100 DUP1 DUP4 SLOAD DIV MUL DUP4 MSTORE SWAP2 PUSH1 0x20 ADD SWAP2 PUSH2 0x309 JUMP JUMPDEST DUP3 ADD SWAP2 SWAP1 PUSH0 MSTORE PUSH1 0x20 PUSH0 KECCAK256 SWAP1 JUMPDEST DUP2 SLOAD DUP2 MSTORE SWAP1 PUSH1 0x1 ADD SWAP1 PUSH1 0x20 ADD DUP1 DUP4 GT PUSH2 0x2EC JUMPI DUP3 SWAP1 SUB PUSH1 0x1F AND DUP3 ADD SWAP2 JUMPDEST POP POP POP POP POP DUP2 MSTORE POP POP DUP3 DUP3 DUP2 MLOAD DUP2 LT PUSH2 0x325 JUMPI PUSH2 0x324 PUSH2 0xDF5 JUMP JUMPDEST JUMPDEST PUSH1 0x20 MUL PUSH1 0x20 ADD ADD DUP2 SWAP1 MSTORE POP DUP1 DUP1 PUSH1 0x1 ADD SWAP2 POP POP PUSH2 0x1CD JUMP JUMPDEST POP DUP1 SWAP2 POP POP SWAP1 JUMP JUMPDEST PUSH1 0x60 DUP1 PUSH0 JUMPDEST PUSH1 0x2 SLOAD DUP2 LT ISZERO PUSH2 0x50B JUMPI DUP4 PUSH1 0x40 MLOAD PUSH1 0x20 ADD PUSH2 0x365 SWAP2 SWAP1 PUSH2 0xE5C JUMP JUMPDEST PUSH1 0x40 MLOAD PUSH1 0x20 DUP2 DUP4 SUB SUB DUP2 MSTORE SWAP1 PUSH1 0x40 MSTORE DUP1 MLOAD SWAP1 PUSH1 0x20 ADD KECCAK256 PUSH1 0x1 PUSH0 DUP4 DUP2 MSTORE PUSH1 0x20 ADD SWAP1 DUP2 MSTORE PUSH1 0x20 ADD PUSH0 KECCAK256 PUSH0 ADD PUSH1 0x40 MLOAD PUSH1 0x20 ADD PUSH2 0x39E SWAP2 SWAP1 PUSH2 0xF04 JUMP JUMPDEST PUSH1 0x40 MLOAD PUSH1 0x20 DUP2 DUP4 SUB SUB DUP2 MSTORE SWAP1 PUSH1 0x40 MSTORE DUP1 MLOAD SWAP1 PUSH1 0x20 ADD KECCAK256 SUB PUSH2 0x4FE JUMPI PUSH1 0x1 PUSH0 DUP3 DUP2 MSTORE PUSH1 0x20 ADD SWAP1 DUP2 MSTORE PUSH1 0x20 ADD PUSH0 KECCAK256 PUSH0 ADD PUSH1 0x1 PUSH0 DUP4 DUP2 MSTORE PUSH1 0x20 ADD SWAP1 DUP2 MSTORE PUSH1 0x20 ADD PUSH0 KECCAK256 PUSH1 0x1 ADD DUP2 DUP1 SLOAD PUSH2 0x3EC SWAP1 PUSH2 0xDC5 JUMP JUMPDEST DUP1 PUSH1 0x1F ADD PUSH1 0x20 DUP1 SWAP2 DIV MUL PUSH1 0x20 ADD PUSH1 0x40 MLOAD SWAP1 DUP2 ADD PUSH1 0x40 MSTORE DUP1 SWAP3 SWAP2 SWAP1 DUP2 DUP2 MSTORE PUSH1 0x20 ADD DUP3 DUP1 SLOAD PUSH2 0x418 SWAP1 PUSH2 0xDC5 JUMP JUMPDEST DUP1 ISZERO PUSH2 0x463 JUMPI DUP1 PUSH1 0x1F LT PUSH2 0x43A JUMPI PUSH2 0x100 DUP1 DUP4 SLOAD DIV MUL DUP4 MSTORE SWAP2 PUSH1 0x20 ADD SWAP2 PUSH2 0x463 JUMP JUMPDEST DUP3 ADD SWAP2 SWAP1 PUSH0 MSTORE PUSH1 0x20 PUSH0 KECCAK256 SWAP1 JUMPDEST DUP2 SLOAD DUP2 MSTORE SWAP1 PUSH1 0x1 ADD SWAP1 PUSH1 0x20 ADD DUP1 DUP4 GT PUSH2 0x446 JUMPI DUP3 SWAP1 SUB PUSH1 0x1F AND DUP3 ADD SWAP2 JUMPDEST POP POP POP POP POP SWAP2 POP DUP1 DUP1 SLOAD PUSH2 0x476 SWAP1 PUSH2 0xDC5 JUMP JUMPDEST DUP1 PUSH1 0x1F ADD PUSH1 0x20 DUP1 SWAP2 DIV MUL PUSH1 0x20 ADD PUSH1 0x40 MLOAD SWAP1 DUP2 ADD PUSH1 0x40 MSTORE DUP1 SWAP3 SWAP2 SWAP1 DUP2 DUP2 MSTORE PUSH1 0x20 ADD DUP3 DUP1 SLOAD PUSH2 0x4A2 SWAP1 PUSH2 0xDC5 JUMP JUMPDEST DUP1 ISZERO PUSH2 0x4ED JUMPI DUP1 PUSH1 0x1F LT PUSH2 0x4C4 JUMPI PUSH2 0x100 DUP1 DUP4 SLOAD DIV MUL DUP4 MSTORE SWAP2 PUSH1 0x20 ADD SWAP2 PUSH2 0x4ED JUMP JUMPDEST DUP3 ADD SWAP2 SWAP1 PUSH0 MSTORE PUSH1 0x20 PUSH0 KECCAK256 SWAP1 JUMPDEST DUP2 SLOAD DUP2 MSTORE SWAP1 PUSH1 0x1 ADD SWAP1 PUSH1 0x20 ADD DUP1 DUP4 GT PUSH2 0x4D0 JUMPI DUP3 SWAP1 SUB PUSH1 0x1F AND DUP3 ADD SWAP2 JUMPDEST POP POP POP POP POP SWAP1 POP SWAP3 POP SWAP3 POP POP PUSH2 0x54D JUMP JUMPDEST DUP1 DUP1 PUSH1 0x1 ADD SWAP2 POP POP PUSH2 0x34A JUMP JUMPDEST POP PUSH0 PUSH2 0x54C JUMPI PUSH1 0x40 MLOAD PUSH32 0x8C379A000000000000000000000000000000000000000000000000000000000 DUP2 MSTORE PUSH1 0x4 ADD PUSH2 0x543 SWAP1 PUSH2 0xF64 JUMP JUMPDEST PUSH1 0x40 MLOAD DUP1 SWAP2 SUB SWAP1 REVERT JUMPDEST JUMPDEST SWAP2 POP SWAP2 JUMP JUMPDEST PUSH1 0x1 PUSH1 0x20 MSTORE DUP1 PUSH0 MSTORE PUSH1 0x40 PUSH0 KECCAK256 PUSH0 SWAP2 POP SWAP1 POP DUP1 PUSH0 ADD DUP1 SLOAD PUSH2 0x571 SWAP1 PUSH2 0xDC5 JUMP JUMPDEST DUP1 PUSH1 0x1F ADD PUSH1 0x20 DUP1 SWAP2 DIV MUL PUSH1 0x20 ADD PUSH1 0x40 MLOAD SWAP1 DUP2 ADD PUSH1 0x40 MSTORE DUP1 SWAP3 SWAP2 SWAP1 DUP2 DUP2 MSTORE PUSH1 0x20 ADD DUP3 DUP1 SLOAD PUSH2 0x59D SWAP1 PUSH2 0xDC5 JUMP JUMPDEST DUP1 ISZERO PUSH2 0x5E8 JUMPI DUP1 PUSH1 0x1F LT PUSH2 0x5BF JUMPI PUSH2 0x100 DUP1 DUP4 SLOAD DIV MUL DUP4 MSTORE SWAP2 PUSH1 0x20 ADD SWAP2 PUSH2 0x5E8 JUMP JUMPDEST DUP3 ADD SWAP2 SWAP1 PUSH0 MSTORE PUSH1 0x20 PUSH0 KECCAK256 SWAP1 JUMPDEST DUP2 SLOAD DUP2 MSTORE SWAP1 PUSH1 0x1 ADD SWAP1 PUSH1 0x20 ADD DUP1 DUP4 GT PUSH2 0x5CB JUMPI DUP3 SWAP1 SUB PUSH1 0x1F AND DUP3 ADD SWAP2 JUMPDEST POP POP POP POP POP SWAP1 DUP1 PUSH1 0x1 ADD DUP1 SLOAD PUSH2 0x5FD SWAP1 PUSH2 0xDC5 JUMP JUMPDEST DUP1 PUSH1 0x1F ADD PUSH1 0x20 DUP1 SWAP2 DIV MUL PUSH1 0x20 ADD PUSH1 0x40 MLOAD SWAP1 DUP2 ADD PUSH1 0x40 MSTORE DUP1 SWAP3 SWAP2 SWAP1 DUP2 DUP2 MSTORE PUSH1 0x20 ADD DUP3 DUP1 SLOAD PUSH2 0x629 SWAP1 PUSH2 0xDC5 JUMP JUMPDEST DUP1 ISZERO PUSH2 0x674 JUMPI DUP1 PUSH1 0x1F LT PUSH2 0x64B JUMPI PUSH2 0x100 DUP1 DUP4 SLOAD DIV MUL DUP4 MSTORE SWAP2 PUSH1 0x20 ADD SWAP2 PUSH2 0x674 JUMP JUMPDEST DUP3 ADD SWAP2 SWAP1 PUSH0 MSTORE PUSH1 0x20 PUSH0 KECCAK256 SWAP1 JUMPDEST DUP2 SLOAD DUP2 MSTORE SWAP1 PUSH1 0x1 ADD SWAP1 PUSH1 0x20 ADD DUP1 DUP4 GT PUSH2 0x657 JUMPI DUP3 SWAP1 SUB PUSH1 0x1F AND DUP3 ADD SWAP2 JUMPDEST POP POP POP POP POP SWAP1 POP DUP3 JUMP JUMPDEST PUSH1 0x1 PUSH0 DUP3 DUP2 MSTORE PUSH1 0x20 ADD SWAP1 DUP2 MSTORE PUSH1 0x20 ADD PUSH0 KECCAK256 PUSH0 DUP1 DUP3 ADD PUSH0 PUSH2 0x69E SWAP2 SWAP1 PUSH2 0x813 JUMP JUMPDEST PUSH1 0x1 DUP3 ADD PUSH0 PUSH2 0x6AD SWAP2 SWAP1 PUSH2 0x813 JUMP JUMPDEST POP POP POP JUMP JUMPDEST PUSH0 DUP1 SLOAD SWAP1 PUSH2 0x100 EXP SWAP1 DIV PUSH20 0xFFFFFFFFFFFFFFFFFFFFFFFFFFFFFFFFFFFFFFFF AND PUSH20 0xFFFFFFFFFFFFFFFFFFFFFFFFFFFFFFFFFFFFFFFF AND CALLER PUSH20 0xFFFFFFFFFFFFFFFFFFFFFFFFFFFFFFFFFFFFFFFF AND EQ PUSH2 0x73F JUMPI PUSH1 0x40 MLOAD PUSH32 0x8C379A000000000000000000000000000000000000000000000000000000000 DUP2 MSTORE PUSH1 0x4 ADD PUSH2 0x736 SWAP1 PUSH2 0xFCC JUMP JUMPDEST PUSH1 0x40 MLOAD DUP1 SWAP2 SUB SWAP1 REVERT JUMPDEST PUSH1 0x40 MLOAD DUP1 PUSH1 0x40 ADD PUSH1 0x40 MSTORE DUP1 DUP4 DUP2 MSTORE PUSH1 0x20 ADD DUP3 DUP2 MSTORE POP PUSH1 0x1 PUSH0 PUSH1 0x2 SLOAD DUP2 MSTORE PUSH1 0x20 ADD SWAP1 DUP2 MSTORE PUSH1 0x20 ADD PUSH0 KECCAK256 PUSH0 DUP3 ADD MLOAD DUP2 PUSH0 ADD SWAP1 DUP2 PUSH2 0x77A SWAP2 SWAP1 PUSH2 0x1175 JUMP JUMPDEST POP PUSH1 0x20 DUP3 ADD MLOAD DUP2 PUSH1 0x1 ADD SWAP1 DUP2 PUSH2 0x790 SWAP2 SWAP1 PUSH2 0x1175 JUMP JUMPDEST POP SWAP1 POP POP PUSH1 0x1 PUSH1 0x2 PUSH0 DUP3 DUP3 SLOAD PUSH2 0x7A6 SWAP2 SWAP1 PUSH2 0x1271 JUMP JUMPDEST SWAP3 POP POP DUP2 SWAP1 SSTORE POP POP POP JUMP JUMPDEST DUP1 PUSH1 0x1 PUSH0 DUP5 DUP2 MSTORE PUSH1 0x20 ADD SWAP1 DUP2 MSTORE PUSH1 0x20 ADD PUSH0 KECCAK256 PUSH0 ADD SWAP1 DUP2 PUSH2 0x7D1 SWAP2 SWAP1 PUSH2 0x1175 JUMP JUMPDEST POP POP POP JUMP JUMPDEST PUSH0 DUP1 SLOAD SWAP1 PUSH2 0x100 EXP SWAP1 DIV PUSH20 0xFFFFFFFFFFFFFFFFFFFFFFFFFFFFFFFFFFFFFFFF AND DUP2 JUMP JUMPDEST PUSH1 0x40 MLOAD DUP1 PUSH1 0x40 ADD PUSH1 0x40 MSTORE DUP1 PUSH1 0x60 DUP2 MSTORE PUSH1 0x20 ADD PUSH1 0x60 DUP2 MSTORE POP SWAP1 JUMP JUMPDEST POP DUP1 SLOAD PUSH2 0x81F SWAP1 PUSH2 0xDC5 JUMP JUMPDEST PUSH0 DUP3 SSTORE DUP1 PUSH1 0x1F LT PUSH2 0x830 JUMPI POP PUSH2 0x84D JUMP JUMPDEST PUSH1 0x1F ADD PUSH1 0x20 SWAP1 DIV SWAP1 PUSH0 MSTORE PUSH1 0x20 PUSH0 KECCAK256 SWAP1 DUP2 ADD SWAP1 PUSH2 0x84C SWAP2 SWAP1 PUSH2 0x850 JUMP JUMPDEST JUMPDEST POP JUMP JUMPDEST JUMPDEST DUP1 DUP3 GT ISZERO PUSH2 0x867 JUMPI PUSH0 DUP2 PUSH0 SWAP1 SSTORE POP PUSH1 0x1 ADD PUSH2 0x851 JUMP JUMPDEST POP SWAP1 JUMP JUMPDEST PUSH0 DUP2 MLOAD SWAP1 POP SWAP2 SWAP1 POP JUMP JUMPDEST PUSH0 DUP3 DUP3 MSTORE PUSH1 0x20 DUP3 ADD SWAP1 POP SWAP3 SWAP2 POP POP JUMP JUMPDEST PUSH0 DUP2 SWAP1 POP PUSH1 0x20 DUP3 ADD SWAP1 POP SWAP2 SWAP1 POP JUMP JUMPDEST PUSH0 DUP2 MLOAD SWAP1 POP SWAP2 SWAP1 POP JUMP JUMPDEST PUSH0 DUP3 DUP3 MSTORE PUSH1 0x20 DUP3 ADD SWAP1 POP SWAP3 SWAP2 POP POP JUMP JUMPDEST PUSH0 JUMPDEST DUP4 DUP2 LT ISZERO PUSH2 0x8CB JUMPI DUP1 DUP3 ADD MLOAD DUP2 DUP5 ADD MSTORE PUSH1 0x20 DUP2 ADD SWAP1 POP PUSH2 0x8B0 JUMP JUMPDEST PUSH0 DUP5 DUP5 ADD MSTORE POP POP POP POP JUMP JUMPDEST PUSH0 PUSH1 0x1F NOT PUSH1 0x1F DUP4 ADD AND SWAP1 POP SWAP2 SWAP1 POP JUMP JUMPDEST PUSH0 PUSH2 0x8F0 DUP3 PUSH2 0x894 JUMP JUMPDEST PUSH2 0x8FA DUP2 DUP6 PUSH2 0x89E JUMP JUMPDEST SWAP4 POP PUSH2 0x90A DUP2 DUP6 PUSH1 0x20 DUP7 ADD PUSH2 0x8AE JUMP JUMPDEST PUSH2 0x913 DUP2 PUSH2 0x8D6 JUMP JUMPDEST DUP5 ADD SWAP2 POP POP SWAP3 SWAP2 POP POP JUMP JUMPDEST PUSH0 PUSH1 0x40 DUP4 ADD PUSH0 DUP4 ADD MLOAD DUP5 DUP3 SUB PUSH0 DUP7 ADD MSTORE PUSH2 0x938 DUP3 DUP3 PUSH2 0x8E6 JUMP JUMPDEST SWAP2 POP POP PUSH1 0x20 DUP4 ADD MLOAD DUP5 DUP3 SUB PUSH1 0x20 DUP7 ADD MSTORE PUSH2 0x952 DUP3 DUP3 PUSH2 0x8E6 JUMP JUMPDEST SWAP2 POP POP DUP1 SWAP2 POP POP SWAP3 SWAP2 POP POP JUMP JUMPDEST PUSH0 PUSH2 0x96A DUP4 DUP4 PUSH2 0x91E JUMP JUMPDEST SWAP1 POP SWAP3 SWAP2 POP POP JUMP JUMPDEST PUSH0 PUSH1 0x20 DUP3 ADD SWAP1 POP SWAP2 SWAP1 POP JUMP JUMPDEST PUSH0 PUSH2 0x988 DUP3 PUSH2 0x86B JUMP JUMPDEST PUSH2 0x992 DUP2 DUP6 PUSH2 0x875 JUMP JUMPDEST SWAP4 POP DUP4 PUSH1 0x20 DUP3 MUL DUP6 ADD PUSH2 0x9A4 DUP6 PUSH2 0x885 JUMP JUMPDEST DUP1 PUSH0 JUMPDEST DUP6 DUP2 LT ISZERO PUSH2 0x9DF JUMPI DUP5 DUP5 SUB DUP10 MSTORE DUP2 MLOAD PUSH2 0x9C0 DUP6 DUP3 PUSH2 0x95F JUMP JUMPDEST SWAP5 POP PUSH2 0x9CB DUP4 PUSH2 0x972 JUMP JUMPDEST SWAP3 POP PUSH1 0x20 DUP11 ADD SWAP10 POP POP PUSH1 0x1 DUP2 ADD SWAP1 POP PUSH2 0x9A7 JUMP JUMPDEST POP DUP3 SWAP8 POP DUP8 SWAP6 POP POP POP POP POP POP SWAP3 SWAP2 POP POP JUMP JUMPDEST PUSH0 PUSH1 0x20 DUP3 ADD SWAP1 POP DUP2 DUP2 SUB PUSH0 DUP4 ADD MSTORE PUSH2 0xA09 DUP2 DUP5 PUSH2 0x97E JUMP JUMPDEST SWAP1 POP SWAP3 SWAP2 POP POP JUMP JUMPDEST PUSH0 PUSH1 0x40 MLOAD SWAP1 POP SWAP1 JUMP JUMPDEST PUSH0 DUP1 REVERT JUMPDEST PUSH0 DUP1 REVERT JUMPDEST PUSH0 DUP1 REVERT JUMPDEST PUSH0 DUP1 REVERT JUMPDEST PUSH32 0x4E487B7100000000000000000000000000000000000000000000000000000000 PUSH0 MSTORE PUSH1 0x41 PUSH1 0x4 MSTORE PUSH1 0x24 PUSH0 REVERT JUMPDEST PUSH2 0xA60 DUP3 PUSH2 0x8D6 JUMP JUMPDEST DUP2 ADD DUP2 DUP2 LT PUSH8 0xFFFFFFFFFFFFFFFF DUP3 GT OR ISZERO PUSH2 0xA7F JUMPI PUSH2 0xA7E PUSH2 0xA2A JUMP JUMPDEST JUMPDEST DUP1 PUSH1 0x40 MSTORE POP POP POP JUMP JUMPDEST PUSH0 PUSH2 0xA91 PUSH2 0xA11 JUMP JUMPDEST SWAP1 POP PUSH2 0xA9D DUP3 DUP3 PUSH2 0xA57 JUMP JUMPDEST SWAP2 SWAP1 POP JUMP JUMPDEST PUSH0 PUSH8 0xFFFFFFFFFFFFFFFF DUP3 GT ISZERO PUSH2 0xABC JUMPI PUSH2 0xABB PUSH2 0xA2A JUMP JUMPDEST JUMPDEST PUSH2 0xAC5 DUP3 PUSH2 0x8D6 JUMP JUMPDEST SWAP1 POP PUSH1 0x20 DUP2 ADD SWAP1 POP SWAP2 SWAP1 POP JUMP JUMPDEST DUP3 DUP2 DUP4 CALLDATACOPY PUSH0 DUP4 DUP4 ADD MSTORE POP POP POP JUMP JUMPDEST PUSH0 PUSH2 0xAF2 PUSH2 0xAED DUP5 PUSH2 0xAA2 JUMP JUMPDEST PUSH2 0xA88 JUMP JUMPDEST SWAP1 POP DUP3 DUP2 MSTORE PUSH1 0x20 DUP2 ADD DUP5 DUP5 DUP5 ADD GT ISZERO PUSH2 0xB0E JUMPI PUSH2 0xB0D PUSH2 0xA26 JUMP JUMPDEST JUMPDEST PUSH2 0xB19 DUP5 DUP3 DUP6 PUSH2 0xAD2 JUMP JUMPDEST POP SWAP4 SWAP3 POP POP POP JUMP JUMPDEST PUSH0 DUP3 PUSH1 0x1F DUP4 ADD SLT PUSH2 0xB35 JUMPI PUSH2 0xB34 PUSH2 0xA22 JUMP JUMPDEST JUMPDEST DUP2 CALLDATALOAD PUSH2 0xB45 DUP5 DUP3 PUSH1 0x20 DUP7 ADD PUSH2 0xAE0 JUMP JUMPDEST SWAP2 POP POP SWAP3 SWAP2 POP POP JUMP JUMPDEST PUSH0 PUSH1 0x20 DUP3 DUP5 SUB SLT ISZERO PUSH2 0xB63 JUMPI PUSH2 0xB62 PUSH2 0xA1A JUMP JUMPDEST JUMPDEST PUSH0 DUP3 ADD CALLDATALOAD PUSH8 0xFFFFFFFFFFFFFFFF DUP2 GT ISZERO PUSH2 0xB80 JUMPI PUSH2 0xB7F PUSH2 0xA1E JUMP JUMPDEST JUMPDEST PUSH2 0xB8C DUP5 DUP3 DUP6 ADD PUSH2 0xB21 JUMP JUMPDEST SWAP2 POP POP SWAP3 SWAP2 POP POP JUMP JUMPDEST PUSH0 DUP3 DUP3 MSTORE PUSH1 0x20 DUP3 ADD SWAP1 POP SWAP3 SWAP2 POP POP JUMP JUMPDEST PUSH0 PUSH2 0xBAF DUP3 PUSH2 0x894 JUMP JUMPDEST PUSH2 0xBB9 DUP2 DUP6 PUSH2 0xB95 JUMP JUMPDEST SWAP4 POP PUSH2 0xBC9 DUP2 DUP6 PUSH1 0x20 DUP7 ADD PUSH2 0x8AE JUMP JUMPDEST PUSH2 0xBD2 DUP2 PUSH2 0x8D6 JUMP JUMPDEST DUP5 ADD SWAP2 POP POP SWAP3 SWAP2 POP POP JUMP JUMPDEST PUSH0 PUSH1 0x40 DUP3 ADD SWAP1 POP DUP2 DUP2 SUB PUSH0 DUP4 ADD MSTORE PUSH2 0xBF5 DUP2 DUP6 PUSH2 0xBA5 JUMP JUMPDEST SWAP1 POP DUP2 DUP2 SUB PUSH1 0x20 DUP4 ADD MSTORE PUSH2 0xC09 DUP2 DUP5 PUSH2 0xBA5 JUMP JUMPDEST SWAP1 POP SWAP4 SWAP3 POP POP POP JUMP JUMPDEST PUSH0 DUP2 SWAP1 POP SWAP2 SWAP1 POP JUMP JUMPDEST PUSH2 0xC24 DUP2 PUSH2 0xC12 JUMP JUMPDEST DUP2 EQ PUSH2 0xC2E JUMPI PUSH0 DUP1 REVERT JUMPDEST POP JUMP JUMPDEST PUSH0 DUP2 CALLDATALOAD SWAP1 POP PUSH2 0xC3F DUP2 PUSH2 0xC1B JUMP JUMPDEST SWAP3 SWAP2 POP POP JUMP JUMPDEST PUSH0 PUSH1 0x20 DUP3 DUP5 SUB SLT ISZERO PUSH2 0xC5A JUMPI PUSH2 0xC59 PUSH2 0xA1A JUMP JUMPDEST JUMPDEST PUSH0 PUSH2 0xC67 DUP5 DUP3 DUP6 ADD PUSH2 0xC31 JUMP JUMPDEST SWAP2 POP POP SWAP3 SWAP2 POP POP JUMP JUMPDEST PUSH0 DUP1 PUSH1 0x40 DUP4 DUP6 SUB SLT ISZERO PUSH2 0xC86 JUMPI PUSH2 0xC85 PUSH2 0xA1A JUMP JUMPDEST JUMPDEST PUSH0 DUP4 ADD CALLDATALOAD PUSH8 0xFFFFFFFFFFFFFFFF DUP2 GT ISZERO PUSH2 0xCA3 JUMPI PUSH2 0xCA2 PUSH2 0xA1E JUMP JUMPDEST JUMPDEST PUSH2 0xCAF DUP6 DUP3 DUP7 ADD PUSH2 0xB21 JUMP JUMPDEST SWAP3 POP POP PUSH1 0x20 DUP4 ADD CALLDATALOAD PUSH8 0xFFFFFFFFFFFFFFFF DUP2 GT ISZERO PUSH2 0xCD0 JUMPI PUSH2 0xCCF PUSH2 0xA1E JUMP JUMPDEST JUMPDEST PUSH2 0xCDC DUP6 DUP3 DUP7 ADD PUSH2 0xB21 JUMP JUMPDEST SWAP2 POP POP SWAP3 POP SWAP3 SWAP1 POP JUMP JUMPDEST PUSH0 DUP1 PUSH1 0x40 DUP4 DUP6 SUB SLT ISZERO PUSH2 0xCFC JUMPI PUSH2 0xCFB PUSH2 0xA1A JUMP JUMPDEST JUMPDEST PUSH0 PUSH2 0xD09 DUP6 DUP3 DUP7 ADD PUSH2 0xC31 JUMP JUMPDEST SWAP3 POP POP PUSH1 0x20 DUP4 ADD CALLDATALOAD PUSH8 0xFFFFFFFFFFFFFFFF DUP2 GT ISZERO PUSH2 0xD2A JUMPI PUSH2 0xD29 PUSH2 0xA1E JUMP JUMPDEST JUMPDEST PUSH2 0xD36 DUP6 DUP3 DUP7 ADD PUSH2 0xB21 JUMP JUMPDEST SWAP2 POP POP SWAP3 POP SWAP3 SWAP1 POP JUMP JUMPDEST PUSH0 PUSH20 0xFFFFFFFFFFFFFFFFFFFFFFFFFFFFFFFFFFFFFFFF DUP3 AND SWAP1 POP SWAP2 SWAP1 POP JUMP JUMPDEST PUSH0 PUSH2 0xD69 DUP3 PUSH2 0xD40 JUMP JUMPDEST SWAP1 POP SWAP2 SWAP1 POP JUMP JUMPDEST PUSH2 0xD79 DUP2 PUSH2 0xD5F JUMP JUMPDEST DUP3 MSTORE POP POP JUMP JUMPDEST PUSH0 PUSH1 0x20 DUP3 ADD SWAP1 POP PUSH2 0xD92 PUSH0 DUP4 ADD DUP5 PUSH2 0xD70 JUMP JUMPDEST SWAP3 SWAP2 POP POP JUMP JUMPDEST PUSH32 0x4E487B7100000000000000000000000000000000000000000000000000000000 PUSH0 MSTORE PUSH1 0x22 PUSH1 0x4 MSTORE PUSH1 0x24 PUSH0 REVERT JUMPDEST PUSH0 PUSH1 0x2 DUP3 DIV SWAP1 POP PUSH1 0x1 DUP3 AND DUP1 PUSH2 0xDDC JUMPI PUSH1 0x7F DUP3 AND SWAP2 POP JUMPDEST PUSH1 0x20 DUP3 LT DUP2 SUB PUSH2 0xDEF JUMPI PUSH2 0xDEE PUSH2 0xD98 JUMP JUMPDEST JUMPDEST POP SWAP2 SWAP1 POP JUMP JUMPDEST PUSH32 0x4E487B7100000000000000000000000000000000000000000000000000000000 PUSH0 MSTORE PUSH1 0x32 PUSH1 0x4 MSTORE PUSH1 0x24 PUSH0 REVERT JUMPDEST PUSH0 DUP2 SWAP1 POP SWAP3 SWAP2 POP POP JUMP JUMPDEST PUSH0 PUSH2 0xE36 DUP3 PUSH2 0x894 JUMP JUMPDEST PUSH2 0xE40 DUP2 DUP6 PUSH2 0xE22 JUMP JUMPDEST SWAP4 POP PUSH2 0xE50 DUP2 DUP6 PUSH1 0x20 DUP7 ADD PUSH2 0x8AE JUMP JUMPDEST DUP1 DUP5 ADD SWAP2 POP POP SWAP3 SWAP2 POP POP JUMP JUMPDEST PUSH0 PUSH2 0xE67 DUP3 DUP5 PUSH2 0xE2C JUMP JUMPDEST SWAP2 POP DUP2 SWAP1 POP SWAP3 SWAP2 POP POP JUMP JUMPDEST PUSH0 DUP2 SWAP1 POP DUP2 PUSH0 MSTORE PUSH1 0x20 PUSH0 KECCAK256 SWAP1 POP SWAP2 SWAP1 POP JUMP JUMPDEST PUSH0 DUP2 SLOAD PUSH2 0xE90 DUP2 PUSH2 0xDC5 JUMP JUMPDEST PUSH2 0xE9A DUP2 DUP7 PUSH2 0xE22 JUMP JUMPDEST SWAP5 POP PUSH1 0x1 DUP3 AND PUSH0 DUP2 EQ PUSH2 0xEB4 JUMPI PUSH1 0x1 DUP2 EQ PUSH2 0xEC9 JUMPI PUSH2 0xEFB JUMP JUMPDEST PUSH1 0xFF NOT DUP4 AND DUP7 MSTORE DUP2 ISZERO ISZERO DUP3 MUL DUP7 ADD SWAP4 POP PUSH2 0xEFB JUMP JUMPDEST PUSH2 0xED2 DUP6 PUSH2 0xE72 JUMP JUMPDEST PUSH0 JUMPDEST DUP4 DUP2 LT ISZERO PUSH2 0xEF3 JUMPI DUP2 SLOAD DUP2 DUP10 ADD MSTORE PUSH1 0x1 DUP3 ADD SWAP2 POP PUSH1 0x20 DUP2 ADD SWAP1 POP PUSH2 0xED4 JUMP JUMPDEST DUP4 DUP9 ADD SWAP6 POP POP POP JUMPDEST POP POP POP SWAP3 SWAP2 POP POP JUMP JUMPDEST PUSH0 PUSH2 0xF0F DUP3 DUP5 PUSH2 0xE84 JUMP JUMPDEST SWAP2 POP DUP2 SWAP1 POP SWAP3 SWAP2 POP POP JUMP JUMPDEST PUSH32 0x556E61626C6520746F2066696E64207573657221000000000000000000000000 PUSH0 DUP3 ADD MSTORE POP JUMP JUMPDEST PUSH0 PUSH2 0xF4E PUSH1 0x14 DUP4 PUSH2 0xB95 JUMP JUMPDEST SWAP2 POP PUSH2 0xF59 DUP3 PUSH2 0xF1A JUMP JUMPDEST PUSH1 0x20 DUP3 ADD SWAP1 POP SWAP2 SWAP1 POP JUMP JUMPDEST PUSH0 PUSH1 0x20 DUP3 ADD SWAP1 POP DUP2 DUP2 SUB PUSH0 DUP4 ADD MSTORE PUSH2 0xF7B DUP2 PUSH2 0xF42 JUMP JUMPDEST SWAP1 POP SWAP2 SWAP1 POP JUMP JUMPDEST PUSH32 0x596F75206E65656420746F20626520616E2061646D696E210000000000000000 PUSH0 DUP3 ADD MSTORE POP JUMP JUMPDEST PUSH0 PUSH2 0xFB6 PUSH1 0x18 DUP4 PUSH2 0xB95 JUMP JUMPDEST SWAP2 POP PUSH2 0xFC1 DUP3 PUSH2 0xF82 JUMP JUMPDEST PUSH1 0x20 DUP3 ADD SWAP1 POP SWAP2 SWAP1 POP JUMP JUMPDEST PUSH0 PUSH1 0x20 DUP3 ADD SWAP1 POP DUP2 DUP2 SUB PUSH0 DUP4 ADD MSTORE PUSH2 0xFE3 DUP2 PUSH2 0xFAA JUMP JUMPDEST SWAP1 POP SWAP2 SWAP1 POP JUMP JUMPDEST PUSH0 PUSH1 0x20 PUSH1 0x1F DUP4 ADD DIV SWAP1 POP SWAP2 SWAP1 POP JUMP JUMPDEST PUSH0 DUP3 DUP3 SHL SWAP1 POP SWAP3 SWAP2 POP POP JUMP JUMPDEST PUSH0 PUSH1 0x8 DUP4 MUL PUSH2 0x1034 PUSH32 0xFFFFFFFFFFFFFFFFFFFFFFFFFFFFFFFFFFFFFFFFFFFFFFFFFFFFFFFFFFFFFFFF DUP3 PUSH2 0xFF9 JUMP JUMPDEST PUSH2 0x103E DUP7 DUP4 PUSH2 0xFF9 JUMP JUMPDEST SWAP6 POP DUP1 NOT DUP5 AND SWAP4 POP DUP1 DUP7 AND DUP5 OR SWAP3 POP POP POP SWAP4 SWAP3 POP POP POP JUMP JUMPDEST PUSH0 DUP2 SWAP1 POP SWAP2 SWAP1 POP JUMP JUMPDEST PUSH0 PUSH2 0x1079 PUSH2 0x1074 PUSH2 0x106F DUP5 PUSH2 0xC12 JUMP JUMPDEST PUSH2 0x1056 JUMP JUMPDEST PUSH2 0xC12 JUMP JUMPDEST SWAP1 POP SWAP2 SWAP1 POP JUMP JUMPDEST PUSH0 DUP2 SWAP1 POP SWAP2 SWAP1 POP JUMP JUMPDEST PUSH2 0x1092 DUP4 PUSH2 0x105F JUMP JUMPDEST PUSH2 0x10A6 PUSH2 0x109E DUP3 PUSH2 0x1080 JUMP JUMPDEST DUP5 DUP5 SLOAD PUSH2 0x1005 JUMP JUMPDEST DUP3 SSTORE POP POP POP POP JUMP JUMPDEST PUSH0 SWAP1 JUMP JUMPDEST PUSH2 0x10BA PUSH2 0x10AE JUMP JUMPDEST PUSH2 0x10C5 DUP2 DUP5 DUP5 PUSH2 0x1089 JUMP JUMPDEST POP POP POP JUMP JUMPDEST JUMPDEST DUP2 DUP2 LT ISZERO PUSH2 0x10E8 JUMPI PUSH2 0x10DD PUSH0 DUP3 PUSH2 0x10B2 JUMP JUMPDEST PUSH1 0x1 DUP2 ADD SWAP1 POP PUSH2 0x10CB JUMP JUMPDEST POP POP JUMP JUMPDEST PUSH1 0x1F DUP3 GT ISZERO PUSH2 0x112D JUMPI PUSH2 0x10FE DUP2 PUSH2 0xE72 JUMP JUMPDEST PUSH2 0x1107 DUP5 PUSH2 0xFEA JUMP JUMPDEST DUP2 ADD PUSH1 0x20 DUP6 LT ISZERO PUSH2 0x1116 JUMPI DUP2 SWAP1 POP JUMPDEST PUSH2 0x112A PUSH2 0x1122 DUP6 PUSH2 0xFEA JUMP JUMPDEST DUP4 ADD DUP3 PUSH2 0x10CA JUMP JUMPDEST POP POP JUMPDEST POP POP POP JUMP JUMPDEST PUSH0 DUP3 DUP3 SHR SWAP1 POP SWAP3 SWAP2 POP POP JUMP JUMPDEST PUSH0 PUSH2 0x114D PUSH0 NOT DUP5 PUSH1 0x8 MUL PUSH2 0x1132 JUMP JUMPDEST NOT DUP1 DUP4 AND SWAP2 POP POP SWAP3 SWAP2 POP POP JUMP JUMPDEST PUSH0 PUSH2 0x1165 DUP4 DUP4 PUSH2 0x113E JUMP JUMPDEST SWAP2 POP DUP3 PUSH1 0x2 MUL DUP3 OR SWAP1 POP SWAP3 SWAP2 POP POP JUMP JUMPDEST PUSH2 0x117E DUP3 PUSH2 0x894 JUMP JUMPDEST PUSH8 0xFFFFFFFFFFFFFFFF DUP2 GT ISZERO PUSH2 0x1197 JUMPI PUSH2 0x1196 PUSH2 0xA2A JUMP JUMPDEST JUMPDEST PUSH2 0x11A1 DUP3 SLOAD PUSH2 0xDC5 JUMP JUMPDEST PUSH2 0x11AC DUP3 DUP3 DUP6 PUSH2 0x10EC JUMP JUMPDEST PUSH0 PUSH1 0x20 SWAP1 POP PUSH1 0x1F DUP4 GT PUSH1 0x1 DUP2 EQ PUSH2 0x11DD JUMPI PUSH0 DUP5 ISZERO PUSH2 0x11CB JUMPI DUP3 DUP8 ADD MLOAD SWAP1 POP JUMPDEST PUSH2 0x11D5 DUP6 DUP3 PUSH2 0x115A JUMP JUMPDEST DUP7 SSTORE POP PUSH2 0x123C JUMP JUMPDEST PUSH1 0x1F NOT DUP5 AND PUSH2 0x11EB DUP7 PUSH2 0xE72 JUMP JUMPDEST PUSH0 JUMPDEST DUP3 DUP2 LT ISZERO PUSH2 0x1212 JUMPI DUP5 DUP10 ADD MLOAD DUP3 SSTORE PUSH1 0x1 DUP3 ADD SWAP2 POP PUSH1 0x20 DUP6 ADD SWAP5 POP PUSH1 0x20 DUP2 ADD SWAP1 POP PUSH2 0x11ED JUMP JUMPDEST DUP7 DUP4 LT ISZERO PUSH2 0x122F JUMPI DUP5 DUP10 ADD MLOAD PUSH2 0x122B PUSH1 0x1F DUP10 AND DUP3 PUSH2 0x113E JUMP JUMPDEST DUP4 SSTORE POP JUMPDEST PUSH1 0x1 PUSH1 0x2 DUP9 MUL ADD DUP9 SSTORE POP POP POP JUMPDEST POP POP POP POP POP POP JUMP JUMPDEST PUSH32 0x4E487B7100000000000000000000000000000000000000000000000000000000 PUSH0 MSTORE PUSH1 0x11 PUSH1 0x4 MSTORE PUSH1 0x24 PUSH0 REVERT JUMPDEST PUSH0 PUSH2 0x127B DUP3 PUSH2 0xC12 JUMP JUMPDEST SWAP2 POP PUSH2 0x1286 DUP4 PUSH2 0xC12 JUMP JUMPDEST SWAP3 POP DUP3 DUP3 ADD SWAP1 POP DUP1 DUP3 GT ISZERO PUSH2 0x129E JUMPI PUSH2 0x129D PUSH2 0x1244 JUMP JUMPDEST JUMPDEST SWAP3 SWAP2 POP POP JUMP INVALID LOG2 PUSH5 0x6970667358 0x22 SLT KECCAK256 0xA7 EXTCODEHASH 0xCD BLOCKHASH 0xA6 0x2B 0x4E POP 0xBD CODESIZE SWAP9 LT 0xDA 0x2D PUSH5 0x643AECEA30 0xF6 RETURNDATASIZE MSTORE8 SWAP15 0x4B 0xCA PUSH2 0x44E5 ADDRESS 0x4B 0xD3 PUSH5 0x736F6C6343 STOP ADDMOD XOR STOP CALLER "
				},
				"gasEstimates": {
					"creation": {
						"codeDepositCost": "965200",
						"executionCost": "30269",
						"totalCost": "995469"
					},
					"external": {
						"admin()": "2571",
						"createUser(string,string)": "infinite",
						"deleteUser(uint256)": "infinite",
						"findUser(string)": "infinite",
						"getUsers()": "infinite",
						"updateUserName(uint256,string)": "infinite",
						"users(uint256)": "infinite"
					}
				},
				"methodIdentifiers": {
					"admin()": "f851a440",
					"createUser(string,string)": "87b162b5",
					"deleteUser(uint256)": "38f14845",
					"findUser(string)": "2006b1c2",
					"getUsers()": "00ce8e3e",
					"updateUserName(uint256,string)": "a1c57ee6",
					"users(uint256)": "365b98b2"
				}
			},
			"storageLayout": {
				"storage": [
					{
						"astId": 3,
						"contract": "contracts/TCCFORUM.sol:TCCFORUM",
						"label": "admin",
						"offset": 0,
						"slot": "0",
						"type": "t_address"
					},
					{
						"astId": 13,
						"contract": "contracts/TCCFORUM.sol:TCCFORUM",
						"label": "users",
						"offset": 0,
						"slot": "1",
						"type": "t_mapping(t_uint256,t_struct(User)8_storage)"
					},
					{
						"astId": 16,
						"contract": "contracts/TCCFORUM.sol:TCCFORUM",
						"label": "count",
						"offset": 0,
						"slot": "2",
						"type": "t_uint256"
					}
				],
				"types": {
					"t_address": {
						"encoding": "inplace",
						"label": "address",
						"numberOfBytes": "20"
					},
					"t_mapping(t_uint256,t_struct(User)8_storage)": {
						"encoding": "mapping",
						"key": "t_uint256",
						"label": "mapping(uint256 => struct TCCFORUM.User)",
						"numberOfBytes": "32",
						"value": "t_struct(User)8_storage"
					},
					"t_string_storage": {
						"encoding": "bytes",
						"label": "string",
						"numberOfBytes": "32"
					},
					"t_struct(User)8_storage": {
						"encoding": "inplace",
						"label": "struct TCCFORUM.User",
						"members": [
							{
								"astId": 5,
								"contract": "contracts/TCCFORUM.sol:TCCFORUM",
								"label": "userName",
								"offset": 0,
								"slot": "0",
								"type": "t_string_storage"
							},
							{
								"astId": 7,
								"contract": "contracts/TCCFORUM.sol:TCCFORUM",
								"label": "fullName",
								"offset": 0,
								"slot": "1",
								"type": "t_string_storage"
							}
						],
						"numberOfBytes": "64"
					},
					"t_uint256": {
						"encoding": "inplace",
						"label": "uint256",
						"numberOfBytes": "32"
					}
				}
			},
			"userdoc": {
				"kind": "user",
				"methods": {},
				"version": 1
			}
		}
	}
}